{
  "_format": "hh-sol-artifact-1",
  "contractName": "HILO",
  "sourceName": "contracts/HILO.sol",
  "abi": [
    {
      "inputs": [
        {
          "internalType": "uint256",
          "name": "_initialHi",
          "type": "uint256"
        },
        {
          "internalType": "uint256",
          "name": "_initialLo",
          "type": "uint256"
        },
        {
          "internalType": "uint256",
          "name": "_buyRequiredCount",
          "type": "uint256"
        },
        {
          "internalType": "uint256",
          "name": "_jackpot",
          "type": "uint256"
        }
      ],
      "stateMutability": "nonpayable",
      "type": "constructor"
    },
    {
      "anonymous": false,
      "inputs": [
        {
          "indexed": false,
          "internalType": "address",
          "name": "player",
          "type": "address"
        },
        {
          "indexed": false,
          "internalType": "uint256",
          "name": "tokenId",
          "type": "uint256"
        },
        {
          "indexed": false,
          "internalType": "uint256",
          "name": "price",
          "type": "uint256"
        }
      ],
      "name": "ActionAdded",
      "type": "event"
    },
    {
      "anonymous": false,
      "inputs": [
        {
          "indexed": false,
          "internalType": "address",
          "name": "player",
          "type": "address"
        },
        {
          "indexed": false,
          "internalType": "uint256",
          "name": "tokenId",
          "type": "uint256"
        },
        {
          "indexed": false,
          "internalType": "uint256",
          "name": "position",
          "type": "uint256"
        }
      ],
      "name": "AddedToQueue",
      "type": "event"
    },
    {
      "anonymous": false,
      "inputs": [
        {
          "indexed": true,
          "internalType": "address",
          "name": "account",
          "type": "address"
        },
        {
          "indexed": true,
          "internalType": "address",
          "name": "operator",
          "type": "address"
        },
        {
          "indexed": false,
          "internalType": "bool",
          "name": "approved",
          "type": "bool"
        }
      ],
      "name": "ApprovalForAll",
      "type": "event"
    },
    {
      "anonymous": false,
      "inputs": [
        {
          "indexed": false,
          "internalType": "uint256",
          "name": "newHiPrice",
          "type": "uint256"
        }
      ],
      "name": "HiDecreased",
      "type": "event"
    },
    {
      "anonymous": false,
      "inputs": [
        {
          "indexed": false,
          "internalType": "address",
          "name": "player",
          "type": "address"
        },
        {
          "indexed": false,
          "internalType": "uint256",
          "name": "amount",
          "type": "uint256"
        }
      ],
      "name": "JackpotPaid",
      "type": "event"
    },
    {
      "anonymous": false,
      "inputs": [
        {
          "indexed": false,
          "internalType": "uint256",
          "name": "newLoPrice",
          "type": "uint256"
        }
      ],
      "name": "LoIncreased",
      "type": "event"
    },
    {
      "anonymous": false,
      "inputs": [
        {
          "indexed": true,
          "internalType": "address",
          "name": "previousOwner",
          "type": "address"
        },
        {
          "indexed": true,
          "internalType": "address",
          "name": "newOwner",
          "type": "address"
        }
      ],
      "name": "OwnershipTransferred",
      "type": "event"
    },
    {
      "anonymous": false,
      "inputs": [
        {
          "indexed": false,
          "internalType": "address",
          "name": "account",
          "type": "address"
        }
      ],
      "name": "Paused",
      "type": "event"
    },
    {
      "anonymous": false,
      "inputs": [
        {
          "indexed": false,
          "internalType": "address",
          "name": "player",
          "type": "address"
        },
        {
          "indexed": false,
          "internalType": "uint256",
          "name": "tokenId",
          "type": "uint256"
        }
      ],
      "name": "PriceUpdated",
      "type": "event"
    },
    {
      "anonymous": false,
      "inputs": [
        {
          "indexed": false,
          "internalType": "address[]",
          "name": "winners",
          "type": "address[]"
        },
        {
          "indexed": false,
          "internalType": "uint256",
          "name": "price",
          "type": "uint256"
        }
      ],
      "name": "PricesConverged",
      "type": "event"
    },
    {
      "anonymous": false,
      "inputs": [
        {
          "indexed": true,
          "internalType": "address",
          "name": "operator",
          "type": "address"
        },
        {
          "indexed": true,
          "internalType": "address",
          "name": "from",
          "type": "address"
        },
        {
          "indexed": true,
          "internalType": "address",
          "name": "to",
          "type": "address"
        },
        {
          "indexed": false,
          "internalType": "uint256[]",
          "name": "ids",
          "type": "uint256[]"
        },
        {
          "indexed": false,
          "internalType": "uint256[]",
          "name": "values",
          "type": "uint256[]"
        }
      ],
      "name": "TransferBatch",
      "type": "event"
    },
    {
      "anonymous": false,
      "inputs": [
        {
          "indexed": true,
          "internalType": "address",
          "name": "operator",
          "type": "address"
        },
        {
          "indexed": true,
          "internalType": "address",
          "name": "from",
          "type": "address"
        },
        {
          "indexed": true,
          "internalType": "address",
          "name": "to",
          "type": "address"
        },
        {
          "indexed": false,
          "internalType": "uint256",
          "name": "id",
          "type": "uint256"
        },
        {
          "indexed": false,
          "internalType": "uint256",
          "name": "value",
          "type": "uint256"
        }
      ],
      "name": "TransferSingle",
      "type": "event"
    },
    {
      "anonymous": false,
      "inputs": [
        {
          "indexed": false,
          "internalType": "string",
          "name": "value",
          "type": "string"
        },
        {
          "indexed": true,
          "internalType": "uint256",
          "name": "id",
          "type": "uint256"
        }
      ],
      "name": "URI",
      "type": "event"
    },
    {
      "anonymous": false,
      "inputs": [
        {
          "indexed": false,
          "internalType": "address",
          "name": "account",
          "type": "address"
        }
      ],
      "name": "Unpaused",
      "type": "event"
    },
    {
      "inputs": [],
      "name": "HI",
      "outputs": [
        {
          "internalType": "uint256",
          "name": "",
          "type": "uint256"
        }
      ],
      "stateMutability": "view",
      "type": "function"
    },
    {
      "inputs": [],
      "name": "LO",
      "outputs": [
        {
          "internalType": "uint256",
          "name": "",
          "type": "uint256"
        }
      ],
      "stateMutability": "view",
      "type": "function"
    },
    {
      "inputs": [
        {
          "internalType": "uint256",
          "name": "",
          "type": "uint256"
        },
        {
          "internalType": "uint256",
          "name": "",
          "type": "uint256"
        }
      ],
      "name": "actions",
      "outputs": [
        {
          "internalType": "address",
          "name": "player",
          "type": "address"
        },
        {
          "internalType": "uint256",
          "name": "tokenId",
          "type": "uint256"
        },
        {
          "internalType": "uint256",
          "name": "price",
          "type": "uint256"
        }
      ],
      "stateMutability": "view",
      "type": "function"
    },
    {
      "inputs": [
        {
          "internalType": "uint256",
          "name": "tokenId",
          "type": "uint256"
        },
        {
          "internalType": "address",
          "name": "player",
          "type": "address"
        }
      ],
      "name": "addToQueue",
      "outputs": [
        {
          "internalType": "uint256",
          "name": "",
          "type": "uint256"
        }
      ],
      "stateMutability": "nonpayable",
      "type": "function"
    },
    {
      "inputs": [
        {
          "internalType": "address",
          "name": "account",
          "type": "address"
        },
        {
          "internalType": "uint256",
          "name": "id",
          "type": "uint256"
        }
      ],
      "name": "balanceOf",
      "outputs": [
        {
          "internalType": "uint256",
          "name": "",
          "type": "uint256"
        }
      ],
      "stateMutability": "view",
      "type": "function"
    },
    {
      "inputs": [
        {
          "internalType": "address[]",
          "name": "accounts",
          "type": "address[]"
        },
        {
          "internalType": "uint256[]",
          "name": "ids",
          "type": "uint256[]"
        }
      ],
      "name": "balanceOfBatch",
      "outputs": [
        {
          "internalType": "uint256[]",
          "name": "",
          "type": "uint256[]"
        }
      ],
      "stateMutability": "view",
      "type": "function"
    },
    {
      "inputs": [
        {
          "internalType": "uint256",
          "name": "tokenId",
          "type": "uint256"
        },
        {
          "internalType": "uint256",
          "name": "amount",
          "type": "uint256"
        }
      ],
      "name": "buy",
      "outputs": [],
      "stateMutability": "nonpayable",
      "type": "function"
    },
    {
      "inputs": [
        {
          "internalType": "uint256",
          "name": "",
          "type": "uint256"
        }
      ],
      "name": "buyCounts",
      "outputs": [
        {
          "internalType": "uint256",
          "name": "",
          "type": "uint256"
        }
      ],
      "stateMutability": "view",
      "type": "function"
    },
    {
      "inputs": [],
      "name": "buyForceCount",
      "outputs": [
        {
          "internalType": "uint256",
          "name": "",
          "type": "uint256"
        }
      ],
      "stateMutability": "view",
      "type": "function"
    },
    {
      "inputs": [
        {
          "internalType": "uint256",
          "name": "",
          "type": "uint256"
        }
      ],
      "name": "buyForceCounts",
      "outputs": [
        {
          "internalType": "uint256",
          "name": "",
          "type": "uint256"
        }
      ],
      "stateMutability": "view",
      "type": "function"
    },
    {
      "inputs": [],
      "name": "buyRequiredCount",
      "outputs": [
        {
          "internalType": "uint256",
          "name": "",
          "type": "uint256"
        }
      ],
      "stateMutability": "view",
      "type": "function"
    },
    {
      "inputs": [
        {
          "internalType": "uint256",
          "name": "tokenId",
          "type": "uint256"
        }
      ],
      "name": "canSell",
      "outputs": [
        {
          "internalType": "bool",
          "name": "",
          "type": "bool"
        }
      ],
      "stateMutability": "view",
      "type": "function"
    },
    {
      "inputs": [
        {
          "internalType": "uint256",
          "name": "tokenId",
          "type": "uint256"
        },
        {
          "internalType": "address",
          "name": "player",
          "type": "address"
        }
      ],
      "name": "checkInQueue",
      "outputs": [
        {
          "internalType": "uint256",
          "name": "",
          "type": "uint256"
        }
      ],
      "stateMutability": "view",
      "type": "function"
    },
    {
      "inputs": [
        {
          "internalType": "uint256",
          "name": "id",
          "type": "uint256"
        }
      ],
      "name": "exists",
      "outputs": [
        {
          "internalType": "bool",
          "name": "",
          "type": "bool"
        }
      ],
      "stateMutability": "view",
      "type": "function"
    },
    {
      "inputs": [],
      "name": "gameWon",
      "outputs": [
        {
          "internalType": "bool",
          "name": "",
          "type": "bool"
        }
      ],
      "stateMutability": "view",
      "type": "function"
    },
    {
      "inputs": [
        {
          "internalType": "address",
          "name": "player",
          "type": "address"
        }
      ],
      "name": "getGameState",
      "outputs": [
        {
          "components": [
            {
              "internalType": "uint256",
              "name": "currentHi",
              "type": "uint256"
            },
            {
              "internalType": "uint256",
              "name": "currentLo",
              "type": "uint256"
            },
            {
              "internalType": "address[]",
              "name": "winners",
              "type": "address[]"
            },
            {
              "internalType": "uint256[3]",
              "name": "playerTotals",
              "type": "uint256[3]"
            },
            {
              "internalType": "uint256[2]",
              "name": "tokenBalances",
              "type": "uint256[2]"
            },
            {
              "internalType": "uint256",
              "name": "approvedSpend",
              "type": "uint256"
            }
          ],
          "internalType": "struct HILO.GameState",
          "name": "",
          "type": "tuple"
        }
      ],
      "stateMutability": "view",
      "type": "function"
    },
    {
      "inputs": [
        {
          "internalType": "uint256",
          "name": "tokenId",
          "type": "uint256"
        }
      ],
      "name": "getPrice",
      "outputs": [
        {
          "internalType": "uint256",
          "name": "",
          "type": "uint256"
        }
      ],
      "stateMutability": "view",
      "type": "function"
    },
    {
      "inputs": [],
      "name": "getWinners",
      "outputs": [
        {
          "internalType": "address[]",
          "name": "",
          "type": "address[]"
        }
      ],
      "stateMutability": "view",
      "type": "function"
    },
    {
      "inputs": [],
      "name": "hiPrice",
      "outputs": [
        {
          "internalType": "uint256",
          "name": "",
          "type": "uint256"
        }
      ],
      "stateMutability": "view",
      "type": "function"
    },
    {
      "inputs": [
        {
          "internalType": "uint256",
          "name": "",
          "type": "uint256"
        }
      ],
      "name": "hiSaleQueue",
      "outputs": [
        {
          "internalType": "address",
          "name": "",
          "type": "address"
        }
      ],
      "stateMutability": "view",
      "type": "function"
    },
    {
      "inputs": [],
      "name": "hiSaleQueueIndex",
      "outputs": [
        {
          "internalType": "uint256",
          "name": "",
          "type": "uint256"
        }
      ],
      "stateMutability": "view",
      "type": "function"
    },
    {
      "inputs": [],
      "name": "initialHi",
      "outputs": [
        {
          "internalType": "uint256",
          "name": "",
          "type": "uint256"
        }
      ],
      "stateMutability": "view",
      "type": "function"
    },
    {
      "inputs": [],
      "name": "initialLo",
      "outputs": [
        {
          "internalType": "uint256",
          "name": "",
          "type": "uint256"
        }
      ],
      "stateMutability": "view",
      "type": "function"
    },
    {
      "inputs": [
        {
          "internalType": "address",
          "name": "account",
          "type": "address"
        },
        {
          "internalType": "address",
          "name": "operator",
          "type": "address"
        }
      ],
      "name": "isApprovedForAll",
      "outputs": [
        {
          "internalType": "bool",
          "name": "",
          "type": "bool"
        }
      ],
      "stateMutability": "view",
      "type": "function"
    },
    {
      "inputs": [],
      "name": "jackpot",
      "outputs": [
        {
          "internalType": "uint256",
          "name": "",
          "type": "uint256"
        }
      ],
      "stateMutability": "view",
      "type": "function"
    },
    {
      "inputs": [],
      "name": "loPrice",
      "outputs": [
        {
          "internalType": "uint256",
          "name": "",
          "type": "uint256"
        }
      ],
      "stateMutability": "view",
      "type": "function"
    },
    {
      "inputs": [
        {
          "internalType": "uint256",
          "name": "",
          "type": "uint256"
        }
      ],
      "name": "loSaleQueue",
      "outputs": [
        {
          "internalType": "address",
          "name": "",
          "type": "address"
        }
      ],
      "stateMutability": "view",
      "type": "function"
    },
    {
      "inputs": [],
      "name": "loSaleQueueIndex",
      "outputs": [
        {
          "internalType": "uint256",
          "name": "",
          "type": "uint256"
        }
      ],
      "stateMutability": "view",
      "type": "function"
    },
    {
      "inputs": [],
      "name": "owner",
      "outputs": [
        {
          "internalType": "address",
          "name": "",
          "type": "address"
        }
      ],
      "stateMutability": "view",
      "type": "function"
    },
    {
      "inputs": [],
      "name": "paused",
      "outputs": [
        {
          "internalType": "bool",
          "name": "",
          "type": "bool"
        }
      ],
      "stateMutability": "view",
      "type": "function"
    },
    {
      "inputs": [],
      "name": "payout",
      "outputs": [],
      "stateMutability": "nonpayable",
      "type": "function"
    },
    {
      "inputs": [],
      "name": "playerCount",
      "outputs": [
        {
          "internalType": "uint256",
          "name": "",
          "type": "uint256"
        }
      ],
      "stateMutability": "view",
      "type": "function"
    },
    {
      "inputs": [],
      "name": "renounceOwnership",
      "outputs": [],
      "stateMutability": "nonpayable",
      "type": "function"
    },
    {
      "inputs": [
        {
          "internalType": "address",
          "name": "from",
          "type": "address"
        },
        {
          "internalType": "address",
          "name": "to",
          "type": "address"
        },
        {
          "internalType": "uint256[]",
          "name": "ids",
          "type": "uint256[]"
        },
        {
          "internalType": "uint256[]",
          "name": "amounts",
          "type": "uint256[]"
        },
        {
          "internalType": "bytes",
          "name": "data",
          "type": "bytes"
        }
      ],
      "name": "safeBatchTransferFrom",
      "outputs": [],
      "stateMutability": "nonpayable",
      "type": "function"
    },
    {
      "inputs": [
        {
          "internalType": "address",
          "name": "from",
          "type": "address"
        },
        {
          "internalType": "address",
          "name": "to",
          "type": "address"
        },
        {
          "internalType": "uint256",
          "name": "id",
          "type": "uint256"
        },
        {
          "internalType": "uint256",
          "name": "amount",
          "type": "uint256"
        },
        {
          "internalType": "bytes",
          "name": "data",
          "type": "bytes"
        }
      ],
      "name": "safeTransferFrom",
      "outputs": [],
      "stateMutability": "nonpayable",
      "type": "function"
    },
    {
      "inputs": [
        {
          "internalType": "uint256",
          "name": "tokenId",
          "type": "uint256"
        }
      ],
      "name": "sell",
      "outputs": [],
      "stateMutability": "nonpayable",
      "type": "function"
    },
    {
      "inputs": [
        {
          "internalType": "address",
          "name": "operator",
          "type": "address"
        },
        {
          "internalType": "bool",
          "name": "approved",
          "type": "bool"
        }
      ],
      "name": "setApprovalForAll",
      "outputs": [],
      "stateMutability": "nonpayable",
      "type": "function"
    },
    {
      "inputs": [
        {
          "internalType": "bytes4",
          "name": "interfaceId",
          "type": "bytes4"
        }
      ],
      "name": "supportsInterface",
      "outputs": [
        {
          "internalType": "bool",
          "name": "",
          "type": "bool"
        }
      ],
      "stateMutability": "view",
      "type": "function"
    },
    {
      "inputs": [
        {
          "internalType": "uint256",
          "name": "id",
          "type": "uint256"
        }
      ],
      "name": "totalSupply",
      "outputs": [
        {
          "internalType": "uint256",
          "name": "",
          "type": "uint256"
        }
      ],
      "stateMutability": "view",
      "type": "function"
    },
    {
      "inputs": [
        {
          "internalType": "address",
          "name": "newOwner",
          "type": "address"
        }
      ],
      "name": "transferOwnership",
      "outputs": [],
      "stateMutability": "nonpayable",
      "type": "function"
    },
    {
      "inputs": [
        {
          "internalType": "uint256",
          "name": "",
          "type": "uint256"
        }
      ],
      "name": "uri",
      "outputs": [
        {
          "internalType": "string",
          "name": "",
          "type": "string"
        }
      ],
      "stateMutability": "view",
      "type": "function"
    },
    {
      "inputs": [],
      "name": "usdc",
      "outputs": [
        {
          "internalType": "contract IERC20",
          "name": "",
          "type": "address"
        }
      ],
      "stateMutability": "view",
      "type": "function"
    },
    {
      "inputs": [
        {
          "internalType": "uint256",
          "name": "",
          "type": "uint256"
        }
      ],
      "name": "winners",
      "outputs": [
        {
          "internalType": "address",
          "name": "",
          "type": "address"
        }
      ],
      "stateMutability": "view",
      "type": "function"
    }
  ],
  "bytecode": "0x60806040526000601081905560118190556014556015805460ff19169055601880546001600160a01b03191673e11a86849d99f524cac3e7a0ec1241828e332c621790553480156200005057600080fd5b5060405162003c4838038062003c48833981016040819052620000739162000451565b6040518060600160405280602d815260200162003c1b602d91396200009881620002a1565b50620000a433620002ba565b6004805460ff60a01b191690556001600555600884905560068490556009839055600783905560006002620000da858762000487565b600754600654620000ec9190620004e5565b620000f990600162000487565b620001059190620004c3565b620001119190620004a2565b90508162000121600283620004a2565b1015620001755760405162461bcd60e51b815260206004820152601e60248201527f4a61636b706f7420746f6f206c6172676520666f72207468652067616d65000060448201526064015b60405180910390fd5b60178290556008546200019857634e487b7160e01b600052600160045260246000fd5b600060095411620001b957634e487b7160e01b600052600160045260246000fd5b60095460085411620001db57634e487b7160e01b600052600160045260246000fd5b600a839055600c60205260007f13649b2456f1b42fef0f0040b3aaeabcd21a76a0f3f5defd4f583839455116e881905560018082527fd421a5181c571bba3f01190c922c3b2a896fc1d84e86c9f17ac10e67ebef8b5c919091556200024290849062000487565b600b555050600d602052505060007f81955a0a11e65eac625c29e8882660bae4e165a75d72780094acae8ece9a29ee819055600181527ffd54ff1ed53f34a900b24c5ba64f85761163b5d82d98a47b9bd80e45466993c5555062000552565b8051620002b6906002906020840190620003ab565b5050565b6000620002cf6004546001600160a01b031690565b6001600160a01b03161480620002f257506004546001600160a01b038281169116145b620003405760405162461bcd60e51b815260206004820152601f60248201527f48494c4f3a2063616e6e6f74207472616e73666572206f776e6572736869700060448201526064016200016c565b62000356816200035960201b6200165e1760201c565b50565b600480546001600160a01b038381166001600160a01b0319831681179093556040519116919082907f8be0079c531659141344cd1fd0a4f28419497f9722a3daafe3b4186f6b6457e090600090a35050565b828054620003b990620004ff565b90600052602060002090601f016020900481019282620003dd576000855562000428565b82601f10620003f857805160ff191683800117855562000428565b8280016001018555821562000428579182015b82811115620004285782518255916020019190600101906200040b565b50620004369291506200043a565b5090565b5b808211156200043657600081556001016200043b565b6000806000806080858703121562000467578384fd5b505082516020840151604085015160609095015191969095509092509050565b600082198211156200049d576200049d6200053c565b500190565b600082620004be57634e487b7160e01b81526012600452602481fd5b500490565b6000816000190483118215151615620004e057620004e06200053c565b500290565b600082821015620004fa57620004fa6200053c565b500390565b600181811c908216806200051457607f821691505b602082108114156200053657634e487b7160e01b600052602260045260246000fd5b50919050565b634e487b7160e01b600052601160045260246000fd5b6136b980620005626000396000f3fe608060405234801561001057600080fd5b50600436106102685760003560e01c80637d9347ef11610151578063cab8ec9f116100c3578063e4849b3211610087578063e4849b321461055f578063e757223014610572578063e985e9c514610585578063f242432a146105c1578063f2e8dfdb146105d4578063f2fde38b146105dc57600080fd5b8063cab8ec9f146104d6578063cd1fb31d1461050e578063d6febde814610517578063d9d60b521461052a578063df15c37e1461054a57600080fd5b8063a2fb117511610115578063a2fb11751461046b578063b23c328b1461047e578063b2ecfad414610487578063b33dbd301461049a578063b976fe61146104ad578063bd85b039146104b657600080fd5b80637d9347ef14610418578063833cbacf1461042b5780638da5cb5b1461043457806391362a3b14610445578063a22cb4651461045857600080fd5b80634e1273f4116101ea5780635c975abb116101ae5780635c975abb146103c5578063633a8d0f146103d757806363bd1d4a146103f757806368d2be8f146103ff5780636b31ee0114610407578063715018a61461041057600080fd5b80634e1273f4146103475780634f558e791461036757806358e72fc3146103895780635a437daa1461039c5780635c5c4d61146103a557600080fd5b806321441d9d1161023157806321441d9d146102ec5780632eb2c2d6146102f5578063302bcc571461030a5780633e413bee146103135780634021d15d1461033e57600080fd5b8062fdd58e1461026d57806301ffc9a714610293578063069a825c146102b65780630e89341c146102c3578063212a7bcd146102e3575b600080fd5b61028061027b366004612ec3565b6105ef565b6040519081526020015b60405180910390f35b6102a66102a1366004612fd3565b610689565b604051901515815260200161028a565b6015546102a69060ff1681565b6102d66102d136600461300b565b6106d9565b60405161028a91906132ab565b61028060075481565b61028060085481565b610308610303366004612d84565b61076d565b005b61028060145481565b601854610326906001600160a01b031681565b6040516001600160a01b03909116815260200161028a565b61028060105481565b61035a610355366004612eec565b610804565b60405161028a919061326a565b6102a661037536600461300b565b600090815260036020526040902054151590565b61028061039736600461303b565b610966565b61028060095481565b6102806103b336600461300b565b600c6020526000908152604090205481565b600454600160a01b900460ff166102a6565b6102806103e536600461300b565b600d6020526000908152604090205481565b610308610a34565b610280600181565b61028060175481565b610308610d05565b61028061042636600461303b565b610d3b565b610280600a5481565b6004546001600160a01b0316610326565b61032661045336600461300b565b610e46565b610308610466366004612e8d565b610e70565b61032661047936600461300b565b610e7f565b61028060065481565b6102a661049536600461300b565b610e8f565b6103266104a836600461300b565b610eb7565b61028060115481565b6102806104c436600461300b565b60009081526003602052604090205490565b6104e96104e436600461305d565b610ec7565b604080516001600160a01b03909416845260208401929092529082015260600161028a565b610280600b5481565b61030861052536600461305d565b610f13565b61053d610538366004612d31565b61127e565b60405161028a91906133f4565b610552611438565b60405161028a9190613201565b61030861056d36600461300b565b61149a565b61028061058036600461300b565b61150f565b6102a6610593366004612d52565b6001600160a01b03918216600090815260016020908152604080832093909416825291909152205460ff1690565b6103086105cf366004612e2a565b61153c565b610280600081565b6103086105ea366004612d31565b6115c3565b60006001600160a01b0383166106605760405162461bcd60e51b815260206004820152602b60248201527f455243313135353a2062616c616e636520717565727920666f7220746865207a60448201526a65726f206164647265737360a81b60648201526084015b60405180910390fd5b506000818152602081815260408083206001600160a01b03861684529091529020545b92915050565b60006001600160e01b03198216636cdb3d1360e11b14806106ba57506001600160e01b031982166303a24d0760e21b145b8061068357506301ffc9a760e01b6001600160e01b0319831614610683565b6060600280546106e89061350e565b80601f01602080910402602001604051908101604052809291908181526020018280546107149061350e565b80156107615780601f1061073657610100808354040283529160200191610761565b820191906000526020600020905b81548152906001019060200180831161074457829003601f168201915b50505050509050919050565b6001600160a01b03851633148061078957506107898533610593565b6107f05760405162461bcd60e51b815260206004820152603260248201527f455243313135353a207472616e736665722063616c6c6572206973206e6f74206044820152711bdddb995c881b9bdc88185c1c1c9bdd995960721b6064820152608401610657565b6107fd85858585856116b0565b5050505050565b606081518351146108695760405162461bcd60e51b815260206004820152602960248201527f455243313135353a206163636f756e747320616e6420696473206c656e677468604482015268040dad2e6dac2e8c6d60bb1b6064820152608401610657565b6000835167ffffffffffffffff81111561089357634e487b7160e01b600052604160045260246000fd5b6040519080825280602002602001820160405280156108bc578160200160208202803683370190505b50905060005b845181101561095e576109238582815181106108ee57634e487b7160e01b600052603260045260246000fd5b602002602001015185838151811061091657634e487b7160e01b600052603260045260246000fd5b60200260200101516105ef565b82828151811061094357634e487b7160e01b600052603260045260246000fd5b602090810291909101015261095781613576565b90506108c2565b509392505050565b6000806109738484610d3b565b90508015610982579050610683565b6000841561099157600f610994565b600e5b805460018101825560008281526020812090910180546001600160a01b0319163317905590915085156109c9576011546109cd565b6010545b82549091506109dd9082906134f7565b604080516001600160a01b0388168152602081018990529081018290529093507f53efec596e831eee87aaffc911be481a756fc7f3b402a3540b286998fbf15fa29060600160405180910390a15090949350505050565b6004546001600160a01b03163314610a5e5760405162461bcd60e51b8152600401610657906133bf565b601654601754600090610a7990670de0b6b3a76400006134d8565b905060005b82811015610bdc576000610a9284846134b8565b601854601680549293506001600160a01b039091169163a9059cbb919085908110610acd57634e487b7160e01b600052603260045260246000fd5b60009182526020909120015460405160e083901b6001600160e01b03191681526001600160a01b03909116600482015260248101849052604401602060405180830381600087803b158015610b2157600080fd5b505af1158015610b35573d6000803e3d6000fd5b505050506040513d601f19601f82011682018060405250810190610b599190612fb7565b507f88c519ab1745d32c7a1e2c97aa7817ca6e8046aaa146002b9ec1c8516ed6785460168381548110610b9c57634e487b7160e01b600052603260045260246000fd5b60009182526020918290200154604080516001600160a01b0390921682529181018490520160405180910390a15080610bd481613576565b915050610a7e565b506018546040516370a0823160e01b81523060048201526000916001600160a01b0316906370a082319060240160206040518083038186803b158015610c2157600080fd5b505afa158015610c35573d6000803e3d6000fd5b505050506040513d601f19601f82011682018060405250810190610c599190613023565b6018549091506001600160a01b031663a9059cbb610c7f6004546001600160a01b031690565b6040516001600160e01b031960e084901b1681526001600160a01b03909116600482015260248101849052604401602060405180830381600087803b158015610cc757600080fd5b505af1158015610cdb573d6000803e3d6000fd5b505050506040513d601f19601f82011682018060405250810190610cff9190612fb7565b50505050565b6004546001600160a01b03163314610d2f5760405162461bcd60e51b8152600401610657906133bf565b610d3960006118af565b565b60006001818415610d4d57600f610d50565b600e5b805480602002602001604051908101604052809291908181526020018280548015610da457602002820191906000526020600020905b81546001600160a01b03168152600190910190602001808311610d86575b505050505090506000808614610dbc57601154610dc0565b6010545b9050805b8251811015610e3957856001600160a01b0316838281518110610df757634e487b7160e01b600052603260045260246000fd5b60200260200101516001600160a01b03161415610e1a5783945050505050610683565b610e258460016134a0565b935080610e3181613576565b915050610dc4565b5060009695505050505050565b600f8181548110610e5657600080fd5b6000918252602090912001546001600160a01b0316905081565b610e7b33838361193a565b5050565b60168181548110610e5657600080fd5b600a546000828152600c60205260408120549091148061068357506009546008541492915050565b600e8181548110610e5657600080fd5b60126020528160005260406000208181548110610ee357600080fd5b60009182526020909120600390910201805460018201546002909201546001600160a01b03909116935090915083565b600454600160a01b900460ff1615610f3d5760405162461bcd60e51b815260040161065790613306565b811580610f4a5750600182145b610f875760405162461bcd60e51b815260206004820152600e60248201526d24b73b30b634b2103a37b5b2b71760911b6044820152606401610657565b8060011480610f965750806003145b610fd45760405162461bcd60e51b815260206004820152600f60248201526e24b73b30b634b21030b6b7bab73a1760891b6044820152606401610657565b6000610fdf8361150f565b905060008111610fff57634e487b7160e01b600052600160045260246000fd5b6000600754821480156110125750600184145b80611027575060065482148015611027575083155b600b546000868152600d60205260408120549293509114806110495750836003145b905060095460085414158015611063575081806110635750805b156110ab5761107185611a1b565b60408051338152602081018790527f0d86730737b142fc160892fa8a0f2db687a92a0e294d1ad70624cf5acef03b84910160405180910390a15b6110b584846134d8565b6110c790670de0b6b3a76400006134d8565b6018546040516370a0823160e01b81523360048201529194506000916001600160a01b03909116906370a082319060240160206040518083038186803b15801561111057600080fd5b505afa158015611124573d6000803e3d6000fd5b505050506040513d601f19601f820116820180604052508101906111489190613023565b90508381101561119a5760405162461bcd60e51b815260206004820152601a60248201527f496e73756666696369656e7420555344432062616c616e63652e0000000000006044820152606401610657565b6018546040516323b872dd60e01b8152336004820152306024820152604481018690526001600160a01b03909116906323b872dd90606401602060405180830381600087803b1580156111ec57600080fd5b505af1158015611200573d6000803e3d6000fd5b505050506040513d601f19601f820116820180604052508101906112249190612fb7565b5061124033878760405180602001604052806000815250611a53565b8161124e5761124e86611b76565b81801561125f575060095460085414155b1561126d5761126d86611bfc565b61127633611d39565b505050505050565b611286612bb9565b60006112938360006105ef565b905060006112a28460016105ef565b601854604051636eb1769f60e11b81526001600160a01b0387811660048301523060248301529293506000929091169063dd62ed3e9060440160206040518083038186803b1580156112f357600080fd5b505afa158015611307573d6000803e3d6000fd5b505050506040513d601f19601f8201168201806040525081019061132b9190613023565b600360209081527f3617319a054d772f909f7c479a2cebe5066e836a939412e32403c99029b92eff5460016000527fa15bc60c955c405d20d9149c709e2460f1c2d9a497496a7f46004d1772c3054c546040805160c081018252600854815260095481860152601680548351818802810188018552818152979850949693959194928501939290918301828280156113ec57602002820191906000526020600020905b81546001600160a01b031681526001909101906020018083116113ce575b5050509183525050604080516060808201835295815260208181019590955260145481830152848301528051808201825297885292870195909552908401949094529091015292915050565b6060601680548060200260200160405190810160405280929190818152602001828054801561149057602002820191906000526020600020905b81546001600160a01b03168152600190910190602001808311611472575b5050505050905090565b600260055414156114ed5760405162461bcd60e51b815260206004820152601f60248201527f5265656e7472616e637947756172643a207265656e7472616e742063616c6c006044820152606401610657565b6002600555336114fd8183611e19565b61150681611d39565b50506001600555565b60008161151e57505060085490565b600182141561152f57505060095490565b506000919050565b919050565b6001600160a01b03851633148061155857506115588533610593565b6115b65760405162461bcd60e51b815260206004820152602960248201527f455243313135353a2063616c6c6572206973206e6f74206f776e6572206e6f7260448201526808185c1c1c9bdd995960ba1b6064820152608401610657565b6107fd85858585856120bc565b6004546001600160a01b031633146115ed5760405162461bcd60e51b8152600401610657906133bf565b6001600160a01b0381166116525760405162461bcd60e51b815260206004820152602660248201527f4f776e61626c653a206e6577206f776e657220697320746865207a65726f206160448201526564647265737360d01b6064820152608401610657565b61165b816118af565b50565b600480546001600160a01b038381166001600160a01b0319831681179093556040519116919082907f8be0079c531659141344cd1fd0a4f28419497f9722a3daafe3b4186f6b6457e090600090a35050565b81518351146117125760405162461bcd60e51b815260206004820152602860248201527f455243313135353a2069647320616e6420616d6f756e7473206c656e677468206044820152670dad2e6dac2e8c6d60c31b6064820152608401610657565b6001600160a01b0384166117385760405162461bcd60e51b815260040161065790613330565b336117478187878787876121f4565b60005b845181101561184957600085828151811061177557634e487b7160e01b600052603260045260246000fd5b6020026020010151905060008583815181106117a157634e487b7160e01b600052603260045260246000fd5b602090810291909101810151600084815280835260408082206001600160a01b038e1683529093529190912054909150818110156117f15760405162461bcd60e51b815260040161065790613375565b6000838152602081815260408083206001600160a01b038e8116855292528083208585039055908b1682528120805484929061182e9084906134a0565b925050819055505050508061184290613576565b905061174a565b50846001600160a01b0316866001600160a01b0316826001600160a01b03167f4a39dc06d4c0dbc64b70af90fd698a233a518aa5d07e595d983b8c0526c8f7fb878760405161189992919061327d565b60405180910390a4611276818787878787612295565b60006118c36004546001600160a01b031690565b6001600160a01b031614806118e557506004546001600160a01b038281169116145b6119315760405162461bcd60e51b815260206004820152601f60248201527f48494c4f3a2063616e6e6f74207472616e73666572206f776e657273686970006044820152606401610657565b61165b8161165e565b816001600160a01b0316836001600160a01b031614156119ae5760405162461bcd60e51b815260206004820152602960248201527f455243313135353a2073657474696e6720617070726f76616c20737461747573604482015268103337b91039b2b63360b91b6064820152608401610657565b6001600160a01b03838116600081815260016020908152604080832094871680845294825291829020805460ff191686151590811790915591519182527f17307eab39ab6107e8899845ad3d59bd9653f200f220920489ca2b5937696c31910160405180910390a3505050565b80611a2d57611a28612400565b611a35565b611a3561244f565b6000908152600c60209081526040808320839055600d909152812055565b6001600160a01b038416611ab35760405162461bcd60e51b815260206004820152602160248201527f455243313135353a206d696e7420746f20746865207a65726f206164647265736044820152607360f81b6064820152608401610657565b336000611abf856124b4565b90506000611acc856124b4565b9050611add836000898585896121f4565b6000868152602081815260408083206001600160a01b038b16845290915281208054879290611b0d9084906134a0565b909155505060408051878152602081018790526001600160a01b03808a1692600092918716917fc3d58168c5ae7397731d063d5bbf3d657854427343f4c083240f7aacaa2d0f62910160405180910390a4611b6d8360008989898961250d565b50505050505050565b600a546000828152600c60205260409020541015611bb8576000818152600c6020526040902054611ba89060016134a0565b6000828152600c60205260409020555b600b546000828152600d6020526040902054101561165b576000818152600d6020526040902054611bea9060016134a0565b6000828152600d602052604090205550565b600454600160a01b900460ff1615611c265760405162461bcd60e51b815260040161065790613306565b60008115611c3557600f611c38565b600e5b805480602002602001604051908101604052809291908181526020018280548015611c8c57602002820191906000526020600020905b81546001600160a01b03168152600190910190602001808311611c6e575b50505050509050805160001415611ca1575050565b60008215611cb157601154611cb5565b6010545b90506000828281518110611cd957634e487b7160e01b600052603260045260246000fd5b602002602001015190506000611cef82866105ef565b905080611cfd575050505050565b611d078286611e19565b84611d2257601054611d1a9060016134a0565b601055611d34565b601154611d309060016134a0565b6011555b6107fd825b6000611d468260006105ef565b90506000611d558360016105ef565b9050600080831180611d675750600082115b6001600160a01b03851660009081526013602052604090205490915060ff16818015611d91575080155b15611dd0576001600160a01b0385166000908152601360205260409020805460ff19166001908117909155601454611dc8916134a0565b6014556107fd565b81158015611ddb5750805b156107fd576001600160a01b0385166000908152601360205260409020805460ff19169055601454611e0f906001906134f7565b6014555050505050565b600454600160a01b900460ff1615611e435760405162461bcd60e51b815260040161065790613306565b801580611e505750600181145b611e8d5760405162461bcd60e51b815260206004820152600e60248201526d24b73b30b634b2103a37b5b2b71760911b6044820152606401610657565b600a546000828152600c602052604090205414808015611eb1575060095460085414155b611f0f5760405162461bcd60e51b815260206004820152602960248201527f48494c4f3a2063616e6e6f742073656c6c207768656e207468652073616c65206044820152681a5cc81b1bd8dad95960ba1b6064820152608401610657565b611f1983836125d7565b6009546008541415611f3b57611f36611f318361150f565b61269c565b505050565b6000611f468361150f565b9050611f5a81670de0b6b3a76400006134d8565b60185460405163a9059cbb60e01b81526001600160a01b0387811660048301526024820184905292935091169063a9059cbb90604401602060405180830381600087803b158015611faa57600080fd5b505af1158015611fbe573d6000803e3d6000fd5b505050506040513d601f19601f82011682018060405250810190611fe29190612fb7565b50611fef848460016127fb565b611ff883611a1b565b604080516001600160a01b0386168152602081018590527f0d86730737b142fc160892fa8a0f2db687a92a0e294d1ad70624cf5acef03b84910160405180910390a182158015612050575061204e8460016105ef565b155b15610cff576120718460018060405180602001604052806000815250611a53565b6001600a5461208091906134f7565b6001600052600c6020527fd421a5181c571bba3f01190c922c3b2a896fc1d84e86c9f17ac10e67ebef8b5c541015610cff57610cff6001611b76565b6001600160a01b0384166120e25760405162461bcd60e51b815260040161065790613330565b3360006120ee856124b4565b905060006120fb856124b4565b905061210b8389898585896121f4565b6000868152602081815260408083206001600160a01b038c1684529091529020548581101561214c5760405162461bcd60e51b815260040161065790613375565b6000878152602081815260408083206001600160a01b038d8116855292528083208985039055908a168252812080548892906121899084906134a0565b909155505060408051888152602081018890526001600160a01b03808b16928c821692918816917fc3d58168c5ae7397731d063d5bbf3d657854427343f4c083240f7aacaa2d0f62910160405180910390a46121e9848a8a8a8a8a61250d565b505050505050505050565b600454600160a01b900460ff161561221e5760405162461bcd60e51b815260040161065790613306565b6001600160a01b038516158061223b57506001600160a01b038416155b6122875760405162461bcd60e51b815260206004820152601760248201527f48494c4f3a206e6f6e207472616e736665727261626c650000000000000000006044820152606401610657565b61127686868686868661298b565b6001600160a01b0384163b156112765760405163bc197c8160e01b81526001600160a01b0385169063bc197c81906122d9908990899088908890889060040161315e565b602060405180830381600087803b1580156122f357600080fd5b505af1925050508015612323575060408051601f3d908101601f1916820190925261232091810190612fef565b60015b6123d05761232f6135bd565b806308c379a0141561236957506123446135d5565b8061234f575061236b565b8060405162461bcd60e51b815260040161065791906132ab565b505b60405162461bcd60e51b815260206004820152603460248201527f455243313135353a207472616e7366657220746f206e6f6e20455243313135356044820152732932b1b2b4bb32b91034b6b83632b6b2b73a32b960611b6064820152608401610657565b6001600160e01b0319811663bc197c8160e01b14611b6d5760405162461bcd60e51b8152600401610657906132be565b600160085461240f91906134f7565b6008557f5a258dc6fce0816c9caf9835f08fa5596416dd55037714d2e51688cea5f062c560085460405161244591815260200190565b60405180910390a1565b60095461245d9060016134a0565b6009819055600854101561248157634e487b7160e01b600052600160045260246000fd5b7f3f9b5fbd1bfff0a78edef53fb452db3ea00eb6ea96cb06defcc66dd171bbca2160095460405161244591815260200190565b604080516001808252818301909252606091600091906020808301908036833701905050905082816000815181106124fc57634e487b7160e01b600052603260045260246000fd5b602090810291909101015292915050565b6001600160a01b0384163b156112765760405163f23a6e6160e01b81526001600160a01b0385169063f23a6e619061255190899089908890889088906004016131bc565b602060405180830381600087803b15801561256b57600080fd5b505af192505050801561259b575060408051601f3d908101601f1916820190925261259891810190612fef565b60015b6125a75761232f6135bd565b6001600160e01b0319811663f23a6e6160e01b14611b6d5760405162461bcd60e51b8152600401610657906132be565b60006125e28261150f565b60408051606080820183526001600160a01b03878116808452602080850189815285870188815260008981526012845288812080546001808201835591835291859020895160039093020180546001600160a01b03191692909716919091178655915191850191909155516002909301929092558451908152908101879052928301849052929350917fc19f70d47acbbf1d2faf3a7944182cf6b5345c67d2156ed328ea510e72f13066910160405180910390a150505050565b6000601260006008548152602001908152602001600020805480602002602001604051908101604052809291908181526020016000905b82821015612728576000848152602090819020604080516060810182526003860290920180546001600160a01b03168352600180820154848601526002909101549183019190915290835290920191016126d3565b50505050905060005b81518110156127aa57601682828151811061275c57634e487b7160e01b600052603260045260246000fd5b6020908102919091018101515182546001810184556000938452919092200180546001600160a01b0319166001600160a01b03909216919091179055806127a281613576565b915050612731565b506015805460ff191660011790556040517f10dee8c2942b449b177825c6d5eb7131392949ec2008676761b93b00acea615a906127eb906016908590613214565b60405180910390a1610e7b612b3c565b6001600160a01b03831661285d5760405162461bcd60e51b815260206004820152602360248201527f455243313135353a206275726e2066726f6d20746865207a65726f206164647260448201526265737360e81b6064820152608401610657565b336000612869846124b4565b90506000612876846124b4565b9050612896838760008585604051806020016040528060008152506121f4565b6000858152602081815260408083206001600160a01b038a168452909152902054848110156129135760405162461bcd60e51b8152602060048201526024808201527f455243313135353a206275726e20616d6f756e7420657863656564732062616c604482015263616e636560e01b6064820152608401610657565b6000868152602081815260408083206001600160a01b038b81168086529184528285208a8703905582518b81529384018a90529092908816917fc3d58168c5ae7397731d063d5bbf3d657854427343f4c083240f7aacaa2d0f62910160405180910390a4604080516020810190915260009052611b6d565b6001600160a01b038516612a2e5760005b8351811015612a2c578281815181106129c557634e487b7160e01b600052603260045260246000fd5b6020026020010151600360008684815181106129f157634e487b7160e01b600052603260045260246000fd5b602002602001015181526020019081526020016000206000828254612a1691906134a0565b90915550612a25905081613576565b905061299c565b505b6001600160a01b0384166112765760005b8351811015611b6d576000848281518110612a6a57634e487b7160e01b600052603260045260246000fd5b602002602001015190506000848381518110612a9657634e487b7160e01b600052603260045260246000fd5b6020026020010151905060006003600084815260200190815260200160002054905081811015612b195760405162461bcd60e51b815260206004820152602860248201527f455243313135353a206275726e20616d6f756e74206578636565647320746f74604482015267616c537570706c7960c01b6064820152608401610657565b60009283526003602052604090922091039055612b3581613576565b9050612a3f565b600454600160a01b900460ff1615612b665760405162461bcd60e51b815260040161065790613306565b6004805460ff60a01b1916600160a01b1790557f62e78cea01bee320cd4e420270b5ea74000d11b0c9f74754ebdbfc544b05a258612ba13390565b6040516001600160a01b039091168152602001612445565b6040518060c00160405280600081526020016000815260200160608152602001612be1612bfb565b8152602001612bee612c19565b8152602001600081525090565b60405180606001604052806003906020820280368337509192915050565b60405180604001604052806002906020820280368337509192915050565b80356001600160a01b038116811461153757600080fd5b600082601f830112612c5e578081fd5b81356020612c6b8261347c565b604051612c788282613549565b8381528281019150858301600585901b87018401881015612c97578586fd5b855b85811015612cb557813584529284019290840190600101612c99565b5090979650505050505050565b600082601f830112612cd2578081fd5b813567ffffffffffffffff811115612cec57612cec6135a7565b604051612d03601f8301601f191660200182613549565b818152846020838601011115612d17578283fd5b816020850160208301379081016020019190915292915050565b600060208284031215612d42578081fd5b612d4b82612c37565b9392505050565b60008060408385031215612d64578081fd5b612d6d83612c37565b9150612d7b60208401612c37565b90509250929050565b600080600080600060a08688031215612d9b578081fd5b612da486612c37565b9450612db260208701612c37565b9350604086013567ffffffffffffffff80821115612dce578283fd5b612dda89838a01612c4e565b94506060880135915080821115612def578283fd5b612dfb89838a01612c4e565b93506080880135915080821115612e10578283fd5b50612e1d88828901612cc2565b9150509295509295909350565b600080600080600060a08688031215612e41578081fd5b612e4a86612c37565b9450612e5860208701612c37565b93506040860135925060608601359150608086013567ffffffffffffffff811115612e81578182fd5b612e1d88828901612cc2565b60008060408385031215612e9f578182fd5b612ea883612c37565b91506020830135612eb88161365f565b809150509250929050565b60008060408385031215612ed5578182fd5b612ede83612c37565b946020939093013593505050565b60008060408385031215612efe578182fd5b823567ffffffffffffffff80821115612f15578384fd5b818501915085601f830112612f28578384fd5b81356020612f358261347c565b604051612f428282613549565b8381528281019150858301600585901b870184018b1015612f61578889fd5b8896505b84871015612f8a57612f7681612c37565b835260019690960195918301918301612f65565b5096505086013592505080821115612fa0578283fd5b50612fad85828601612c4e565b9150509250929050565b600060208284031215612fc8578081fd5b8151612d4b8161365f565b600060208284031215612fe4578081fd5b8135612d4b8161366d565b600060208284031215613000578081fd5b8151612d4b8161366d565b60006020828403121561301c578081fd5b5035919050565b600060208284031215613034578081fd5b5051919050565b6000806040838503121561304d578182fd5b82359150612d7b60208401612c37565b6000806040838503121561306f578182fd5b50508035926020909101359150565b6000815180845260208085019450808401835b838110156130b65781516001600160a01b031687529582019590820190600101613091565b509495945050505050565b8060005b6002811015610cff5781518452602093840193909101906001016130c5565b6000815180845260208085019450808401835b838110156130b6578151875295820195908201906001016130f7565b60008151808452815b818110156131385760208185018101518683018201520161311c565b818111156131495782602083870101525b50601f01601f19169290920160200192915050565b6001600160a01b0386811682528516602082015260a06040820181905260009061318a908301866130e4565b828103606084015261319c81866130e4565b905082810360808401526131b08185613113565b98975050505050505050565b6001600160a01b03868116825285166020820152604081018490526060810183905260a0608082018190526000906131f690830184613113565b979650505050505050565b602081526000612d4b602083018461307e565b6000604082016040835280855480835260608501915086845260209250828420845b8281101561325b5781546001600160a01b031684529284019260019182019101613236565b50505092019290925292915050565b602081526000612d4b60208301846130e4565b60408152600061329060408301856130e4565b82810360208401526132a281856130e4565b95945050505050565b602081526000612d4b6020830184613113565b60208082526028908201527f455243313135353a204552433131353552656365697665722072656a656374656040820152676420746f6b656e7360c01b606082015260800190565b60208082526010908201526f14185d5cd8589b194e881c185d5cd95960821b604082015260600190565b60208082526025908201527f455243313135353a207472616e7366657220746f20746865207a65726f206164604082015264647265737360d81b606082015260800190565b6020808252602a908201527f455243313135353a20696e73756666696369656e742062616c616e636520666f60408201526939103a3930b739b332b960b11b606082015260800190565b6020808252818101527f4f776e61626c653a2063616c6c6572206973206e6f7420746865206f776e6572604082015260600190565b60006020808352835181840152808401516040840152604084015161012080606086015261342661014086018361307e565b9150606086015160808601855b600381101561345057825182529185019190850190600101613433565b5050506080860151925061346760e08601846130c1565b60a08601518186015250809250505092915050565b600067ffffffffffffffff821115613496576134966135a7565b5060051b60200190565b600082198211156134b3576134b3613591565b500190565b6000826134d357634e487b7160e01b81526012600452602481fd5b500490565b60008160001904831182151516156134f2576134f2613591565b500290565b60008282101561350957613509613591565b500390565b600181811c9082168061352257607f821691505b6020821081141561354357634e487b7160e01b600052602260045260246000fd5b50919050565b601f8201601f1916810167ffffffffffffffff8111828210171561356f5761356f6135a7565b6040525050565b600060001982141561358a5761358a613591565b5060010190565b634e487b7160e01b600052601160045260246000fd5b634e487b7160e01b600052604160045260246000fd5b600060033d11156135d257600481823e5160e01c5b90565b600060443d10156135e35790565b6040516003193d81016004833e81513d67ffffffffffffffff816024840111818411171561361357505050505090565b828501915081518181111561362b5750505050505090565b843d87010160208285010111156136455750505050505090565b61365460208286010187613549565b509095945050505050565b801515811461165b57600080fd5b6001600160e01b03198116811461165b57600080fdfea264697066735822122015664a29e8eae0c467583b77d57aa8e73ad6558466483f883d9433d804d7b45364736f6c6343000804003368747470733a2f2f68696c6f2d65696768742e76657263656c2e6170702f6170692f746f6b656e732f7b69647d",
  "linkReferences": {},
  "deployedLinkReferences": {}
}