{
  "_format": "hh-sol-artifact-1",
  "contractName": "HILO",
  "sourceName": "contracts/HILO.sol",
  "abi": [
    {
      "inputs": [
        {
          "internalType": "uint256",
          "name": "_initialHi",
          "type": "uint256"
        },
        {
          "internalType": "uint256",
          "name": "_initialLo",
          "type": "uint256"
        },
        {
          "internalType": "uint256",
          "name": "_buyRequiredCount",
          "type": "uint256"
        },
        {
          "internalType": "uint256",
          "name": "_jackpot",
          "type": "uint256"
        }
      ],
      "stateMutability": "nonpayable",
      "type": "constructor"
    },
    {
      "anonymous": false,
      "inputs": [
        {
          "indexed": false,
          "internalType": "address",
          "name": "player",
          "type": "address"
        },
        {
          "indexed": false,
          "internalType": "uint256",
          "name": "tokenId",
          "type": "uint256"
        },
        {
          "indexed": false,
          "internalType": "uint256",
          "name": "price",
          "type": "uint256"
        }
      ],
      "name": "ActionAdded",
      "type": "event"
    },
    {
      "anonymous": false,
      "inputs": [
        {
          "indexed": true,
          "internalType": "address",
          "name": "account",
          "type": "address"
        },
        {
          "indexed": true,
          "internalType": "address",
          "name": "operator",
          "type": "address"
        },
        {
          "indexed": false,
          "internalType": "bool",
          "name": "approved",
          "type": "bool"
        }
      ],
      "name": "ApprovalForAll",
      "type": "event"
    },
    {
      "anonymous": false,
      "inputs": [
        {
          "indexed": false,
          "internalType": "uint256",
          "name": "newHiPrice",
          "type": "uint256"
        }
      ],
      "name": "HiDecreased",
      "type": "event"
    },
    {
      "anonymous": false,
      "inputs": [
        {
          "indexed": false,
          "internalType": "address",
          "name": "player",
          "type": "address"
        },
        {
          "indexed": false,
          "internalType": "uint256",
          "name": "amount",
          "type": "uint256"
        }
      ],
      "name": "JackpotPaid",
      "type": "event"
    },
    {
      "anonymous": false,
      "inputs": [
        {
          "indexed": false,
          "internalType": "uint256",
          "name": "newLoPrice",
          "type": "uint256"
        }
      ],
      "name": "LoIncreased",
      "type": "event"
    },
    {
      "anonymous": false,
      "inputs": [
        {
          "indexed": true,
          "internalType": "address",
          "name": "previousOwner",
          "type": "address"
        },
        {
          "indexed": true,
          "internalType": "address",
          "name": "newOwner",
          "type": "address"
        }
      ],
      "name": "OwnershipTransferred",
      "type": "event"
    },
    {
      "anonymous": false,
      "inputs": [
        {
          "indexed": false,
          "internalType": "address",
          "name": "account",
          "type": "address"
        }
      ],
      "name": "Paused",
      "type": "event"
    },
    {
      "anonymous": false,
      "inputs": [
        {
          "indexed": false,
          "internalType": "address",
          "name": "player",
          "type": "address"
        }
      ],
      "name": "PlayerRegistered",
      "type": "event"
    },
    {
      "anonymous": false,
      "inputs": [
        {
          "indexed": false,
          "internalType": "address",
          "name": "player",
          "type": "address"
        },
        {
          "indexed": false,
          "internalType": "uint256",
          "name": "tokenId",
          "type": "uint256"
        }
      ],
      "name": "PriceUpdated",
      "type": "event"
    },
    {
      "anonymous": false,
      "inputs": [
        {
          "indexed": false,
          "internalType": "address[]",
          "name": "winners",
          "type": "address[]"
        },
        {
          "indexed": false,
          "internalType": "uint256",
          "name": "price",
          "type": "uint256"
        }
      ],
      "name": "PricesConverged",
      "type": "event"
    },
    {
      "anonymous": false,
      "inputs": [
        {
          "indexed": true,
          "internalType": "address",
          "name": "operator",
          "type": "address"
        },
        {
          "indexed": true,
          "internalType": "address",
          "name": "from",
          "type": "address"
        },
        {
          "indexed": true,
          "internalType": "address",
          "name": "to",
          "type": "address"
        },
        {
          "indexed": false,
          "internalType": "uint256[]",
          "name": "ids",
          "type": "uint256[]"
        },
        {
          "indexed": false,
          "internalType": "uint256[]",
          "name": "values",
          "type": "uint256[]"
        }
      ],
      "name": "TransferBatch",
      "type": "event"
    },
    {
      "anonymous": false,
      "inputs": [
        {
          "indexed": true,
          "internalType": "address",
          "name": "operator",
          "type": "address"
        },
        {
          "indexed": true,
          "internalType": "address",
          "name": "from",
          "type": "address"
        },
        {
          "indexed": true,
          "internalType": "address",
          "name": "to",
          "type": "address"
        },
        {
          "indexed": false,
          "internalType": "uint256",
          "name": "id",
          "type": "uint256"
        },
        {
          "indexed": false,
          "internalType": "uint256",
          "name": "value",
          "type": "uint256"
        }
      ],
      "name": "TransferSingle",
      "type": "event"
    },
    {
      "anonymous": false,
      "inputs": [
        {
          "indexed": false,
          "internalType": "string",
          "name": "value",
          "type": "string"
        },
        {
          "indexed": true,
          "internalType": "uint256",
          "name": "id",
          "type": "uint256"
        }
      ],
      "name": "URI",
      "type": "event"
    },
    {
      "anonymous": false,
      "inputs": [
        {
          "indexed": false,
          "internalType": "address",
          "name": "account",
          "type": "address"
        }
      ],
      "name": "Unpaused",
      "type": "event"
    },
    {
      "inputs": [],
      "name": "HI",
      "outputs": [
        {
          "internalType": "uint256",
          "name": "",
          "type": "uint256"
        }
      ],
      "stateMutability": "view",
      "type": "function"
    },
    {
      "inputs": [],
      "name": "LO",
      "outputs": [
        {
          "internalType": "uint256",
          "name": "",
          "type": "uint256"
        }
      ],
      "stateMutability": "view",
      "type": "function"
    },
    {
      "inputs": [
        {
          "internalType": "uint256",
          "name": "tokenId",
          "type": "uint256"
        }
      ],
      "name": "addToQueue",
      "outputs": [
        {
          "internalType": "uint256",
          "name": "",
          "type": "uint256"
        }
      ],
      "stateMutability": "nonpayable",
      "type": "function"
    },
    {
      "inputs": [
        {
          "internalType": "address",
          "name": "account",
          "type": "address"
        },
        {
          "internalType": "uint256",
          "name": "id",
          "type": "uint256"
        }
      ],
      "name": "balanceOf",
      "outputs": [
        {
          "internalType": "uint256",
          "name": "",
          "type": "uint256"
        }
      ],
      "stateMutability": "view",
      "type": "function"
    },
    {
      "inputs": [
        {
          "internalType": "address[]",
          "name": "accounts",
          "type": "address[]"
        },
        {
          "internalType": "uint256[]",
          "name": "ids",
          "type": "uint256[]"
        }
      ],
      "name": "balanceOfBatch",
      "outputs": [
        {
          "internalType": "uint256[]",
          "name": "",
          "type": "uint256[]"
        }
      ],
      "stateMutability": "view",
      "type": "function"
    },
    {
      "inputs": [
        {
          "internalType": "uint256",
          "name": "tokenId",
          "type": "uint256"
        }
      ],
      "name": "buy",
      "outputs": [],
      "stateMutability": "nonpayable",
      "type": "function"
    },
    {
      "inputs": [],
      "name": "checkInQueue",
      "outputs": [
        {
          "internalType": "uint256",
          "name": "",
          "type": "uint256"
        }
      ],
      "stateMutability": "view",
      "type": "function"
    },
    {
      "inputs": [
        {
          "internalType": "uint256",
          "name": "id",
          "type": "uint256"
        }
      ],
      "name": "exists",
      "outputs": [
        {
          "internalType": "bool",
          "name": "",
          "type": "bool"
        }
      ],
      "stateMutability": "view",
      "type": "function"
    },
    {
      "inputs": [],
      "name": "gameWon",
      "outputs": [
        {
          "internalType": "bool",
          "name": "",
          "type": "bool"
        }
      ],
      "stateMutability": "view",
      "type": "function"
    },
    {
      "inputs": [
        {
          "internalType": "uint256",
          "name": "tokenId",
          "type": "uint256"
        }
      ],
      "name": "getPrice",
      "outputs": [
        {
          "internalType": "uint256",
          "name": "",
          "type": "uint256"
        }
      ],
      "stateMutability": "view",
      "type": "function"
    },
    {
      "inputs": [],
      "name": "getWinners",
      "outputs": [
        {
          "internalType": "address[]",
          "name": "",
          "type": "address[]"
        }
      ],
      "stateMutability": "view",
      "type": "function"
    },
    {
      "inputs": [
        {
          "internalType": "address",
          "name": "account",
          "type": "address"
        },
        {
          "internalType": "address",
          "name": "operator",
          "type": "address"
        }
      ],
      "name": "isApprovedForAll",
      "outputs": [
        {
          "internalType": "bool",
          "name": "",
          "type": "bool"
        }
      ],
      "stateMutability": "view",
      "type": "function"
    },
    {
      "inputs": [],
      "name": "jackpot",
      "outputs": [
        {
          "internalType": "uint256",
          "name": "",
          "type": "uint256"
        }
      ],
      "stateMutability": "view",
      "type": "function"
    },
    {
      "inputs": [],
      "name": "owner",
      "outputs": [
        {
          "internalType": "address",
          "name": "",
          "type": "address"
        }
      ],
      "stateMutability": "view",
      "type": "function"
    },
    {
      "inputs": [],
      "name": "paused",
      "outputs": [
        {
          "internalType": "bool",
          "name": "",
          "type": "bool"
        }
      ],
      "stateMutability": "view",
      "type": "function"
    },
    {
      "inputs": [],
      "name": "payout",
      "outputs": [],
      "stateMutability": "nonpayable",
      "type": "function"
    },
    {
      "inputs": [],
      "name": "renounceOwnership",
      "outputs": [],
      "stateMutability": "nonpayable",
      "type": "function"
    },
    {
      "inputs": [
        {
          "internalType": "address",
          "name": "from",
          "type": "address"
        },
        {
          "internalType": "address",
          "name": "to",
          "type": "address"
        },
        {
          "internalType": "uint256[]",
          "name": "ids",
          "type": "uint256[]"
        },
        {
          "internalType": "uint256[]",
          "name": "amounts",
          "type": "uint256[]"
        },
        {
          "internalType": "bytes",
          "name": "data",
          "type": "bytes"
        }
      ],
      "name": "safeBatchTransferFrom",
      "outputs": [],
      "stateMutability": "nonpayable",
      "type": "function"
    },
    {
      "inputs": [
        {
          "internalType": "address",
          "name": "from",
          "type": "address"
        },
        {
          "internalType": "address",
          "name": "to",
          "type": "address"
        },
        {
          "internalType": "uint256",
          "name": "id",
          "type": "uint256"
        },
        {
          "internalType": "uint256",
          "name": "amount",
          "type": "uint256"
        },
        {
          "internalType": "bytes",
          "name": "data",
          "type": "bytes"
        }
      ],
      "name": "safeTransferFrom",
      "outputs": [],
      "stateMutability": "nonpayable",
      "type": "function"
    },
    {
      "inputs": [
        {
          "internalType": "uint256",
          "name": "tokenId",
          "type": "uint256"
        }
      ],
      "name": "sell",
      "outputs": [],
      "stateMutability": "nonpayable",
      "type": "function"
    },
    {
      "inputs": [
        {
          "internalType": "address",
          "name": "operator",
          "type": "address"
        },
        {
          "internalType": "bool",
          "name": "approved",
          "type": "bool"
        }
      ],
      "name": "setApprovalForAll",
      "outputs": [],
      "stateMutability": "nonpayable",
      "type": "function"
    },
    {
      "inputs": [
        {
          "internalType": "bytes4",
          "name": "interfaceId",
          "type": "bytes4"
        }
      ],
      "name": "supportsInterface",
      "outputs": [
        {
          "internalType": "bool",
          "name": "",
          "type": "bool"
        }
      ],
      "stateMutability": "view",
      "type": "function"
    },
    {
      "inputs": [
        {
          "internalType": "uint256",
          "name": "id",
          "type": "uint256"
        }
      ],
      "name": "totalSupply",
      "outputs": [
        {
          "internalType": "uint256",
          "name": "",
          "type": "uint256"
        }
      ],
      "stateMutability": "view",
      "type": "function"
    },
    {
      "inputs": [
        {
          "internalType": "address",
          "name": "newOwner",
          "type": "address"
        }
      ],
      "name": "transferOwnership",
      "outputs": [],
      "stateMutability": "nonpayable",
      "type": "function"
    },
    {
      "inputs": [
        {
          "internalType": "uint256",
          "name": "",
          "type": "uint256"
        }
      ],
      "name": "uri",
      "outputs": [
        {
          "internalType": "string",
          "name": "",
          "type": "string"
        }
      ],
      "stateMutability": "view",
      "type": "function"
    },
    {
      "inputs": [],
      "name": "usdc",
      "outputs": [
        {
          "internalType": "contract IERC20",
          "name": "",
          "type": "address"
        }
      ],
      "stateMutability": "view",
      "type": "function"
    },
    {
      "inputs": [
        {
          "internalType": "uint256",
          "name": "",
          "type": "uint256"
        }
      ],
      "name": "winners",
      "outputs": [
        {
          "internalType": "address",
          "name": "",
          "type": "address"
        }
      ],
      "stateMutability": "view",
      "type": "function"
    }
  ],
  "bytecode": "0x60806040526000600f556011805460ff19169055601480546001600160a01b03191673e11a86849d99f524cac3e7a0ec1241828e332c621790553480156200004657600080fd5b50604051620035573803806200355783398101604081905262000069916200044e565b6040518060600160405280602d81526020016200352a602d91396200008e8162000293565b506200009a33620002ac565b6004805460ff60a01b191690556001600555600884905560068490556009839055600783905560006002620000d0858762000484565b600754600654620000e29190620004e2565b620000ef90600162000484565b620000fb9190620004c0565b6200010791906200049f565b905081620001176002836200049f565b10156200016b5760405162461bcd60e51b815260206004820152601e60248201527f4a61636b706f7420746f6f206c6172676520666f72207468652067616d65000060448201526064015b60405180910390fd5b60138290556008546200018e57634e487b7160e01b600052600160045260246000fd5b600060095411620001af57634e487b7160e01b600052600160045260246000fd5b60095460085411620001d157634e487b7160e01b600052600160045260246000fd5b600a839055600c60205260007f13649b2456f1b42fef0f0040b3aaeabcd21a76a0f3f5defd4f583839455116e8819055600181527fd421a5181c571bba3f01190c922c3b2a896fc1d84e86c9f17ac10e67ebef8b5c5562000234836002620004c0565b600b555050600d602052505060007f81955a0a11e65eac625c29e8882660bae4e165a75d72780094acae8ece9a29ee819055600181527ffd54ff1ed53f34a900b24c5ba64f85761163b5d82d98a47b9bd80e45466993c555506200054f565b8051620002a8906002906020840190620003a8565b5050565b6000620002c16004546001600160a01b031690565b6001600160a01b03161480620002e457506004546001600160a01b038281169116145b6200033d5760405162461bcd60e51b815260206004820152602260248201527f48494c4f3a2063616e6e6f74207472616e73666572206f776e65727368697020604482015261746f60f01b606482015260840162000162565b62000353816200035660201b6200119a1760201c565b50565b600480546001600160a01b038381166001600160a01b0319831681179093556040519116919082907f8be0079c531659141344cd1fd0a4f28419497f9722a3daafe3b4186f6b6457e090600090a35050565b828054620003b690620004fc565b90600052602060002090601f016020900481019282620003da576000855562000425565b82601f10620003f557805160ff191683800117855562000425565b8280016001018555821562000425579182015b828111156200042557825182559160200191906001019062000408565b506200043392915062000437565b5090565b5b8082111562000433576000815560010162000438565b6000806000806080858703121562000464578384fd5b505082516020840151604085015160609095015191969095509092509050565b600082198211156200049a576200049a62000539565b500190565b600082620004bb57634e487b7160e01b81526012600452602481fd5b500490565b6000816000190483118215151615620004dd57620004dd62000539565b500290565b600082821015620004f757620004f762000539565b500390565b600181811c908216806200051157607f821691505b602082108114156200053357634e487b7160e01b600052602260045260246000fd5b50919050565b634e487b7160e01b600052601160045260246000fd5b612fcb806200055f6000396000f3fe608060405234801561001057600080fd5b50600436106101a85760003560e01c8063715018a6116100f9578063e4849b3211610097578063f242432a11610071578063f242432a146103c1578063f2e8dfdb146103d4578063f2fde38b146103dc578063f5cf330b146103ef57600080fd5b8063e4849b321461035f578063e757223014610372578063e985e9c51461038557600080fd5b8063a2fb1175116100d3578063a2fb117514610304578063bd85b03914610317578063d96a094a14610337578063df15c37e1461034a57600080fd5b8063715018a6146102d85780638da5cb5b146102e0578063a22cb465146102f157600080fd5b80634e1273f4116101665780635c975abb116101405780635c975abb146102ad57806363bd1d4a146102bf57806368d2be8f146102c75780636b31ee01146102cf57600080fd5b80634e1273f4146102635780634ee14bab146102835780634f558e791461028b57600080fd5b8062fdd58e146101ad57806301ffc9a7146101d3578063069a825c146101f65780630e89341c146102035780632eb2c2d6146102235780633e413bee14610238575b600080fd5b6101c06101bb3660046128c1565b610402565b6040519081526020015b60405180910390f35b6101e66101e13660046129d1565b610499565b60405190151581526020016101ca565b6011546101e69060ff1681565b610216610211366004612a09565b6104eb565b6040516101ca9190612c45565b610236610231366004612782565b61057f565b005b60145461024b906001600160a01b031681565b6040516001600160a01b0390911681526020016101ca565b6102766102713660046128ea565b610616565b6040516101ca9190612c04565b6101c0610778565b6101e6610299366004612a09565b600090815260036020526040902054151590565b600454600160a01b900460ff166101e6565b610236610805565b6101c0600181565b6101c060135481565b610236610ad6565b6004546001600160a01b031661024b565b6102366102ff36600461288b565b610b0c565b61024b610312366004612a09565b610b1b565b6101c0610325366004612a09565b60009081526003602052604090205490565b610236610345366004612a09565b610b45565b610352610eb8565b6040516101ca9190612b61565b61023661036d366004612a09565b610f1a565b6101c0610380366004612a09565b610f86565b6101e6610393366004612750565b6001600160a01b03918216600090815260016020908152604080832093909416825291909152205460ff1690565b6102366103cf366004612828565b610fb3565b6101c0600081565b6102366103ea36600461272f565b61103a565b6101c06103fd366004612a09565b6110d5565b60006001600160a01b0383166104735760405162461bcd60e51b815260206004820152602b60248201527f455243313135353a2062616c616e636520717565727920666f7220746865207a60448201526a65726f206164647265737360a81b60648201526084015b60405180910390fd5b506000908152602081815260408083206001600160a01b03949094168352929052205490565b60006001600160e01b03198216636cdb3d1360e11b14806104ca57506001600160e01b031982166303a24d0760e21b145b806104e557506301ffc9a760e01b6001600160e01b03198316145b92915050565b6060600280546104fa90612e20565b80601f016020809104026020016040519081016040528092919081815260200182805461052690612e20565b80156105735780601f1061054857610100808354040283529160200191610573565b820191906000526020600020905b81548152906001019060200180831161055657829003601f168201915b50505050509050919050565b6001600160a01b03851633148061059b575061059b8533610393565b6106025760405162461bcd60e51b815260206004820152603260248201527f455243313135353a207472616e736665722063616c6c6572206973206e6f74206044820152711bdddb995c881b9bdc88185c1c1c9bdd995960721b606482015260840161046a565b61060f85858585856111ec565b5050505050565b6060815183511461067b5760405162461bcd60e51b815260206004820152602960248201527f455243313135353a206163636f756e747320616e6420696473206c656e677468604482015268040dad2e6dac2e8c6d60bb1b606482015260840161046a565b6000835167ffffffffffffffff8111156106a557634e487b7160e01b600052604160045260246000fd5b6040519080825280602002602001820160405280156106ce578160200160208202803683370190505b50905060005b84518110156107705761073585828151811061070057634e487b7160e01b600052603260045260246000fd5b602002602001015185838151811061072857634e487b7160e01b600052603260045260246000fd5b6020026020010151610402565b82828151811061075557634e487b7160e01b600052603260045260246000fd5b602090810291909101015261076981612e88565b90506106d4565b509392505050565b600f546000906001905b600e548110156107fc57336001600160a01b0316600e82815481106107b757634e487b7160e01b600052603260045260246000fd5b60009182526020909120600290910201546001600160a01b031614156107dd5750919050565b6107e8600183612db2565b9150806107f481612e88565b915050610782565b50600091505090565b6004546001600160a01b0316331461082f5760405162461bcd60e51b815260040161046a90612d59565b60125460135460009061084a90670de0b6b3a7640000612dea565b905060005b828110156109ad5760006108638484612dca565b601454601280549293506001600160a01b039091169163a9059cbb91908590811061089e57634e487b7160e01b600052603260045260246000fd5b60009182526020909120015460405160e083901b6001600160e01b03191681526001600160a01b03909116600482015260248101849052604401602060405180830381600087803b1580156108f257600080fd5b505af1158015610906573d6000803e3d6000fd5b505050506040513d601f19601f8201168201806040525081019061092a91906129b5565b507f88c519ab1745d32c7a1e2c97aa7817ca6e8046aaa146002b9ec1c8516ed678546012838154811061096d57634e487b7160e01b600052603260045260246000fd5b60009182526020918290200154604080516001600160a01b0390921682529181018490520160405180910390a150806109a581612e88565b91505061084f565b506014546040516370a0823160e01b81523060048201526000916001600160a01b0316906370a082319060240160206040518083038186803b1580156109f257600080fd5b505afa158015610a06573d6000803e3d6000fd5b505050506040513d601f19601f82011682018060405250810190610a2a9190612a21565b6014549091506001600160a01b031663a9059cbb610a506004546001600160a01b031690565b6040516001600160e01b031960e084901b1681526001600160a01b03909116600482015260248101849052604401602060405180830381600087803b158015610a9857600080fd5b505af1158015610aac573d6000803e3d6000fd5b505050506040513d601f19601f82011682018060405250810190610ad091906129b5565b50505050565b6004546001600160a01b03163314610b005760405162461bcd60e51b815260040161046a90612d59565b610b0a60006113f3565b565b610b17338383611489565b5050565b60128181548110610b2b57600080fd5b6000918252602090912001546001600160a01b0316905081565b600454600160a01b900460ff1615610b6f5760405162461bcd60e51b815260040161046a90612ca0565b801580610b7c5750600181145b610bb95760405162461bcd60e51b815260206004820152600e60248201526d24b73b30b634b2103a37b5b2b71760911b604482015260640161046a565b610bc4336000610402565b158015610bd95750610bd7336001610402565b155b610c335760405162461bcd60e51b815260206004820152602560248201527f48494c4f3a2063616e6e6f742068617665206d6f7265207468616e206f6e65206044820152643a37b5b2b760d91b606482015260840161046a565b6000610c3e82610f86565b905060008111610c5e57634e487b7160e01b600052600160045260246000fd5b600060075482148015610c715750600183145b80610c86575060065482148015610c86575082155b600b546000858152600d602052604090205460095460085493945091149114801590610cb657508180610cb65750805b15610cfe57610cc48461156a565b60408051338152602081018690527f0d86730737b142fc160892fa8a0f2db687a92a0e294d1ad70624cf5acef03b84910160405180910390a15b610d1083670de0b6b3a7640000612dea565b6014546040516370a0823160e01b81523360048201529194506000916001600160a01b03909116906370a082319060240160206040518083038186803b158015610d5957600080fd5b505afa158015610d6d573d6000803e3d6000fd5b505050506040513d601f19601f82011682018060405250810190610d919190612a21565b905083811015610de35760405162461bcd60e51b815260206004820152601a60248201527f496e73756666696369656e7420555344432062616c616e63652e000000000000604482015260640161046a565b6014546040516323b872dd60e01b8152336004820152306024820152604481018690526001600160a01b03909116906323b872dd90606401602060405180830381600087803b158015610e3557600080fd5b505af1158015610e49573d6000803e3d6000fd5b505050506040513d601f19601f82011682018060405250810190610e6d91906129b5565b50610e8a33866001604051806020016040528060008152506115a2565b81610e9857610e98856116c5565b600a546000868152600c6020526040902054141561060f5761060f61174b565b60606012805480602002602001604051908101604052809291908181526020018280548015610f1057602002820191906000526020600020905b81546001600160a01b03168152600190910190602001808311610ef2575b5050505050905090565b60026005541415610f6d5760405162461bcd60e51b815260206004820152601f60248201527f5265656e7472616e637947756172643a207265656e7472616e742063616c6c00604482015260640161046a565b600260055533610f7d818361180f565b50506001600555565b600081610f9557505060085490565b6001821415610fa657505060095490565b506000919050565b919050565b6001600160a01b038516331480610fcf5750610fcf8533610393565b61102d5760405162461bcd60e51b815260206004820152602960248201527f455243313135353a2063616c6c6572206973206e6f74206f776e6572206e6f7260448201526808185c1c1c9bdd995960ba1b606482015260840161046a565b61060f8585858585611b38565b6004546001600160a01b031633146110645760405162461bcd60e51b815260040161046a90612d59565b6001600160a01b0381166110c95760405162461bcd60e51b815260206004820152602660248201527f4f776e61626c653a206e6577206f776e657220697320746865207a65726f206160448201526564647265737360d01b606482015260840161046a565b6110d2816113f3565b50565b6000806110e0610778565b905080156110ee5792915050565b6040805180820190915233815260208101848152600e8054600181018255600082905283517fbb7b4a454dc3493923482f07822329ed19e8244eff582cc204f8554c3620c3fd600290920291820180546001600160a01b0319166001600160a01b0390921691909117905591517fbb7b4a454dc3493923482f07822329ed19e8244eff582cc204f8554c3620c3fe90920191909155600f5490546111929190612e09565b949350505050565b600480546001600160a01b038381166001600160a01b0319831681179093556040519116919082907f8be0079c531659141344cd1fd0a4f28419497f9722a3daafe3b4186f6b6457e090600090a35050565b815183511461124e5760405162461bcd60e51b815260206004820152602860248201527f455243313135353a2069647320616e6420616d6f756e7473206c656e677468206044820152670dad2e6dac2e8c6d60c31b606482015260840161046a565b6001600160a01b0384166112745760405162461bcd60e51b815260040161046a90612cca565b33611283818787878787611c70565b60005b84518110156113855760008582815181106112b157634e487b7160e01b600052603260045260246000fd5b6020026020010151905060008583815181106112dd57634e487b7160e01b600052603260045260246000fd5b602090810291909101810151600084815280835260408082206001600160a01b038e16835290935291909120549091508181101561132d5760405162461bcd60e51b815260040161046a90612d0f565b6000838152602081815260408083206001600160a01b038e8116855292528083208585039055908b1682528120805484929061136a908490612db2565b925050819055505050508061137e90612e88565b9050611286565b50846001600160a01b0316866001600160a01b0316826001600160a01b03167f4a39dc06d4c0dbc64b70af90fd698a233a518aa5d07e595d983b8c0526c8f7fb87876040516113d5929190612c17565b60405180910390a46113eb818787878787611d11565b505050505050565b60006114076004546001600160a01b031690565b6001600160a01b0316148061142957506004546001600160a01b038281169116145b6114805760405162461bcd60e51b815260206004820152602260248201527f48494c4f3a2063616e6e6f74207472616e73666572206f776e65727368697020604482015261746f60f01b606482015260840161046a565b6110d28161119a565b816001600160a01b0316836001600160a01b031614156114fd5760405162461bcd60e51b815260206004820152602960248201527f455243313135353a2073657474696e6720617070726f76616c20737461747573604482015268103337b91039b2b63360b91b606482015260840161046a565b6001600160a01b03838116600081815260016020908152604080832094871680845294825291829020805460ff191686151590811790915591519182527f17307eab39ab6107e8899845ad3d59bd9653f200f220920489ca2b5937696c31910160405180910390a3505050565b8061157c57611577611e7c565b611584565b611584611ecb565b6000908152600c60209081526040808320839055600d909152812055565b6001600160a01b0384166116025760405162461bcd60e51b815260206004820152602160248201527f455243313135353a206d696e7420746f20746865207a65726f206164647265736044820152607360f81b606482015260840161046a565b33600061160e85611f30565b9050600061161b85611f30565b905061162c83600089858589611c70565b6000868152602081815260408083206001600160a01b038b1684529091528120805487929061165c908490612db2565b909155505060408051878152602081018790526001600160a01b03808a1692600092918716917fc3d58168c5ae7397731d063d5bbf3d657854427343f4c083240f7aacaa2d0f62910160405180910390a46116bc83600089898989611f89565b50505050505050565b600a546000828152600c60205260409020541015611707576000818152600c60205260409020546116f7906001612db2565b6000828152600c60205260409020555b600b546000828152600d602052604090205410156110d2576000818152600d6020526040902054611739906001612db2565b6000828152600d602052604090205550565b600454600160a01b900460ff16156117755760405162461bcd60e51b815260040161046a90612ca0565b600e5461177e57565b600f8054600091600e91908361179383612e88565b91905055815481106117b557634e487b7160e01b600052603260045260246000fd5b600091825260208083206040805180820190915260029093020180546001600160a01b03168084526001909101549183018290529193506117f69190610402565b905080611801575050565b610b17826000015183602001515b600454600160a01b900460ff16156118395760405162461bcd60e51b815260040161046a90612ca0565b8015806118465750600181145b6118835760405162461bcd60e51b815260206004820152600e60248201526d24b73b30b634b2103a37b5b2b71760911b604482015260640161046a565b8015801561189b57506000611899836000610402565b115b806118bb57506001811480156118bb575060006118b9836001610402565b115b6119195760405162461bcd60e51b815260206004820152602960248201527f48494c4f3a2063616e6e6f742073656c6c207768656e20796f752068617665206044820152686e6f20746f6b656e7360b81b606482015260840161046a565b600a546000828152600c6020526040902054148061198b5760405162461bcd60e51b815260206004820152602960248201527f48494c4f3a2063616e6e6f742073656c6c207768656e207468652073616c65206044820152681a5cc81b1bd8dad95960ba1b606482015260840161046a565b6119958383612053565b60095460085414156119b7576119b26119ad83610f86565b612118565b505050565b60006119c283610f86565b90506119d681670de0b6b3a7640000612dea565b60145460405163a9059cbb60e01b81526001600160a01b0387811660048301526024820184905292935091169063a9059cbb90604401602060405180830381600087803b158015611a2657600080fd5b505af1158015611a3a573d6000803e3d6000fd5b505050506040513d601f19601f82011682018060405250810190611a5e91906129b5565b50611a6b84846001612277565b611a748361156a565b604080516001600160a01b0386168152602081018590527f0d86730737b142fc160892fa8a0f2db687a92a0e294d1ad70624cf5acef03b84910160405180910390a182158015611acc5750611aca846001610402565b155b15610ad057611aed84600180604051806020016040528060008152506115a2565b6001600a54611afc9190612e09565b6001600052600c6020527fd421a5181c571bba3f01190c922c3b2a896fc1d84e86c9f17ac10e67ebef8b5c541015610ad057610ad060016116c5565b6001600160a01b038416611b5e5760405162461bcd60e51b815260040161046a90612cca565b336000611b6a85611f30565b90506000611b7785611f30565b9050611b87838989858589611c70565b6000868152602081815260408083206001600160a01b038c16845290915290205485811015611bc85760405162461bcd60e51b815260040161046a90612d0f565b6000878152602081815260408083206001600160a01b038d8116855292528083208985039055908a16825281208054889290611c05908490612db2565b909155505060408051888152602081018890526001600160a01b03808b16928c821692918816917fc3d58168c5ae7397731d063d5bbf3d657854427343f4c083240f7aacaa2d0f62910160405180910390a4611c65848a8a8a8a8a611f89565b505050505050505050565b600454600160a01b900460ff1615611c9a5760405162461bcd60e51b815260040161046a90612ca0565b6001600160a01b0385161580611cb757506001600160a01b038416155b611d035760405162461bcd60e51b815260206004820152601760248201527f48494c4f3a206e6f6e207472616e736665727261626c65000000000000000000604482015260640161046a565b6113eb868686868686612407565b6001600160a01b0384163b156113eb5760405163bc197c8160e01b81526001600160a01b0385169063bc197c8190611d559089908990889088908890600401612abe565b602060405180830381600087803b158015611d6f57600080fd5b505af1925050508015611d9f575060408051601f3d908101601f19168201909252611d9c918101906129ed565b60015b611e4c57611dab612ecf565b806308c379a01415611de55750611dc0612ee7565b80611dcb5750611de7565b8060405162461bcd60e51b815260040161046a9190612c45565b505b60405162461bcd60e51b815260206004820152603460248201527f455243313135353a207472616e7366657220746f206e6f6e20455243313135356044820152732932b1b2b4bb32b91034b6b83632b6b2b73a32b960611b606482015260840161046a565b6001600160e01b0319811663bc197c8160e01b146116bc5760405162461bcd60e51b815260040161046a90612c58565b6001600854611e8b9190612e09565b6008557f5a258dc6fce0816c9caf9835f08fa5596416dd55037714d2e51688cea5f062c5600854604051611ec191815260200190565b60405180910390a1565b600954611ed9906001612db2565b60098190556008541015611efd57634e487b7160e01b600052600160045260246000fd5b7f3f9b5fbd1bfff0a78edef53fb452db3ea00eb6ea96cb06defcc66dd171bbca21600954604051611ec191815260200190565b60408051600180825281830190925260609160009190602080830190803683370190505090508281600081518110611f7857634e487b7160e01b600052603260045260246000fd5b602090810291909101015292915050565b6001600160a01b0384163b156113eb5760405163f23a6e6160e01b81526001600160a01b0385169063f23a6e6190611fcd9089908990889088908890600401612b1c565b602060405180830381600087803b158015611fe757600080fd5b505af1925050508015612017575060408051601f3d908101601f19168201909252612014918101906129ed565b60015b61202357611dab612ecf565b6001600160e01b0319811663f23a6e6160e01b146116bc5760405162461bcd60e51b815260040161046a90612c58565b600061205e82610f86565b60408051606080820183526001600160a01b03878116808452602080850189815285870188815260008981526010845288812080546001808201835591835291859020895160039093020180546001600160a01b03191692909716919091178655915191850191909155516002909301929092558451908152908101879052928301849052929350917fc19f70d47acbbf1d2faf3a7944182cf6b5345c67d2156ed328ea510e72f13066910160405180910390a150505050565b6000601060006008548152602001908152602001600020805480602002602001604051908101604052809291908181526020016000905b828210156121a4576000848152602090819020604080516060810182526003860290920180546001600160a01b031683526001808201548486015260029091015491830191909152908352909201910161214f565b50505050905060005b81518110156122265760128282815181106121d857634e487b7160e01b600052603260045260246000fd5b6020908102919091018101515182546001810184556000938452919092200180546001600160a01b0319166001600160a01b039092169190911790558061221e81612e88565b9150506121ad565b506011805460ff191660011790556040517f10dee8c2942b449b177825c6d5eb7131392949ec2008676761b93b00acea615a90612267906012908590612bae565b60405180910390a1610b176125b8565b6001600160a01b0383166122d95760405162461bcd60e51b815260206004820152602360248201527f455243313135353a206275726e2066726f6d20746865207a65726f206164647260448201526265737360e81b606482015260840161046a565b3360006122e584611f30565b905060006122f284611f30565b905061231283876000858560405180602001604052806000815250611c70565b6000858152602081815260408083206001600160a01b038a1684529091529020548481101561238f5760405162461bcd60e51b8152602060048201526024808201527f455243313135353a206275726e20616d6f756e7420657863656564732062616c604482015263616e636560e01b606482015260840161046a565b6000868152602081815260408083206001600160a01b038b81168086529184528285208a8703905582518b81529384018a90529092908816917fc3d58168c5ae7397731d063d5bbf3d657854427343f4c083240f7aacaa2d0f62910160405180910390a46040805160208101909152600090526116bc565b6001600160a01b0385166124aa5760005b83518110156124a85782818151811061244157634e487b7160e01b600052603260045260246000fd5b60200260200101516003600086848151811061246d57634e487b7160e01b600052603260045260246000fd5b6020026020010151815260200190815260200160002060008282546124929190612db2565b909155506124a1905081612e88565b9050612418565b505b6001600160a01b0384166113eb5760005b83518110156116bc5760008482815181106124e657634e487b7160e01b600052603260045260246000fd5b60200260200101519050600084838151811061251257634e487b7160e01b600052603260045260246000fd5b60200260200101519050600060036000848152602001908152602001600020549050818110156125955760405162461bcd60e51b815260206004820152602860248201527f455243313135353a206275726e20616d6f756e74206578636565647320746f74604482015267616c537570706c7960c01b606482015260840161046a565b600092835260036020526040909220910390556125b181612e88565b90506124bb565b600454600160a01b900460ff16156125e25760405162461bcd60e51b815260040161046a90612ca0565b6004805460ff60a01b1916600160a01b1790557f62e78cea01bee320cd4e420270b5ea74000d11b0c9f74754ebdbfc544b05a25861261d3390565b6040516001600160a01b039091168152602001611ec1565b80356001600160a01b0381168114610fae57600080fd5b600082601f83011261265c578081fd5b8135602061266982612d8e565b6040516126768282612e5b565b8381528281019150858301600585901b87018401881015612695578586fd5b855b858110156126b357813584529284019290840190600101612697565b5090979650505050505050565b600082601f8301126126d0578081fd5b813567ffffffffffffffff8111156126ea576126ea612eb9565b604051612701601f8301601f191660200182612e5b565b818152846020838601011115612715578283fd5b816020850160208301379081016020019190915292915050565b600060208284031215612740578081fd5b61274982612635565b9392505050565b60008060408385031215612762578081fd5b61276b83612635565b915061277960208401612635565b90509250929050565b600080600080600060a08688031215612799578081fd5b6127a286612635565b94506127b060208701612635565b9350604086013567ffffffffffffffff808211156127cc578283fd5b6127d889838a0161264c565b945060608801359150808211156127ed578283fd5b6127f989838a0161264c565b9350608088013591508082111561280e578283fd5b5061281b888289016126c0565b9150509295509295909350565b600080600080600060a0868803121561283f578081fd5b61284886612635565b945061285660208701612635565b93506040860135925060608601359150608086013567ffffffffffffffff81111561287f578182fd5b61281b888289016126c0565b6000806040838503121561289d578182fd5b6128a683612635565b915060208301356128b681612f71565b809150509250929050565b600080604083850312156128d3578182fd5b6128dc83612635565b946020939093013593505050565b600080604083850312156128fc578182fd5b823567ffffffffffffffff80821115612913578384fd5b818501915085601f830112612926578384fd5b8135602061293382612d8e565b6040516129408282612e5b565b8381528281019150858301600585901b870184018b101561295f578889fd5b8896505b848710156129885761297481612635565b835260019690960195918301918301612963565b509650508601359250508082111561299e578283fd5b506129ab8582860161264c565b9150509250929050565b6000602082840312156129c6578081fd5b815161274981612f71565b6000602082840312156129e2578081fd5b813561274981612f7f565b6000602082840312156129fe578081fd5b815161274981612f7f565b600060208284031215612a1a578081fd5b5035919050565b600060208284031215612a32578081fd5b5051919050565b6000815180845260208085019450808401835b83811015612a6857815187529582019590820190600101612a4c565b509495945050505050565b60008151808452815b81811015612a9857602081850181015186830182015201612a7c565b81811115612aa95782602083870101525b50601f01601f19169290920160200192915050565b6001600160a01b0386811682528516602082015260a060408201819052600090612aea90830186612a39565b8281036060840152612afc8186612a39565b90508281036080840152612b108185612a73565b98975050505050505050565b6001600160a01b03868116825285166020820152604081018490526060810183905260a060808201819052600090612b5690830184612a73565b979650505050505050565b6020808252825182820181905260009190848201906040850190845b81811015612ba25783516001600160a01b031683529284019291840191600101612b7d565b50909695505050505050565b6000604082016040835280855480835260608501915086845260209250828420845b82811015612bf55781546001600160a01b031684529284019260019182019101612bd0565b50505092019290925292915050565b6020815260006127496020830184612a39565b604081526000612c2a6040830185612a39565b8281036020840152612c3c8185612a39565b95945050505050565b6020815260006127496020830184612a73565b60208082526028908201527f455243313135353a204552433131353552656365697665722072656a656374656040820152676420746f6b656e7360c01b606082015260800190565b60208082526010908201526f14185d5cd8589b194e881c185d5cd95960821b604082015260600190565b60208082526025908201527f455243313135353a207472616e7366657220746f20746865207a65726f206164604082015264647265737360d81b606082015260800190565b6020808252602a908201527f455243313135353a20696e73756666696369656e742062616c616e636520666f60408201526939103a3930b739b332b960b11b606082015260800190565b6020808252818101527f4f776e61626c653a2063616c6c6572206973206e6f7420746865206f776e6572604082015260600190565b600067ffffffffffffffff821115612da857612da8612eb9565b5060051b60200190565b60008219821115612dc557612dc5612ea3565b500190565b600082612de557634e487b7160e01b81526012600452602481fd5b500490565b6000816000190483118215151615612e0457612e04612ea3565b500290565b600082821015612e1b57612e1b612ea3565b500390565b600181811c90821680612e3457607f821691505b60208210811415612e5557634e487b7160e01b600052602260045260246000fd5b50919050565b601f8201601f1916810167ffffffffffffffff81118282101715612e8157612e81612eb9565b6040525050565b6000600019821415612e9c57612e9c612ea3565b5060010190565b634e487b7160e01b600052601160045260246000fd5b634e487b7160e01b600052604160045260246000fd5b600060033d1115612ee457600481823e5160e01c5b90565b600060443d1015612ef55790565b6040516003193d81016004833e81513d67ffffffffffffffff8160248401118184111715612f2557505050505090565b8285019150815181811115612f3d5750505050505090565b843d8701016020828501011115612f575750505050505090565b612f6660208286010187612e5b565b509095945050505050565b80151581146110d257600080fd5b6001600160e01b0319811681146110d257600080fdfea2646970667358221220f7309d22606541e771ffc7ca132a443580eeed2c8d1d1e6f8cd65e02c886f22b64736f6c6343000804003368747470733a2f2f68696c6f2d65696768742e76657263656c2e6170702f6170692f746f6b656e732f7b69647d",
  "linkReferences": {},
  "deployedLinkReferences": {}
}