{
  "_format": "hh-sol-artifact-1",
  "contractName": "HILOToken",
  "sourceName": "contracts/HILOToken.sol",
  "abi": [
    {
      "inputs": [
        {
          "internalType": "uint256",
          "name": "_initialHi",
          "type": "uint256"
        },
        {
          "internalType": "uint256",
          "name": "_initialLo",
          "type": "uint256"
        },
        {
          "internalType": "uint256",
          "name": "_buyRequiredCount",
          "type": "uint256"
        }
      ],
      "stateMutability": "nonpayable",
      "type": "constructor"
    },
    {
      "anonymous": false,
      "inputs": [
        {
          "indexed": true,
          "internalType": "address",
          "name": "account",
          "type": "address"
        },
        {
          "indexed": true,
          "internalType": "address",
          "name": "operator",
          "type": "address"
        },
        {
          "indexed": false,
          "internalType": "bool",
          "name": "approved",
          "type": "bool"
        }
      ],
      "name": "ApprovalForAll",
      "type": "event"
    },
    {
      "anonymous": false,
      "inputs": [
        {
          "indexed": true,
          "internalType": "address",
          "name": "previousOwner",
          "type": "address"
        },
        {
          "indexed": true,
          "internalType": "address",
          "name": "newOwner",
          "type": "address"
        }
      ],
      "name": "OwnershipTransferred",
      "type": "event"
    },
    {
      "anonymous": false,
      "inputs": [
        {
          "indexed": false,
          "internalType": "address",
          "name": "account",
          "type": "address"
        }
      ],
      "name": "Paused",
      "type": "event"
    },
    {
      "anonymous": false,
      "inputs": [
        {
          "indexed": true,
          "internalType": "address",
          "name": "operator",
          "type": "address"
        },
        {
          "indexed": true,
          "internalType": "address",
          "name": "from",
          "type": "address"
        },
        {
          "indexed": true,
          "internalType": "address",
          "name": "to",
          "type": "address"
        },
        {
          "indexed": false,
          "internalType": "uint256[]",
          "name": "ids",
          "type": "uint256[]"
        },
        {
          "indexed": false,
          "internalType": "uint256[]",
          "name": "values",
          "type": "uint256[]"
        }
      ],
      "name": "TransferBatch",
      "type": "event"
    },
    {
      "anonymous": false,
      "inputs": [
        {
          "indexed": true,
          "internalType": "address",
          "name": "operator",
          "type": "address"
        },
        {
          "indexed": true,
          "internalType": "address",
          "name": "from",
          "type": "address"
        },
        {
          "indexed": true,
          "internalType": "address",
          "name": "to",
          "type": "address"
        },
        {
          "indexed": false,
          "internalType": "uint256",
          "name": "id",
          "type": "uint256"
        },
        {
          "indexed": false,
          "internalType": "uint256",
          "name": "value",
          "type": "uint256"
        }
      ],
      "name": "TransferSingle",
      "type": "event"
    },
    {
      "anonymous": false,
      "inputs": [
        {
          "indexed": false,
          "internalType": "string",
          "name": "value",
          "type": "string"
        },
        {
          "indexed": true,
          "internalType": "uint256",
          "name": "id",
          "type": "uint256"
        }
      ],
      "name": "URI",
      "type": "event"
    },
    {
      "anonymous": false,
      "inputs": [
        {
          "indexed": false,
          "internalType": "address",
          "name": "account",
          "type": "address"
        }
      ],
      "name": "Unpaused",
      "type": "event"
    },
    {
      "anonymous": false,
      "inputs": [
        {
          "indexed": false,
          "internalType": "address",
          "name": "player",
          "type": "address"
        },
        {
          "indexed": false,
          "internalType": "uint256",
          "name": "tokenId",
          "type": "uint256"
        },
        {
          "indexed": false,
          "internalType": "uint256",
          "name": "price",
          "type": "uint256"
        }
      ],
      "name": "actionAdded",
      "type": "event"
    },
    {
      "anonymous": false,
      "inputs": [
        {
          "indexed": false,
          "internalType": "address",
          "name": "player",
          "type": "address"
        },
        {
          "indexed": false,
          "internalType": "uint256",
          "name": "tokenId",
          "type": "uint256"
        },
        {
          "indexed": false,
          "internalType": "uint256",
          "name": "price",
          "type": "uint256"
        }
      ],
      "name": "buyPriceCheck",
      "type": "event"
    },
    {
      "anonymous": false,
      "inputs": [
        {
          "indexed": false,
          "internalType": "address",
          "name": "player",
          "type": "address"
        },
        {
          "indexed": false,
          "internalType": "uint256",
          "name": "tokenId",
          "type": "uint256"
        }
      ],
      "name": "buyPriceUpdate",
      "type": "event"
    },
    {
      "anonymous": false,
      "inputs": [
        {
          "indexed": false,
          "internalType": "uint256",
          "name": "newHiPrice",
          "type": "uint256"
        }
      ],
      "name": "hiDecreased",
      "type": "event"
    },
    {
      "anonymous": false,
      "inputs": [
        {
          "indexed": false,
          "internalType": "uint256",
          "name": "newLoPrice",
          "type": "uint256"
        }
      ],
      "name": "loIncreased",
      "type": "event"
    },
    {
      "anonymous": false,
      "inputs": [
        {
          "indexed": false,
          "internalType": "address",
          "name": "player",
          "type": "address"
        },
        {
          "indexed": false,
          "internalType": "uint256",
          "name": "balance",
          "type": "uint256"
        }
      ],
      "name": "playerBalanceCheck",
      "type": "event"
    },
    {
      "anonymous": false,
      "inputs": [
        {
          "indexed": false,
          "internalType": "address",
          "name": "player",
          "type": "address"
        },
        {
          "indexed": false,
          "internalType": "uint256",
          "name": "amount",
          "type": "uint256"
        }
      ],
      "name": "playerPayment",
      "type": "event"
    },
    {
      "anonymous": false,
      "inputs": [
        {
          "indexed": false,
          "internalType": "address[]",
          "name": "winners",
          "type": "address[]"
        },
        {
          "indexed": false,
          "internalType": "uint256",
          "name": "price",
          "type": "uint256"
        }
      ],
      "name": "pricesConverged",
      "type": "event"
    },
    {
      "anonymous": false,
      "inputs": [
        {
          "indexed": false,
          "internalType": "uint256",
          "name": "tokenId",
          "type": "uint256"
        }
      ],
      "name": "saleUnlocked",
      "type": "event"
    },
    {
      "anonymous": false,
      "inputs": [
        {
          "indexed": false,
          "internalType": "uint256",
          "name": "tokenId",
          "type": "uint256"
        },
        {
          "indexed": false,
          "internalType": "bool",
          "name": "shouldUnlock",
          "type": "bool"
        }
      ],
      "name": "shouldUnlockCheck",
      "type": "event"
    },
    {
      "anonymous": false,
      "inputs": [
        {
          "indexed": false,
          "internalType": "address",
          "name": "player",
          "type": "address"
        },
        {
          "indexed": false,
          "internalType": "uint256",
          "name": "tokenId",
          "type": "uint256"
        }
      ],
      "name": "tokenMinted",
      "type": "event"
    },
    {
      "inputs": [],
      "name": "HI",
      "outputs": [
        {
          "internalType": "uint256",
          "name": "",
          "type": "uint256"
        }
      ],
      "stateMutability": "view",
      "type": "function"
    },
    {
      "inputs": [],
      "name": "LO",
      "outputs": [
        {
          "internalType": "uint256",
          "name": "",
          "type": "uint256"
        }
      ],
      "stateMutability": "view",
      "type": "function"
    },
    {
      "inputs": [
        {
          "internalType": "address",
          "name": "account",
          "type": "address"
        },
        {
          "internalType": "uint256",
          "name": "id",
          "type": "uint256"
        }
      ],
      "name": "balanceOf",
      "outputs": [
        {
          "internalType": "uint256",
          "name": "",
          "type": "uint256"
        }
      ],
      "stateMutability": "view",
      "type": "function"
    },
    {
      "inputs": [
        {
          "internalType": "address[]",
          "name": "accounts",
          "type": "address[]"
        },
        {
          "internalType": "uint256[]",
          "name": "ids",
          "type": "uint256[]"
        }
      ],
      "name": "balanceOfBatch",
      "outputs": [
        {
          "internalType": "uint256[]",
          "name": "",
          "type": "uint256[]"
        }
      ],
      "stateMutability": "view",
      "type": "function"
    },
    {
      "inputs": [
        {
          "internalType": "uint256",
          "name": "tokenId",
          "type": "uint256"
        }
      ],
      "name": "buy",
      "outputs": [],
      "stateMutability": "nonpayable",
      "type": "function"
    },
    {
      "inputs": [
        {
          "internalType": "uint256",
          "name": "tokenId",
          "type": "uint256"
        }
      ],
      "name": "getPrice",
      "outputs": [
        {
          "internalType": "uint256",
          "name": "",
          "type": "uint256"
        }
      ],
      "stateMutability": "view",
      "type": "function"
    },
    {
      "inputs": [
        {
          "internalType": "address",
          "name": "account",
          "type": "address"
        },
        {
          "internalType": "address",
          "name": "operator",
          "type": "address"
        }
      ],
      "name": "isApprovedForAll",
      "outputs": [
        {
          "internalType": "bool",
          "name": "",
          "type": "bool"
        }
      ],
      "stateMutability": "view",
      "type": "function"
    },
    {
      "inputs": [],
      "name": "owner",
      "outputs": [
        {
          "internalType": "address",
          "name": "",
          "type": "address"
        }
      ],
      "stateMutability": "view",
      "type": "function"
    },
    {
      "inputs": [],
      "name": "paused",
      "outputs": [
        {
          "internalType": "bool",
          "name": "",
          "type": "bool"
        }
      ],
      "stateMutability": "view",
      "type": "function"
    },
    {
      "inputs": [],
      "name": "renounceOwnership",
      "outputs": [],
      "stateMutability": "nonpayable",
      "type": "function"
    },
    {
      "inputs": [
        {
          "internalType": "address",
          "name": "from",
          "type": "address"
        },
        {
          "internalType": "address",
          "name": "to",
          "type": "address"
        },
        {
          "internalType": "uint256[]",
          "name": "ids",
          "type": "uint256[]"
        },
        {
          "internalType": "uint256[]",
          "name": "amounts",
          "type": "uint256[]"
        },
        {
          "internalType": "bytes",
          "name": "data",
          "type": "bytes"
        }
      ],
      "name": "safeBatchTransferFrom",
      "outputs": [],
      "stateMutability": "nonpayable",
      "type": "function"
    },
    {
      "inputs": [
        {
          "internalType": "address",
          "name": "from",
          "type": "address"
        },
        {
          "internalType": "address",
          "name": "to",
          "type": "address"
        },
        {
          "internalType": "uint256",
          "name": "id",
          "type": "uint256"
        },
        {
          "internalType": "uint256",
          "name": "amount",
          "type": "uint256"
        },
        {
          "internalType": "bytes",
          "name": "data",
          "type": "bytes"
        }
      ],
      "name": "safeTransferFrom",
      "outputs": [],
      "stateMutability": "nonpayable",
      "type": "function"
    },
    {
      "inputs": [
        {
          "internalType": "uint256",
          "name": "tokenId",
          "type": "uint256"
        }
      ],
      "name": "sell",
      "outputs": [],
      "stateMutability": "nonpayable",
      "type": "function"
    },
    {
      "inputs": [
        {
          "internalType": "address",
          "name": "operator",
          "type": "address"
        },
        {
          "internalType": "bool",
          "name": "approved",
          "type": "bool"
        }
      ],
      "name": "setApprovalForAll",
      "outputs": [],
      "stateMutability": "nonpayable",
      "type": "function"
    },
    {
      "inputs": [
        {
          "internalType": "bytes4",
          "name": "interfaceId",
          "type": "bytes4"
        }
      ],
      "name": "supportsInterface",
      "outputs": [
        {
          "internalType": "bool",
          "name": "",
          "type": "bool"
        }
      ],
      "stateMutability": "view",
      "type": "function"
    },
    {
      "inputs": [
        {
          "internalType": "address",
          "name": "newOwner",
          "type": "address"
        }
      ],
      "name": "transferOwnership",
      "outputs": [],
      "stateMutability": "nonpayable",
      "type": "function"
    },
    {
      "inputs": [
        {
          "internalType": "uint256",
          "name": "",
          "type": "uint256"
        }
      ],
      "name": "uri",
      "outputs": [
        {
          "internalType": "string",
          "name": "",
          "type": "string"
        }
      ],
      "stateMutability": "view",
      "type": "function"
    },
    {
      "inputs": [],
      "name": "usdc",
      "outputs": [
        {
          "internalType": "contract IERC20",
          "name": "",
          "type": "address"
        }
      ],
      "stateMutability": "view",
      "type": "function"
    }
  ],
  "bytecode": "0x60806040523480156200001157600080fd5b5060405162002cad38038062002cad83398101604081905262000034916200027e565b6040805160208101909152600081526200004e816200016d565b506200005a3362000186565b6003805460ff60a01b191690556006839055600483905560078290556005829055826200009757634e487b7160e01b600052600160045260246000fd5b600060075411620000b857634e487b7160e01b600052600160045260246000fd5b60075460065411620000da57634e487b7160e01b600052600160045260246000fd5b6009555050600a60205260007f13da86008ba1c6922daee3e07db95305ef49ebced9f5467a0b8613fcc6b343e3819055600181527fbbc70db1b6c7afd11e79c0fb0051300458f1a3acb8ee9789d9b6b26c61ad9bc7556008805461010161ffff19909116179055600f80546001600160a01b03191673e11a86849d99f524cac3e7a0ec1241828e332c62179055620002e9565b805162000182906002906020840190620001d8565b5050565b600380546001600160a01b038381166001600160a01b0319831681179093556040519116919082907f8be0079c531659141344cd1fd0a4f28419497f9722a3daafe3b4186f6b6457e090600090a35050565b828054620001e690620002ac565b90600052602060002090601f0160209004810192826200020a576000855562000255565b82601f106200022557805160ff191683800117855562000255565b8280016001018555821562000255579182015b828111156200025557825182559160200191906001019062000238565b506200026392915062000267565b5090565b5b8082111562000263576000815560010162000268565b60008060006060848603121562000293578283fd5b8351925060208401519150604084015190509250925092565b600181811c90821680620002c157607f821691505b60208210811415620002e357634e487b7160e01b600052602260045260246000fd5b50919050565b6129b480620002f96000396000f3fe608060405234801561001057600080fd5b50600436106101155760003560e01c80638da5cb5b116100a2578063e757223011610071578063e75722301461024f578063e985e9c514610262578063f242432a1461029e578063f2e8dfdb146102b1578063f2fde38b146102b957600080fd5b80638da5cb5b14610205578063a22cb46514610216578063d96a094a14610229578063e4849b321461023c57600080fd5b80633e413bee116100e95780633e413bee146101985780634e1273f4146101c35780635c975abb146101e357806368d2be8f146101f5578063715018a6146101fd57600080fd5b8062fdd58e1461011a57806301ffc9a7146101405780630e89341c146101635780632eb2c2d614610183575b600080fd5b61012d6101283660046122c0565b6102cc565b6040519081526020015b60405180910390f35b61015361014e3660046123d0565b610363565b6040519015158152602001610137565b610176610171366004612408565b6103b5565b60405161013791906125f7565b610196610191366004612181565b610449565b005b600f546101ab906001600160a01b031681565b6040516001600160a01b039091168152602001610137565b6101d66101d13660046122e9565b6104e0565b60405161013791906125b6565b600354600160a01b900460ff16610153565b61012d600181565b610196610642565b6003546001600160a01b03166101ab565b61019661022436600461228a565b6106a8565b610196610237366004612408565b6106b7565b61019661024a366004612408565b610be0565b61012d61025d366004612408565b610beb565b61015361027036600461214f565b6001600160a01b03918216600090815260016020908152604080832093909416825291909152205460ff1690565b6101966102ac366004612227565b610c18565b61012d600081565b6101966102c736600461212e565b610c9f565b60006001600160a01b03831661033d5760405162461bcd60e51b815260206004820152602b60248201527f455243313135353a2062616c616e636520717565727920666f7220746865207a60448201526a65726f206164647265737360a81b60648201526084015b60405180910390fd5b506000908152602081815260408083206001600160a01b03949094168352929052205490565b60006001600160e01b03198216636cdb3d1360e11b148061039457506001600160e01b031982166303a24d0760e21b145b806103af57506301ffc9a760e01b6001600160e01b03198316145b92915050565b6060600280546103c49061279f565b80601f01602080910402602001604051908101604052809291908181526020018280546103f09061279f565b801561043d5780601f106104125761010080835404028352916020019161043d565b820191906000526020600020905b81548152906001019060200180831161042057829003601f168201915b50505050509050919050565b6001600160a01b03851633148061046557506104658533610270565b6104cc5760405162461bcd60e51b815260206004820152603260248201527f455243313135353a207472616e736665722063616c6c6572206973206e6f74206044820152711bdddb995c881b9bdc88185c1c1c9bdd995960721b6064820152608401610334565b6104d98585858585610d6a565b5050505050565b606081518351146105455760405162461bcd60e51b815260206004820152602960248201527f455243313135353a206163636f756e747320616e6420696473206c656e677468604482015268040dad2e6dac2e8c6d60bb1b6064820152608401610334565b6000835167ffffffffffffffff81111561056f57634e487b7160e01b600052604160045260246000fd5b604051908082528060200260200182016040528015610598578160200160208202803683370190505b50905060005b845181101561063a576105ff8582815181106105ca57634e487b7160e01b600052603260045260246000fd5b60200260200101518583815181106105f257634e487b7160e01b600052603260045260246000fd5b60200260200101516102cc565b82828151811061061f57634e487b7160e01b600052603260045260246000fd5b602090810291909101015261063381612807565b905061059e565b509392505050565b6003546001600160a01b0316331461069c5760405162461bcd60e51b815260206004820181905260248201527f4f776e61626c653a2063616c6c6572206973206e6f7420746865206f776e65726044820152606401610334565b6106a66000610f71565b565b6106b3338383610fc3565b5050565b600354600160a01b900460ff16156107035760405162461bcd60e51b815260206004820152600f60248201526e23b0b6b29034b9903830bab9b2b21760891b6044820152606401610334565b8015806107105750600181145b61074d5760405162461bcd60e51b815260206004820152600e60248201526d24b73b30b634b2103a37b5b2b71760911b6044820152606401610334565b6107583360006102cc565b15801561076d575061076b3360016102cc565b155b6107c75760405162461bcd60e51b815260206004820152602560248201527f48494c4f3a2063616e6e6f742068617665206d6f7265207468616e206f6e65206044820152643a37b5b2b760d91b6064820152608401610334565b60006107d282610beb565b9050600081116107f257634e487b7160e01b600052600160045260246000fd5b60408051338152602081018490529081018290527f4c3e65968e649a01ea3950be6b9ad997c1339a91b3a9b8d73e00f310bd87c5dd9060600160405180910390a1600554811480156108445750600182145b80610859575060045481148015610859575081155b156108a157610867826110a4565b60408051338152602081018490527fcd3a4800b15328c9efb24904b6ff03fc8d44c4f2b2f60aa7ab268aa1ad3a035b910160405180910390a15b6108b381670de0b6b3a7640000612769565b600f546040516370a0823160e01b81523360048201529192506000916001600160a01b03909116906370a082319060240160206040518083038186803b1580156108fc57600080fd5b505afa158015610910573d6000803e3d6000fd5b505050506040513d601f19601f820116820180604052508101906109349190612420565b60408051338152602081018390529192507f8d3f2312e09e67c66117ed54c754be60c8a3d9e646b269e5550b7b3d50e77bef910160405180910390a1818110156109c05760405162461bcd60e51b815260206004820152601a60248201527f496e73756666696369656e7420555344432062616c616e63652e0000000000006044820152606401610334565b600f546040516323b872dd60e01b8152336004820152306024820152604481018490526001600160a01b03909116906323b872dd90606401602060405180830381600087803b158015610a1257600080fd5b505af1158015610a26573d6000803e3d6000fd5b505050506040513d601f19601f82011682018060405250810190610a4a91906123b4565b5060408051338152602081018490527f8c7a815f9018828b5b540f4eda734a9b0cfc910bad61d0f504b1976fc87c5568910160405180910390a1610aa033846001604051806020016040528060008152506110b9565b60408051338152602081018590527f2d8eb9b9558d4b5ef1d238622692f6156d5822009340e26ab15fac05d64c12f0910160405180910390a16000610ae4846111dc565b6040805186815282151560208201529192507f67c80e5f1314ffc5b481d04ddc8778b4ac1c5cab32b36e691643643003085d03910160405180910390a18015610bda5783610b3b576008805460ff19169055610b47565b6008805461ff00191690555b6040518481527fcffb875f4a13e7daadf5756a80391de4c6bf7f9c25c4cad31f963583dfaa38dd9060200160405180910390a1600b5415610bda57600c8054600091600b919083610b9783612807565b9190505581548110610bb957634e487b7160e01b600052603260045260246000fd5b6000918252602090912001546001600160a01b031690506104d9818661121f565b50505050565b336106b3818361121f565b600081610bfa57505060065490565b6001821415610c0b57505060075490565b506000919050565b919050565b6001600160a01b038516331480610c345750610c348533610270565b610c925760405162461bcd60e51b815260206004820152602960248201527f455243313135353a2063616c6c6572206973206e6f74206f776e6572206e6f7260448201526808185c1c1c9bdd995960ba1b6064820152608401610334565b6104d98585858585611496565b6003546001600160a01b03163314610cf95760405162461bcd60e51b815260206004820181905260248201527f4f776e61626c653a2063616c6c6572206973206e6f7420746865206f776e65726044820152606401610334565b6001600160a01b038116610d5e5760405162461bcd60e51b815260206004820152602660248201527f4f776e61626c653a206e6577206f776e657220697320746865207a65726f206160448201526564647265737360d01b6064820152608401610334565b610d6781610f71565b50565b8151835114610dcc5760405162461bcd60e51b815260206004820152602860248201527f455243313135353a2069647320616e6420616d6f756e7473206c656e677468206044820152670dad2e6dac2e8c6d60c31b6064820152608401610334565b6001600160a01b038416610df25760405162461bcd60e51b81526004016103349061269e565b33610e018187878787876115ce565b60005b8451811015610f03576000858281518110610e2f57634e487b7160e01b600052603260045260246000fd5b602002602001015190506000858381518110610e5b57634e487b7160e01b600052603260045260246000fd5b602090810291909101810151600084815280835260408082206001600160a01b038e168352909352919091205490915081811015610eab5760405162461bcd60e51b8152600401610334906126e3565b6000838152602081815260408083206001600160a01b038e8116855292528083208585039055908b16825281208054849290610ee8908490612751565b9250508190555050505080610efc90612807565b9050610e04565b50846001600160a01b0316866001600160a01b0316826001600160a01b03167f4a39dc06d4c0dbc64b70af90fd698a233a518aa5d07e595d983b8c0526c8f7fb8787604051610f539291906125c9565b60405180910390a4610f698187878787876116af565b505050505050565b600380546001600160a01b038381166001600160a01b0319831681179093556040519116919082907f8be0079c531659141344cd1fd0a4f28419497f9722a3daafe3b4186f6b6457e090600090a35050565b816001600160a01b0316836001600160a01b031614156110375760405162461bcd60e51b815260206004820152602960248201527f455243313135353a2073657474696e6720617070726f76616c20737461747573604482015268103337b91039b2b63360b91b6064820152608401610334565b6001600160a01b03838116600081815260016020908152604080832094871680845294825291829020805460ff191686151590811790915591519182527f17307eab39ab6107e8899845ad3d59bd9653f200f220920489ca2b5937696c31910160405180910390a3505050565b806110b157610d6761181a565b610d67611885565b6001600160a01b0384166111195760405162461bcd60e51b815260206004820152602160248201527f455243313135353a206d696e7420746f20746865207a65726f206164647265736044820152607360f81b6064820152608401610334565b336000611125856118e9565b90506000611132856118e9565b9050611143836000898585896115ce565b6000868152602081815260408083206001600160a01b038b16845290915281208054879290611173908490612751565b909155505060408051878152602081018790526001600160a01b03808a1692600092918716917fc3d58168c5ae7397731d063d5bbf3d657854427343f4c083240f7aacaa2d0f62910160405180910390a46111d383600089898989611942565b50505050505050565b6009546000828152600a6020526040812054909182916111fd906001612751565b6112079190612822565b6000938452600a602052604090932083905550501590565b600354600160a01b900460ff161561126b5760405162461bcd60e51b815260206004820152600f60248201526e23b0b6b29034b9903830bab9b2b21760891b6044820152606401610334565b8015806112785750600181145b6112b55760405162461bcd60e51b815260206004820152600e60248201526d24b73b30b634b2103a37b5b2b71760911b6044820152606401610334565b801580156112cd575060006112cb8360006102cc565b115b806112ed57506001811480156112ed575060006112eb8360016102cc565b115b61134b5760405162461bcd60e51b815260206004820152602960248201527f48494c4f3a2063616e6e6f742073656c6c207768656e20796f752068617665206044820152686e6f20746f6b656e7360b81b6064820152608401610334565b6113558282611a0c565b60075460065414156113725761137261136d82610beb565b611ad1565b600061137d82610beb565b61138f90670de0b6b3a7640000612769565b600f5460405163a9059cbb60e01b81526001600160a01b0386811660048301526024820184905292935091169063a9059cbb90604401602060405180830381600087803b1580156113df57600080fd5b505af11580156113f3573d6000803e3d6000fd5b505050506040513d601f19601f8201168201806040525081019061141791906123b4565b5061142483836001611cd2565b61142d826110a4565b8115801561144357506114418360016102cc565b155b156114915761146483600180604051806020016040528060008152506110b9565b61146e60016111dc565b506114916040518060600160405280602781526020016129356027913984611e62565b505050565b6001600160a01b0384166114bc5760405162461bcd60e51b81526004016103349061269e565b3360006114c8856118e9565b905060006114d5856118e9565b90506114e58389898585896115ce565b6000868152602081815260408083206001600160a01b038c168452909152902054858110156115265760405162461bcd60e51b8152600401610334906126e3565b6000878152602081815260408083206001600160a01b038d8116855292528083208985039055908a16825281208054889290611563908490612751565b909155505060408051888152602081018890526001600160a01b03808b16928c821692918816917fc3d58168c5ae7397731d063d5bbf3d657854427343f4c083240f7aacaa2d0f62910160405180910390a46115c3848a8a8a8a8a611942565b505050505050505050565b600354600160a01b900460ff161561161b5760405162461bcd60e51b815260206004820152601060248201526f14185d5cd8589b194e881c185d5cd95960821b6044820152606401610334565b6001600160a01b038516158061163857506001600160a01b038416155b8061164b57506001600160a01b03851630145b8061165e57506001600160a01b03841630145b6116aa5760405162461bcd60e51b815260206004820152601c60248201527f48494c4f546f6b656e3a206e6f6e207472616e736665727261626c65000000006044820152606401610334565b610f69565b6001600160a01b0384163b15610f695760405163bc197c8160e01b81526001600160a01b0385169063bc197c81906116f390899089908890889088906004016124bd565b602060405180830381600087803b15801561170d57600080fd5b505af192505050801561173d575060408051601f3d908101601f1916820190925261173a918101906123ec565b60015b6117ea5761174961286e565b806308c379a01415611783575061175e612886565b806117695750611785565b8060405162461bcd60e51b815260040161033491906125f7565b505b60405162461bcd60e51b815260206004820152603460248201527f455243313135353a207472616e7366657220746f206e6f6e20455243313135356044820152732932b1b2b4bb32b91034b6b83632b6b2b73a32b960611b6064820152608401610334565b6001600160e01b0319811663bc197c8160e01b146111d35760405162461bcd60e51b815260040161033490612656565b60016006546118299190612788565b600681905561184857634e487b7160e01b600052600160045260246000fd5b7f98f29bb5a6c3ae7fe62f8a0831c40149254dfbf11ab6ec843cbc92b6986db89660065460405161187b91815260200190565b60405180910390a1565b600754611893906001612751565b6007819055600654116118b657634e487b7160e01b600052600160045260246000fd5b7f20bac735f1753f7e637cbe64ffd341651152fec5eabdf81fc6ca5743e6ae02e460075460405161187b91815260200190565b6040805160018082528183019092526060916000919060208083019080368337019050509050828160008151811061193157634e487b7160e01b600052603260045260246000fd5b602090810291909101015292915050565b6001600160a01b0384163b15610f695760405163f23a6e6160e01b81526001600160a01b0385169063f23a6e6190611986908990899088908890889060040161251b565b602060405180830381600087803b1580156119a057600080fd5b505af19250505080156119d0575060408051601f3d908101601f191682019092526119cd918101906123ec565b60015b6119dc5761174961286e565b6001600160e01b0319811663f23a6e6160e01b146111d35760405162461bcd60e51b815260040161033490612656565b6000611a1782610beb565b60408051606080820183526001600160a01b0387811680845260208085018981528587018881526000898152600d845288812080546001808201835591835291859020895160039093020180546001600160a01b03191692909716919091178655915191850191909155516002909301929092558451908152908101879052928301849052929350917fe51ee29f760306868b7bafee1f740fce6c665ec7754abd973733d03ded35c06f910160405180910390a150505050565b6000600d60006006548152602001908152602001600020805480602002602001604051908101604052809291908181526020016000905b82821015611b5d576000848152602090819020604080516060810182526003860290920180546001600160a01b0316835260018082015484860152600290910154918301919091529083529092019101611b08565b50505050905060005b8151811015611bdf57600e828281518110611b9157634e487b7160e01b600052603260045260246000fd5b6020908102919091018101515182546001810184556000938452919092200180546001600160a01b0319166001600160a01b0390921691909117905580611bd781612807565b915050611b66565b507f41df3c80bd12dbcc33254d0c956c6e2aa89ce09206b41106e3ea13692f1a4c0d600e83604051611c12929190612560565b60405180910390a1611c22611ea7565b611c4460405180606001604052806023815260200161295c6023913983611f47565b611c756040518060400160405280601081526020016f2a3432903bb4b73732b9399030b9329d60811b815250611f8c565b60005b600e5481101561149157611cc0600e8281548110611ca657634e487b7160e01b600052603260045260246000fd5b6000918252602090912001546001600160a01b0316611fcf565b80611cca81612807565b915050611c78565b6001600160a01b038316611d345760405162461bcd60e51b815260206004820152602360248201527f455243313135353a206275726e2066726f6d20746865207a65726f206164647260448201526265737360e81b6064820152608401610334565b336000611d40846118e9565b90506000611d4d846118e9565b9050611d6d838760008585604051806020016040528060008152506115ce565b6000858152602081815260408083206001600160a01b038a16845290915290205484811015611dea5760405162461bcd60e51b8152602060048201526024808201527f455243313135353a206275726e20616d6f756e7420657863656564732062616c604482015263616e636560e01b6064820152608401610334565b6000868152602081815260408083206001600160a01b038b81168086529184528285208a8703905582518b81529384018a90529092908816917fc3d58168c5ae7397731d063d5bbf3d657854427343f4c083240f7aacaa2d0f62910160405180910390a46040805160208101909152600090526111d3565b6106b38282604051602401611e7892919061260a565b60408051601f198184030181529190526020810180516001600160e01b031663319af33360e01b179052612013565b600354600160a01b900460ff1615611ef45760405162461bcd60e51b815260206004820152601060248201526f14185d5cd8589b194e881c185d5cd95960821b6044820152606401610334565b6003805460ff60a01b1916600160a01b1790557f62e78cea01bee320cd4e420270b5ea74000d11b0c9f74754ebdbfc544b05a258611f2f3390565b6040516001600160a01b03909116815260200161187b565b6106b38282604051602401611f5d929190612634565b60408051601f198184030181529190526020810180516001600160e01b03166309710a9d60e41b179052612013565b610d6781604051602401611fa091906125f7565b60408051601f198184030181529190526020810180516001600160e01b031663104c13eb60e21b179052612013565b6040516001600160a01b0382166024820152610d679060440160408051601f198184030181529190526020810180516001600160e01b031663161765e160e11b1790525b80516a636f6e736f6c652e6c6f67602083016000808483855afa5050505050565b80356001600160a01b0381168114610c1357600080fd5b600082601f83011261205b578081fd5b813560206120688261272d565b60405161207582826127da565b8381528281019150858301600585901b87018401881015612094578586fd5b855b858110156120b257813584529284019290840190600101612096565b5090979650505050505050565b600082601f8301126120cf578081fd5b813567ffffffffffffffff8111156120e9576120e9612858565b604051612100601f8301601f1916602001826127da565b818152846020838601011115612114578283fd5b816020850160208301379081016020019190915292915050565b60006020828403121561213f578081fd5b61214882612034565b9392505050565b60008060408385031215612161578081fd5b61216a83612034565b915061217860208401612034565b90509250929050565b600080600080600060a08688031215612198578081fd5b6121a186612034565b94506121af60208701612034565b9350604086013567ffffffffffffffff808211156121cb578283fd5b6121d789838a0161204b565b945060608801359150808211156121ec578283fd5b6121f889838a0161204b565b9350608088013591508082111561220d578283fd5b5061221a888289016120bf565b9150509295509295909350565b600080600080600060a0868803121561223e578081fd5b61224786612034565b945061225560208701612034565b93506040860135925060608601359150608086013567ffffffffffffffff81111561227e578182fd5b61221a888289016120bf565b6000806040838503121561229c578182fd5b6122a583612034565b915060208301356122b581612910565b809150509250929050565b600080604083850312156122d2578182fd5b6122db83612034565b946020939093013593505050565b600080604083850312156122fb578182fd5b823567ffffffffffffffff80821115612312578384fd5b818501915085601f830112612325578384fd5b813560206123328261272d565b60405161233f82826127da565b8381528281019150858301600585901b870184018b101561235e578889fd5b8896505b848710156123875761237381612034565b835260019690960195918301918301612362565b509650508601359250508082111561239d578283fd5b506123aa8582860161204b565b9150509250929050565b6000602082840312156123c5578081fd5b815161214881612910565b6000602082840312156123e1578081fd5b81356121488161291e565b6000602082840312156123fd578081fd5b81516121488161291e565b600060208284031215612419578081fd5b5035919050565b600060208284031215612431578081fd5b5051919050565b6000815180845260208085019450808401835b838110156124675781518752958201959082019060010161244b565b509495945050505050565b60008151808452815b818110156124975760208185018101518683018201520161247b565b818111156124a85782602083870101525b50601f01601f19169290920160200192915050565b6001600160a01b0386811682528516602082015260a0604082018190526000906124e990830186612438565b82810360608401526124fb8186612438565b9050828103608084015261250f8185612472565b98975050505050505050565b6001600160a01b03868116825285166020820152604081018490526060810183905260a06080820181905260009061255590830184612472565b979650505050505050565b6000604082016040835280855480835260608501915086845260209250828420845b828110156125a75781546001600160a01b031684529284019260019182019101612582565b50505092019290925292915050565b6020815260006121486020830184612438565b6040815260006125dc6040830185612438565b82810360208401526125ee8185612438565b95945050505050565b6020815260006121486020830184612472565b60408152600061261d6040830185612472565b905060018060a01b03831660208301529392505050565b6040815260006126476040830185612472565b90508260208301529392505050565b60208082526028908201527f455243313135353a204552433131353552656365697665722072656a656374656040820152676420746f6b656e7360c01b606082015260800190565b60208082526025908201527f455243313135353a207472616e7366657220746f20746865207a65726f206164604082015264647265737360d81b606082015260800190565b6020808252602a908201527f455243313135353a20696e73756666696369656e742062616c616e636520666f60408201526939103a3930b739b332b960b11b606082015260800190565b600067ffffffffffffffff82111561274757612747612858565b5060051b60200190565b6000821982111561276457612764612842565b500190565b600081600019048311821515161561278357612783612842565b500290565b60008282101561279a5761279a612842565b500390565b600181811c908216806127b357607f821691505b602082108114156127d457634e487b7160e01b600052602260045260246000fd5b50919050565b601f8201601f1916810167ffffffffffffffff8111828210171561280057612800612858565b6040525050565b600060001982141561281b5761281b612842565b5060010190565b60008261283d57634e487b7160e01b81526012600452602481fd5b500690565b634e487b7160e01b600052601160045260246000fd5b634e487b7160e01b600052604160045260246000fd5b600060033d111561288357600481823e5160e01c5b90565b600060443d10156128945790565b6040516003193d81016004833e81513d67ffffffffffffffff81602484011181841117156128c457505050505090565b82850191508151818111156128dc5750505050505090565b843d87010160208285010111156128f65750505050505090565b612905602082860101876127da565b509095945050505050565b8015158114610d6757600080fd5b6001600160e01b031981168114610d6757600080fdfe4c4f207472616e736665727265642066726f6d2048492073616c652c20726563657069656e743a47616d65206f76657221205468652070726963657320636f6e7665726765642061743aa2646970667358221220047355ca1a961e19f6bedeb6563a3effcea1e9088579d11cc8cf6abbda17c81c64736f6c63430008040033",
  "linkReferences": {},
  "deployedLinkReferences": {}
}