{
  "_format": "hh-sol-artifact-1",
  "contractName": "HILO",
  "sourceName": "contracts/HILO.sol",
  "abi": [
    {
      "inputs": [
        {
          "internalType": "uint256",
          "name": "_initialHi",
          "type": "uint256"
        },
        {
          "internalType": "uint256",
          "name": "_initialLo",
          "type": "uint256"
        },
        {
          "internalType": "uint256",
          "name": "_buyRequiredCount",
          "type": "uint256"
        },
        {
          "internalType": "uint256",
          "name": "_jackpot",
          "type": "uint256"
        }
      ],
      "stateMutability": "nonpayable",
      "type": "constructor"
    },
    {
      "anonymous": false,
      "inputs": [
        {
          "indexed": false,
          "internalType": "address",
          "name": "player",
          "type": "address"
        },
        {
          "indexed": false,
          "internalType": "uint256",
          "name": "tokenId",
          "type": "uint256"
        },
        {
          "indexed": false,
          "internalType": "uint256",
          "name": "price",
          "type": "uint256"
        }
      ],
      "name": "ActionAdded",
      "type": "event"
    },
    {
      "anonymous": false,
      "inputs": [
        {
          "indexed": true,
          "internalType": "address",
          "name": "account",
          "type": "address"
        },
        {
          "indexed": true,
          "internalType": "address",
          "name": "operator",
          "type": "address"
        },
        {
          "indexed": false,
          "internalType": "bool",
          "name": "approved",
          "type": "bool"
        }
      ],
      "name": "ApprovalForAll",
      "type": "event"
    },
    {
      "anonymous": false,
      "inputs": [
        {
          "indexed": false,
          "internalType": "uint256",
          "name": "newHiPrice",
          "type": "uint256"
        }
      ],
      "name": "HiDecreased",
      "type": "event"
    },
    {
      "anonymous": false,
      "inputs": [
        {
          "indexed": false,
          "internalType": "address",
          "name": "player",
          "type": "address"
        },
        {
          "indexed": false,
          "internalType": "uint256",
          "name": "amount",
          "type": "uint256"
        }
      ],
      "name": "JackpotPaid",
      "type": "event"
    },
    {
      "anonymous": false,
      "inputs": [
        {
          "indexed": false,
          "internalType": "uint256",
          "name": "newLoPrice",
          "type": "uint256"
        }
      ],
      "name": "LoIncreased",
      "type": "event"
    },
    {
      "anonymous": false,
      "inputs": [
        {
          "indexed": true,
          "internalType": "address",
          "name": "previousOwner",
          "type": "address"
        },
        {
          "indexed": true,
          "internalType": "address",
          "name": "newOwner",
          "type": "address"
        }
      ],
      "name": "OwnershipTransferred",
      "type": "event"
    },
    {
      "anonymous": false,
      "inputs": [
        {
          "indexed": false,
          "internalType": "address",
          "name": "account",
          "type": "address"
        }
      ],
      "name": "Paused",
      "type": "event"
    },
    {
      "anonymous": false,
      "inputs": [
        {
          "indexed": false,
          "internalType": "address",
          "name": "player",
          "type": "address"
        },
        {
          "indexed": false,
          "internalType": "uint256",
          "name": "tokenId",
          "type": "uint256"
        }
      ],
      "name": "PriceUpdated",
      "type": "event"
    },
    {
      "anonymous": false,
      "inputs": [
        {
          "indexed": false,
          "internalType": "address[]",
          "name": "winners",
          "type": "address[]"
        },
        {
          "indexed": false,
          "internalType": "uint256",
          "name": "price",
          "type": "uint256"
        }
      ],
      "name": "PricesConverged",
      "type": "event"
    },
    {
      "anonymous": false,
      "inputs": [
        {
          "indexed": true,
          "internalType": "address",
          "name": "operator",
          "type": "address"
        },
        {
          "indexed": true,
          "internalType": "address",
          "name": "from",
          "type": "address"
        },
        {
          "indexed": true,
          "internalType": "address",
          "name": "to",
          "type": "address"
        },
        {
          "indexed": false,
          "internalType": "uint256[]",
          "name": "ids",
          "type": "uint256[]"
        },
        {
          "indexed": false,
          "internalType": "uint256[]",
          "name": "values",
          "type": "uint256[]"
        }
      ],
      "name": "TransferBatch",
      "type": "event"
    },
    {
      "anonymous": false,
      "inputs": [
        {
          "indexed": true,
          "internalType": "address",
          "name": "operator",
          "type": "address"
        },
        {
          "indexed": true,
          "internalType": "address",
          "name": "from",
          "type": "address"
        },
        {
          "indexed": true,
          "internalType": "address",
          "name": "to",
          "type": "address"
        },
        {
          "indexed": false,
          "internalType": "uint256",
          "name": "id",
          "type": "uint256"
        },
        {
          "indexed": false,
          "internalType": "uint256",
          "name": "value",
          "type": "uint256"
        }
      ],
      "name": "TransferSingle",
      "type": "event"
    },
    {
      "anonymous": false,
      "inputs": [
        {
          "indexed": false,
          "internalType": "string",
          "name": "value",
          "type": "string"
        },
        {
          "indexed": true,
          "internalType": "uint256",
          "name": "id",
          "type": "uint256"
        }
      ],
      "name": "URI",
      "type": "event"
    },
    {
      "anonymous": false,
      "inputs": [
        {
          "indexed": false,
          "internalType": "address",
          "name": "account",
          "type": "address"
        }
      ],
      "name": "Unpaused",
      "type": "event"
    },
    {
      "inputs": [],
      "name": "HI",
      "outputs": [
        {
          "internalType": "uint256",
          "name": "",
          "type": "uint256"
        }
      ],
      "stateMutability": "view",
      "type": "function"
    },
    {
      "inputs": [],
      "name": "LO",
      "outputs": [
        {
          "internalType": "uint256",
          "name": "",
          "type": "uint256"
        }
      ],
      "stateMutability": "view",
      "type": "function"
    },
    {
      "inputs": [
        {
          "internalType": "uint256",
          "name": "",
          "type": "uint256"
        },
        {
          "internalType": "uint256",
          "name": "",
          "type": "uint256"
        }
      ],
      "name": "actions",
      "outputs": [
        {
          "internalType": "address",
          "name": "player",
          "type": "address"
        },
        {
          "internalType": "uint256",
          "name": "tokenId",
          "type": "uint256"
        },
        {
          "internalType": "uint256",
          "name": "price",
          "type": "uint256"
        }
      ],
      "stateMutability": "view",
      "type": "function"
    },
    {
      "inputs": [
        {
          "internalType": "uint256",
          "name": "tokenId",
          "type": "uint256"
        }
      ],
      "name": "addToQueue",
      "outputs": [
        {
          "internalType": "uint256",
          "name": "",
          "type": "uint256"
        }
      ],
      "stateMutability": "nonpayable",
      "type": "function"
    },
    {
      "inputs": [
        {
          "internalType": "address",
          "name": "account",
          "type": "address"
        },
        {
          "internalType": "uint256",
          "name": "id",
          "type": "uint256"
        }
      ],
      "name": "balanceOf",
      "outputs": [
        {
          "internalType": "uint256",
          "name": "",
          "type": "uint256"
        }
      ],
      "stateMutability": "view",
      "type": "function"
    },
    {
      "inputs": [
        {
          "internalType": "address[]",
          "name": "accounts",
          "type": "address[]"
        },
        {
          "internalType": "uint256[]",
          "name": "ids",
          "type": "uint256[]"
        }
      ],
      "name": "balanceOfBatch",
      "outputs": [
        {
          "internalType": "uint256[]",
          "name": "",
          "type": "uint256[]"
        }
      ],
      "stateMutability": "view",
      "type": "function"
    },
    {
      "inputs": [
        {
          "internalType": "uint256",
          "name": "tokenId",
          "type": "uint256"
        },
        {
          "internalType": "uint256",
          "name": "amount",
          "type": "uint256"
        }
      ],
      "name": "buy",
      "outputs": [],
      "stateMutability": "nonpayable",
      "type": "function"
    },
    {
      "inputs": [
        {
          "internalType": "uint256",
          "name": "",
          "type": "uint256"
        }
      ],
      "name": "buyCounts",
      "outputs": [
        {
          "internalType": "uint256",
          "name": "",
          "type": "uint256"
        }
      ],
      "stateMutability": "view",
      "type": "function"
    },
    {
      "inputs": [],
      "name": "buyForceCount",
      "outputs": [
        {
          "internalType": "uint256",
          "name": "",
          "type": "uint256"
        }
      ],
      "stateMutability": "view",
      "type": "function"
    },
    {
      "inputs": [
        {
          "internalType": "uint256",
          "name": "",
          "type": "uint256"
        }
      ],
      "name": "buyForceCounts",
      "outputs": [
        {
          "internalType": "uint256",
          "name": "",
          "type": "uint256"
        }
      ],
      "stateMutability": "view",
      "type": "function"
    },
    {
      "inputs": [],
      "name": "buyRequiredCount",
      "outputs": [
        {
          "internalType": "uint256",
          "name": "",
          "type": "uint256"
        }
      ],
      "stateMutability": "view",
      "type": "function"
    },
    {
      "inputs": [
        {
          "internalType": "uint256",
          "name": "tokenId",
          "type": "uint256"
        }
      ],
      "name": "checkInQueue",
      "outputs": [
        {
          "internalType": "uint256",
          "name": "",
          "type": "uint256"
        }
      ],
      "stateMutability": "view",
      "type": "function"
    },
    {
      "inputs": [
        {
          "internalType": "uint256",
          "name": "id",
          "type": "uint256"
        }
      ],
      "name": "exists",
      "outputs": [
        {
          "internalType": "bool",
          "name": "",
          "type": "bool"
        }
      ],
      "stateMutability": "view",
      "type": "function"
    },
    {
      "inputs": [],
      "name": "gameWon",
      "outputs": [
        {
          "internalType": "bool",
          "name": "",
          "type": "bool"
        }
      ],
      "stateMutability": "view",
      "type": "function"
    },
    {
      "inputs": [
        {
          "internalType": "address",
          "name": "player",
          "type": "address"
        }
      ],
      "name": "getGameState",
      "outputs": [
        {
          "components": [
            {
              "internalType": "uint256",
              "name": "currentHi",
              "type": "uint256"
            },
            {
              "internalType": "uint256",
              "name": "currentLo",
              "type": "uint256"
            },
            {
              "internalType": "address[]",
              "name": "winners",
              "type": "address[]"
            },
            {
              "internalType": "uint256[2]",
              "name": "playerTotals",
              "type": "uint256[2]"
            },
            {
              "internalType": "uint256[2]",
              "name": "tokenBalances",
              "type": "uint256[2]"
            },
            {
              "internalType": "uint256",
              "name": "approvedSpend",
              "type": "uint256"
            }
          ],
          "internalType": "struct HILO.GameState",
          "name": "",
          "type": "tuple"
        }
      ],
      "stateMutability": "view",
      "type": "function"
    },
    {
      "inputs": [
        {
          "internalType": "uint256",
          "name": "tokenId",
          "type": "uint256"
        }
      ],
      "name": "getPrice",
      "outputs": [
        {
          "internalType": "uint256",
          "name": "",
          "type": "uint256"
        }
      ],
      "stateMutability": "view",
      "type": "function"
    },
    {
      "inputs": [],
      "name": "getWinners",
      "outputs": [
        {
          "internalType": "address[]",
          "name": "",
          "type": "address[]"
        }
      ],
      "stateMutability": "view",
      "type": "function"
    },
    {
      "inputs": [],
      "name": "hiPrice",
      "outputs": [
        {
          "internalType": "uint256",
          "name": "",
          "type": "uint256"
        }
      ],
      "stateMutability": "view",
      "type": "function"
    },
    {
      "inputs": [],
      "name": "initialHi",
      "outputs": [
        {
          "internalType": "uint256",
          "name": "",
          "type": "uint256"
        }
      ],
      "stateMutability": "view",
      "type": "function"
    },
    {
      "inputs": [],
      "name": "initialLo",
      "outputs": [
        {
          "internalType": "uint256",
          "name": "",
          "type": "uint256"
        }
      ],
      "stateMutability": "view",
      "type": "function"
    },
    {
      "inputs": [
        {
          "internalType": "address",
          "name": "account",
          "type": "address"
        },
        {
          "internalType": "address",
          "name": "operator",
          "type": "address"
        }
      ],
      "name": "isApprovedForAll",
      "outputs": [
        {
          "internalType": "bool",
          "name": "",
          "type": "bool"
        }
      ],
      "stateMutability": "view",
      "type": "function"
    },
    {
      "inputs": [],
      "name": "jackpot",
      "outputs": [
        {
          "internalType": "uint256",
          "name": "",
          "type": "uint256"
        }
      ],
      "stateMutability": "view",
      "type": "function"
    },
    {
      "inputs": [],
      "name": "loPrice",
      "outputs": [
        {
          "internalType": "uint256",
          "name": "",
          "type": "uint256"
        }
      ],
      "stateMutability": "view",
      "type": "function"
    },
    {
      "inputs": [],
      "name": "owner",
      "outputs": [
        {
          "internalType": "address",
          "name": "",
          "type": "address"
        }
      ],
      "stateMutability": "view",
      "type": "function"
    },
    {
      "inputs": [],
      "name": "paused",
      "outputs": [
        {
          "internalType": "bool",
          "name": "",
          "type": "bool"
        }
      ],
      "stateMutability": "view",
      "type": "function"
    },
    {
      "inputs": [],
      "name": "payout",
      "outputs": [],
      "stateMutability": "nonpayable",
      "type": "function"
    },
    {
      "inputs": [],
      "name": "renounceOwnership",
      "outputs": [],
      "stateMutability": "nonpayable",
      "type": "function"
    },
    {
      "inputs": [
        {
          "internalType": "address",
          "name": "from",
          "type": "address"
        },
        {
          "internalType": "address",
          "name": "to",
          "type": "address"
        },
        {
          "internalType": "uint256[]",
          "name": "ids",
          "type": "uint256[]"
        },
        {
          "internalType": "uint256[]",
          "name": "amounts",
          "type": "uint256[]"
        },
        {
          "internalType": "bytes",
          "name": "data",
          "type": "bytes"
        }
      ],
      "name": "safeBatchTransferFrom",
      "outputs": [],
      "stateMutability": "nonpayable",
      "type": "function"
    },
    {
      "inputs": [
        {
          "internalType": "address",
          "name": "from",
          "type": "address"
        },
        {
          "internalType": "address",
          "name": "to",
          "type": "address"
        },
        {
          "internalType": "uint256",
          "name": "id",
          "type": "uint256"
        },
        {
          "internalType": "uint256",
          "name": "amount",
          "type": "uint256"
        },
        {
          "internalType": "bytes",
          "name": "data",
          "type": "bytes"
        }
      ],
      "name": "safeTransferFrom",
      "outputs": [],
      "stateMutability": "nonpayable",
      "type": "function"
    },
    {
      "inputs": [
        {
          "internalType": "uint256",
          "name": "",
          "type": "uint256"
        }
      ],
      "name": "saleQueue",
      "outputs": [
        {
          "internalType": "address",
          "name": "player",
          "type": "address"
        },
        {
          "internalType": "uint256",
          "name": "tokenId",
          "type": "uint256"
        }
      ],
      "stateMutability": "view",
      "type": "function"
    },
    {
      "inputs": [],
      "name": "saleQueueIndex",
      "outputs": [
        {
          "internalType": "uint256",
          "name": "",
          "type": "uint256"
        }
      ],
      "stateMutability": "view",
      "type": "function"
    },
    {
      "inputs": [
        {
          "internalType": "uint256",
          "name": "tokenId",
          "type": "uint256"
        }
      ],
      "name": "sell",
      "outputs": [],
      "stateMutability": "nonpayable",
      "type": "function"
    },
    {
      "inputs": [
        {
          "internalType": "address",
          "name": "operator",
          "type": "address"
        },
        {
          "internalType": "bool",
          "name": "approved",
          "type": "bool"
        }
      ],
      "name": "setApprovalForAll",
      "outputs": [],
      "stateMutability": "nonpayable",
      "type": "function"
    },
    {
      "inputs": [
        {
          "internalType": "bytes4",
          "name": "interfaceId",
          "type": "bytes4"
        }
      ],
      "name": "supportsInterface",
      "outputs": [
        {
          "internalType": "bool",
          "name": "",
          "type": "bool"
        }
      ],
      "stateMutability": "view",
      "type": "function"
    },
    {
      "inputs": [
        {
          "internalType": "uint256",
          "name": "id",
          "type": "uint256"
        }
      ],
      "name": "totalSupply",
      "outputs": [
        {
          "internalType": "uint256",
          "name": "",
          "type": "uint256"
        }
      ],
      "stateMutability": "view",
      "type": "function"
    },
    {
      "inputs": [
        {
          "internalType": "address",
          "name": "newOwner",
          "type": "address"
        }
      ],
      "name": "transferOwnership",
      "outputs": [],
      "stateMutability": "nonpayable",
      "type": "function"
    },
    {
      "inputs": [
        {
          "internalType": "uint256",
          "name": "",
          "type": "uint256"
        }
      ],
      "name": "uri",
      "outputs": [
        {
          "internalType": "string",
          "name": "",
          "type": "string"
        }
      ],
      "stateMutability": "view",
      "type": "function"
    },
    {
      "inputs": [],
      "name": "usdc",
      "outputs": [
        {
          "internalType": "contract IERC20",
          "name": "",
          "type": "address"
        }
      ],
      "stateMutability": "view",
      "type": "function"
    },
    {
      "inputs": [
        {
          "internalType": "uint256",
          "name": "",
          "type": "uint256"
        }
      ],
      "name": "winners",
      "outputs": [
        {
          "internalType": "address",
          "name": "",
          "type": "address"
        }
      ],
      "stateMutability": "view",
      "type": "function"
    }
  ],
  "bytecode": "0x60806040526000600f556011805460ff19169055601480546001600160a01b03191673e11a86849d99f524cac3e7a0ec1241828e332c621790553480156200004657600080fd5b50604051620039e2380380620039e2833981016040819052620000699162000452565b6040518060600160405280602d8152602001620039b5602d91396200008e8162000297565b506200009a33620002b0565b6004805460ff60a01b191690556001600555600884905560068490556009839055600783905560006002620000d0858762000488565b600754600654620000e29190620004e6565b620000ef90600162000488565b620000fb9190620004c4565b620001079190620004a3565b90508162000117600283620004a3565b10156200016b5760405162461bcd60e51b815260206004820152601e60248201527f4a61636b706f7420746f6f206c6172676520666f72207468652067616d65000060448201526064015b60405180910390fd5b60138290556008546200018e57634e487b7160e01b600052600160045260246000fd5b600060095411620001af57634e487b7160e01b600052600160045260246000fd5b60095460085411620001d157634e487b7160e01b600052600160045260246000fd5b600a839055600c60205260007f13649b2456f1b42fef0f0040b3aaeabcd21a76a0f3f5defd4f583839455116e881905560018082527fd421a5181c571bba3f01190c922c3b2a896fc1d84e86c9f17ac10e67ebef8b5c919091556200023890849062000488565b600b555050600d602052505060007f81955a0a11e65eac625c29e8882660bae4e165a75d72780094acae8ece9a29ee819055600181527ffd54ff1ed53f34a900b24c5ba64f85761163b5d82d98a47b9bd80e45466993c5555062000553565b8051620002ac906002906020840190620003ac565b5050565b6000620002c56004546001600160a01b031690565b6001600160a01b03161480620002e857506004546001600160a01b038281169116145b620003415760405162461bcd60e51b815260206004820152602260248201527f48494c4f3a2063616e6e6f74207472616e73666572206f776e65727368697020604482015261746f60f01b606482015260840162000162565b62000357816200035a60201b620015af1760201c565b50565b600480546001600160a01b038381166001600160a01b0319831681179093556040519116919082907f8be0079c531659141344cd1fd0a4f28419497f9722a3daafe3b4186f6b6457e090600090a35050565b828054620003ba9062000500565b90600052602060002090601f016020900481019282620003de576000855562000429565b82601f10620003f957805160ff191683800117855562000429565b8280016001018555821562000429579182015b82811115620004295782518255916020019190600101906200040c565b50620004379291506200043b565b5090565b5b808211156200043757600081556001016200043c565b6000806000806080858703121562000468578384fd5b505082516020840151604085015160609095015191969095509092509050565b600082198211156200049e576200049e6200053d565b500190565b600082620004bf57634e487b7160e01b81526012600452602481fd5b500490565b6000816000190483118215151615620004e157620004e16200053d565b500290565b600082821015620004fb57620004fb6200053d565b500390565b600181811c908216806200051557607f821691505b602082108114156200053757634e487b7160e01b600052602260045260246000fd5b50919050565b634e487b7160e01b600052601160045260246000fd5b61345280620005636000396000f3fe608060405234801561001057600080fd5b506004361061023c5760003560e01c8063715018a61161013b578063d9d60b52116100b8578063e9b6d9371161007c578063e9b6d93714610556578063f242432a14610569578063f2e8dfdb1461057c578063f2fde38b14610584578063f5cf330b1461059757600080fd5b8063d9d60b52146104bf578063df15c37e146104df578063e4849b32146104f4578063e757223014610507578063e985e9c51461051a57600080fd5b8063b23c328b116100ff578063b23c328b14610442578063bd85b0391461044b578063cab8ec9f1461046b578063cd1fb31d146104a3578063d6febde8146104ac57600080fd5b8063715018a6146103fa578063833cbacf146104025780638da5cb5b1461040b578063a22cb4651461041c578063a2fb11751461042f57600080fd5b80633e413bee116101c95780635c975abb1161018d5780635c975abb146103af578063633a8d0f146103c157806363bd1d4a146103e157806368d2be8f146103e95780636b31ee01146103f157600080fd5b80633e413bee146103195780634e1273f4146103445780634f558e79146103645780635a437daa146103865780635c5c4d611461038f57600080fd5b80630e89341c116102105780630e89341c146102c9578063212a7bcd146102e957806321441d9d146102f25780632eb2c2d6146102fb57806337449eb71461031057600080fd5b8062fdd58e1461024157806301ffc9a714610267578063069a825c1461028a57806308415c9114610297575b600080fd5b61025461024f366004612c98565b6105aa565b6040519081526020015b60405180910390f35b61027a610275366004612da8565b610641565b604051901515815260200161025e565b60115461027a9060ff1681565b6102aa6102a5366004612de0565b610693565b604080516001600160a01b03909316835260208301919091520161025e565b6102dc6102d7366004612de0565b6106cb565b60405161025e919061305e565b61025460075481565b61025460085481565b61030e610309366004612b59565b61075f565b005b610254600f5481565b60145461032c906001600160a01b031681565b6040516001600160a01b03909116815260200161025e565b610357610352366004612cc1565b6107f6565b60405161025e919061301d565b61027a610372366004612de0565b600090815260036020526040902054151590565b61025460095481565b61025461039d366004612de0565b600c6020526000908152604090205481565b600454600160a01b900460ff1661027a565b6102546103cf366004612de0565b600d6020526000908152604090205481565b61030e610958565b610254600181565b61025460135481565b61030e610c29565b610254600a5481565b6004546001600160a01b031661032c565b61030e61042a366004612c62565b610c5f565b61032c61043d366004612de0565b610c6e565b61025460065481565b610254610459366004612de0565b60009081526003602052604090205490565b61047e610479366004612e10565b610c98565b604080516001600160a01b03909416845260208401929092529082015260600161025e565b610254600b5481565b61030e6104ba366004612e10565b610ce4565b6104d26104cd366004612b06565b611046565b60405161025e91906131a7565b6104e7611202565b60405161025e9190612fb4565b61030e610502366004612de0565b611264565b610254610515366004612de0565b6112d0565b61027a610528366004612b27565b6001600160a01b03918216600090815260016020908152604080832093909416825291909152205460ff1690565b610254610564366004612de0565b6112fd565b61030e610577366004612bff565b6113c7565b610254600081565b61030e610592366004612b06565b61144e565b6102546105a5366004612de0565b6114e9565b60006001600160a01b03831661061b5760405162461bcd60e51b815260206004820152602b60248201527f455243313135353a2062616c616e636520717565727920666f7220746865207a60448201526a65726f206164647265737360a81b60648201526084015b60405180910390fd5b506000908152602081815260408083206001600160a01b03949094168352929052205490565b60006001600160e01b03198216636cdb3d1360e11b148061067257506001600160e01b031982166303a24d0760e21b145b8061068d57506301ffc9a760e01b6001600160e01b03198316145b92915050565b600e81815481106106a357600080fd5b6000918252602090912060029091020180546001909101546001600160a01b03909116915082565b6060600280546106da906132a7565b80601f0160208091040260200160405190810160405280929190818152602001828054610706906132a7565b80156107535780601f1061072857610100808354040283529160200191610753565b820191906000526020600020905b81548152906001019060200180831161073657829003601f168201915b50505050509050919050565b6001600160a01b03851633148061077b575061077b8533610528565b6107e25760405162461bcd60e51b815260206004820152603260248201527f455243313135353a207472616e736665722063616c6c6572206973206e6f74206044820152711bdddb995c881b9bdc88185c1c1c9bdd995960721b6064820152608401610612565b6107ef8585858585611601565b5050505050565b6060815183511461085b5760405162461bcd60e51b815260206004820152602960248201527f455243313135353a206163636f756e747320616e6420696473206c656e677468604482015268040dad2e6dac2e8c6d60bb1b6064820152608401610612565b6000835167ffffffffffffffff81111561088557634e487b7160e01b600052604160045260246000fd5b6040519080825280602002602001820160405280156108ae578160200160208202803683370190505b50905060005b8451811015610950576109158582815181106108e057634e487b7160e01b600052603260045260246000fd5b602002602001015185838151811061090857634e487b7160e01b600052603260045260246000fd5b60200260200101516105aa565b82828151811061093557634e487b7160e01b600052603260045260246000fd5b60209081029190910101526109498161330f565b90506108b4565b509392505050565b6004546001600160a01b031633146109825760405162461bcd60e51b815260040161061290613172565b60125460135460009061099d90670de0b6b3a7640000613271565b905060005b82811015610b005760006109b68484613251565b601454601280549293506001600160a01b039091169163a9059cbb9190859081106109f157634e487b7160e01b600052603260045260246000fd5b60009182526020909120015460405160e083901b6001600160e01b03191681526001600160a01b03909116600482015260248101849052604401602060405180830381600087803b158015610a4557600080fd5b505af1158015610a59573d6000803e3d6000fd5b505050506040513d601f19601f82011682018060405250810190610a7d9190612d8c565b507f88c519ab1745d32c7a1e2c97aa7817ca6e8046aaa146002b9ec1c8516ed6785460128381548110610ac057634e487b7160e01b600052603260045260246000fd5b60009182526020918290200154604080516001600160a01b0390921682529181018490520160405180910390a15080610af88161330f565b9150506109a2565b506014546040516370a0823160e01b81523060048201526000916001600160a01b0316906370a082319060240160206040518083038186803b158015610b4557600080fd5b505afa158015610b59573d6000803e3d6000fd5b505050506040513d601f19601f82011682018060405250810190610b7d9190612df8565b6014549091506001600160a01b031663a9059cbb610ba36004546001600160a01b031690565b6040516001600160e01b031960e084901b1681526001600160a01b03909116600482015260248101849052604401602060405180830381600087803b158015610beb57600080fd5b505af1158015610bff573d6000803e3d6000fd5b505050506040513d601f19601f82011682018060405250810190610c239190612d8c565b50505050565b6004546001600160a01b03163314610c535760405162461bcd60e51b815260040161061290613172565b610c5d6000611800565b565b610c6a338383611896565b5050565b60128181548110610c7e57600080fd5b6000918252602090912001546001600160a01b0316905081565b60106020528160005260406000208181548110610cb457600080fd5b60009182526020909120600390910201805460018201546002909201546001600160a01b03909116935090915083565b600454600160a01b900460ff1615610d0e5760405162461bcd60e51b8152600401610612906130b9565b811580610d1b5750600182145b610d585760405162461bcd60e51b815260206004820152600e60248201526d24b73b30b634b2103a37b5b2b71760911b6044820152606401610612565b8060011480610d675750806003145b610da55760405162461bcd60e51b815260206004820152600f60248201526e24b73b30b634b21030b6b7bab73a1760891b6044820152606401610612565b6000610db0836112d0565b905060008111610dd057634e487b7160e01b600052600160045260246000fd5b600060075482148015610de35750600184145b80610df8575060065482148015610df8575083155b600b546000868152600d602052604090205460095460085493945091149114801590610e3357508180610e285750805b80610e335750836003145b15610e7b57610e4185611977565b60408051338152602081018790527f0d86730737b142fc160892fa8a0f2db687a92a0e294d1ad70624cf5acef03b84910160405180910390a15b610e858484613271565b610e9790670de0b6b3a7640000613271565b6014546040516370a0823160e01b81523360048201529194506000916001600160a01b03909116906370a082319060240160206040518083038186803b158015610ee057600080fd5b505afa158015610ef4573d6000803e3d6000fd5b505050506040513d601f19601f82011682018060405250810190610f189190612df8565b905083811015610f6a5760405162461bcd60e51b815260206004820152601a60248201527f496e73756666696369656e7420555344432062616c616e63652e0000000000006044820152606401610612565b6014546040516323b872dd60e01b8152336004820152306024820152604481018690526001600160a01b03909116906323b872dd90606401602060405180830381600087803b158015610fbc57600080fd5b505af1158015610fd0573d6000803e3d6000fd5b505050506040513d601f19601f82011682018060405250810190610ff49190612d8c565b50611010338787604051806020016040528060008152506119af565b8161101e5761101e86611ad2565b600a546000878152600c6020526040902054141561103e5761103e611b58565b505050505050565b61104e6129ac565b600061105b8360006105aa565b9050600061106a8460016105aa565b601454604051636eb1769f60e11b81526001600160a01b0387811660048301523060248301529293506000929091169063dd62ed3e9060440160206040518083038186803b1580156110bb57600080fd5b505afa1580156110cf573d6000803e3d6000fd5b505050506040513d601f19601f820116820180604052508101906110f39190612df8565b600360209081527f3617319a054d772f909f7c479a2cebe5066e836a939412e32403c99029b92eff5460016000527fa15bc60c955c405d20d9149c709e2460f1c2d9a497496a7f46004d1772c3054c546040805160c081018252600854815260095481860152601280548351818802810188018552818152979850949693959194928501939290918301828280156111b457602002820191906000526020600020905b81546001600160a01b03168152600190910190602001808311611196575b50505050508152602001604051806040016040528085815260200184815250815260200160405180604001604052808881526020018781525081526020018481525095505050505050919050565b6060601280548060200260200160405190810160405280929190818152602001828054801561125a57602002820191906000526020600020905b81546001600160a01b0316815260019091019060200180831161123c575b5050505050905090565b600260055414156112b75760405162461bcd60e51b815260206004820152601f60248201527f5265656e7472616e637947756172643a207265656e7472616e742063616c6c006044820152606401610612565b6002600555336112c78183611c1c565b50506001600555565b6000816112df57505060085490565b60018214156112f057505060095490565b506000919050565b919050565b600f546000906001905b600e548110156113bd57336001600160a01b0316600e828154811061133c57634e487b7160e01b600052603260045260246000fd5b60009182526020909120600290910201546001600160a01b03161415611363575092915050565b83600e828154811061138557634e487b7160e01b600052603260045260246000fd5b90600052602060002090600202016001015414156113ab576113a8600183613239565b91505b806113b58161330f565b915050611307565b5060009392505050565b6001600160a01b0385163314806113e357506113e38533610528565b6114415760405162461bcd60e51b815260206004820152602960248201527f455243313135353a2063616c6c6572206973206e6f74206f776e6572206e6f7260448201526808185c1c1c9bdd995960ba1b6064820152608401610612565b6107ef8585858585611eaf565b6004546001600160a01b031633146114785760405162461bcd60e51b815260040161061290613172565b6001600160a01b0381166114dd5760405162461bcd60e51b815260206004820152602660248201527f4f776e61626c653a206e6577206f776e657220697320746865207a65726f206160448201526564647265737360d01b6064820152608401610612565b6114e681611800565b50565b6000806114f5836112fd565b905080156115035792915050565b6040805180820190915233815260208101848152600e8054600181018255600082905283517fbb7b4a454dc3493923482f07822329ed19e8244eff582cc204f8554c3620c3fd600290920291820180546001600160a01b0319166001600160a01b0390921691909117905591517fbb7b4a454dc3493923482f07822329ed19e8244eff582cc204f8554c3620c3fe90920191909155600f5490546115a79190613290565b949350505050565b600480546001600160a01b038381166001600160a01b0319831681179093556040519116919082907f8be0079c531659141344cd1fd0a4f28419497f9722a3daafe3b4186f6b6457e090600090a35050565b81518351146116635760405162461bcd60e51b815260206004820152602860248201527f455243313135353a2069647320616e6420616d6f756e7473206c656e677468206044820152670dad2e6dac2e8c6d60c31b6064820152608401610612565b6001600160a01b0384166116895760405162461bcd60e51b8152600401610612906130e3565b33611698818787878787611fe7565b60005b845181101561179a5760008582815181106116c657634e487b7160e01b600052603260045260246000fd5b6020026020010151905060008583815181106116f257634e487b7160e01b600052603260045260246000fd5b602090810291909101810151600084815280835260408082206001600160a01b038e1683529093529190912054909150818110156117425760405162461bcd60e51b815260040161061290613128565b6000838152602081815260408083206001600160a01b038e8116855292528083208585039055908b1682528120805484929061177f908490613239565b92505081905550505050806117939061330f565b905061169b565b50846001600160a01b0316866001600160a01b0316826001600160a01b03167f4a39dc06d4c0dbc64b70af90fd698a233a518aa5d07e595d983b8c0526c8f7fb87876040516117ea929190613030565b60405180910390a461103e818787878787612088565b60006118146004546001600160a01b031690565b6001600160a01b0316148061183657506004546001600160a01b038281169116145b61188d5760405162461bcd60e51b815260206004820152602260248201527f48494c4f3a2063616e6e6f74207472616e73666572206f776e65727368697020604482015261746f60f01b6064820152608401610612565b6114e6816115af565b816001600160a01b0316836001600160a01b0316141561190a5760405162461bcd60e51b815260206004820152602960248201527f455243313135353a2073657474696e6720617070726f76616c20737461747573604482015268103337b91039b2b63360b91b6064820152608401610612565b6001600160a01b03838116600081815260016020908152604080832094871680845294825291829020805460ff191686151590811790915591519182527f17307eab39ab6107e8899845ad3d59bd9653f200f220920489ca2b5937696c31910160405180910390a3505050565b80611989576119846121f3565b611991565b611991612242565b6000908152600c60209081526040808320839055600d909152812055565b6001600160a01b038416611a0f5760405162461bcd60e51b815260206004820152602160248201527f455243313135353a206d696e7420746f20746865207a65726f206164647265736044820152607360f81b6064820152608401610612565b336000611a1b856122a7565b90506000611a28856122a7565b9050611a3983600089858589611fe7565b6000868152602081815260408083206001600160a01b038b16845290915281208054879290611a69908490613239565b909155505060408051878152602081018790526001600160a01b03808a1692600092918716917fc3d58168c5ae7397731d063d5bbf3d657854427343f4c083240f7aacaa2d0f62910160405180910390a4611ac983600089898989612300565b50505050505050565b600a546000828152600c60205260409020541015611b14576000818152600c6020526040902054611b04906001613239565b6000828152600c60205260409020555b600b546000828152600d602052604090205410156114e6576000818152600d6020526040902054611b46906001613239565b6000828152600d602052604090205550565b600454600160a01b900460ff1615611b825760405162461bcd60e51b8152600401610612906130b9565b600e54611b8b57565b600f8054600091600e919083611ba08361330f565b9190505581548110611bc257634e487b7160e01b600052603260045260246000fd5b600091825260208083206040805180820190915260029093020180546001600160a01b0316808452600190910154918301829052919350611c0391906105aa565b905080611c0e575050565b610c6a826000015183602001515b600454600160a01b900460ff1615611c465760405162461bcd60e51b8152600401610612906130b9565b801580611c535750600181145b611c905760405162461bcd60e51b815260206004820152600e60248201526d24b73b30b634b2103a37b5b2b71760911b6044820152606401610612565b600a546000828152600c60205260409020541480611d025760405162461bcd60e51b815260206004820152602960248201527f48494c4f3a2063616e6e6f742073656c6c207768656e207468652073616c65206044820152681a5cc81b1bd8dad95960ba1b6064820152608401610612565b611d0c83836123ca565b6009546008541415611d2e57611d29611d24836112d0565b61248f565b505050565b6000611d39836112d0565b9050611d4d81670de0b6b3a7640000613271565b60145460405163a9059cbb60e01b81526001600160a01b0387811660048301526024820184905292935091169063a9059cbb90604401602060405180830381600087803b158015611d9d57600080fd5b505af1158015611db1573d6000803e3d6000fd5b505050506040513d601f19601f82011682018060405250810190611dd59190612d8c565b50611de2848460016125ee565b611deb83611977565b604080516001600160a01b0386168152602081018590527f0d86730737b142fc160892fa8a0f2db687a92a0e294d1ad70624cf5acef03b84910160405180910390a182158015611e435750611e418460016105aa565b155b15610c2357611e6484600180604051806020016040528060008152506119af565b6001600a54611e739190613290565b6001600052600c6020527fd421a5181c571bba3f01190c922c3b2a896fc1d84e86c9f17ac10e67ebef8b5c541015610c2357610c236001611ad2565b6001600160a01b038416611ed55760405162461bcd60e51b8152600401610612906130e3565b336000611ee1856122a7565b90506000611eee856122a7565b9050611efe838989858589611fe7565b6000868152602081815260408083206001600160a01b038c16845290915290205485811015611f3f5760405162461bcd60e51b815260040161061290613128565b6000878152602081815260408083206001600160a01b038d8116855292528083208985039055908a16825281208054889290611f7c908490613239565b909155505060408051888152602081018890526001600160a01b03808b16928c821692918816917fc3d58168c5ae7397731d063d5bbf3d657854427343f4c083240f7aacaa2d0f62910160405180910390a4611fdc848a8a8a8a8a612300565b505050505050505050565b600454600160a01b900460ff16156120115760405162461bcd60e51b8152600401610612906130b9565b6001600160a01b038516158061202e57506001600160a01b038416155b61207a5760405162461bcd60e51b815260206004820152601760248201527f48494c4f3a206e6f6e207472616e736665727261626c650000000000000000006044820152606401610612565b61103e86868686868661277e565b6001600160a01b0384163b1561103e5760405163bc197c8160e01b81526001600160a01b0385169063bc197c81906120cc9089908990889088908890600401612f11565b602060405180830381600087803b1580156120e657600080fd5b505af1925050508015612116575060408051601f3d908101601f1916820190925261211391810190612dc4565b60015b6121c357612122613356565b806308c379a0141561215c575061213761336e565b80612142575061215e565b8060405162461bcd60e51b8152600401610612919061305e565b505b60405162461bcd60e51b815260206004820152603460248201527f455243313135353a207472616e7366657220746f206e6f6e20455243313135356044820152732932b1b2b4bb32b91034b6b83632b6b2b73a32b960611b6064820152608401610612565b6001600160e01b0319811663bc197c8160e01b14611ac95760405162461bcd60e51b815260040161061290613071565b60016008546122029190613290565b6008557f5a258dc6fce0816c9caf9835f08fa5596416dd55037714d2e51688cea5f062c560085460405161223891815260200190565b60405180910390a1565b600954612250906001613239565b6009819055600854101561227457634e487b7160e01b600052600160045260246000fd5b7f3f9b5fbd1bfff0a78edef53fb452db3ea00eb6ea96cb06defcc66dd171bbca2160095460405161223891815260200190565b604080516001808252818301909252606091600091906020808301908036833701905050905082816000815181106122ef57634e487b7160e01b600052603260045260246000fd5b602090810291909101015292915050565b6001600160a01b0384163b1561103e5760405163f23a6e6160e01b81526001600160a01b0385169063f23a6e61906123449089908990889088908890600401612f6f565b602060405180830381600087803b15801561235e57600080fd5b505af192505050801561238e575060408051601f3d908101601f1916820190925261238b91810190612dc4565b60015b61239a57612122613356565b6001600160e01b0319811663f23a6e6160e01b14611ac95760405162461bcd60e51b815260040161061290613071565b60006123d5826112d0565b60408051606080820183526001600160a01b03878116808452602080850189815285870188815260008981526010845288812080546001808201835591835291859020895160039093020180546001600160a01b03191692909716919091178655915191850191909155516002909301929092558451908152908101879052928301849052929350917fc19f70d47acbbf1d2faf3a7944182cf6b5345c67d2156ed328ea510e72f13066910160405180910390a150505050565b6000601060006008548152602001908152602001600020805480602002602001604051908101604052809291908181526020016000905b8282101561251b576000848152602090819020604080516060810182526003860290920180546001600160a01b03168352600180820154848601526002909101549183019190915290835290920191016124c6565b50505050905060005b815181101561259d57601282828151811061254f57634e487b7160e01b600052603260045260246000fd5b6020908102919091018101515182546001810184556000938452919092200180546001600160a01b0319166001600160a01b03909216919091179055806125958161330f565b915050612524565b506011805460ff191660011790556040517f10dee8c2942b449b177825c6d5eb7131392949ec2008676761b93b00acea615a906125de906012908590612fc7565b60405180910390a1610c6a61292f565b6001600160a01b0383166126505760405162461bcd60e51b815260206004820152602360248201527f455243313135353a206275726e2066726f6d20746865207a65726f206164647260448201526265737360e81b6064820152608401610612565b33600061265c846122a7565b90506000612669846122a7565b905061268983876000858560405180602001604052806000815250611fe7565b6000858152602081815260408083206001600160a01b038a168452909152902054848110156127065760405162461bcd60e51b8152602060048201526024808201527f455243313135353a206275726e20616d6f756e7420657863656564732062616c604482015263616e636560e01b6064820152608401610612565b6000868152602081815260408083206001600160a01b038b81168086529184528285208a8703905582518b81529384018a90529092908816917fc3d58168c5ae7397731d063d5bbf3d657854427343f4c083240f7aacaa2d0f62910160405180910390a4604080516020810190915260009052611ac9565b6001600160a01b0385166128215760005b835181101561281f578281815181106127b857634e487b7160e01b600052603260045260246000fd5b6020026020010151600360008684815181106127e457634e487b7160e01b600052603260045260246000fd5b6020026020010151815260200190815260200160002060008282546128099190613239565b9091555061281890508161330f565b905061278f565b505b6001600160a01b03841661103e5760005b8351811015611ac957600084828151811061285d57634e487b7160e01b600052603260045260246000fd5b60200260200101519050600084838151811061288957634e487b7160e01b600052603260045260246000fd5b602002602001015190506000600360008481526020019081526020016000205490508181101561290c5760405162461bcd60e51b815260206004820152602860248201527f455243313135353a206275726e20616d6f756e74206578636565647320746f74604482015267616c537570706c7960c01b6064820152608401610612565b600092835260036020526040909220910390556129288161330f565b9050612832565b600454600160a01b900460ff16156129595760405162461bcd60e51b8152600401610612906130b9565b6004805460ff60a01b1916600160a01b1790557f62e78cea01bee320cd4e420270b5ea74000d11b0c9f74754ebdbfc544b05a2586129943390565b6040516001600160a01b039091168152602001612238565b6040518060c001604052806000815260200160008152602001606081526020016129d46129ee565b81526020016129e16129ee565b8152602001600081525090565b60405180604001604052806002906020820280368337509192915050565b80356001600160a01b03811681146112f857600080fd5b600082601f830112612a33578081fd5b81356020612a4082613215565b604051612a4d82826132e2565b8381528281019150858301600585901b87018401881015612a6c578586fd5b855b85811015612a8a57813584529284019290840190600101612a6e565b5090979650505050505050565b600082601f830112612aa7578081fd5b813567ffffffffffffffff811115612ac157612ac1613340565b604051612ad8601f8301601f1916602001826132e2565b818152846020838601011115612aec578283fd5b816020850160208301379081016020019190915292915050565b600060208284031215612b17578081fd5b612b2082612a0c565b9392505050565b60008060408385031215612b39578081fd5b612b4283612a0c565b9150612b5060208401612a0c565b90509250929050565b600080600080600060a08688031215612b70578081fd5b612b7986612a0c565b9450612b8760208701612a0c565b9350604086013567ffffffffffffffff80821115612ba3578283fd5b612baf89838a01612a23565b94506060880135915080821115612bc4578283fd5b612bd089838a01612a23565b93506080880135915080821115612be5578283fd5b50612bf288828901612a97565b9150509295509295909350565b600080600080600060a08688031215612c16578081fd5b612c1f86612a0c565b9450612c2d60208701612a0c565b93506040860135925060608601359150608086013567ffffffffffffffff811115612c56578182fd5b612bf288828901612a97565b60008060408385031215612c74578182fd5b612c7d83612a0c565b91506020830135612c8d816133f8565b809150509250929050565b60008060408385031215612caa578182fd5b612cb383612a0c565b946020939093013593505050565b60008060408385031215612cd3578182fd5b823567ffffffffffffffff80821115612cea578384fd5b818501915085601f830112612cfd578384fd5b81356020612d0a82613215565b604051612d1782826132e2565b8381528281019150858301600585901b870184018b1015612d36578889fd5b8896505b84871015612d5f57612d4b81612a0c565b835260019690960195918301918301612d3a565b5096505086013592505080821115612d75578283fd5b50612d8285828601612a23565b9150509250929050565b600060208284031215612d9d578081fd5b8151612b20816133f8565b600060208284031215612db9578081fd5b8135612b2081613406565b600060208284031215612dd5578081fd5b8151612b2081613406565b600060208284031215612df1578081fd5b5035919050565b600060208284031215612e09578081fd5b5051919050565b60008060408385031215612e22578182fd5b50508035926020909101359150565b6000815180845260208085019450808401835b83811015612e695781516001600160a01b031687529582019590820190600101612e44565b509495945050505050565b8060005b6002811015610c23578151845260209384019390910190600101612e78565b6000815180845260208085019450808401835b83811015612e6957815187529582019590820190600101612eaa565b60008151808452815b81811015612eeb57602081850181015186830182015201612ecf565b81811115612efc5782602083870101525b50601f01601f19169290920160200192915050565b6001600160a01b0386811682528516602082015260a060408201819052600090612f3d90830186612e97565b8281036060840152612f4f8186612e97565b90508281036080840152612f638185612ec6565b98975050505050505050565b6001600160a01b03868116825285166020820152604081018490526060810183905260a060808201819052600090612fa990830184612ec6565b979650505050505050565b602081526000612b206020830184612e31565b6000604082016040835280855480835260608501915086845260209250828420845b8281101561300e5781546001600160a01b031684529284019260019182019101612fe9565b50505092019290925292915050565b602081526000612b206020830184612e97565b6040815260006130436040830185612e97565b82810360208401526130558185612e97565b95945050505050565b602081526000612b206020830184612ec6565b60208082526028908201527f455243313135353a204552433131353552656365697665722072656a656374656040820152676420746f6b656e7360c01b606082015260800190565b60208082526010908201526f14185d5cd8589b194e881c185d5cd95960821b604082015260600190565b60208082526025908201527f455243313135353a207472616e7366657220746f20746865207a65726f206164604082015264647265737360d81b606082015260800190565b6020808252602a908201527f455243313135353a20696e73756666696369656e742062616c616e636520666f60408201526939103a3930b739b332b960b11b606082015260800190565b6020808252818101527f4f776e61626c653a2063616c6c6572206973206e6f7420746865206f776e6572604082015260600190565b602081528151602082015260208201516040820152600060408301516101008060608501526131da610120850183612e31565b915060608501516131ee6080860182612e74565b50608085015161320160c0860182612e74565b5060a0949094015192909301919091525090565b600067ffffffffffffffff82111561322f5761322f613340565b5060051b60200190565b6000821982111561324c5761324c61332a565b500190565b60008261326c57634e487b7160e01b81526012600452602481fd5b500490565b600081600019048311821515161561328b5761328b61332a565b500290565b6000828210156132a2576132a261332a565b500390565b600181811c908216806132bb57607f821691505b602082108114156132dc57634e487b7160e01b600052602260045260246000fd5b50919050565b601f8201601f1916810167ffffffffffffffff8111828210171561330857613308613340565b6040525050565b60006000198214156133235761332361332a565b5060010190565b634e487b7160e01b600052601160045260246000fd5b634e487b7160e01b600052604160045260246000fd5b600060033d111561336b57600481823e5160e01c5b90565b600060443d101561337c5790565b6040516003193d81016004833e81513d67ffffffffffffffff81602484011181841117156133ac57505050505090565b82850191508151818111156133c45750505050505090565b843d87010160208285010111156133de5750505050505090565b6133ed602082860101876132e2565b509095945050505050565b80151581146114e657600080fd5b6001600160e01b0319811681146114e657600080fdfea264697066735822122015ca50c50ec900527611f1c06f3584a009f31ed69a1cbc30c6c1f949b10ad59a64736f6c6343000804003368747470733a2f2f68696c6f2d65696768742e76657263656c2e6170702f6170692f746f6b656e732f7b69647d",
  "linkReferences": {},
  "deployedLinkReferences": {}
}