{
  "_format": "hh-sol-artifact-1",
  "contractName": "HILO",
  "sourceName": "contracts/HILO.sol",
  "abi": [
    {
      "inputs": [
        {
          "internalType": "uint256",
          "name": "_initialHi",
          "type": "uint256"
        },
        {
          "internalType": "uint256",
          "name": "_initialLo",
          "type": "uint256"
        },
        {
          "internalType": "uint256",
          "name": "_buyRequiredCount",
          "type": "uint256"
        },
        {
          "internalType": "uint256",
          "name": "_jackpot",
          "type": "uint256"
        }
      ],
      "stateMutability": "nonpayable",
      "type": "constructor"
    },
    {
      "anonymous": false,
      "inputs": [
        {
          "indexed": false,
          "internalType": "address",
          "name": "player",
          "type": "address"
        },
        {
          "indexed": false,
          "internalType": "uint256",
          "name": "tokenId",
          "type": "uint256"
        },
        {
          "indexed": false,
          "internalType": "uint256",
          "name": "price",
          "type": "uint256"
        }
      ],
      "name": "ActionAdded",
      "type": "event"
    },
    {
      "anonymous": false,
      "inputs": [
        {
          "indexed": true,
          "internalType": "address",
          "name": "account",
          "type": "address"
        },
        {
          "indexed": true,
          "internalType": "address",
          "name": "operator",
          "type": "address"
        },
        {
          "indexed": false,
          "internalType": "bool",
          "name": "approved",
          "type": "bool"
        }
      ],
      "name": "ApprovalForAll",
      "type": "event"
    },
    {
      "anonymous": false,
      "inputs": [
        {
          "indexed": false,
          "internalType": "uint256",
          "name": "newHiPrice",
          "type": "uint256"
        }
      ],
      "name": "HiDecreased",
      "type": "event"
    },
    {
      "anonymous": false,
      "inputs": [
        {
          "indexed": false,
          "internalType": "address",
          "name": "player",
          "type": "address"
        },
        {
          "indexed": false,
          "internalType": "uint256",
          "name": "amount",
          "type": "uint256"
        }
      ],
      "name": "JackpotPaid",
      "type": "event"
    },
    {
      "anonymous": false,
      "inputs": [
        {
          "indexed": false,
          "internalType": "uint256",
          "name": "newLoPrice",
          "type": "uint256"
        }
      ],
      "name": "LoIncreased",
      "type": "event"
    },
    {
      "anonymous": false,
      "inputs": [
        {
          "indexed": true,
          "internalType": "address",
          "name": "previousOwner",
          "type": "address"
        },
        {
          "indexed": true,
          "internalType": "address",
          "name": "newOwner",
          "type": "address"
        }
      ],
      "name": "OwnershipTransferred",
      "type": "event"
    },
    {
      "anonymous": false,
      "inputs": [
        {
          "indexed": false,
          "internalType": "address",
          "name": "account",
          "type": "address"
        }
      ],
      "name": "Paused",
      "type": "event"
    },
    {
      "anonymous": false,
      "inputs": [
        {
          "indexed": false,
          "internalType": "address",
          "name": "player",
          "type": "address"
        },
        {
          "indexed": false,
          "internalType": "uint256",
          "name": "tokenId",
          "type": "uint256"
        }
      ],
      "name": "PriceUpdated",
      "type": "event"
    },
    {
      "anonymous": false,
      "inputs": [
        {
          "indexed": false,
          "internalType": "address[]",
          "name": "winners",
          "type": "address[]"
        },
        {
          "indexed": false,
          "internalType": "uint256",
          "name": "price",
          "type": "uint256"
        }
      ],
      "name": "PricesConverged",
      "type": "event"
    },
    {
      "anonymous": false,
      "inputs": [
        {
          "indexed": true,
          "internalType": "address",
          "name": "operator",
          "type": "address"
        },
        {
          "indexed": true,
          "internalType": "address",
          "name": "from",
          "type": "address"
        },
        {
          "indexed": true,
          "internalType": "address",
          "name": "to",
          "type": "address"
        },
        {
          "indexed": false,
          "internalType": "uint256[]",
          "name": "ids",
          "type": "uint256[]"
        },
        {
          "indexed": false,
          "internalType": "uint256[]",
          "name": "values",
          "type": "uint256[]"
        }
      ],
      "name": "TransferBatch",
      "type": "event"
    },
    {
      "anonymous": false,
      "inputs": [
        {
          "indexed": true,
          "internalType": "address",
          "name": "operator",
          "type": "address"
        },
        {
          "indexed": true,
          "internalType": "address",
          "name": "from",
          "type": "address"
        },
        {
          "indexed": true,
          "internalType": "address",
          "name": "to",
          "type": "address"
        },
        {
          "indexed": false,
          "internalType": "uint256",
          "name": "id",
          "type": "uint256"
        },
        {
          "indexed": false,
          "internalType": "uint256",
          "name": "value",
          "type": "uint256"
        }
      ],
      "name": "TransferSingle",
      "type": "event"
    },
    {
      "anonymous": false,
      "inputs": [
        {
          "indexed": false,
          "internalType": "string",
          "name": "value",
          "type": "string"
        },
        {
          "indexed": true,
          "internalType": "uint256",
          "name": "id",
          "type": "uint256"
        }
      ],
      "name": "URI",
      "type": "event"
    },
    {
      "anonymous": false,
      "inputs": [
        {
          "indexed": false,
          "internalType": "address",
          "name": "account",
          "type": "address"
        }
      ],
      "name": "Unpaused",
      "type": "event"
    },
    {
      "inputs": [],
      "name": "HI",
      "outputs": [
        {
          "internalType": "uint256",
          "name": "",
          "type": "uint256"
        }
      ],
      "stateMutability": "view",
      "type": "function"
    },
    {
      "inputs": [],
      "name": "LO",
      "outputs": [
        {
          "internalType": "uint256",
          "name": "",
          "type": "uint256"
        }
      ],
      "stateMutability": "view",
      "type": "function"
    },
    {
      "inputs": [],
      "name": "addToQueue",
      "outputs": [
        {
          "internalType": "uint256",
          "name": "",
          "type": "uint256"
        }
      ],
      "stateMutability": "nonpayable",
      "type": "function"
    },
    {
      "inputs": [
        {
          "internalType": "address",
          "name": "account",
          "type": "address"
        },
        {
          "internalType": "uint256",
          "name": "id",
          "type": "uint256"
        }
      ],
      "name": "balanceOf",
      "outputs": [
        {
          "internalType": "uint256",
          "name": "",
          "type": "uint256"
        }
      ],
      "stateMutability": "view",
      "type": "function"
    },
    {
      "inputs": [
        {
          "internalType": "address[]",
          "name": "accounts",
          "type": "address[]"
        },
        {
          "internalType": "uint256[]",
          "name": "ids",
          "type": "uint256[]"
        }
      ],
      "name": "balanceOfBatch",
      "outputs": [
        {
          "internalType": "uint256[]",
          "name": "",
          "type": "uint256[]"
        }
      ],
      "stateMutability": "view",
      "type": "function"
    },
    {
      "inputs": [
        {
          "internalType": "uint256",
          "name": "tokenId",
          "type": "uint256"
        }
      ],
      "name": "buy",
      "outputs": [],
      "stateMutability": "nonpayable",
      "type": "function"
    },
    {
      "inputs": [
        {
          "internalType": "uint256",
          "name": "id",
          "type": "uint256"
        }
      ],
      "name": "exists",
      "outputs": [
        {
          "internalType": "bool",
          "name": "",
          "type": "bool"
        }
      ],
      "stateMutability": "view",
      "type": "function"
    },
    {
      "inputs": [],
      "name": "gameWon",
      "outputs": [
        {
          "internalType": "bool",
          "name": "",
          "type": "bool"
        }
      ],
      "stateMutability": "view",
      "type": "function"
    },
    {
      "inputs": [
        {
          "internalType": "uint256",
          "name": "tokenId",
          "type": "uint256"
        }
      ],
      "name": "getPrice",
      "outputs": [
        {
          "internalType": "uint256",
          "name": "",
          "type": "uint256"
        }
      ],
      "stateMutability": "view",
      "type": "function"
    },
    {
      "inputs": [],
      "name": "getWinners",
      "outputs": [
        {
          "internalType": "address[]",
          "name": "",
          "type": "address[]"
        }
      ],
      "stateMutability": "view",
      "type": "function"
    },
    {
      "inputs": [
        {
          "internalType": "address",
          "name": "account",
          "type": "address"
        },
        {
          "internalType": "address",
          "name": "operator",
          "type": "address"
        }
      ],
      "name": "isApprovedForAll",
      "outputs": [
        {
          "internalType": "bool",
          "name": "",
          "type": "bool"
        }
      ],
      "stateMutability": "view",
      "type": "function"
    },
    {
      "inputs": [],
      "name": "jackpot",
      "outputs": [
        {
          "internalType": "uint256",
          "name": "",
          "type": "uint256"
        }
      ],
      "stateMutability": "view",
      "type": "function"
    },
    {
      "inputs": [],
      "name": "owner",
      "outputs": [
        {
          "internalType": "address",
          "name": "",
          "type": "address"
        }
      ],
      "stateMutability": "view",
      "type": "function"
    },
    {
      "inputs": [],
      "name": "paused",
      "outputs": [
        {
          "internalType": "bool",
          "name": "",
          "type": "bool"
        }
      ],
      "stateMutability": "view",
      "type": "function"
    },
    {
      "inputs": [],
      "name": "payout",
      "outputs": [],
      "stateMutability": "nonpayable",
      "type": "function"
    },
    {
      "inputs": [],
      "name": "renounceOwnership",
      "outputs": [],
      "stateMutability": "nonpayable",
      "type": "function"
    },
    {
      "inputs": [
        {
          "internalType": "address",
          "name": "from",
          "type": "address"
        },
        {
          "internalType": "address",
          "name": "to",
          "type": "address"
        },
        {
          "internalType": "uint256[]",
          "name": "ids",
          "type": "uint256[]"
        },
        {
          "internalType": "uint256[]",
          "name": "amounts",
          "type": "uint256[]"
        },
        {
          "internalType": "bytes",
          "name": "data",
          "type": "bytes"
        }
      ],
      "name": "safeBatchTransferFrom",
      "outputs": [],
      "stateMutability": "nonpayable",
      "type": "function"
    },
    {
      "inputs": [
        {
          "internalType": "address",
          "name": "from",
          "type": "address"
        },
        {
          "internalType": "address",
          "name": "to",
          "type": "address"
        },
        {
          "internalType": "uint256",
          "name": "id",
          "type": "uint256"
        },
        {
          "internalType": "uint256",
          "name": "amount",
          "type": "uint256"
        },
        {
          "internalType": "bytes",
          "name": "data",
          "type": "bytes"
        }
      ],
      "name": "safeTransferFrom",
      "outputs": [],
      "stateMutability": "nonpayable",
      "type": "function"
    },
    {
      "inputs": [
        {
          "internalType": "uint256",
          "name": "tokenId",
          "type": "uint256"
        }
      ],
      "name": "sell",
      "outputs": [],
      "stateMutability": "nonpayable",
      "type": "function"
    },
    {
      "inputs": [
        {
          "internalType": "address",
          "name": "operator",
          "type": "address"
        },
        {
          "internalType": "bool",
          "name": "approved",
          "type": "bool"
        }
      ],
      "name": "setApprovalForAll",
      "outputs": [],
      "stateMutability": "nonpayable",
      "type": "function"
    },
    {
      "inputs": [
        {
          "internalType": "bytes4",
          "name": "interfaceId",
          "type": "bytes4"
        }
      ],
      "name": "supportsInterface",
      "outputs": [
        {
          "internalType": "bool",
          "name": "",
          "type": "bool"
        }
      ],
      "stateMutability": "view",
      "type": "function"
    },
    {
      "inputs": [
        {
          "internalType": "uint256",
          "name": "id",
          "type": "uint256"
        }
      ],
      "name": "totalSupply",
      "outputs": [
        {
          "internalType": "uint256",
          "name": "",
          "type": "uint256"
        }
      ],
      "stateMutability": "view",
      "type": "function"
    },
    {
      "inputs": [
        {
          "internalType": "address",
          "name": "newOwner",
          "type": "address"
        }
      ],
      "name": "transferOwnership",
      "outputs": [],
      "stateMutability": "nonpayable",
      "type": "function"
    },
    {
      "inputs": [
        {
          "internalType": "uint256",
          "name": "",
          "type": "uint256"
        }
      ],
      "name": "uri",
      "outputs": [
        {
          "internalType": "string",
          "name": "",
          "type": "string"
        }
      ],
      "stateMutability": "view",
      "type": "function"
    },
    {
      "inputs": [],
      "name": "usdc",
      "outputs": [
        {
          "internalType": "contract IERC20",
          "name": "",
          "type": "address"
        }
      ],
      "stateMutability": "view",
      "type": "function"
    },
    {
      "inputs": [
        {
          "internalType": "uint256",
          "name": "",
          "type": "uint256"
        }
      ],
      "name": "winners",
      "outputs": [
        {
          "internalType": "address",
          "name": "",
          "type": "address"
        }
      ],
      "stateMutability": "view",
      "type": "function"
    }
  ],
  "bytecode": "0x60806040526000600f556011805460ff19169055601480546001600160a01b03191673e11a86849d99f524cac3e7a0ec1241828e332c621790553480156200004657600080fd5b506040516200341c3803806200341c8339810160408190526200006991620003a3565b6040518060600160405280602d8152602001620033ef602d91396200008e8162000292565b506200009a33620002ab565b6004805460ff60a01b191690556001600555600884905560068490556009839055600783905560006002620000d08587620003d9565b600754600654620000e2919062000437565b620000ef906001620003d9565b620000fb919062000415565b620001079190620003f4565b90508162000117600283620003f4565b10156200016a5760405162461bcd60e51b815260206004820152601e60248201527f4a61636b706f7420746f6f206c6172676520666f72207468652067616d650000604482015260640160405180910390fd5b60138290556008546200018d57634e487b7160e01b600052600160045260246000fd5b600060095411620001ae57634e487b7160e01b600052600160045260246000fd5b60095460085411620001d057634e487b7160e01b600052600160045260246000fd5b600a839055600c60205260007f13649b2456f1b42fef0f0040b3aaeabcd21a76a0f3f5defd4f583839455116e8819055600181527fd421a5181c571bba3f01190c922c3b2a896fc1d84e86c9f17ac10e67ebef8b5c556200023383600262000415565b600b555050600d602052505060007f81955a0a11e65eac625c29e8882660bae4e165a75d72780094acae8ece9a29ee819055600181527ffd54ff1ed53f34a900b24c5ba64f85761163b5d82d98a47b9bd80e45466993c55550620004a4565b8051620002a7906002906020840190620002fd565b5050565b600480546001600160a01b038381166001600160a01b0319831681179093556040519116919082907f8be0079c531659141344cd1fd0a4f28419497f9722a3daafe3b4186f6b6457e090600090a35050565b8280546200030b9062000451565b90600052602060002090601f0160209004810192826200032f57600085556200037a565b82601f106200034a57805160ff19168380011785556200037a565b828001600101855582156200037a579182015b828111156200037a5782518255916020019190600101906200035d565b50620003889291506200038c565b5090565b5b808211156200038857600081556001016200038d565b60008060008060808587031215620003b9578384fd5b505082516020840151604085015160609095015191969095509092509050565b60008219821115620003ef57620003ef6200048e565b500190565b6000826200041057634e487b7160e01b81526012600452602481fd5b500490565b60008160001904831182151516156200043257620004326200048e565b500290565b6000828210156200044c576200044c6200048e565b500390565b600181811c908216806200046657607f821691505b602082108114156200048857634e487b7160e01b600052602260045260246000fd5b50919050565b634e487b7160e01b600052601160045260246000fd5b612f3b80620004b46000396000f3fe608060405234801561001057600080fd5b506004361061018d5760003560e01c80638a5dfeaa116100de578063df15c37e11610097578063e985e9c511610071578063e985e9c51461036a578063f242432a146103a6578063f2e8dfdb146103b9578063f2fde38b146103c157600080fd5b8063df15c37e1461032f578063e4849b3214610344578063e75722301461035757600080fd5b80638a5dfeaa146102bd5780638da5cb5b146102c5578063a22cb465146102d6578063a2fb1175146102e9578063bd85b039146102fc578063d96a094a1461031c57600080fd5b80634e1273f41161014b57806363bd1d4a1161012557806363bd1d4a1461029c57806368d2be8f146102a45780636b31ee01146102ac578063715018a6146102b557600080fd5b80634e1273f4146102485780634f558e79146102685780635c975abb1461028a57600080fd5b8062fdd58e1461019257806301ffc9a7146101b8578063069a825c146101db5780630e89341c146101e85780632eb2c2d6146102085780633e413bee1461021d575b600080fd5b6101a56101a0366004612831565b6103d4565b6040519081526020015b60405180910390f35b6101cb6101c6366004612941565b61046b565b60405190151581526020016101af565b6011546101cb9060ff1681565b6101fb6101f6366004612979565b6104bd565b6040516101af9190612bb5565b61021b6102163660046126f2565b610551565b005b601454610230906001600160a01b031681565b6040516001600160a01b0390911681526020016101af565b61025b61025636600461285a565b6105e8565b6040516101af9190612b74565b6101cb610276366004612979565b600090815260036020526040902054151590565b600454600160a01b900460ff166101cb565b61021b61074a565b6101a5600181565b6101a560135481565b61021b610a6b565b6101a5610aa1565b6004546001600160a01b0316610230565b61021b6102e43660046127fb565b610baf565b6102306102f7366004612979565b610bbe565b6101a561030a366004612979565b60009081526003602052604090205490565b61021b61032a366004612979565b610be8565b610337610f5b565b6040516101af9190612ad1565b61021b610352366004612979565b610fbd565b6101a5610365366004612979565b611029565b6101cb6103783660046126c0565b6001600160a01b03918216600090815260016020908152604080832093909416825291909152205460ff1690565b61021b6103b4366004612798565b611056565b6101a5600081565b61021b6103cf36600461269f565b6110dd565b60006001600160a01b0383166104455760405162461bcd60e51b815260206004820152602b60248201527f455243313135353a2062616c616e636520717565727920666f7220746865207a60448201526a65726f206164647265737360a81b60648201526084015b60405180910390fd5b506000908152602081815260408083206001600160a01b03949094168352929052205490565b60006001600160e01b03198216636cdb3d1360e11b148061049c57506001600160e01b031982166303a24d0760e21b145b806104b757506301ffc9a760e01b6001600160e01b03198316145b92915050565b6060600280546104cc90612d90565b80601f01602080910402602001604051908101604052809291908181526020018280546104f890612d90565b80156105455780601f1061051a57610100808354040283529160200191610545565b820191906000526020600020905b81548152906001019060200180831161052857829003601f168201915b50505050509050919050565b6001600160a01b03851633148061056d575061056d8533610378565b6105d45760405162461bcd60e51b815260206004820152603260248201527f455243313135353a207472616e736665722063616c6c6572206973206e6f74206044820152711bdddb995c881b9bdc88185c1c1c9bdd995960721b606482015260840161043c565b6105e18585858585611178565b5050505050565b6060815183511461064d5760405162461bcd60e51b815260206004820152602960248201527f455243313135353a206163636f756e747320616e6420696473206c656e677468604482015268040dad2e6dac2e8c6d60bb1b606482015260840161043c565b6000835167ffffffffffffffff81111561067757634e487b7160e01b600052604160045260246000fd5b6040519080825280602002602001820160405280156106a0578160200160208202803683370190505b50905060005b8451811015610742576107078582815181106106d257634e487b7160e01b600052603260045260246000fd5b60200260200101518583815181106106fa57634e487b7160e01b600052603260045260246000fd5b60200260200101516103d4565b82828151811061072757634e487b7160e01b600052603260045260246000fd5b602090810291909101015261073b81612df8565b90506106a6565b509392505050565b6004546001600160a01b031633146107745760405162461bcd60e51b815260040161043c90612cc9565b600454600160a01b900460ff166107c45760405162461bcd60e51b815260206004820152601460248201527314185d5cd8589b194e881b9bdd081c185d5cd95960621b604482015260640161043c565b6012546013546000906107df90670de0b6b3a7640000612d5a565b905060005b828110156109425760006107f88484612d3a565b601454601280549293506001600160a01b039091169163a9059cbb91908590811061083357634e487b7160e01b600052603260045260246000fd5b60009182526020909120015460405160e083901b6001600160e01b03191681526001600160a01b03909116600482015260248101849052604401602060405180830381600087803b15801561088757600080fd5b505af115801561089b573d6000803e3d6000fd5b505050506040513d601f19601f820116820180604052508101906108bf9190612925565b507f88c519ab1745d32c7a1e2c97aa7817ca6e8046aaa146002b9ec1c8516ed678546012838154811061090257634e487b7160e01b600052603260045260246000fd5b60009182526020918290200154604080516001600160a01b0390921682529181018490520160405180910390a1508061093a81612df8565b9150506107e4565b506014546040516370a0823160e01b81523060048201526000916001600160a01b0316906370a082319060240160206040518083038186803b15801561098757600080fd5b505afa15801561099b573d6000803e3d6000fd5b505050506040513d601f19601f820116820180604052508101906109bf9190612991565b6014549091506001600160a01b031663a9059cbb6109e56004546001600160a01b031690565b6040516001600160e01b031960e084901b1681526001600160a01b03909116600482015260248101849052604401602060405180830381600087803b158015610a2d57600080fd5b505af1158015610a41573d6000803e3d6000fd5b505050506040513d601f19601f82011682018060405250810190610a659190612925565b50505050565b6004546001600160a01b03163314610a955760405162461bcd60e51b815260040161043c90612cc9565b610a9f600061137f565b565b600f5460009081905b600e54811015610b1157336001600160a01b0316600e8281548110610adf57634e487b7160e01b600052603260045260246000fd5b6000918252602090912001546001600160a01b03161415610aff57600191505b80610b0981612df8565b915050610aaa565b508015610b595760405162461bcd60e51b815260206004820152601660248201527548494c4f3a20616c726561647920696e20717565756560501b604482015260640161043c565b600e805460018101825560008290527fbb7b4a454dc3493923482f07822329ed19e8244eff582cc204f8554c3620c3fd0180546001600160a01b03191633179055600f549054610ba99190612d79565b91505090565b610bba3383836113d1565b5050565b60128181548110610bce57600080fd5b6000918252602090912001546001600160a01b0316905081565b600454600160a01b900460ff1615610c125760405162461bcd60e51b815260040161043c90612c10565b801580610c1f5750600181145b610c5c5760405162461bcd60e51b815260206004820152600e60248201526d24b73b30b634b2103a37b5b2b71760911b604482015260640161043c565b610c673360006103d4565b158015610c7c5750610c7a3360016103d4565b155b610cd65760405162461bcd60e51b815260206004820152602560248201527f48494c4f3a2063616e6e6f742068617665206d6f7265207468616e206f6e65206044820152643a37b5b2b760d91b606482015260840161043c565b6000610ce182611029565b905060008111610d0157634e487b7160e01b600052600160045260246000fd5b600060075482148015610d145750600183145b80610d29575060065482148015610d29575082155b600b546000858152600d602052604090205460095460085493945091149114801590610d5957508180610d595750805b15610da157610d67846114b2565b60408051338152602081018690527f0d86730737b142fc160892fa8a0f2db687a92a0e294d1ad70624cf5acef03b84910160405180910390a15b610db383670de0b6b3a7640000612d5a565b6014546040516370a0823160e01b81523360048201529194506000916001600160a01b03909116906370a082319060240160206040518083038186803b158015610dfc57600080fd5b505afa158015610e10573d6000803e3d6000fd5b505050506040513d601f19601f82011682018060405250810190610e349190612991565b905083811015610e865760405162461bcd60e51b815260206004820152601a60248201527f496e73756666696369656e7420555344432062616c616e63652e000000000000604482015260640161043c565b6014546040516323b872dd60e01b8152336004820152306024820152604481018690526001600160a01b03909116906323b872dd90606401602060405180830381600087803b158015610ed857600080fd5b505af1158015610eec573d6000803e3d6000fd5b505050506040513d601f19601f82011682018060405250810190610f109190612925565b50610f2d33866001604051806020016040528060008152506114ea565b81610f3b57610f3b8561160d565b600a546000868152600c602052604090205414156105e1576105e1611693565b60606012805480602002602001604051908101604052809291908181526020018280548015610fb357602002820191906000526020600020905b81546001600160a01b03168152600190910190602001808311610f95575b5050505050905090565b600260055414156110105760405162461bcd60e51b815260206004820152601f60248201527f5265656e7472616e637947756172643a207265656e7472616e742063616c6c00604482015260640161043c565b6002600555336110208183611759565b50506001600555565b60008161103857505060085490565b600182141561104957505060095490565b506000919050565b919050565b6001600160a01b03851633148061107257506110728533610378565b6110d05760405162461bcd60e51b815260206004820152602960248201527f455243313135353a2063616c6c6572206973206e6f74206f776e6572206e6f7260448201526808185c1c1c9bdd995960ba1b606482015260840161043c565b6105e18585858585611a82565b6004546001600160a01b031633146111075760405162461bcd60e51b815260040161043c90612cc9565b6001600160a01b03811661116c5760405162461bcd60e51b815260206004820152602660248201527f4f776e61626c653a206e6577206f776e657220697320746865207a65726f206160448201526564647265737360d01b606482015260840161043c565b6111758161137f565b50565b81518351146111da5760405162461bcd60e51b815260206004820152602860248201527f455243313135353a2069647320616e6420616d6f756e7473206c656e677468206044820152670dad2e6dac2e8c6d60c31b606482015260840161043c565b6001600160a01b0384166112005760405162461bcd60e51b815260040161043c90612c3a565b3361120f818787878787611bba565b60005b845181101561131157600085828151811061123d57634e487b7160e01b600052603260045260246000fd5b60200260200101519050600085838151811061126957634e487b7160e01b600052603260045260246000fd5b602090810291909101810151600084815280835260408082206001600160a01b038e1683529093529190912054909150818110156112b95760405162461bcd60e51b815260040161043c90612c7f565b6000838152602081815260408083206001600160a01b038e8116855292528083208585039055908b168252812080548492906112f6908490612d22565b925050819055505050508061130a90612df8565b9050611212565b50846001600160a01b0316866001600160a01b0316826001600160a01b03167f4a39dc06d4c0dbc64b70af90fd698a233a518aa5d07e595d983b8c0526c8f7fb8787604051611361929190612b87565b60405180910390a4611377818787878787611c81565b505050505050565b600480546001600160a01b038381166001600160a01b0319831681179093556040519116919082907f8be0079c531659141344cd1fd0a4f28419497f9722a3daafe3b4186f6b6457e090600090a35050565b816001600160a01b0316836001600160a01b031614156114455760405162461bcd60e51b815260206004820152602960248201527f455243313135353a2073657474696e6720617070726f76616c20737461747573604482015268103337b91039b2b63360b91b606482015260840161043c565b6001600160a01b03838116600081815260016020908152604080832094871680845294825291829020805460ff191686151590811790915591519182527f17307eab39ab6107e8899845ad3d59bd9653f200f220920489ca2b5937696c31910160405180910390a3505050565b806114c4576114bf611dec565b6114cc565b6114cc611e3b565b6000908152600c60209081526040808320839055600d909152812055565b6001600160a01b03841661154a5760405162461bcd60e51b815260206004820152602160248201527f455243313135353a206d696e7420746f20746865207a65726f206164647265736044820152607360f81b606482015260840161043c565b33600061155685611ea0565b9050600061156385611ea0565b905061157483600089858589611bba565b6000868152602081815260408083206001600160a01b038b168452909152812080548792906115a4908490612d22565b909155505060408051878152602081018790526001600160a01b03808a1692600092918716917fc3d58168c5ae7397731d063d5bbf3d657854427343f4c083240f7aacaa2d0f62910160405180910390a461160483600089898989611ef9565b50505050505050565b600a546000828152600c6020526040902054101561164f576000818152600c602052604090205461163f906001612d22565b6000828152600c60205260409020555b600b546000828152600d60205260409020541015611175576000818152600d6020526040902054611681906001612d22565b6000828152600d602052604090205550565b600454600160a01b900460ff16156116bd5760405162461bcd60e51b815260040161043c90612c10565b600e546116c657565b600f8054600091600e9190836116db83612df8565b91905055815481106116fd57634e487b7160e01b600052603260045260246000fd5b60009182526020822001546001600160a01b03169150808061171f84826103d4565b915081611734576117318460016103d4565b90505b8061173f5750505050565b811561174e5760009250611753565b600192505b610a6584845b600454600160a01b900460ff16156117835760405162461bcd60e51b815260040161043c90612c10565b8015806117905750600181145b6117cd5760405162461bcd60e51b815260206004820152600e60248201526d24b73b30b634b2103a37b5b2b71760911b604482015260640161043c565b801580156117e5575060006117e38360006103d4565b115b806118055750600181148015611805575060006118038360016103d4565b115b6118635760405162461bcd60e51b815260206004820152602960248201527f48494c4f3a2063616e6e6f742073656c6c207768656e20796f752068617665206044820152686e6f20746f6b656e7360b81b606482015260840161043c565b600a546000828152600c602052604090205414806118d55760405162461bcd60e51b815260206004820152602960248201527f48494c4f3a2063616e6e6f742073656c6c207768656e207468652073616c65206044820152681a5cc81b1bd8dad95960ba1b606482015260840161043c565b6118df8383611fc3565b6009546008541415611901576118fc6118f783611029565b612088565b505050565b600061190c83611029565b905061192081670de0b6b3a7640000612d5a565b60145460405163a9059cbb60e01b81526001600160a01b0387811660048301526024820184905292935091169063a9059cbb90604401602060405180830381600087803b15801561197057600080fd5b505af1158015611984573d6000803e3d6000fd5b505050506040513d601f19601f820116820180604052508101906119a89190612925565b506119b5848460016121e7565b6119be836114b2565b604080516001600160a01b0386168152602081018590527f0d86730737b142fc160892fa8a0f2db687a92a0e294d1ad70624cf5acef03b84910160405180910390a182158015611a165750611a148460016103d4565b155b15610a6557611a3784600180604051806020016040528060008152506114ea565b6001600a54611a469190612d79565b6001600052600c6020527fd421a5181c571bba3f01190c922c3b2a896fc1d84e86c9f17ac10e67ebef8b5c541015610a6557610a65600161160d565b6001600160a01b038416611aa85760405162461bcd60e51b815260040161043c90612c3a565b336000611ab485611ea0565b90506000611ac185611ea0565b9050611ad1838989858589611bba565b6000868152602081815260408083206001600160a01b038c16845290915290205485811015611b125760405162461bcd60e51b815260040161043c90612c7f565b6000878152602081815260408083206001600160a01b038d8116855292528083208985039055908a16825281208054889290611b4f908490612d22565b909155505060408051888152602081018890526001600160a01b03808b16928c821692918816917fc3d58168c5ae7397731d063d5bbf3d657854427343f4c083240f7aacaa2d0f62910160405180910390a4611baf848a8a8a8a8a611ef9565b505050505050505050565b600454600160a01b900460ff1615611be45760405162461bcd60e51b815260040161043c90612c10565b6001600160a01b0385161580611c0157506001600160a01b038416155b80611c1457506001600160a01b03851630145b80611c2757506001600160a01b03841630145b611c735760405162461bcd60e51b815260206004820152601760248201527f48494c4f3a206e6f6e207472616e736665727261626c65000000000000000000604482015260640161043c565b611377868686868686612377565b6001600160a01b0384163b156113775760405163bc197c8160e01b81526001600160a01b0385169063bc197c8190611cc59089908990889088908890600401612a2e565b602060405180830381600087803b158015611cdf57600080fd5b505af1925050508015611d0f575060408051601f3d908101601f19168201909252611d0c9181019061295d565b60015b611dbc57611d1b612e3f565b806308c379a01415611d555750611d30612e57565b80611d3b5750611d57565b8060405162461bcd60e51b815260040161043c9190612bb5565b505b60405162461bcd60e51b815260206004820152603460248201527f455243313135353a207472616e7366657220746f206e6f6e20455243313135356044820152732932b1b2b4bb32b91034b6b83632b6b2b73a32b960611b606482015260840161043c565b6001600160e01b0319811663bc197c8160e01b146116045760405162461bcd60e51b815260040161043c90612bc8565b6001600854611dfb9190612d79565b6008557f5a258dc6fce0816c9caf9835f08fa5596416dd55037714d2e51688cea5f062c5600854604051611e3191815260200190565b60405180910390a1565b600954611e49906001612d22565b60098190556008541015611e6d57634e487b7160e01b600052600160045260246000fd5b7f3f9b5fbd1bfff0a78edef53fb452db3ea00eb6ea96cb06defcc66dd171bbca21600954604051611e3191815260200190565b60408051600180825281830190925260609160009190602080830190803683370190505090508281600081518110611ee857634e487b7160e01b600052603260045260246000fd5b602090810291909101015292915050565b6001600160a01b0384163b156113775760405163f23a6e6160e01b81526001600160a01b0385169063f23a6e6190611f3d9089908990889088908890600401612a8c565b602060405180830381600087803b158015611f5757600080fd5b505af1925050508015611f87575060408051601f3d908101601f19168201909252611f849181019061295d565b60015b611f9357611d1b612e3f565b6001600160e01b0319811663f23a6e6160e01b146116045760405162461bcd60e51b815260040161043c90612bc8565b6000611fce82611029565b60408051606080820183526001600160a01b03878116808452602080850189815285870188815260008981526010845288812080546001808201835591835291859020895160039093020180546001600160a01b03191692909716919091178655915191850191909155516002909301929092558451908152908101879052928301849052929350917fc19f70d47acbbf1d2faf3a7944182cf6b5345c67d2156ed328ea510e72f13066910160405180910390a150505050565b6000601060006008548152602001908152602001600020805480602002602001604051908101604052809291908181526020016000905b82821015612114576000848152602090819020604080516060810182526003860290920180546001600160a01b03168352600180820154848601526002909101549183019190915290835290920191016120bf565b50505050905060005b815181101561219657601282828151811061214857634e487b7160e01b600052603260045260246000fd5b6020908102919091018101515182546001810184556000938452919092200180546001600160a01b0319166001600160a01b039092169190911790558061218e81612df8565b91505061211d565b506011805460ff191660011790556040517f10dee8c2942b449b177825c6d5eb7131392949ec2008676761b93b00acea615a906121d7906012908590612b1e565b60405180910390a1610bba612528565b6001600160a01b0383166122495760405162461bcd60e51b815260206004820152602360248201527f455243313135353a206275726e2066726f6d20746865207a65726f206164647260448201526265737360e81b606482015260840161043c565b33600061225584611ea0565b9050600061226284611ea0565b905061228283876000858560405180602001604052806000815250611bba565b6000858152602081815260408083206001600160a01b038a168452909152902054848110156122ff5760405162461bcd60e51b8152602060048201526024808201527f455243313135353a206275726e20616d6f756e7420657863656564732062616c604482015263616e636560e01b606482015260840161043c565b6000868152602081815260408083206001600160a01b038b81168086529184528285208a8703905582518b81529384018a90529092908816917fc3d58168c5ae7397731d063d5bbf3d657854427343f4c083240f7aacaa2d0f62910160405180910390a4604080516020810190915260009052611604565b6001600160a01b03851661241a5760005b8351811015612418578281815181106123b157634e487b7160e01b600052603260045260246000fd5b6020026020010151600360008684815181106123dd57634e487b7160e01b600052603260045260246000fd5b6020026020010151815260200190815260200160002060008282546124029190612d22565b90915550612411905081612df8565b9050612388565b505b6001600160a01b0384166113775760005b835181101561160457600084828151811061245657634e487b7160e01b600052603260045260246000fd5b60200260200101519050600084838151811061248257634e487b7160e01b600052603260045260246000fd5b60200260200101519050600060036000848152602001908152602001600020549050818110156125055760405162461bcd60e51b815260206004820152602860248201527f455243313135353a206275726e20616d6f756e74206578636565647320746f74604482015267616c537570706c7960c01b606482015260840161043c565b6000928352600360205260409092209103905561252181612df8565b905061242b565b600454600160a01b900460ff16156125525760405162461bcd60e51b815260040161043c90612c10565b6004805460ff60a01b1916600160a01b1790557f62e78cea01bee320cd4e420270b5ea74000d11b0c9f74754ebdbfc544b05a25861258d3390565b6040516001600160a01b039091168152602001611e31565b80356001600160a01b038116811461105157600080fd5b600082601f8301126125cc578081fd5b813560206125d982612cfe565b6040516125e68282612dcb565b8381528281019150858301600585901b87018401881015612605578586fd5b855b8581101561262357813584529284019290840190600101612607565b5090979650505050505050565b600082601f830112612640578081fd5b813567ffffffffffffffff81111561265a5761265a612e29565b604051612671601f8301601f191660200182612dcb565b818152846020838601011115612685578283fd5b816020850160208301379081016020019190915292915050565b6000602082840312156126b0578081fd5b6126b9826125a5565b9392505050565b600080604083850312156126d2578081fd5b6126db836125a5565b91506126e9602084016125a5565b90509250929050565b600080600080600060a08688031215612709578081fd5b612712866125a5565b9450612720602087016125a5565b9350604086013567ffffffffffffffff8082111561273c578283fd5b61274889838a016125bc565b9450606088013591508082111561275d578283fd5b61276989838a016125bc565b9350608088013591508082111561277e578283fd5b5061278b88828901612630565b9150509295509295909350565b600080600080600060a086880312156127af578081fd5b6127b8866125a5565b94506127c6602087016125a5565b93506040860135925060608601359150608086013567ffffffffffffffff8111156127ef578182fd5b61278b88828901612630565b6000806040838503121561280d578182fd5b612816836125a5565b9150602083013561282681612ee1565b809150509250929050565b60008060408385031215612843578182fd5b61284c836125a5565b946020939093013593505050565b6000806040838503121561286c578182fd5b823567ffffffffffffffff80821115612883578384fd5b818501915085601f830112612896578384fd5b813560206128a382612cfe565b6040516128b08282612dcb565b8381528281019150858301600585901b870184018b10156128cf578889fd5b8896505b848710156128f8576128e4816125a5565b8352600196909601959183019183016128d3565b509650508601359250508082111561290e578283fd5b5061291b858286016125bc565b9150509250929050565b600060208284031215612936578081fd5b81516126b981612ee1565b600060208284031215612952578081fd5b81356126b981612eef565b60006020828403121561296e578081fd5b81516126b981612eef565b60006020828403121561298a578081fd5b5035919050565b6000602082840312156129a2578081fd5b5051919050565b6000815180845260208085019450808401835b838110156129d8578151875295820195908201906001016129bc565b509495945050505050565b60008151808452815b81811015612a08576020818501810151868301820152016129ec565b81811115612a195782602083870101525b50601f01601f19169290920160200192915050565b6001600160a01b0386811682528516602082015260a060408201819052600090612a5a908301866129a9565b8281036060840152612a6c81866129a9565b90508281036080840152612a8081856129e3565b98975050505050505050565b6001600160a01b03868116825285166020820152604081018490526060810183905260a060808201819052600090612ac6908301846129e3565b979650505050505050565b6020808252825182820181905260009190848201906040850190845b81811015612b125783516001600160a01b031683529284019291840191600101612aed565b50909695505050505050565b6000604082016040835280855480835260608501915086845260209250828420845b82811015612b655781546001600160a01b031684529284019260019182019101612b40565b50505092019290925292915050565b6020815260006126b960208301846129a9565b604081526000612b9a60408301856129a9565b8281036020840152612bac81856129a9565b95945050505050565b6020815260006126b960208301846129e3565b60208082526028908201527f455243313135353a204552433131353552656365697665722072656a656374656040820152676420746f6b656e7360c01b606082015260800190565b60208082526010908201526f14185d5cd8589b194e881c185d5cd95960821b604082015260600190565b60208082526025908201527f455243313135353a207472616e7366657220746f20746865207a65726f206164604082015264647265737360d81b606082015260800190565b6020808252602a908201527f455243313135353a20696e73756666696369656e742062616c616e636520666f60408201526939103a3930b739b332b960b11b606082015260800190565b6020808252818101527f4f776e61626c653a2063616c6c6572206973206e6f7420746865206f776e6572604082015260600190565b600067ffffffffffffffff821115612d1857612d18612e29565b5060051b60200190565b60008219821115612d3557612d35612e13565b500190565b600082612d5557634e487b7160e01b81526012600452602481fd5b500490565b6000816000190483118215151615612d7457612d74612e13565b500290565b600082821015612d8b57612d8b612e13565b500390565b600181811c90821680612da457607f821691505b60208210811415612dc557634e487b7160e01b600052602260045260246000fd5b50919050565b601f8201601f1916810167ffffffffffffffff81118282101715612df157612df1612e29565b6040525050565b6000600019821415612e0c57612e0c612e13565b5060010190565b634e487b7160e01b600052601160045260246000fd5b634e487b7160e01b600052604160045260246000fd5b600060033d1115612e5457600481823e5160e01c5b90565b600060443d1015612e655790565b6040516003193d81016004833e81513d67ffffffffffffffff8160248401118184111715612e9557505050505090565b8285019150815181811115612ead5750505050505090565b843d8701016020828501011115612ec75750505050505090565b612ed660208286010187612dcb565b509095945050505050565b801515811461117557600080fd5b6001600160e01b03198116811461117557600080fdfea264697066735822122097edb6d5bb54ec09a45e90588fae392e869a80f09e34134f2903f40f709c29c064736f6c6343000804003368747470733a2f2f68696c6f2d65696768742e76657263656c2e6170702f6170692f746f6b656e732f7b69647d",
  "linkReferences": {},
  "deployedLinkReferences": {}
}