{
  "_format": "hh-sol-artifact-1",
  "contractName": "HILO",
  "sourceName": "contracts/HILO.sol",
  "abi": [
    {
      "inputs": [
        {
          "internalType": "uint256",
          "name": "_initialHi",
          "type": "uint256"
        },
        {
          "internalType": "uint256",
          "name": "_initialLo",
          "type": "uint256"
        },
        {
          "internalType": "uint256",
          "name": "_buyRequiredCount",
          "type": "uint256"
        }
      ],
      "stateMutability": "nonpayable",
      "type": "constructor"
    },
    {
      "anonymous": false,
      "inputs": [
        {
          "indexed": true,
          "internalType": "address",
          "name": "account",
          "type": "address"
        },
        {
          "indexed": true,
          "internalType": "address",
          "name": "operator",
          "type": "address"
        },
        {
          "indexed": false,
          "internalType": "bool",
          "name": "approved",
          "type": "bool"
        }
      ],
      "name": "ApprovalForAll",
      "type": "event"
    },
    {
      "anonymous": false,
      "inputs": [
        {
          "indexed": true,
          "internalType": "address",
          "name": "previousOwner",
          "type": "address"
        },
        {
          "indexed": true,
          "internalType": "address",
          "name": "newOwner",
          "type": "address"
        }
      ],
      "name": "OwnershipTransferred",
      "type": "event"
    },
    {
      "anonymous": false,
      "inputs": [
        {
          "indexed": false,
          "internalType": "address",
          "name": "account",
          "type": "address"
        }
      ],
      "name": "Paused",
      "type": "event"
    },
    {
      "anonymous": false,
      "inputs": [
        {
          "indexed": true,
          "internalType": "address",
          "name": "operator",
          "type": "address"
        },
        {
          "indexed": true,
          "internalType": "address",
          "name": "from",
          "type": "address"
        },
        {
          "indexed": true,
          "internalType": "address",
          "name": "to",
          "type": "address"
        },
        {
          "indexed": false,
          "internalType": "uint256[]",
          "name": "ids",
          "type": "uint256[]"
        },
        {
          "indexed": false,
          "internalType": "uint256[]",
          "name": "values",
          "type": "uint256[]"
        }
      ],
      "name": "TransferBatch",
      "type": "event"
    },
    {
      "anonymous": false,
      "inputs": [
        {
          "indexed": true,
          "internalType": "address",
          "name": "operator",
          "type": "address"
        },
        {
          "indexed": true,
          "internalType": "address",
          "name": "from",
          "type": "address"
        },
        {
          "indexed": true,
          "internalType": "address",
          "name": "to",
          "type": "address"
        },
        {
          "indexed": false,
          "internalType": "uint256",
          "name": "id",
          "type": "uint256"
        },
        {
          "indexed": false,
          "internalType": "uint256",
          "name": "value",
          "type": "uint256"
        }
      ],
      "name": "TransferSingle",
      "type": "event"
    },
    {
      "anonymous": false,
      "inputs": [
        {
          "indexed": false,
          "internalType": "string",
          "name": "value",
          "type": "string"
        },
        {
          "indexed": true,
          "internalType": "uint256",
          "name": "id",
          "type": "uint256"
        }
      ],
      "name": "URI",
      "type": "event"
    },
    {
      "anonymous": false,
      "inputs": [
        {
          "indexed": false,
          "internalType": "address",
          "name": "account",
          "type": "address"
        }
      ],
      "name": "Unpaused",
      "type": "event"
    },
    {
      "anonymous": false,
      "inputs": [
        {
          "indexed": false,
          "internalType": "address",
          "name": "player",
          "type": "address"
        },
        {
          "indexed": false,
          "internalType": "uint256",
          "name": "tokenId",
          "type": "uint256"
        },
        {
          "indexed": false,
          "internalType": "uint256",
          "name": "price",
          "type": "uint256"
        }
      ],
      "name": "actionAdded",
      "type": "event"
    },
    {
      "anonymous": false,
      "inputs": [
        {
          "indexed": false,
          "internalType": "address",
          "name": "player",
          "type": "address"
        },
        {
          "indexed": false,
          "internalType": "uint256",
          "name": "tokenId",
          "type": "uint256"
        },
        {
          "indexed": false,
          "internalType": "uint256",
          "name": "price",
          "type": "uint256"
        }
      ],
      "name": "buyPriceCheck",
      "type": "event"
    },
    {
      "anonymous": false,
      "inputs": [
        {
          "indexed": false,
          "internalType": "address",
          "name": "player",
          "type": "address"
        },
        {
          "indexed": false,
          "internalType": "uint256",
          "name": "tokenId",
          "type": "uint256"
        }
      ],
      "name": "buyPriceUpdate",
      "type": "event"
    },
    {
      "anonymous": false,
      "inputs": [
        {
          "indexed": false,
          "internalType": "uint256",
          "name": "newHiPrice",
          "type": "uint256"
        }
      ],
      "name": "hiDecreased",
      "type": "event"
    },
    {
      "anonymous": false,
      "inputs": [
        {
          "indexed": false,
          "internalType": "uint256",
          "name": "newLoPrice",
          "type": "uint256"
        }
      ],
      "name": "loIncreased",
      "type": "event"
    },
    {
      "anonymous": false,
      "inputs": [
        {
          "indexed": false,
          "internalType": "address",
          "name": "player",
          "type": "address"
        }
      ],
      "name": "loSent",
      "type": "event"
    },
    {
      "anonymous": false,
      "inputs": [
        {
          "indexed": false,
          "internalType": "address",
          "name": "player",
          "type": "address"
        },
        {
          "indexed": false,
          "internalType": "uint256",
          "name": "balance",
          "type": "uint256"
        }
      ],
      "name": "playerBalanceCheck",
      "type": "event"
    },
    {
      "anonymous": false,
      "inputs": [
        {
          "indexed": false,
          "internalType": "address",
          "name": "player",
          "type": "address"
        },
        {
          "indexed": false,
          "internalType": "uint256",
          "name": "amount",
          "type": "uint256"
        }
      ],
      "name": "playerPayment",
      "type": "event"
    },
    {
      "anonymous": false,
      "inputs": [
        {
          "indexed": false,
          "internalType": "address[]",
          "name": "winners",
          "type": "address[]"
        },
        {
          "indexed": false,
          "internalType": "uint256",
          "name": "price",
          "type": "uint256"
        }
      ],
      "name": "pricesConverged",
      "type": "event"
    },
    {
      "anonymous": false,
      "inputs": [
        {
          "indexed": false,
          "internalType": "address",
          "name": "player",
          "type": "address"
        },
        {
          "indexed": false,
          "internalType": "uint256",
          "name": "amount",
          "type": "uint256"
        }
      ],
      "name": "salePayment",
      "type": "event"
    },
    {
      "anonymous": false,
      "inputs": [
        {
          "indexed": false,
          "internalType": "uint256",
          "name": "tokenId",
          "type": "uint256"
        }
      ],
      "name": "saleUnlocked",
      "type": "event"
    },
    {
      "anonymous": false,
      "inputs": [
        {
          "indexed": false,
          "internalType": "uint256",
          "name": "tokenId",
          "type": "uint256"
        },
        {
          "indexed": false,
          "internalType": "bool",
          "name": "shouldUnlock",
          "type": "bool"
        }
      ],
      "name": "shouldUnlockCheck",
      "type": "event"
    },
    {
      "anonymous": false,
      "inputs": [
        {
          "indexed": false,
          "internalType": "address",
          "name": "player",
          "type": "address"
        },
        {
          "indexed": false,
          "internalType": "uint256",
          "name": "tokenId",
          "type": "uint256"
        }
      ],
      "name": "tokenBurned",
      "type": "event"
    },
    {
      "anonymous": false,
      "inputs": [
        {
          "indexed": false,
          "internalType": "address",
          "name": "player",
          "type": "address"
        },
        {
          "indexed": false,
          "internalType": "uint256",
          "name": "tokenId",
          "type": "uint256"
        }
      ],
      "name": "tokenMinted",
      "type": "event"
    },
    {
      "inputs": [],
      "name": "HI",
      "outputs": [
        {
          "internalType": "uint256",
          "name": "",
          "type": "uint256"
        }
      ],
      "stateMutability": "view",
      "type": "function"
    },
    {
      "inputs": [],
      "name": "LO",
      "outputs": [
        {
          "internalType": "uint256",
          "name": "",
          "type": "uint256"
        }
      ],
      "stateMutability": "view",
      "type": "function"
    },
    {
      "inputs": [
        {
          "internalType": "address",
          "name": "account",
          "type": "address"
        },
        {
          "internalType": "uint256",
          "name": "id",
          "type": "uint256"
        }
      ],
      "name": "balanceOf",
      "outputs": [
        {
          "internalType": "uint256",
          "name": "",
          "type": "uint256"
        }
      ],
      "stateMutability": "view",
      "type": "function"
    },
    {
      "inputs": [
        {
          "internalType": "address[]",
          "name": "accounts",
          "type": "address[]"
        },
        {
          "internalType": "uint256[]",
          "name": "ids",
          "type": "uint256[]"
        }
      ],
      "name": "balanceOfBatch",
      "outputs": [
        {
          "internalType": "uint256[]",
          "name": "",
          "type": "uint256[]"
        }
      ],
      "stateMutability": "view",
      "type": "function"
    },
    {
      "inputs": [
        {
          "internalType": "uint256",
          "name": "tokenId",
          "type": "uint256"
        }
      ],
      "name": "buy",
      "outputs": [],
      "stateMutability": "nonpayable",
      "type": "function"
    },
    {
      "inputs": [],
      "name": "gameWon",
      "outputs": [
        {
          "internalType": "bool",
          "name": "",
          "type": "bool"
        }
      ],
      "stateMutability": "view",
      "type": "function"
    },
    {
      "inputs": [
        {
          "internalType": "uint256",
          "name": "tokenId",
          "type": "uint256"
        }
      ],
      "name": "getPrice",
      "outputs": [
        {
          "internalType": "uint256",
          "name": "",
          "type": "uint256"
        }
      ],
      "stateMutability": "view",
      "type": "function"
    },
    {
      "inputs": [],
      "name": "getWinners",
      "outputs": [
        {
          "internalType": "address[]",
          "name": "",
          "type": "address[]"
        }
      ],
      "stateMutability": "view",
      "type": "function"
    },
    {
      "inputs": [
        {
          "internalType": "address",
          "name": "account",
          "type": "address"
        },
        {
          "internalType": "address",
          "name": "operator",
          "type": "address"
        }
      ],
      "name": "isApprovedForAll",
      "outputs": [
        {
          "internalType": "bool",
          "name": "",
          "type": "bool"
        }
      ],
      "stateMutability": "view",
      "type": "function"
    },
    {
      "inputs": [],
      "name": "owner",
      "outputs": [
        {
          "internalType": "address",
          "name": "",
          "type": "address"
        }
      ],
      "stateMutability": "view",
      "type": "function"
    },
    {
      "inputs": [],
      "name": "paused",
      "outputs": [
        {
          "internalType": "bool",
          "name": "",
          "type": "bool"
        }
      ],
      "stateMutability": "view",
      "type": "function"
    },
    {
      "inputs": [],
      "name": "renounceOwnership",
      "outputs": [],
      "stateMutability": "nonpayable",
      "type": "function"
    },
    {
      "inputs": [
        {
          "internalType": "address",
          "name": "from",
          "type": "address"
        },
        {
          "internalType": "address",
          "name": "to",
          "type": "address"
        },
        {
          "internalType": "uint256[]",
          "name": "ids",
          "type": "uint256[]"
        },
        {
          "internalType": "uint256[]",
          "name": "amounts",
          "type": "uint256[]"
        },
        {
          "internalType": "bytes",
          "name": "data",
          "type": "bytes"
        }
      ],
      "name": "safeBatchTransferFrom",
      "outputs": [],
      "stateMutability": "nonpayable",
      "type": "function"
    },
    {
      "inputs": [
        {
          "internalType": "address",
          "name": "from",
          "type": "address"
        },
        {
          "internalType": "address",
          "name": "to",
          "type": "address"
        },
        {
          "internalType": "uint256",
          "name": "id",
          "type": "uint256"
        },
        {
          "internalType": "uint256",
          "name": "amount",
          "type": "uint256"
        },
        {
          "internalType": "bytes",
          "name": "data",
          "type": "bytes"
        }
      ],
      "name": "safeTransferFrom",
      "outputs": [],
      "stateMutability": "nonpayable",
      "type": "function"
    },
    {
      "inputs": [
        {
          "internalType": "uint256",
          "name": "tokenId",
          "type": "uint256"
        }
      ],
      "name": "sell",
      "outputs": [],
      "stateMutability": "nonpayable",
      "type": "function"
    },
    {
      "inputs": [
        {
          "internalType": "address",
          "name": "operator",
          "type": "address"
        },
        {
          "internalType": "bool",
          "name": "approved",
          "type": "bool"
        }
      ],
      "name": "setApprovalForAll",
      "outputs": [],
      "stateMutability": "nonpayable",
      "type": "function"
    },
    {
      "inputs": [
        {
          "internalType": "bytes4",
          "name": "interfaceId",
          "type": "bytes4"
        }
      ],
      "name": "supportsInterface",
      "outputs": [
        {
          "internalType": "bool",
          "name": "",
          "type": "bool"
        }
      ],
      "stateMutability": "view",
      "type": "function"
    },
    {
      "inputs": [
        {
          "internalType": "address",
          "name": "newOwner",
          "type": "address"
        }
      ],
      "name": "transferOwnership",
      "outputs": [],
      "stateMutability": "nonpayable",
      "type": "function"
    },
    {
      "inputs": [
        {
          "internalType": "uint256",
          "name": "",
          "type": "uint256"
        }
      ],
      "name": "uri",
      "outputs": [
        {
          "internalType": "string",
          "name": "",
          "type": "string"
        }
      ],
      "stateMutability": "view",
      "type": "function"
    },
    {
      "inputs": [],
      "name": "usdc",
      "outputs": [
        {
          "internalType": "contract IERC20",
          "name": "",
          "type": "address"
        }
      ],
      "stateMutability": "view",
      "type": "function"
    },
    {
      "inputs": [
        {
          "internalType": "uint256",
          "name": "",
          "type": "uint256"
        }
      ],
      "name": "winners",
      "outputs": [
        {
          "internalType": "address",
          "name": "",
          "type": "address"
        }
      ],
      "stateMutability": "view",
      "type": "function"
    }
  ],
  "bytecode": "0x60806040526008805461010161ffff19909116179055600e805460ff19169055601080546001600160a01b03191673e11a86849d99f524cac3e7a0ec1241828e332c621790553480156200005257600080fd5b5060405162002cb838038062002cb8833981016040819052620000759162000293565b6040518060600160405280602d815260200162002c8b602d91396200009a8162000182565b50620000a6336200019b565b6003805460ff60a01b19169055600683905560048390556007829055600582905582620000e357634e487b7160e01b600052600160045260246000fd5b6000600754116200010457634e487b7160e01b600052600160045260246000fd5b600754600654116200012657634e487b7160e01b600052600160045260246000fd5b6009555050600a60205260007f13da86008ba1c6922daee3e07db95305ef49ebced9f5467a0b8613fcc6b343e3819055600181527fbbc70db1b6c7afd11e79c0fb0051300458f1a3acb8ee9789d9b6b26c61ad9bc755620002fe565b805162000197906002906020840190620001ed565b5050565b600380546001600160a01b038381166001600160a01b0319831681179093556040519116919082907f8be0079c531659141344cd1fd0a4f28419497f9722a3daafe3b4186f6b6457e090600090a35050565b828054620001fb90620002c1565b90600052602060002090601f0160209004810192826200021f57600085556200026a565b82601f106200023a57805160ff19168380011785556200026a565b828001600101855582156200026a579182015b828111156200026a5782518255916020019190600101906200024d565b50620002789291506200027c565b5090565b5b808211156200027857600081556001016200027d565b600080600060608486031215620002a8578283fd5b8351925060208401519150604084015190509250925092565b600181811c90821680620002d657607f821691505b60208210811415620002f857634e487b7160e01b600052602260045260246000fd5b50919050565b61297d806200030e6000396000f3fe608060405234801561001057600080fd5b50600436106101365760003560e01c80638da5cb5b116100b8578063e4849b321161007c578063e4849b3214610292578063e7572230146102a5578063e985e9c5146102b8578063f242432a146102f4578063f2e8dfdb14610307578063f2fde38b1461030f57600080fd5b80638da5cb5b14610233578063a22cb46514610244578063a2fb117514610257578063d96a094a1461026a578063df15c37e1461027d57600080fd5b80633e413bee116100ff5780633e413bee146101c65780634e1273f4146101f15780635c975abb1461021157806368d2be8f14610223578063715018a61461022b57600080fd5b8062fdd58e1461013b57806301ffc9a714610161578063069a825c146101845780630e89341c146101915780632eb2c2d6146101b1575b600080fd5b61014e6101493660046122d2565b610322565b6040519081526020015b60405180910390f35b61017461016f3660046123e2565b6103b9565b6040519015158152602001610158565b600e546101749060ff1681565b6101a461019f36600461241a565b61040b565b6040516101589190612656565b6101c46101bf366004612193565b61049f565b005b6010546101d9906001600160a01b031681565b6040516001600160a01b039091168152602001610158565b6102046101ff3660046122fb565b610536565b6040516101589190612615565b600354600160a01b900460ff16610174565b61014e600181565b6101c4610698565b6003546001600160a01b03166101d9565b6101c461025236600461229c565b6106fe565b6101d961026536600461241a565b61070d565b6101c461027836600461241a565b610737565b610285610c60565b6040516101589190612572565b6101c46102a036600461241a565b610cc2565b61014e6102b336600461241a565b610ccd565b6101746102c6366004612161565b6001600160a01b03918216600090815260016020908152604080832093909416825291909152205460ff1690565b6101c4610302366004612239565b610cfa565b61014e600081565b6101c461031d366004612140565b610d81565b60006001600160a01b0383166103935760405162461bcd60e51b815260206004820152602b60248201527f455243313135353a2062616c616e636520717565727920666f7220746865207a60448201526a65726f206164647265737360a81b60648201526084015b60405180910390fd5b506000908152602081815260408083206001600160a01b03949094168352929052205490565b60006001600160e01b03198216636cdb3d1360e11b14806103ea57506001600160e01b031982166303a24d0760e21b145b8061040557506301ffc9a760e01b6001600160e01b03198316145b92915050565b60606002805461041a906127b2565b80601f0160208091040260200160405190810160405280929190818152602001828054610446906127b2565b80156104935780601f1061046857610100808354040283529160200191610493565b820191906000526020600020905b81548152906001019060200180831161047657829003601f168201915b50505050509050919050565b6001600160a01b0385163314806104bb57506104bb85336102c6565b6105225760405162461bcd60e51b815260206004820152603260248201527f455243313135353a207472616e736665722063616c6c6572206973206e6f74206044820152711bdddb995c881b9bdc88185c1c1c9bdd995960721b606482015260840161038a565b61052f8585858585610e4c565b5050505050565b6060815183511461059b5760405162461bcd60e51b815260206004820152602960248201527f455243313135353a206163636f756e747320616e6420696473206c656e677468604482015268040dad2e6dac2e8c6d60bb1b606482015260840161038a565b6000835167ffffffffffffffff8111156105c557634e487b7160e01b600052604160045260246000fd5b6040519080825280602002602001820160405280156105ee578160200160208202803683370190505b50905060005b84518110156106905761065585828151811061062057634e487b7160e01b600052603260045260246000fd5b602002602001015185838151811061064857634e487b7160e01b600052603260045260246000fd5b6020026020010151610322565b82828151811061067557634e487b7160e01b600052603260045260246000fd5b60209081029190910101526106898161281a565b90506105f4565b509392505050565b6003546001600160a01b031633146106f25760405162461bcd60e51b815260206004820181905260248201527f4f776e61626c653a2063616c6c6572206973206e6f7420746865206f776e6572604482015260640161038a565b6106fc6000611053565b565b6107093383836110a5565b5050565b600f818154811061071d57600080fd5b6000918252602090912001546001600160a01b0316905081565b600354600160a01b900460ff16156107835760405162461bcd60e51b815260206004820152600f60248201526e23b0b6b29034b9903830bab9b2b21760891b604482015260640161038a565b8015806107905750600181145b6107cd5760405162461bcd60e51b815260206004820152600e60248201526d24b73b30b634b2103a37b5b2b71760911b604482015260640161038a565b6107d8336000610322565b1580156107ed57506107eb336001610322565b155b6108475760405162461bcd60e51b815260206004820152602560248201527f48494c4f3a2063616e6e6f742068617665206d6f7265207468616e206f6e65206044820152643a37b5b2b760d91b606482015260840161038a565b600061085282610ccd565b90506000811161087257634e487b7160e01b600052600160045260246000fd5b60408051338152602081018490529081018290527f4c3e65968e649a01ea3950be6b9ad997c1339a91b3a9b8d73e00f310bd87c5dd9060600160405180910390a1600554811480156108c45750600182145b806108d95750600454811480156108d9575081155b15610921576108e782611186565b60408051338152602081018490527fcd3a4800b15328c9efb24904b6ff03fc8d44c4f2b2f60aa7ab268aa1ad3a035b910160405180910390a15b61093381670de0b6b3a764000061277c565b6010546040516370a0823160e01b81523360048201529192506000916001600160a01b03909116906370a082319060240160206040518083038186803b15801561097c57600080fd5b505afa158015610990573d6000803e3d6000fd5b505050506040513d601f19601f820116820180604052508101906109b49190612432565b60408051338152602081018390529192507f8d3f2312e09e67c66117ed54c754be60c8a3d9e646b269e5550b7b3d50e77bef910160405180910390a181811015610a405760405162461bcd60e51b815260206004820152601a60248201527f496e73756666696369656e7420555344432062616c616e63652e000000000000604482015260640161038a565b6010546040516323b872dd60e01b8152336004820152306024820152604481018490526001600160a01b03909116906323b872dd90606401602060405180830381600087803b158015610a9257600080fd5b505af1158015610aa6573d6000803e3d6000fd5b505050506040513d601f19601f82011682018060405250810190610aca91906123c6565b5060408051338152602081018490527f8c7a815f9018828b5b540f4eda734a9b0cfc910bad61d0f504b1976fc87c5568910160405180910390a1610b20338460016040518060200160405280600081525061119b565b60408051338152602081018590527f2d8eb9b9558d4b5ef1d238622692f6156d5822009340e26ab15fac05d64c12f0910160405180910390a16000610b64846112be565b6040805186815282151560208201529192507f67c80e5f1314ffc5b481d04ddc8778b4ac1c5cab32b36e691643643003085d03910160405180910390a18015610c5a5783610bbb576008805460ff19169055610bc7565b6008805461ff00191690555b6040518481527fcffb875f4a13e7daadf5756a80391de4c6bf7f9c25c4cad31f963583dfaa38dd9060200160405180910390a1600b5415610c5a57600c8054600091600b919083610c178361281a565b9190505581548110610c3957634e487b7160e01b600052603260045260246000fd5b6000918252602090912001546001600160a01b0316905061052f8186611301565b50505050565b6060600f805480602002602001604051908101604052809291908181526020018280548015610cb857602002820191906000526020600020905b81546001600160a01b03168152600190910190602001808311610c9a575b5050505050905090565b336107098183611301565b600081610cdc57505060065490565b6001821415610ced57505060075490565b506000919050565b919050565b6001600160a01b038516331480610d165750610d1685336102c6565b610d745760405162461bcd60e51b815260206004820152602960248201527f455243313135353a2063616c6c6572206973206e6f74206f776e6572206e6f7260448201526808185c1c1c9bdd995960ba1b606482015260840161038a565b61052f85858585856116a0565b6003546001600160a01b03163314610ddb5760405162461bcd60e51b815260206004820181905260248201527f4f776e61626c653a2063616c6c6572206973206e6f7420746865206f776e6572604482015260640161038a565b6001600160a01b038116610e405760405162461bcd60e51b815260206004820152602660248201527f4f776e61626c653a206e6577206f776e657220697320746865207a65726f206160448201526564647265737360d01b606482015260840161038a565b610e4981611053565b50565b8151835114610eae5760405162461bcd60e51b815260206004820152602860248201527f455243313135353a2069647320616e6420616d6f756e7473206c656e677468206044820152670dad2e6dac2e8c6d60c31b606482015260840161038a565b6001600160a01b038416610ed45760405162461bcd60e51b815260040161038a906126b1565b33610ee38187878787876117d8565b60005b8451811015610fe5576000858281518110610f1157634e487b7160e01b600052603260045260246000fd5b602002602001015190506000858381518110610f3d57634e487b7160e01b600052603260045260246000fd5b602090810291909101810151600084815280835260408082206001600160a01b038e168352909352919091205490915081811015610f8d5760405162461bcd60e51b815260040161038a906126f6565b6000838152602081815260408083206001600160a01b038e8116855292528083208585039055908b16825281208054849290610fca908490612764565b9250508190555050505080610fde9061281a565b9050610ee6565b50846001600160a01b0316866001600160a01b0316826001600160a01b03167f4a39dc06d4c0dbc64b70af90fd698a233a518aa5d07e595d983b8c0526c8f7fb8787604051611035929190612628565b60405180910390a461104b8187878787876118b9565b505050505050565b600380546001600160a01b038381166001600160a01b0319831681179093556040519116919082907f8be0079c531659141344cd1fd0a4f28419497f9722a3daafe3b4186f6b6457e090600090a35050565b816001600160a01b0316836001600160a01b031614156111195760405162461bcd60e51b815260206004820152602960248201527f455243313135353a2073657474696e6720617070726f76616c20737461747573604482015268103337b91039b2b63360b91b606482015260840161038a565b6001600160a01b03838116600081815260016020908152604080832094871680845294825291829020805460ff191686151590811790915591519182527f17307eab39ab6107e8899845ad3d59bd9653f200f220920489ca2b5937696c31910160405180910390a3505050565b8061119357610e49611a24565b610e49611a73565b6001600160a01b0384166111fb5760405162461bcd60e51b815260206004820152602160248201527f455243313135353a206d696e7420746f20746865207a65726f206164647265736044820152607360f81b606482015260840161038a565b33600061120785611ad8565b9050600061121485611ad8565b9050611225836000898585896117d8565b6000868152602081815260408083206001600160a01b038b16845290915281208054879290611255908490612764565b909155505060408051878152602081018790526001600160a01b03808a1692600092918716917fc3d58168c5ae7397731d063d5bbf3d657854427343f4c083240f7aacaa2d0f62910160405180910390a46112b583600089898989611b31565b50505050505050565b6009546000828152600a6020526040812054909182916112df906001612764565b6112e99190612835565b6000938452600a602052604090932083905550501590565b600354600160a01b900460ff161561134d5760405162461bcd60e51b815260206004820152600f60248201526e23b0b6b29034b9903830bab9b2b21760891b604482015260640161038a565b80158061135a5750600181145b6113975760405162461bcd60e51b815260206004820152600e60248201526d24b73b30b634b2103a37b5b2b71760911b604482015260640161038a565b801580156113af575060006113ad836000610322565b115b806113cf57506001811480156113cf575060006113cd836001610322565b115b61142d5760405162461bcd60e51b815260206004820152602960248201527f48494c4f3a2063616e6e6f742073656c6c207768656e20796f752068617665206044820152686e6f20746f6b656e7360b81b606482015260840161038a565b6000811561144557600854610100900460ff1661144c565b60085460ff165b905080156114ae5760405162461bcd60e51b815260206004820152602960248201527f48494c4f3a2063616e6e6f742073656c6c207768656e207468652073616c65206044820152681a5cc81b1bd8dad95960ba1b606482015260840161038a565b6114b88383611bfb565b60075460065414156114da576114d56114d083610ccd565b611cb7565b505050565b60006114e583610ccd565b90506114f981670de0b6b3a764000061277c565b60105460405163a9059cbb60e01b81526001600160a01b0387811660048301526024820184905292935091169063a9059cbb90604401602060405180830381600087803b15801561154957600080fd5b505af115801561155d573d6000803e3d6000fd5b505050506040513d601f19601f8201168201806040525081019061158191906123c6565b50604080516001600160a01b0386168152602081018390527f7db63cd5f29ad11bb94c527b3f58c2baf72ee4836feb5ec5e8d4d363d9353e63910160405180910390a16115d084846001611e16565b604080516001600160a01b0386168152602081018590527ff20884684d39657969fc7e0adb7b6d57e2c376184e1463a57c1f86e5dd7a4392910160405180910390a161161b83611186565b82158015611631575061162f846001610322565b155b15610c5a57611652846001806040518060200160405280600081525061119b565b61165c60016112be565b506040516001600160a01b03851681527f25417c035cc0d6ba80fa9d9e33c3560b0d0ad9afe9c868ded4aed8f72eac8369906020015b60405180910390a150505050565b6001600160a01b0384166116c65760405162461bcd60e51b815260040161038a906126b1565b3360006116d285611ad8565b905060006116df85611ad8565b90506116ef8389898585896117d8565b6000868152602081815260408083206001600160a01b038c168452909152902054858110156117305760405162461bcd60e51b815260040161038a906126f6565b6000878152602081815260408083206001600160a01b038d8116855292528083208985039055908a1682528120805488929061176d908490612764565b909155505060408051888152602081018890526001600160a01b03808b16928c821692918816917fc3d58168c5ae7397731d063d5bbf3d657854427343f4c083240f7aacaa2d0f62910160405180910390a46117cd848a8a8a8a8a611b31565b505050505050505050565b600354600160a01b900460ff16156118255760405162461bcd60e51b815260206004820152601060248201526f14185d5cd8589b194e881c185d5cd95960821b604482015260640161038a565b6001600160a01b038516158061184257506001600160a01b038416155b8061185557506001600160a01b03851630145b8061186857506001600160a01b03841630145b6118b45760405162461bcd60e51b815260206004820152601760248201527f48494c4f3a206e6f6e207472616e736665727261626c65000000000000000000604482015260640161038a565b61104b565b6001600160a01b0384163b1561104b5760405163bc197c8160e01b81526001600160a01b0385169063bc197c81906118fd90899089908890889088906004016124cf565b602060405180830381600087803b15801561191757600080fd5b505af1925050508015611947575060408051601f3d908101601f19168201909252611944918101906123fe565b60015b6119f457611953612881565b806308c379a0141561198d5750611968612899565b80611973575061198f565b8060405162461bcd60e51b815260040161038a9190612656565b505b60405162461bcd60e51b815260206004820152603460248201527f455243313135353a207472616e7366657220746f206e6f6e20455243313135356044820152732932b1b2b4bb32b91034b6b83632b6b2b73a32b960611b606482015260840161038a565b6001600160e01b0319811663bc197c8160e01b146112b55760405162461bcd60e51b815260040161038a90612669565b6001600654611a33919061279b565b6006557f98f29bb5a6c3ae7fe62f8a0831c40149254dfbf11ab6ec843cbc92b6986db896600654604051611a6991815260200190565b60405180910390a1565b600754611a81906001612764565b60078190556006541015611aa557634e487b7160e01b600052600160045260246000fd5b7f20bac735f1753f7e637cbe64ffd341651152fec5eabdf81fc6ca5743e6ae02e4600754604051611a6991815260200190565b60408051600180825281830190925260609160009190602080830190803683370190505090508281600081518110611b2057634e487b7160e01b600052603260045260246000fd5b602090810291909101015292915050565b6001600160a01b0384163b1561104b5760405163f23a6e6160e01b81526001600160a01b0385169063f23a6e6190611b75908990899088908890889060040161252d565b602060405180830381600087803b158015611b8f57600080fd5b505af1925050508015611bbf575060408051601f3d908101601f19168201909252611bbc918101906123fe565b60015b611bcb57611953612881565b6001600160e01b0319811663f23a6e6160e01b146112b55760405162461bcd60e51b815260040161038a90612669565b6000611c0682610ccd565b60408051606080820183526001600160a01b0387811680845260208085018981528587018881526000898152600d845288812080546001808201835591835291859020895160039093020180546001600160a01b03191692909716919091178655915191850191909155516002909301929092558451908152908101879052928301849052929350917fe51ee29f760306868b7bafee1f740fce6c665ec7754abd973733d03ded35c06f9101611692565b6000600d60006006548152602001908152602001600020805480602002602001604051908101604052809291908181526020016000905b82821015611d43576000848152602090819020604080516060810182526003860290920180546001600160a01b0316835260018082015484860152600290910154918301919091529083529092019101611cee565b50505050905060005b8151811015611dc557600f828281518110611d7757634e487b7160e01b600052603260045260246000fd5b6020908102919091018101515182546001810184556000938452919092200180546001600160a01b0319166001600160a01b0390921691909117905580611dbd8161281a565b915050611d4c565b50600e805460ff191660011790556040517f41df3c80bd12dbcc33254d0c956c6e2aa89ce09206b41106e3ea13692f1a4c0d90611e0690600f9085906125bf565b60405180910390a1610709611fa6565b6001600160a01b038316611e785760405162461bcd60e51b815260206004820152602360248201527f455243313135353a206275726e2066726f6d20746865207a65726f206164647260448201526265737360e81b606482015260840161038a565b336000611e8484611ad8565b90506000611e9184611ad8565b9050611eb1838760008585604051806020016040528060008152506117d8565b6000858152602081815260408083206001600160a01b038a16845290915290205484811015611f2e5760405162461bcd60e51b8152602060048201526024808201527f455243313135353a206275726e20616d6f756e7420657863656564732062616c604482015263616e636560e01b606482015260840161038a565b6000868152602081815260408083206001600160a01b038b81168086529184528285208a8703905582518b81529384018a90529092908816917fc3d58168c5ae7397731d063d5bbf3d657854427343f4c083240f7aacaa2d0f62910160405180910390a46040805160208101909152600090526112b5565b600354600160a01b900460ff1615611ff35760405162461bcd60e51b815260206004820152601060248201526f14185d5cd8589b194e881c185d5cd95960821b604482015260640161038a565b6003805460ff60a01b1916600160a01b1790557f62e78cea01bee320cd4e420270b5ea74000d11b0c9f74754ebdbfc544b05a25861202e3390565b6040516001600160a01b039091168152602001611a69565b80356001600160a01b0381168114610cf557600080fd5b600082601f83011261206d578081fd5b8135602061207a82612740565b60405161208782826127ed565b8381528281019150858301600585901b870184018810156120a6578586fd5b855b858110156120c4578135845292840192908401906001016120a8565b5090979650505050505050565b600082601f8301126120e1578081fd5b813567ffffffffffffffff8111156120fb576120fb61286b565b604051612112601f8301601f1916602001826127ed565b818152846020838601011115612126578283fd5b816020850160208301379081016020019190915292915050565b600060208284031215612151578081fd5b61215a82612046565b9392505050565b60008060408385031215612173578081fd5b61217c83612046565b915061218a60208401612046565b90509250929050565b600080600080600060a086880312156121aa578081fd5b6121b386612046565b94506121c160208701612046565b9350604086013567ffffffffffffffff808211156121dd578283fd5b6121e989838a0161205d565b945060608801359150808211156121fe578283fd5b61220a89838a0161205d565b9350608088013591508082111561221f578283fd5b5061222c888289016120d1565b9150509295509295909350565b600080600080600060a08688031215612250578081fd5b61225986612046565b945061226760208701612046565b93506040860135925060608601359150608086013567ffffffffffffffff811115612290578182fd5b61222c888289016120d1565b600080604083850312156122ae578182fd5b6122b783612046565b915060208301356122c781612923565b809150509250929050565b600080604083850312156122e4578182fd5b6122ed83612046565b946020939093013593505050565b6000806040838503121561230d578182fd5b823567ffffffffffffffff80821115612324578384fd5b818501915085601f830112612337578384fd5b8135602061234482612740565b60405161235182826127ed565b8381528281019150858301600585901b870184018b1015612370578889fd5b8896505b848710156123995761238581612046565b835260019690960195918301918301612374565b50965050860135925050808211156123af578283fd5b506123bc8582860161205d565b9150509250929050565b6000602082840312156123d7578081fd5b815161215a81612923565b6000602082840312156123f3578081fd5b813561215a81612931565b60006020828403121561240f578081fd5b815161215a81612931565b60006020828403121561242b578081fd5b5035919050565b600060208284031215612443578081fd5b5051919050565b6000815180845260208085019450808401835b838110156124795781518752958201959082019060010161245d565b509495945050505050565b60008151808452815b818110156124a95760208185018101518683018201520161248d565b818111156124ba5782602083870101525b50601f01601f19169290920160200192915050565b6001600160a01b0386811682528516602082015260a0604082018190526000906124fb9083018661244a565b828103606084015261250d818661244a565b905082810360808401526125218185612484565b98975050505050505050565b6001600160a01b03868116825285166020820152604081018490526060810183905260a06080820181905260009061256790830184612484565b979650505050505050565b6020808252825182820181905260009190848201906040850190845b818110156125b35783516001600160a01b03168352928401929184019160010161258e565b50909695505050505050565b6000604082016040835280855480835260608501915086845260209250828420845b828110156126065781546001600160a01b0316845292840192600191820191016125e1565b50505092019290925292915050565b60208152600061215a602083018461244a565b60408152600061263b604083018561244a565b828103602084015261264d818561244a565b95945050505050565b60208152600061215a6020830184612484565b60208082526028908201527f455243313135353a204552433131353552656365697665722072656a656374656040820152676420746f6b656e7360c01b606082015260800190565b60208082526025908201527f455243313135353a207472616e7366657220746f20746865207a65726f206164604082015264647265737360d81b606082015260800190565b6020808252602a908201527f455243313135353a20696e73756666696369656e742062616c616e636520666f60408201526939103a3930b739b332b960b11b606082015260800190565b600067ffffffffffffffff82111561275a5761275a61286b565b5060051b60200190565b6000821982111561277757612777612855565b500190565b600081600019048311821515161561279657612796612855565b500290565b6000828210156127ad576127ad612855565b500390565b600181811c908216806127c657607f821691505b602082108114156127e757634e487b7160e01b600052602260045260246000fd5b50919050565b601f8201601f1916810167ffffffffffffffff811182821017156128135761281361286b565b6040525050565b600060001982141561282e5761282e612855565b5060010190565b60008261285057634e487b7160e01b81526012600452602481fd5b500690565b634e487b7160e01b600052601160045260246000fd5b634e487b7160e01b600052604160045260246000fd5b600060033d111561289657600481823e5160e01c5b90565b600060443d10156128a75790565b6040516003193d81016004833e81513d67ffffffffffffffff81602484011181841117156128d757505050505090565b82850191508151818111156128ef5750505050505090565b843d87010160208285010111156129095750505050505090565b612918602082860101876127ed565b509095945050505050565b8015158114610e4957600080fd5b6001600160e01b031981168114610e4957600080fdfea26469706673582212207b760e85e5ea236e5c3b11c3a8fbc1348c163162d1104120f39b4f5e8947566464736f6c6343000804003368747470733a2f2f68696c6f2d65696768742e76657263656c2e6170702f6170692f746f6b656e732f7b69647d",
  "linkReferences": {},
  "deployedLinkReferences": {}
}