{
  "_format": "hh-sol-artifact-1",
  "contractName": "HILO",
  "sourceName": "contracts/HILO.sol",
  "abi": [
    {
      "inputs": [
        {
          "internalType": "uint256",
          "name": "_initialHi",
          "type": "uint256"
        },
        {
          "internalType": "uint256",
          "name": "_initialLo",
          "type": "uint256"
        },
        {
          "internalType": "uint256",
          "name": "_buyRequiredCount",
          "type": "uint256"
        },
        {
          "internalType": "uint256",
          "name": "_jackpot",
          "type": "uint256"
        }
      ],
      "stateMutability": "nonpayable",
      "type": "constructor"
    },
    {
      "anonymous": false,
      "inputs": [
        {
          "indexed": true,
          "internalType": "address",
          "name": "account",
          "type": "address"
        },
        {
          "indexed": true,
          "internalType": "address",
          "name": "operator",
          "type": "address"
        },
        {
          "indexed": false,
          "internalType": "bool",
          "name": "approved",
          "type": "bool"
        }
      ],
      "name": "ApprovalForAll",
      "type": "event"
    },
    {
      "anonymous": false,
      "inputs": [
        {
          "indexed": true,
          "internalType": "address",
          "name": "previousOwner",
          "type": "address"
        },
        {
          "indexed": true,
          "internalType": "address",
          "name": "newOwner",
          "type": "address"
        }
      ],
      "name": "OwnershipTransferred",
      "type": "event"
    },
    {
      "anonymous": false,
      "inputs": [
        {
          "indexed": false,
          "internalType": "address",
          "name": "account",
          "type": "address"
        }
      ],
      "name": "Paused",
      "type": "event"
    },
    {
      "anonymous": false,
      "inputs": [
        {
          "indexed": true,
          "internalType": "address",
          "name": "operator",
          "type": "address"
        },
        {
          "indexed": true,
          "internalType": "address",
          "name": "from",
          "type": "address"
        },
        {
          "indexed": true,
          "internalType": "address",
          "name": "to",
          "type": "address"
        },
        {
          "indexed": false,
          "internalType": "uint256[]",
          "name": "ids",
          "type": "uint256[]"
        },
        {
          "indexed": false,
          "internalType": "uint256[]",
          "name": "values",
          "type": "uint256[]"
        }
      ],
      "name": "TransferBatch",
      "type": "event"
    },
    {
      "anonymous": false,
      "inputs": [
        {
          "indexed": true,
          "internalType": "address",
          "name": "operator",
          "type": "address"
        },
        {
          "indexed": true,
          "internalType": "address",
          "name": "from",
          "type": "address"
        },
        {
          "indexed": true,
          "internalType": "address",
          "name": "to",
          "type": "address"
        },
        {
          "indexed": false,
          "internalType": "uint256",
          "name": "id",
          "type": "uint256"
        },
        {
          "indexed": false,
          "internalType": "uint256",
          "name": "value",
          "type": "uint256"
        }
      ],
      "name": "TransferSingle",
      "type": "event"
    },
    {
      "anonymous": false,
      "inputs": [
        {
          "indexed": false,
          "internalType": "string",
          "name": "value",
          "type": "string"
        },
        {
          "indexed": true,
          "internalType": "uint256",
          "name": "id",
          "type": "uint256"
        }
      ],
      "name": "URI",
      "type": "event"
    },
    {
      "anonymous": false,
      "inputs": [
        {
          "indexed": false,
          "internalType": "address",
          "name": "account",
          "type": "address"
        }
      ],
      "name": "Unpaused",
      "type": "event"
    },
    {
      "anonymous": false,
      "inputs": [
        {
          "indexed": false,
          "internalType": "address",
          "name": "player",
          "type": "address"
        },
        {
          "indexed": false,
          "internalType": "uint256",
          "name": "tokenId",
          "type": "uint256"
        },
        {
          "indexed": false,
          "internalType": "uint256",
          "name": "price",
          "type": "uint256"
        }
      ],
      "name": "actionAdded",
      "type": "event"
    },
    {
      "anonymous": false,
      "inputs": [
        {
          "indexed": false,
          "internalType": "address",
          "name": "player",
          "type": "address"
        },
        {
          "indexed": false,
          "internalType": "uint256",
          "name": "tokenId",
          "type": "uint256"
        },
        {
          "indexed": false,
          "internalType": "uint256",
          "name": "price",
          "type": "uint256"
        }
      ],
      "name": "buyPriceCheck",
      "type": "event"
    },
    {
      "anonymous": false,
      "inputs": [
        {
          "indexed": false,
          "internalType": "address",
          "name": "player",
          "type": "address"
        },
        {
          "indexed": false,
          "internalType": "uint256",
          "name": "tokenId",
          "type": "uint256"
        }
      ],
      "name": "buyPriceUpdate",
      "type": "event"
    },
    {
      "anonymous": false,
      "inputs": [
        {
          "indexed": false,
          "internalType": "uint256",
          "name": "newHiPrice",
          "type": "uint256"
        }
      ],
      "name": "hiDecreased",
      "type": "event"
    },
    {
      "anonymous": false,
      "inputs": [
        {
          "indexed": false,
          "internalType": "address",
          "name": "player",
          "type": "address"
        },
        {
          "indexed": false,
          "internalType": "uint256",
          "name": "amount",
          "type": "uint256"
        }
      ],
      "name": "jackpotPaid",
      "type": "event"
    },
    {
      "anonymous": false,
      "inputs": [
        {
          "indexed": false,
          "internalType": "uint256",
          "name": "newLoPrice",
          "type": "uint256"
        }
      ],
      "name": "loIncreased",
      "type": "event"
    },
    {
      "anonymous": false,
      "inputs": [
        {
          "indexed": false,
          "internalType": "address",
          "name": "player",
          "type": "address"
        }
      ],
      "name": "loSent",
      "type": "event"
    },
    {
      "anonymous": false,
      "inputs": [
        {
          "indexed": false,
          "internalType": "address",
          "name": "player",
          "type": "address"
        },
        {
          "indexed": false,
          "internalType": "uint256",
          "name": "balance",
          "type": "uint256"
        }
      ],
      "name": "playerBalanceCheck",
      "type": "event"
    },
    {
      "anonymous": false,
      "inputs": [
        {
          "indexed": false,
          "internalType": "address",
          "name": "player",
          "type": "address"
        },
        {
          "indexed": false,
          "internalType": "uint256",
          "name": "amount",
          "type": "uint256"
        }
      ],
      "name": "playerPayment",
      "type": "event"
    },
    {
      "anonymous": false,
      "inputs": [
        {
          "indexed": false,
          "internalType": "address",
          "name": "player",
          "type": "address"
        },
        {
          "indexed": false,
          "internalType": "uint256",
          "name": "tokenId",
          "type": "uint256"
        }
      ],
      "name": "priceUpdated",
      "type": "event"
    },
    {
      "anonymous": false,
      "inputs": [
        {
          "indexed": false,
          "internalType": "address[]",
          "name": "winners",
          "type": "address[]"
        },
        {
          "indexed": false,
          "internalType": "uint256",
          "name": "price",
          "type": "uint256"
        }
      ],
      "name": "pricesConverged",
      "type": "event"
    },
    {
      "anonymous": false,
      "inputs": [
        {
          "indexed": false,
          "internalType": "address",
          "name": "player",
          "type": "address"
        },
        {
          "indexed": false,
          "internalType": "uint256",
          "name": "amount",
          "type": "uint256"
        }
      ],
      "name": "salePayment",
      "type": "event"
    },
    {
      "anonymous": false,
      "inputs": [
        {
          "indexed": false,
          "internalType": "uint256",
          "name": "tokenId",
          "type": "uint256"
        }
      ],
      "name": "saleUnlocked",
      "type": "event"
    },
    {
      "anonymous": false,
      "inputs": [
        {
          "indexed": false,
          "internalType": "uint256",
          "name": "tokenId",
          "type": "uint256"
        },
        {
          "indexed": false,
          "internalType": "bool",
          "name": "shouldUnlock",
          "type": "bool"
        }
      ],
      "name": "shouldUnlockCheck",
      "type": "event"
    },
    {
      "anonymous": false,
      "inputs": [
        {
          "indexed": false,
          "internalType": "address",
          "name": "player",
          "type": "address"
        },
        {
          "indexed": false,
          "internalType": "uint256",
          "name": "tokenId",
          "type": "uint256"
        }
      ],
      "name": "tokenBurned",
      "type": "event"
    },
    {
      "anonymous": false,
      "inputs": [
        {
          "indexed": false,
          "internalType": "address",
          "name": "player",
          "type": "address"
        },
        {
          "indexed": false,
          "internalType": "uint256",
          "name": "tokenId",
          "type": "uint256"
        }
      ],
      "name": "tokenMinted",
      "type": "event"
    },
    {
      "inputs": [],
      "name": "HI",
      "outputs": [
        {
          "internalType": "uint256",
          "name": "",
          "type": "uint256"
        }
      ],
      "stateMutability": "view",
      "type": "function"
    },
    {
      "inputs": [],
      "name": "LO",
      "outputs": [
        {
          "internalType": "uint256",
          "name": "",
          "type": "uint256"
        }
      ],
      "stateMutability": "view",
      "type": "function"
    },
    {
      "inputs": [
        {
          "internalType": "address",
          "name": "account",
          "type": "address"
        },
        {
          "internalType": "uint256",
          "name": "id",
          "type": "uint256"
        }
      ],
      "name": "balanceOf",
      "outputs": [
        {
          "internalType": "uint256",
          "name": "",
          "type": "uint256"
        }
      ],
      "stateMutability": "view",
      "type": "function"
    },
    {
      "inputs": [
        {
          "internalType": "address[]",
          "name": "accounts",
          "type": "address[]"
        },
        {
          "internalType": "uint256[]",
          "name": "ids",
          "type": "uint256[]"
        }
      ],
      "name": "balanceOfBatch",
      "outputs": [
        {
          "internalType": "uint256[]",
          "name": "",
          "type": "uint256[]"
        }
      ],
      "stateMutability": "view",
      "type": "function"
    },
    {
      "inputs": [
        {
          "internalType": "uint256",
          "name": "tokenId",
          "type": "uint256"
        }
      ],
      "name": "buy",
      "outputs": [],
      "stateMutability": "nonpayable",
      "type": "function"
    },
    {
      "inputs": [
        {
          "internalType": "uint256",
          "name": "id",
          "type": "uint256"
        }
      ],
      "name": "exists",
      "outputs": [
        {
          "internalType": "bool",
          "name": "",
          "type": "bool"
        }
      ],
      "stateMutability": "view",
      "type": "function"
    },
    {
      "inputs": [],
      "name": "gameWon",
      "outputs": [
        {
          "internalType": "bool",
          "name": "",
          "type": "bool"
        }
      ],
      "stateMutability": "view",
      "type": "function"
    },
    {
      "inputs": [
        {
          "internalType": "uint256",
          "name": "tokenId",
          "type": "uint256"
        }
      ],
      "name": "getPrice",
      "outputs": [
        {
          "internalType": "uint256",
          "name": "",
          "type": "uint256"
        }
      ],
      "stateMutability": "view",
      "type": "function"
    },
    {
      "inputs": [],
      "name": "getWinners",
      "outputs": [
        {
          "internalType": "address[]",
          "name": "",
          "type": "address[]"
        }
      ],
      "stateMutability": "view",
      "type": "function"
    },
    {
      "inputs": [
        {
          "internalType": "address",
          "name": "account",
          "type": "address"
        },
        {
          "internalType": "address",
          "name": "operator",
          "type": "address"
        }
      ],
      "name": "isApprovedForAll",
      "outputs": [
        {
          "internalType": "bool",
          "name": "",
          "type": "bool"
        }
      ],
      "stateMutability": "view",
      "type": "function"
    },
    {
      "inputs": [],
      "name": "jackpot",
      "outputs": [
        {
          "internalType": "uint256",
          "name": "",
          "type": "uint256"
        }
      ],
      "stateMutability": "view",
      "type": "function"
    },
    {
      "inputs": [],
      "name": "owner",
      "outputs": [
        {
          "internalType": "address",
          "name": "",
          "type": "address"
        }
      ],
      "stateMutability": "view",
      "type": "function"
    },
    {
      "inputs": [],
      "name": "paused",
      "outputs": [
        {
          "internalType": "bool",
          "name": "",
          "type": "bool"
        }
      ],
      "stateMutability": "view",
      "type": "function"
    },
    {
      "inputs": [],
      "name": "payout",
      "outputs": [],
      "stateMutability": "nonpayable",
      "type": "function"
    },
    {
      "inputs": [],
      "name": "renounceOwnership",
      "outputs": [],
      "stateMutability": "nonpayable",
      "type": "function"
    },
    {
      "inputs": [
        {
          "internalType": "address",
          "name": "from",
          "type": "address"
        },
        {
          "internalType": "address",
          "name": "to",
          "type": "address"
        },
        {
          "internalType": "uint256[]",
          "name": "ids",
          "type": "uint256[]"
        },
        {
          "internalType": "uint256[]",
          "name": "amounts",
          "type": "uint256[]"
        },
        {
          "internalType": "bytes",
          "name": "data",
          "type": "bytes"
        }
      ],
      "name": "safeBatchTransferFrom",
      "outputs": [],
      "stateMutability": "nonpayable",
      "type": "function"
    },
    {
      "inputs": [
        {
          "internalType": "address",
          "name": "from",
          "type": "address"
        },
        {
          "internalType": "address",
          "name": "to",
          "type": "address"
        },
        {
          "internalType": "uint256",
          "name": "id",
          "type": "uint256"
        },
        {
          "internalType": "uint256",
          "name": "amount",
          "type": "uint256"
        },
        {
          "internalType": "bytes",
          "name": "data",
          "type": "bytes"
        }
      ],
      "name": "safeTransferFrom",
      "outputs": [],
      "stateMutability": "nonpayable",
      "type": "function"
    },
    {
      "inputs": [
        {
          "internalType": "uint256",
          "name": "tokenId",
          "type": "uint256"
        }
      ],
      "name": "sell",
      "outputs": [],
      "stateMutability": "nonpayable",
      "type": "function"
    },
    {
      "inputs": [
        {
          "internalType": "address",
          "name": "operator",
          "type": "address"
        },
        {
          "internalType": "bool",
          "name": "approved",
          "type": "bool"
        }
      ],
      "name": "setApprovalForAll",
      "outputs": [],
      "stateMutability": "nonpayable",
      "type": "function"
    },
    {
      "inputs": [
        {
          "internalType": "bytes4",
          "name": "interfaceId",
          "type": "bytes4"
        }
      ],
      "name": "supportsInterface",
      "outputs": [
        {
          "internalType": "bool",
          "name": "",
          "type": "bool"
        }
      ],
      "stateMutability": "view",
      "type": "function"
    },
    {
      "inputs": [
        {
          "internalType": "uint256",
          "name": "id",
          "type": "uint256"
        }
      ],
      "name": "totalSupply",
      "outputs": [
        {
          "internalType": "uint256",
          "name": "",
          "type": "uint256"
        }
      ],
      "stateMutability": "view",
      "type": "function"
    },
    {
      "inputs": [
        {
          "internalType": "address",
          "name": "newOwner",
          "type": "address"
        }
      ],
      "name": "transferOwnership",
      "outputs": [],
      "stateMutability": "nonpayable",
      "type": "function"
    },
    {
      "inputs": [
        {
          "internalType": "uint256",
          "name": "",
          "type": "uint256"
        }
      ],
      "name": "uri",
      "outputs": [
        {
          "internalType": "string",
          "name": "",
          "type": "string"
        }
      ],
      "stateMutability": "view",
      "type": "function"
    },
    {
      "inputs": [],
      "name": "usdc",
      "outputs": [
        {
          "internalType": "contract IERC20",
          "name": "",
          "type": "address"
        }
      ],
      "stateMutability": "view",
      "type": "function"
    },
    {
      "inputs": [
        {
          "internalType": "uint256",
          "name": "",
          "type": "uint256"
        }
      ],
      "name": "winners",
      "outputs": [
        {
          "internalType": "address",
          "name": "",
          "type": "address"
        }
      ],
      "stateMutability": "view",
      "type": "function"
    }
  ],
  "bytecode": "0x6080604052600a805461010161ffff199091161790556010805460ff19169055601380546001600160a01b03191673e11a86849d99f524cac3e7a0ec1241828e332c621790553480156200005257600080fd5b50604051620033c7380380620033c783398101604081905262000075916200034b565b6040518060600160405280602d81526020016200339a602d91396200009a816200023a565b50620000a63362000253565b6004805460ff60a01b191690556001600555600884905560068490556009839055600783905560006002620000dc858762000381565b600754600654620000ee9190620003df565b620000fb90600162000381565b620001079190620003bd565b6200011391906200039c565b905081620001236002836200039c565b1015620001765760405162461bcd60e51b815260206004820152601e60248201527f4a61636b706f7420746f6f206c6172676520666f72207468652067616d650000604482015260640160405180910390fd5b60128290556008546200019957634e487b7160e01b600052600160045260246000fd5b600060095411620001ba57634e487b7160e01b600052600160045260246000fd5b60095460085411620001dc57634e487b7160e01b600052600160045260246000fd5b5050600b555050600c60205260007f13649b2456f1b42fef0f0040b3aaeabcd21a76a0f3f5defd4f583839455116e8819055600181527fd421a5181c571bba3f01190c922c3b2a896fc1d84e86c9f17ac10e67ebef8b5c556200044c565b80516200024f906002906020840190620002a5565b5050565b600480546001600160a01b038381166001600160a01b0319831681179093556040519116919082907f8be0079c531659141344cd1fd0a4f28419497f9722a3daafe3b4186f6b6457e090600090a35050565b828054620002b390620003f9565b90600052602060002090601f016020900481019282620002d7576000855562000322565b82601f10620002f257805160ff191683800117855562000322565b8280016001018555821562000322579182015b828111156200032257825182559160200191906001019062000305565b506200033092915062000334565b5090565b5b8082111562000330576000815560010162000335565b6000806000806080858703121562000361578384fd5b505082516020840151604085015160609095015191969095509092509050565b6000821982111562000397576200039762000436565b500190565b600082620003b857634e487b7160e01b81526012600452602481fd5b500490565b6000816000190483118215151615620003da57620003da62000436565b500290565b600082821015620003f457620003f462000436565b500390565b600181811c908216806200040e57607f821691505b602082108114156200043057634e487b7160e01b600052602260045260246000fd5b50919050565b634e487b7160e01b600052601160045260246000fd5b612f3e806200045c6000396000f3fe608060405234801561001057600080fd5b50600436106101725760003560e01c8063715018a6116100de578063df15c37e11610097578063e985e9c511610071578063e985e9c514610347578063f242432a14610383578063f2e8dfdb14610396578063f2fde38b1461039e57600080fd5b8063df15c37e1461030c578063e4849b3214610321578063e75722301461033457600080fd5b8063715018a61461029a5780638da5cb5b146102a2578063a22cb465146102b3578063a2fb1175146102c6578063bd85b039146102d9578063d96a094a146102f957600080fd5b80634e1273f4116101305780634e1273f41461022d5780634f558e791461024d5780635c975abb1461026f57806363bd1d4a1461028157806368d2be8f146102895780636b31ee011461029157600080fd5b8062fdd58e1461017757806301ffc9a71461019d578063069a825c146101c05780630e89341c146101cd5780632eb2c2d6146101ed5780633e413bee14610202575b600080fd5b61018a6101853660046127fd565b6103b1565b6040519081526020015b60405180910390f35b6101b06101ab36600461290d565b610448565b6040519015158152602001610194565b6010546101b09060ff1681565b6101e06101db366004612945565b61049a565b6040516101949190612b9a565b6102006101fb3660046126be565b61052e565b005b601354610215906001600160a01b031681565b6040516001600160a01b039091168152602001610194565b61024061023b366004612826565b6105c5565b6040516101949190612b59565b6101b061025b366004612945565b600090815260036020526040902054151590565b600454600160a01b900460ff166101b0565b610200610727565b61018a600181565b61018a60125481565b610200610a35565b6004546001600160a01b0316610215565b6102006102c13660046127c7565b610a6b565b6102156102d4366004612945565b610a7a565b61018a6102e7366004612945565b60009081526003602052604090205490565b610200610307366004612945565b610aa4565b610314610fb3565b6040516101949190612ab6565b61020061032f366004612945565b611015565b61018a610342366004612945565b611081565b6101b061035536600461268c565b6001600160a01b03918216600090815260016020908152604080832093909416825291909152205460ff1690565b610200610391366004612764565b6110ae565b61018a600081565b6102006103ac36600461266b565b611135565b60006001600160a01b0383166104225760405162461bcd60e51b815260206004820152602b60248201527f455243313135353a2062616c616e636520717565727920666f7220746865207a60448201526a65726f206164647265737360a81b60648201526084015b60405180910390fd5b506000908152602081815260408083206001600160a01b03949094168352929052205490565b60006001600160e01b03198216636cdb3d1360e11b148061047957506001600160e01b031982166303a24d0760e21b145b8061049457506301ffc9a760e01b6001600160e01b03198316145b92915050565b6060600280546104a990612d69565b80601f01602080910402602001604051908101604052809291908181526020018280546104d590612d69565b80156105225780601f106104f757610100808354040283529160200191610522565b820191906000526020600020905b81548152906001019060200180831161050557829003601f168201915b50505050509050919050565b6001600160a01b03851633148061054a575061054a8533610355565b6105b15760405162461bcd60e51b815260206004820152603260248201527f455243313135353a207472616e736665722063616c6c6572206973206e6f74206044820152711bdddb995c881b9bdc88185c1c1c9bdd995960721b6064820152608401610419565b6105be85858585856111d0565b5050505050565b6060815183511461062a5760405162461bcd60e51b815260206004820152602960248201527f455243313135353a206163636f756e747320616e6420696473206c656e677468604482015268040dad2e6dac2e8c6d60bb1b6064820152608401610419565b6000835167ffffffffffffffff81111561065457634e487b7160e01b600052604160045260246000fd5b60405190808252806020026020018201604052801561067d578160200160208202803683370190505b50905060005b845181101561071f576106e48582815181106106af57634e487b7160e01b600052603260045260246000fd5b60200260200101518583815181106106d757634e487b7160e01b600052603260045260246000fd5b60200260200101516103b1565b82828151811061070457634e487b7160e01b600052603260045260246000fd5b602090810291909101015261071881612dd1565b9050610683565b509392505050565b6004546001600160a01b031633146107515760405162461bcd60e51b815260040161041990612cae565b600454600160a01b900460ff166107a15760405162461bcd60e51b815260206004820152601460248201527314185d5cd8589b194e881b9bdd081c185d5cd95960621b6044820152606401610419565b6011546012546000906107bc90670de0b6b3a7640000612d33565b905060005b8281101561091c5760006107d58484612d1f565b601354601180549293506001600160a01b039091169163a9059cbb91908590811061081057634e487b7160e01b600052603260045260246000fd5b6000918252602090912001546040516001600160e01b031960e084901b168152610848916001600160a01b0316908590600401612a9d565b602060405180830381600087803b15801561086257600080fd5b505af1158015610876573d6000803e3d6000fd5b505050506040513d601f19601f8201168201806040525081019061089a91906128f1565b507f4b94952124b2411cb09f0c46e93b04a9d9a18fd38a64eeb3b509fa9ae3ee0b4f601183815481106108dd57634e487b7160e01b600052603260045260246000fd5b600091825260209091200154604051610901916001600160a01b0316908490612a9d565b60405180910390a1508061091481612dd1565b9150506107c1565b506013546040516370a0823160e01b81523060048201526000916001600160a01b0316906370a082319060240160206040518083038186803b15801561096157600080fd5b505afa158015610975573d6000803e3d6000fd5b505050506040513d601f19601f82011682018060405250810190610999919061295d565b6013549091506001600160a01b031663a9059cbb6109bf6004546001600160a01b031690565b836040518363ffffffff1660e01b81526004016109dd929190612a9d565b602060405180830381600087803b1580156109f757600080fd5b505af1158015610a0b573d6000803e3d6000fd5b505050506040513d601f19601f82011682018060405250810190610a2f91906128f1565b50505050565b6004546001600160a01b03163314610a5f5760405162461bcd60e51b815260040161041990612cae565b610a6960006113d7565b565b610a76338383611429565b5050565b60118181548110610a8a57600080fd5b6000918252602090912001546001600160a01b0316905081565b600454600160a01b900460ff1615610ace5760405162461bcd60e51b815260040161041990612bf5565b801580610adb5750600181145b610b185760405162461bcd60e51b815260206004820152600e60248201526d24b73b30b634b2103a37b5b2b71760911b6044820152606401610419565b610b233360006103b1565b158015610b385750610b363360016103b1565b155b610b925760405162461bcd60e51b815260206004820152602560248201527f48494c4f3a2063616e6e6f742068617665206d6f7265207468616e206f6e65206044820152643a37b5b2b760d91b6064820152608401610419565b6000610b9d82611081565b905060008111610bbd57634e487b7160e01b600052600160045260246000fd5b60408051338152602081018490529081018290527f4c3e65968e649a01ea3950be6b9ad997c1339a91b3a9b8d73e00f310bd87c5dd9060600160405180910390a160095460085414158015610c33575060075481148015610c1e5750600182145b80610c33575060065481148015610c33575081155b15610c7b57610c418261150a565b7fcd3a4800b15328c9efb24904b6ff03fc8d44c4f2b2f60aa7ab268aa1ad3a035b3383604051610c72929190612a9d565b60405180910390a15b610c8d81670de0b6b3a7640000612d33565b6013546040516370a0823160e01b81523360048201529192506000916001600160a01b03909116906370a082319060240160206040518083038186803b158015610cd657600080fd5b505afa158015610cea573d6000803e3d6000fd5b505050506040513d601f19601f82011682018060405250810190610d0e919061295d565b90507f8d3f2312e09e67c66117ed54c754be60c8a3d9e646b269e5550b7b3d50e77bef3382604051610d41929190612a9d565b60405180910390a181811015610d995760405162461bcd60e51b815260206004820152601a60248201527f496e73756666696369656e7420555344432062616c616e63652e0000000000006044820152606401610419565b6013546040516323b872dd60e01b8152336004820152306024820152604481018490526001600160a01b03909116906323b872dd90606401602060405180830381600087803b158015610deb57600080fd5b505af1158015610dff573d6000803e3d6000fd5b505050506040513d601f19601f82011682018060405250810190610e2391906128f1565b507f8c7a815f9018828b5b540f4eda734a9b0cfc910bad61d0f504b1976fc87c55683383604051610e55929190612a9d565b60405180910390a1610e79338460016040518060200160405280600081525061151f565b7f2d8eb9b9558d4b5ef1d238622692f6156d5822009340e26ab15fac05d64c12f03384604051610eaa929190612a9d565b60405180910390a16000610ebd84611642565b6040805186815282151560208201529192507f67c80e5f1314ffc5b481d04ddc8778b4ac1c5cab32b36e691643643003085d03910160405180910390a18015610a2f5783610f1457600a805460ff19169055610f20565b600a805461ff00191690555b6040518481527fcffb875f4a13e7daadf5756a80391de4c6bf7f9c25c4cad31f963583dfaa38dd9060200160405180910390a1600d5415610a2f57600e8054600091600d919083610f7083612dd1565b9190505581548110610f9257634e487b7160e01b600052603260045260246000fd5b6000918252602090912001546001600160a01b031690506105be8186611685565b6060601180548060200260200160405190810160405280929190818152602001828054801561100b57602002820191906000526020600020905b81546001600160a01b03168152600190910190602001808311610fed575b5050505050905090565b600260055414156110685760405162461bcd60e51b815260206004820152601f60248201527f5265656e7472616e637947756172643a207265656e7472616e742063616c6c006044820152606401610419565b6002600555336110788183611685565b50506001600555565b60008161109057505060085490565b60018214156110a157505060095490565b506000919050565b919050565b6001600160a01b0385163314806110ca57506110ca8533610355565b6111285760405162461bcd60e51b815260206004820152602960248201527f455243313135353a2063616c6c6572206973206e6f74206f776e6572206e6f7260448201526808185c1c1c9bdd995960ba1b6064820152608401610419565b6105be8585858585611a57565b6004546001600160a01b0316331461115f5760405162461bcd60e51b815260040161041990612cae565b6001600160a01b0381166111c45760405162461bcd60e51b815260206004820152602660248201527f4f776e61626c653a206e6577206f776e657220697320746865207a65726f206160448201526564647265737360d01b6064820152608401610419565b6111cd816113d7565b50565b81518351146112325760405162461bcd60e51b815260206004820152602860248201527f455243313135353a2069647320616e6420616d6f756e7473206c656e677468206044820152670dad2e6dac2e8c6d60c31b6064820152608401610419565b6001600160a01b0384166112585760405162461bcd60e51b815260040161041990612c1f565b33611267818787878787611b8f565b60005b845181101561136957600085828151811061129557634e487b7160e01b600052603260045260246000fd5b6020026020010151905060008583815181106112c157634e487b7160e01b600052603260045260246000fd5b602090810291909101810151600084815280835260408082206001600160a01b038e1683529093529190912054909150818110156113115760405162461bcd60e51b815260040161041990612c64565b6000838152602081815260408083206001600160a01b038e8116855292528083208585039055908b1682528120805484929061134e908490612d07565b925050819055505050508061136290612dd1565b905061126a565b50846001600160a01b0316866001600160a01b0316826001600160a01b03167f4a39dc06d4c0dbc64b70af90fd698a233a518aa5d07e595d983b8c0526c8f7fb87876040516113b9929190612b6c565b60405180910390a46113cf818787878787611c56565b505050505050565b600480546001600160a01b038381166001600160a01b0319831681179093556040519116919082907f8be0079c531659141344cd1fd0a4f28419497f9722a3daafe3b4186f6b6457e090600090a35050565b816001600160a01b0316836001600160a01b0316141561149d5760405162461bcd60e51b815260206004820152602960248201527f455243313135353a2073657474696e6720617070726f76616c20737461747573604482015268103337b91039b2b63360b91b6064820152608401610419565b6001600160a01b03838116600081815260016020908152604080832094871680845294825291829020805460ff191686151590811790915591519182527f17307eab39ab6107e8899845ad3d59bd9653f200f220920489ca2b5937696c31910160405180910390a3505050565b80611517576111cd611dc1565b6111cd611e10565b6001600160a01b03841661157f5760405162461bcd60e51b815260206004820152602160248201527f455243313135353a206d696e7420746f20746865207a65726f206164647265736044820152607360f81b6064820152608401610419565b33600061158b85611e75565b9050600061159885611e75565b90506115a983600089858589611b8f565b6000868152602081815260408083206001600160a01b038b168452909152812080548792906115d9908490612d07565b909155505060408051878152602081018790526001600160a01b03808a1692600092918716917fc3d58168c5ae7397731d063d5bbf3d657854427343f4c083240f7aacaa2d0f62910160405180910390a461163983600089898989611ece565b50505050505050565b600b546000828152600c602052604081205490918291611663906001612d07565b61166d9190612dec565b6000938452600c602052604090932083905550501590565b600454600160a01b900460ff16156116af5760405162461bcd60e51b815260040161041990612bf5565b8015806116bc5750600181145b6116f95760405162461bcd60e51b815260206004820152600e60248201526d24b73b30b634b2103a37b5b2b71760911b6044820152606401610419565b801580156117115750600061170f8360006103b1565b115b8061173157506001811480156117315750600061172f8360016103b1565b115b61178f5760405162461bcd60e51b815260206004820152602960248201527f48494c4f3a2063616e6e6f742073656c6c207768656e20796f752068617665206044820152686e6f20746f6b656e7360b81b6064820152608401610419565b600081156117a757600a54610100900460ff166117ae565b600a5460ff165b905080156118105760405162461bcd60e51b815260206004820152602960248201527f48494c4f3a2063616e6e6f742073656c6c207768656e207468652073616c65206044820152681a5cc81b1bd8dad95960ba1b6064820152608401610419565b61181a8383611f98565b600954600854141561183c5761183761183283611081565b612054565b505050565b600061184783611081565b905061185b81670de0b6b3a7640000612d33565b60135460405163a9059cbb60e01b81529192506001600160a01b03169063a9059cbb9061188e9087908590600401612a9d565b602060405180830381600087803b1580156118a857600080fd5b505af11580156118bc573d6000803e3d6000fd5b505050506040513d601f19601f820116820180604052508101906118e091906128f1565b507f7db63cd5f29ad11bb94c527b3f58c2baf72ee4836feb5ec5e8d4d363d9353e638482604051611912929190612a9d565b60405180910390a1611926848460016121b3565b7ff20884684d39657969fc7e0adb7b6d57e2c376184e1463a57c1f86e5dd7a43928484604051611957929190612a9d565b60405180910390a16119688361150a565b7f87c0fbbae75bca381f225a2e2672796d1051ed70574f17324cda070f04d5cd388484604051611999929190612a9d565b60405180910390a1821580156119b757506119b58460016103b1565b155b15610a2f576119d8846001806040518060200160405280600081525061151f565b6001600052600c6020527fd421a5181c571bba3f01190c922c3b2a896fc1d84e86c9f17ac10e67ebef8b5c54611a1457611a126001611642565b505b6040516001600160a01b03851681527f25417c035cc0d6ba80fa9d9e33c3560b0d0ad9afe9c868ded4aed8f72eac8369906020015b60405180910390a150505050565b6001600160a01b038416611a7d5760405162461bcd60e51b815260040161041990612c1f565b336000611a8985611e75565b90506000611a9685611e75565b9050611aa6838989858589611b8f565b6000868152602081815260408083206001600160a01b038c16845290915290205485811015611ae75760405162461bcd60e51b815260040161041990612c64565b6000878152602081815260408083206001600160a01b038d8116855292528083208985039055908a16825281208054889290611b24908490612d07565b909155505060408051888152602081018890526001600160a01b03808b16928c821692918816917fc3d58168c5ae7397731d063d5bbf3d657854427343f4c083240f7aacaa2d0f62910160405180910390a4611b84848a8a8a8a8a611ece565b505050505050505050565b600454600160a01b900460ff1615611bb95760405162461bcd60e51b815260040161041990612bf5565b6001600160a01b0385161580611bd657506001600160a01b038416155b80611be957506001600160a01b03851630145b80611bfc57506001600160a01b03841630145b611c485760405162461bcd60e51b815260206004820152601760248201527f48494c4f3a206e6f6e207472616e736665727261626c650000000000000000006044820152606401610419565b6113cf868686868686612343565b6001600160a01b0384163b156113cf5760405163bc197c8160e01b81526001600160a01b0385169063bc197c8190611c9a90899089908890889088906004016129fa565b602060405180830381600087803b158015611cb457600080fd5b505af1925050508015611ce4575060408051601f3d908101601f19168201909252611ce191810190612929565b60015b611d9157611cf0612e42565b806308c379a01415611d2a5750611d05612e5a565b80611d105750611d2c565b8060405162461bcd60e51b81526004016104199190612b9a565b505b60405162461bcd60e51b815260206004820152603460248201527f455243313135353a207472616e7366657220746f206e6f6e20455243313135356044820152732932b1b2b4bb32b91034b6b83632b6b2b73a32b960611b6064820152608401610419565b6001600160e01b0319811663bc197c8160e01b146116395760405162461bcd60e51b815260040161041990612bad565b6001600854611dd09190612d52565b6008557f98f29bb5a6c3ae7fe62f8a0831c40149254dfbf11ab6ec843cbc92b6986db896600854604051611e0691815260200190565b60405180910390a1565b600954611e1e906001612d07565b60098190556008541015611e4257634e487b7160e01b600052600160045260246000fd5b7f20bac735f1753f7e637cbe64ffd341651152fec5eabdf81fc6ca5743e6ae02e4600954604051611e0691815260200190565b60408051600180825281830190925260609160009190602080830190803683370190505090508281600081518110611ebd57634e487b7160e01b600052603260045260246000fd5b602090810291909101015292915050565b6001600160a01b0384163b156113cf5760405163f23a6e6160e01b81526001600160a01b0385169063f23a6e6190611f129089908990889088908890600401612a58565b602060405180830381600087803b158015611f2c57600080fd5b505af1925050508015611f5c575060408051601f3d908101601f19168201909252611f5991810190612929565b60015b611f6857611cf0612e42565b6001600160e01b0319811663f23a6e6160e01b146116395760405162461bcd60e51b815260040161041990612bad565b6000611fa382611081565b60408051606080820183526001600160a01b0387811680845260208085018981528587018881526000898152600f845288812080546001808201835591835291859020895160039093020180546001600160a01b03191692909716919091178655915191850191909155516002909301929092558451908152908101879052928301849052929350917fe51ee29f760306868b7bafee1f740fce6c665ec7754abd973733d03ded35c06f9101611a49565b6000600f60006008548152602001908152602001600020805480602002602001604051908101604052809291908181526020016000905b828210156120e0576000848152602090819020604080516060810182526003860290920180546001600160a01b031683526001808201548486015260029091015491830191909152908352909201910161208b565b50505050905060005b815181101561216257601182828151811061211457634e487b7160e01b600052603260045260246000fd5b6020908102919091018101515182546001810184556000938452919092200180546001600160a01b0319166001600160a01b039092169190911790558061215a81612dd1565b9150506120e9565b506010805460ff191660011790556040517f41df3c80bd12dbcc33254d0c956c6e2aa89ce09206b41106e3ea13692f1a4c0d906121a3906011908590612b03565b60405180910390a1610a766124f4565b6001600160a01b0383166122155760405162461bcd60e51b815260206004820152602360248201527f455243313135353a206275726e2066726f6d20746865207a65726f206164647260448201526265737360e81b6064820152608401610419565b33600061222184611e75565b9050600061222e84611e75565b905061224e83876000858560405180602001604052806000815250611b8f565b6000858152602081815260408083206001600160a01b038a168452909152902054848110156122cb5760405162461bcd60e51b8152602060048201526024808201527f455243313135353a206275726e20616d6f756e7420657863656564732062616c604482015263616e636560e01b6064820152608401610419565b6000868152602081815260408083206001600160a01b038b81168086529184528285208a8703905582518b81529384018a90529092908816917fc3d58168c5ae7397731d063d5bbf3d657854427343f4c083240f7aacaa2d0f62910160405180910390a4604080516020810190915260009052611639565b6001600160a01b0385166123e65760005b83518110156123e45782818151811061237d57634e487b7160e01b600052603260045260246000fd5b6020026020010151600360008684815181106123a957634e487b7160e01b600052603260045260246000fd5b6020026020010151815260200190815260200160002060008282546123ce9190612d07565b909155506123dd905081612dd1565b9050612354565b505b6001600160a01b0384166113cf5760005b835181101561163957600084828151811061242257634e487b7160e01b600052603260045260246000fd5b60200260200101519050600084838151811061244e57634e487b7160e01b600052603260045260246000fd5b60200260200101519050600060036000848152602001908152602001600020549050818110156124d15760405162461bcd60e51b815260206004820152602860248201527f455243313135353a206275726e20616d6f756e74206578636565647320746f74604482015267616c537570706c7960c01b6064820152608401610419565b600092835260036020526040909220910390556124ed81612dd1565b90506123f7565b600454600160a01b900460ff161561251e5760405162461bcd60e51b815260040161041990612bf5565b6004805460ff60a01b1916600160a01b1790557f62e78cea01bee320cd4e420270b5ea74000d11b0c9f74754ebdbfc544b05a2586125593390565b6040516001600160a01b039091168152602001611e06565b80356001600160a01b03811681146110a957600080fd5b600082601f830112612598578081fd5b813560206125a582612ce3565b6040516125b28282612da4565b8381528281019150858301600585901b870184018810156125d1578586fd5b855b858110156125ef578135845292840192908401906001016125d3565b5090979650505050505050565b600082601f83011261260c578081fd5b813567ffffffffffffffff81111561262657612626612e2c565b60405161263d601f8301601f191660200182612da4565b818152846020838601011115612651578283fd5b816020850160208301379081016020019190915292915050565b60006020828403121561267c578081fd5b61268582612571565b9392505050565b6000806040838503121561269e578081fd5b6126a783612571565b91506126b560208401612571565b90509250929050565b600080600080600060a086880312156126d5578081fd5b6126de86612571565b94506126ec60208701612571565b9350604086013567ffffffffffffffff80821115612708578283fd5b61271489838a01612588565b94506060880135915080821115612729578283fd5b61273589838a01612588565b9350608088013591508082111561274a578283fd5b50612757888289016125fc565b9150509295509295909350565b600080600080600060a0868803121561277b578081fd5b61278486612571565b945061279260208701612571565b93506040860135925060608601359150608086013567ffffffffffffffff8111156127bb578182fd5b612757888289016125fc565b600080604083850312156127d9578182fd5b6127e283612571565b915060208301356127f281612ee4565b809150509250929050565b6000806040838503121561280f578182fd5b61281883612571565b946020939093013593505050565b60008060408385031215612838578182fd5b823567ffffffffffffffff8082111561284f578384fd5b818501915085601f830112612862578384fd5b8135602061286f82612ce3565b60405161287c8282612da4565b8381528281019150858301600585901b870184018b101561289b578889fd5b8896505b848710156128c4576128b081612571565b83526001969096019591830191830161289f565b50965050860135925050808211156128da578283fd5b506128e785828601612588565b9150509250929050565b600060208284031215612902578081fd5b815161268581612ee4565b60006020828403121561291e578081fd5b813561268581612ef2565b60006020828403121561293a578081fd5b815161268581612ef2565b600060208284031215612956578081fd5b5035919050565b60006020828403121561296e578081fd5b5051919050565b6000815180845260208085019450808401835b838110156129a457815187529582019590820190600101612988565b509495945050505050565b60008151808452815b818110156129d4576020818501810151868301820152016129b8565b818111156129e55782602083870101525b50601f01601f19169290920160200192915050565b6001600160a01b0386811682528516602082015260a060408201819052600090612a2690830186612975565b8281036060840152612a388186612975565b90508281036080840152612a4c81856129af565b98975050505050505050565b6001600160a01b03868116825285166020820152604081018490526060810183905260a060808201819052600090612a92908301846129af565b979650505050505050565b6001600160a01b03929092168252602082015260400190565b6020808252825182820181905260009190848201906040850190845b81811015612af75783516001600160a01b031683529284019291840191600101612ad2565b50909695505050505050565b6000604082016040835280855480835260608501915086845260209250828420845b82811015612b4a5781546001600160a01b031684529284019260019182019101612b25565b50505092019290925292915050565b6020815260006126856020830184612975565b604081526000612b7f6040830185612975565b8281036020840152612b918185612975565b95945050505050565b60208152600061268560208301846129af565b60208082526028908201527f455243313135353a204552433131353552656365697665722072656a656374656040820152676420746f6b656e7360c01b606082015260800190565b60208082526010908201526f14185d5cd8589b194e881c185d5cd95960821b604082015260600190565b60208082526025908201527f455243313135353a207472616e7366657220746f20746865207a65726f206164604082015264647265737360d81b606082015260800190565b6020808252602a908201527f455243313135353a20696e73756666696369656e742062616c616e636520666f60408201526939103a3930b739b332b960b11b606082015260800190565b6020808252818101527f4f776e61626c653a2063616c6c6572206973206e6f7420746865206f776e6572604082015260600190565b600067ffffffffffffffff821115612cfd57612cfd612e2c565b5060051b60200190565b60008219821115612d1a57612d1a612e00565b500190565b600082612d2e57612d2e612e16565b500490565b6000816000190483118215151615612d4d57612d4d612e00565b500290565b600082821015612d6457612d64612e00565b500390565b600181811c90821680612d7d57607f821691505b60208210811415612d9e57634e487b7160e01b600052602260045260246000fd5b50919050565b601f8201601f1916810167ffffffffffffffff81118282101715612dca57612dca612e2c565b6040525050565b6000600019821415612de557612de5612e00565b5060010190565b600082612dfb57612dfb612e16565b500690565b634e487b7160e01b600052601160045260246000fd5b634e487b7160e01b600052601260045260246000fd5b634e487b7160e01b600052604160045260246000fd5b600060033d1115612e5757600481823e5160e01c5b90565b600060443d1015612e685790565b6040516003193d81016004833e81513d67ffffffffffffffff8160248401118184111715612e9857505050505090565b8285019150815181811115612eb05750505050505090565b843d8701016020828501011115612eca5750505050505090565b612ed960208286010187612da4565b509095945050505050565b80151581146111cd57600080fd5b6001600160e01b0319811681146111cd57600080fdfea2646970667358221220cc0442f7a5ecf061897aa2a6fb2b296d308f459a54a652532c51e90a3c1545e664736f6c6343000804003368747470733a2f2f68696c6f2d65696768742e76657263656c2e6170702f6170692f746f6b656e732f7b69647d",
  "linkReferences": {},
  "deployedLinkReferences": {}
}