{
  "_format": "hh-sol-artifact-1",
  "contractName": "HILO",
  "sourceName": "contracts/HILO.sol",
  "abi": [
    {
      "inputs": [
        {
          "internalType": "uint256",
          "name": "_initialHi",
          "type": "uint256"
        },
        {
          "internalType": "uint256",
          "name": "_initialLo",
          "type": "uint256"
        },
        {
          "internalType": "uint256",
          "name": "_buyRequiredCount",
          "type": "uint256"
        },
        {
          "internalType": "uint256",
          "name": "_jackpot",
          "type": "uint256"
        }
      ],
      "stateMutability": "nonpayable",
      "type": "constructor"
    },
    {
      "anonymous": false,
      "inputs": [
        {
          "indexed": false,
          "internalType": "address",
          "name": "player",
          "type": "address"
        },
        {
          "indexed": false,
          "internalType": "uint256",
          "name": "tokenId",
          "type": "uint256"
        },
        {
          "indexed": false,
          "internalType": "uint256",
          "name": "price",
          "type": "uint256"
        }
      ],
      "name": "ActionAdded",
      "type": "event"
    },
    {
      "anonymous": false,
      "inputs": [
        {
          "indexed": true,
          "internalType": "address",
          "name": "account",
          "type": "address"
        },
        {
          "indexed": true,
          "internalType": "address",
          "name": "operator",
          "type": "address"
        },
        {
          "indexed": false,
          "internalType": "bool",
          "name": "approved",
          "type": "bool"
        }
      ],
      "name": "ApprovalForAll",
      "type": "event"
    },
    {
      "anonymous": false,
      "inputs": [
        {
          "indexed": false,
          "internalType": "uint256",
          "name": "newHiPrice",
          "type": "uint256"
        }
      ],
      "name": "HiDecreased",
      "type": "event"
    },
    {
      "anonymous": false,
      "inputs": [
        {
          "indexed": false,
          "internalType": "address",
          "name": "player",
          "type": "address"
        },
        {
          "indexed": false,
          "internalType": "uint256",
          "name": "amount",
          "type": "uint256"
        }
      ],
      "name": "JackpotPaid",
      "type": "event"
    },
    {
      "anonymous": false,
      "inputs": [
        {
          "indexed": false,
          "internalType": "uint256",
          "name": "newLoPrice",
          "type": "uint256"
        }
      ],
      "name": "LoIncreased",
      "type": "event"
    },
    {
      "anonymous": false,
      "inputs": [
        {
          "indexed": true,
          "internalType": "address",
          "name": "previousOwner",
          "type": "address"
        },
        {
          "indexed": true,
          "internalType": "address",
          "name": "newOwner",
          "type": "address"
        }
      ],
      "name": "OwnershipTransferred",
      "type": "event"
    },
    {
      "anonymous": false,
      "inputs": [
        {
          "indexed": false,
          "internalType": "address",
          "name": "account",
          "type": "address"
        }
      ],
      "name": "Paused",
      "type": "event"
    },
    {
      "anonymous": false,
      "inputs": [
        {
          "indexed": false,
          "internalType": "address",
          "name": "player",
          "type": "address"
        }
      ],
      "name": "PlayerRegistered",
      "type": "event"
    },
    {
      "anonymous": false,
      "inputs": [
        {
          "indexed": false,
          "internalType": "address",
          "name": "player",
          "type": "address"
        },
        {
          "indexed": false,
          "internalType": "uint256",
          "name": "tokenId",
          "type": "uint256"
        }
      ],
      "name": "PriceUpdated",
      "type": "event"
    },
    {
      "anonymous": false,
      "inputs": [
        {
          "indexed": false,
          "internalType": "address[]",
          "name": "winners",
          "type": "address[]"
        },
        {
          "indexed": false,
          "internalType": "uint256",
          "name": "price",
          "type": "uint256"
        }
      ],
      "name": "PricesConverged",
      "type": "event"
    },
    {
      "anonymous": false,
      "inputs": [
        {
          "indexed": true,
          "internalType": "address",
          "name": "operator",
          "type": "address"
        },
        {
          "indexed": true,
          "internalType": "address",
          "name": "from",
          "type": "address"
        },
        {
          "indexed": true,
          "internalType": "address",
          "name": "to",
          "type": "address"
        },
        {
          "indexed": false,
          "internalType": "uint256[]",
          "name": "ids",
          "type": "uint256[]"
        },
        {
          "indexed": false,
          "internalType": "uint256[]",
          "name": "values",
          "type": "uint256[]"
        }
      ],
      "name": "TransferBatch",
      "type": "event"
    },
    {
      "anonymous": false,
      "inputs": [
        {
          "indexed": true,
          "internalType": "address",
          "name": "operator",
          "type": "address"
        },
        {
          "indexed": true,
          "internalType": "address",
          "name": "from",
          "type": "address"
        },
        {
          "indexed": true,
          "internalType": "address",
          "name": "to",
          "type": "address"
        },
        {
          "indexed": false,
          "internalType": "uint256",
          "name": "id",
          "type": "uint256"
        },
        {
          "indexed": false,
          "internalType": "uint256",
          "name": "value",
          "type": "uint256"
        }
      ],
      "name": "TransferSingle",
      "type": "event"
    },
    {
      "anonymous": false,
      "inputs": [
        {
          "indexed": false,
          "internalType": "string",
          "name": "value",
          "type": "string"
        },
        {
          "indexed": true,
          "internalType": "uint256",
          "name": "id",
          "type": "uint256"
        }
      ],
      "name": "URI",
      "type": "event"
    },
    {
      "anonymous": false,
      "inputs": [
        {
          "indexed": false,
          "internalType": "address",
          "name": "account",
          "type": "address"
        }
      ],
      "name": "Unpaused",
      "type": "event"
    },
    {
      "inputs": [],
      "name": "HI",
      "outputs": [
        {
          "internalType": "uint256",
          "name": "",
          "type": "uint256"
        }
      ],
      "stateMutability": "view",
      "type": "function"
    },
    {
      "inputs": [],
      "name": "LO",
      "outputs": [
        {
          "internalType": "uint256",
          "name": "",
          "type": "uint256"
        }
      ],
      "stateMutability": "view",
      "type": "function"
    },
    {
      "inputs": [
        {
          "internalType": "uint256",
          "name": "tokenId",
          "type": "uint256"
        }
      ],
      "name": "addToQueue",
      "outputs": [
        {
          "internalType": "uint256",
          "name": "",
          "type": "uint256"
        }
      ],
      "stateMutability": "nonpayable",
      "type": "function"
    },
    {
      "inputs": [
        {
          "internalType": "address",
          "name": "account",
          "type": "address"
        },
        {
          "internalType": "uint256",
          "name": "id",
          "type": "uint256"
        }
      ],
      "name": "balanceOf",
      "outputs": [
        {
          "internalType": "uint256",
          "name": "",
          "type": "uint256"
        }
      ],
      "stateMutability": "view",
      "type": "function"
    },
    {
      "inputs": [
        {
          "internalType": "address[]",
          "name": "accounts",
          "type": "address[]"
        },
        {
          "internalType": "uint256[]",
          "name": "ids",
          "type": "uint256[]"
        }
      ],
      "name": "balanceOfBatch",
      "outputs": [
        {
          "internalType": "uint256[]",
          "name": "",
          "type": "uint256[]"
        }
      ],
      "stateMutability": "view",
      "type": "function"
    },
    {
      "inputs": [
        {
          "internalType": "uint256",
          "name": "tokenId",
          "type": "uint256"
        }
      ],
      "name": "buy",
      "outputs": [],
      "stateMutability": "nonpayable",
      "type": "function"
    },
    {
      "inputs": [],
      "name": "checkInQueue",
      "outputs": [
        {
          "internalType": "uint256",
          "name": "",
          "type": "uint256"
        }
      ],
      "stateMutability": "view",
      "type": "function"
    },
    {
      "inputs": [
        {
          "internalType": "uint256",
          "name": "id",
          "type": "uint256"
        }
      ],
      "name": "exists",
      "outputs": [
        {
          "internalType": "bool",
          "name": "",
          "type": "bool"
        }
      ],
      "stateMutability": "view",
      "type": "function"
    },
    {
      "inputs": [],
      "name": "gameWon",
      "outputs": [
        {
          "internalType": "bool",
          "name": "",
          "type": "bool"
        }
      ],
      "stateMutability": "view",
      "type": "function"
    },
    {
      "inputs": [
        {
          "internalType": "uint256",
          "name": "tokenId",
          "type": "uint256"
        }
      ],
      "name": "getPrice",
      "outputs": [
        {
          "internalType": "uint256",
          "name": "",
          "type": "uint256"
        }
      ],
      "stateMutability": "view",
      "type": "function"
    },
    {
      "inputs": [],
      "name": "getWinners",
      "outputs": [
        {
          "internalType": "address[]",
          "name": "",
          "type": "address[]"
        }
      ],
      "stateMutability": "view",
      "type": "function"
    },
    {
      "inputs": [
        {
          "internalType": "address",
          "name": "account",
          "type": "address"
        },
        {
          "internalType": "address",
          "name": "operator",
          "type": "address"
        }
      ],
      "name": "isApprovedForAll",
      "outputs": [
        {
          "internalType": "bool",
          "name": "",
          "type": "bool"
        }
      ],
      "stateMutability": "view",
      "type": "function"
    },
    {
      "inputs": [],
      "name": "jackpot",
      "outputs": [
        {
          "internalType": "uint256",
          "name": "",
          "type": "uint256"
        }
      ],
      "stateMutability": "view",
      "type": "function"
    },
    {
      "inputs": [],
      "name": "owner",
      "outputs": [
        {
          "internalType": "address",
          "name": "",
          "type": "address"
        }
      ],
      "stateMutability": "view",
      "type": "function"
    },
    {
      "inputs": [],
      "name": "paused",
      "outputs": [
        {
          "internalType": "bool",
          "name": "",
          "type": "bool"
        }
      ],
      "stateMutability": "view",
      "type": "function"
    },
    {
      "inputs": [],
      "name": "payout",
      "outputs": [],
      "stateMutability": "nonpayable",
      "type": "function"
    },
    {
      "inputs": [],
      "name": "playerCount",
      "outputs": [
        {
          "internalType": "uint256",
          "name": "",
          "type": "uint256"
        }
      ],
      "stateMutability": "view",
      "type": "function"
    },
    {
      "inputs": [
        {
          "internalType": "address",
          "name": "",
          "type": "address"
        }
      ],
      "name": "players",
      "outputs": [
        {
          "internalType": "bool",
          "name": "",
          "type": "bool"
        }
      ],
      "stateMutability": "view",
      "type": "function"
    },
    {
      "inputs": [
        {
          "internalType": "address",
          "name": "player",
          "type": "address"
        }
      ],
      "name": "registerPlayer",
      "outputs": [],
      "stateMutability": "nonpayable",
      "type": "function"
    },
    {
      "inputs": [],
      "name": "renounceOwnership",
      "outputs": [],
      "stateMutability": "nonpayable",
      "type": "function"
    },
    {
      "inputs": [
        {
          "internalType": "address",
          "name": "from",
          "type": "address"
        },
        {
          "internalType": "address",
          "name": "to",
          "type": "address"
        },
        {
          "internalType": "uint256[]",
          "name": "ids",
          "type": "uint256[]"
        },
        {
          "internalType": "uint256[]",
          "name": "amounts",
          "type": "uint256[]"
        },
        {
          "internalType": "bytes",
          "name": "data",
          "type": "bytes"
        }
      ],
      "name": "safeBatchTransferFrom",
      "outputs": [],
      "stateMutability": "nonpayable",
      "type": "function"
    },
    {
      "inputs": [
        {
          "internalType": "address",
          "name": "from",
          "type": "address"
        },
        {
          "internalType": "address",
          "name": "to",
          "type": "address"
        },
        {
          "internalType": "uint256",
          "name": "id",
          "type": "uint256"
        },
        {
          "internalType": "uint256",
          "name": "amount",
          "type": "uint256"
        },
        {
          "internalType": "bytes",
          "name": "data",
          "type": "bytes"
        }
      ],
      "name": "safeTransferFrom",
      "outputs": [],
      "stateMutability": "nonpayable",
      "type": "function"
    },
    {
      "inputs": [
        {
          "internalType": "uint256",
          "name": "tokenId",
          "type": "uint256"
        }
      ],
      "name": "sell",
      "outputs": [],
      "stateMutability": "nonpayable",
      "type": "function"
    },
    {
      "inputs": [
        {
          "internalType": "address",
          "name": "operator",
          "type": "address"
        },
        {
          "internalType": "bool",
          "name": "approved",
          "type": "bool"
        }
      ],
      "name": "setApprovalForAll",
      "outputs": [],
      "stateMutability": "nonpayable",
      "type": "function"
    },
    {
      "inputs": [
        {
          "internalType": "bytes4",
          "name": "interfaceId",
          "type": "bytes4"
        }
      ],
      "name": "supportsInterface",
      "outputs": [
        {
          "internalType": "bool",
          "name": "",
          "type": "bool"
        }
      ],
      "stateMutability": "view",
      "type": "function"
    },
    {
      "inputs": [
        {
          "internalType": "uint256",
          "name": "id",
          "type": "uint256"
        }
      ],
      "name": "totalSupply",
      "outputs": [
        {
          "internalType": "uint256",
          "name": "",
          "type": "uint256"
        }
      ],
      "stateMutability": "view",
      "type": "function"
    },
    {
      "inputs": [
        {
          "internalType": "address",
          "name": "newOwner",
          "type": "address"
        }
      ],
      "name": "transferOwnership",
      "outputs": [],
      "stateMutability": "nonpayable",
      "type": "function"
    },
    {
      "inputs": [
        {
          "internalType": "uint256",
          "name": "",
          "type": "uint256"
        }
      ],
      "name": "uri",
      "outputs": [
        {
          "internalType": "string",
          "name": "",
          "type": "string"
        }
      ],
      "stateMutability": "view",
      "type": "function"
    },
    {
      "inputs": [],
      "name": "usdc",
      "outputs": [
        {
          "internalType": "contract IERC20",
          "name": "",
          "type": "address"
        }
      ],
      "stateMutability": "view",
      "type": "function"
    },
    {
      "inputs": [
        {
          "internalType": "uint256",
          "name": "",
          "type": "uint256"
        }
      ],
      "name": "winners",
      "outputs": [
        {
          "internalType": "address",
          "name": "",
          "type": "address"
        }
      ],
      "stateMutability": "view",
      "type": "function"
    }
  ],
  "bytecode": "0x60806040526000600f556013805460ff19169055601680546001600160a01b03191673e11a86849d99f524cac3e7a0ec1241828e332c621790553480156200004657600080fd5b50604051620037b3380380620037b383398101604081905262000069916200044e565b6040518060600160405280602d815260200162003786602d91396200008e8162000293565b506200009a33620002ac565b6004805460ff60a01b191690556001600555600884905560068490556009839055600783905560006002620000d0858762000484565b600754600654620000e29190620004e2565b620000ef90600162000484565b620000fb9190620004c0565b6200010791906200049f565b905081620001176002836200049f565b10156200016b5760405162461bcd60e51b815260206004820152601e60248201527f4a61636b706f7420746f6f206c6172676520666f72207468652067616d65000060448201526064015b60405180910390fd5b60158290556008546200018e57634e487b7160e01b600052600160045260246000fd5b600060095411620001af57634e487b7160e01b600052600160045260246000fd5b60095460085411620001d157634e487b7160e01b600052600160045260246000fd5b600a839055600c60205260007f13649b2456f1b42fef0f0040b3aaeabcd21a76a0f3f5defd4f583839455116e8819055600181527fd421a5181c571bba3f01190c922c3b2a896fc1d84e86c9f17ac10e67ebef8b5c5562000234836002620004c0565b600b555050600d602052505060007f81955a0a11e65eac625c29e8882660bae4e165a75d72780094acae8ece9a29ee819055600181527ffd54ff1ed53f34a900b24c5ba64f85761163b5d82d98a47b9bd80e45466993c555506200054f565b8051620002a8906002906020840190620003a8565b5050565b6000620002c16004546001600160a01b031690565b6001600160a01b03161480620002e457506004546001600160a01b038281169116145b6200033d5760405162461bcd60e51b815260206004820152602260248201527f48494c4f3a2063616e6e6f74207472616e73666572206f776e65727368697020604482015261746f60f01b606482015260840162000162565b62000353816200035660201b620013c91760201c565b50565b600480546001600160a01b038381166001600160a01b0319831681179093556040519116919082907f8be0079c531659141344cd1fd0a4f28419497f9722a3daafe3b4186f6b6457e090600090a35050565b828054620003b690620004fc565b90600052602060002090601f016020900481019282620003da576000855562000425565b82601f10620003f557805160ff191683800117855562000425565b8280016001018555821562000425579182015b828111156200042557825182559160200191906001019062000408565b506200043392915062000437565b5090565b5b8082111562000433576000815560010162000438565b6000806000806080858703121562000464578384fd5b505082516020840151604085015160609095015191969095509092509050565b600082198211156200049a576200049a62000539565b500190565b600082620004bb57634e487b7160e01b81526012600452602481fd5b500490565b6000816000190483118215151615620004dd57620004dd62000539565b500290565b600082821015620004f757620004f762000539565b500390565b600181811c908216806200051157607f821691505b602082108114156200053357634e487b7160e01b600052602260045260246000fd5b50919050565b634e487b7160e01b600052601160045260246000fd5b613227806200055f6000396000f3fe608060405234801561001057600080fd5b50600436106101d95760003560e01c8063715018a611610104578063e2eb41ff116100a2578063f242432a11610071578063f242432a14610431578063f2e8dfdb14610444578063f2fde38b1461044c578063f5cf330b1461045f57600080fd5b8063e2eb41ff146103ac578063e4849b32146103cf578063e7572230146103e2578063e985e9c5146103f557600080fd5b8063a2fb1175116100de578063a2fb117514610351578063bd85b03914610364578063d96a094a14610384578063df15c37e1461039757600080fd5b8063715018a6146103255780638da5cb5b1461032d578063a22cb4651461033e57600080fd5b80634e1273f41161017c57806363bd1d4a1161014b57806363bd1d4a146102f957806368d2be8f146103015780636b31ee01146103095780636b5cc6d91461031257600080fd5b80634e1273f41461029d5780634ee14bab146102bd5780634f558e79146102c55780635c975abb146102e757600080fd5b80630e89341c116101b85780630e89341c146102345780632eb2c2d614610254578063302bcc57146102695780633e413bee1461027257600080fd5b8062fdd58e146101de57806301ffc9a714610204578063069a825c14610227575b600080fd5b6101f16101ec366004612af0565b610472565b6040519081526020015b60405180910390f35b610217610212366004612c00565b610509565b60405190151581526020016101fb565b6013546102179060ff1681565b610247610242366004612c38565b61055b565b6040516101fb9190612e74565b6102676102623660046129b1565b6105ef565b005b6101f160125481565b601654610285906001600160a01b031681565b6040516001600160a01b0390911681526020016101fb565b6102b06102ab366004612b19565b610686565b6040516101fb9190612e33565b6101f16107e8565b6102176102d3366004612c38565b600090815260036020526040902054151590565b600454600160a01b900460ff16610217565b6102676108a1565b6101f1600181565b6101f160155481565b61026761032036600461295e565b610b72565b610267610c79565b6004546001600160a01b0316610285565b61026761034c366004612aba565b610caf565b61028561035f366004612c38565b610cbe565b6101f1610372366004612c38565b60009081526003602052604090205490565b610267610392366004612c38565b610ce8565b61039f61108a565b6040516101fb9190612d90565b6102176103ba36600461295e565b60116020526000908152604090205460ff1681565b6102676103dd366004612c38565b6110ec565b6101f16103f0366004612c38565b611187565b61021761040336600461297f565b6001600160a01b03918216600090815260016020908152604080832093909416825291909152205460ff1690565b61026761043f366004612a57565b6111b4565b6101f1600081565b61026761045a36600461295e565b61123b565b6101f161046d366004612c38565b6112d6565b60006001600160a01b0383166104e35760405162461bcd60e51b815260206004820152602b60248201527f455243313135353a2062616c616e636520717565727920666f7220746865207a60448201526a65726f206164647265737360a81b60648201526084015b60405180910390fd5b506000908152602081815260408083206001600160a01b03949094168352929052205490565b60006001600160e01b03198216636cdb3d1360e11b148061053a57506001600160e01b031982166303a24d0760e21b145b8061055557506301ffc9a760e01b6001600160e01b03198316145b92915050565b60606002805461056a9061307c565b80601f01602080910402602001604051908101604052809291908181526020018280546105969061307c565b80156105e35780601f106105b8576101008083540402835291602001916105e3565b820191906000526020600020905b8154815290600101906020018083116105c657829003601f168201915b50505050509050919050565b6001600160a01b03851633148061060b575061060b8533610403565b6106725760405162461bcd60e51b815260206004820152603260248201527f455243313135353a207472616e736665722063616c6c6572206973206e6f74206044820152711bdddb995c881b9bdc88185c1c1c9bdd995960721b60648201526084016104da565b61067f858585858561141b565b5050505050565b606081518351146106eb5760405162461bcd60e51b815260206004820152602960248201527f455243313135353a206163636f756e747320616e6420696473206c656e677468604482015268040dad2e6dac2e8c6d60bb1b60648201526084016104da565b6000835167ffffffffffffffff81111561071557634e487b7160e01b600052604160045260246000fd5b60405190808252806020026020018201604052801561073e578160200160208202803683370190505b50905060005b84518110156107e0576107a585828151811061077057634e487b7160e01b600052603260045260246000fd5b602002602001015185838151811061079857634e487b7160e01b600052603260045260246000fd5b6020026020010151610472565b8282815181106107c557634e487b7160e01b600052603260045260246000fd5b60209081029190910101526107d9816130e4565b9050610744565b509392505050565b3360009081526011602052604081205460ff166108175760405162461bcd60e51b81526004016104da90612fbd565b600f546001905b600e5481101561089857336001600160a01b0316600e828154811061085357634e487b7160e01b600052603260045260246000fd5b60009182526020909120600290910201546001600160a01b031614156108795750919050565b61088460018361300e565b915080610890816130e4565b91505061081e565b50600091505090565b6004546001600160a01b031633146108cb5760405162461bcd60e51b81526004016104da90612f88565b6014546015546000906108e690670de0b6b3a7640000613046565b905060005b82811015610a495760006108ff8484613026565b601654601480549293506001600160a01b039091169163a9059cbb91908590811061093a57634e487b7160e01b600052603260045260246000fd5b60009182526020909120015460405160e083901b6001600160e01b03191681526001600160a01b03909116600482015260248101849052604401602060405180830381600087803b15801561098e57600080fd5b505af11580156109a2573d6000803e3d6000fd5b505050506040513d601f19601f820116820180604052508101906109c69190612be4565b507f88c519ab1745d32c7a1e2c97aa7817ca6e8046aaa146002b9ec1c8516ed6785460148381548110610a0957634e487b7160e01b600052603260045260246000fd5b60009182526020918290200154604080516001600160a01b0390921682529181018490520160405180910390a15080610a41816130e4565b9150506108eb565b506016546040516370a0823160e01b81523060048201526000916001600160a01b0316906370a082319060240160206040518083038186803b158015610a8e57600080fd5b505afa158015610aa2573d6000803e3d6000fd5b505050506040513d601f19601f82011682018060405250810190610ac69190612c50565b6016549091506001600160a01b031663a9059cbb610aec6004546001600160a01b031690565b6040516001600160e01b031960e084901b1681526001600160a01b03909116600482015260248101849052604401602060405180830381600087803b158015610b3457600080fd5b505af1158015610b48573d6000803e3d6000fd5b505050506040513d601f19601f82011682018060405250810190610b6c9190612be4565b50505050565b6004546001600160a01b03163314610b9c5760405162461bcd60e51b81526004016104da90612f88565b6001600160a01b03811660009081526011602052604090205460ff1615610c055760405162461bcd60e51b815260206004820152601960248201527f506c6179657220616c726561647920726567697374657265640000000000000060448201526064016104da565b6001600160a01b0381166000908152601160205260409020805460ff19166001908117909155601254610c379161300e565b6012556040516001600160a01b03821681527f8cd3331e32cec677d80b82cf0f71496605e7ed6ff864a3ccedc7d5d11d838c839060200160405180910390a150565b6004546001600160a01b03163314610ca35760405162461bcd60e51b81526004016104da90612f88565b610cad6000611622565b565b610cba3383836116b8565b5050565b60148181548110610cce57600080fd5b6000918252602090912001546001600160a01b0316905081565b600454600160a01b900460ff1615610d125760405162461bcd60e51b81526004016104da90612ecf565b3360009081526011602052604090205460ff16610d415760405162461bcd60e51b81526004016104da90612fbd565b801580610d4e5750600181145b610d8b5760405162461bcd60e51b815260206004820152600e60248201526d24b73b30b634b2103a37b5b2b71760911b60448201526064016104da565b610d96336000610472565b158015610dab5750610da9336001610472565b155b610e055760405162461bcd60e51b815260206004820152602560248201527f48494c4f3a2063616e6e6f742068617665206d6f7265207468616e206f6e65206044820152643a37b5b2b760d91b60648201526084016104da565b6000610e1082611187565b905060008111610e3057634e487b7160e01b600052600160045260246000fd5b600060075482148015610e435750600183145b80610e58575060065482148015610e58575082155b600b546000858152600d602052604090205460095460085493945091149114801590610e8857508180610e885750805b15610ed057610e9684611799565b60408051338152602081018690527f0d86730737b142fc160892fa8a0f2db687a92a0e294d1ad70624cf5acef03b84910160405180910390a15b610ee283670de0b6b3a7640000613046565b6016546040516370a0823160e01b81523360048201529194506000916001600160a01b03909116906370a082319060240160206040518083038186803b158015610f2b57600080fd5b505afa158015610f3f573d6000803e3d6000fd5b505050506040513d601f19601f82011682018060405250810190610f639190612c50565b905083811015610fb55760405162461bcd60e51b815260206004820152601a60248201527f496e73756666696369656e7420555344432062616c616e63652e00000000000060448201526064016104da565b6016546040516323b872dd60e01b8152336004820152306024820152604481018690526001600160a01b03909116906323b872dd90606401602060405180830381600087803b15801561100757600080fd5b505af115801561101b573d6000803e3d6000fd5b505050506040513d601f19601f8201168201806040525081019061103f9190612be4565b5061105c33866001604051806020016040528060008152506117d1565b8161106a5761106a856118f4565b600a546000868152600c6020526040902054141561067f5761067f61197a565b606060148054806020026020016040519081016040528092919081815260200182805480156110e257602002820191906000526020600020905b81546001600160a01b031681526001909101906020018083116110c4575b5050505050905090565b6002600554141561113f5760405162461bcd60e51b815260206004820152601f60248201527f5265656e7472616e637947756172643a207265656e7472616e742063616c6c0060448201526064016104da565b60026005553360009081526011602052604090205460ff166111735760405162461bcd60e51b81526004016104da90612fbd565b3361117e8183611a3e565b50506001600555565b60008161119657505060085490565b60018214156111a757505060095490565b506000919050565b919050565b6001600160a01b0385163314806111d057506111d08533610403565b61122e5760405162461bcd60e51b815260206004820152602960248201527f455243313135353a2063616c6c6572206973206e6f74206f776e6572206e6f7260448201526808185c1c1c9bdd995960ba1b60648201526084016104da565b61067f8585858585611d67565b6004546001600160a01b031633146112655760405162461bcd60e51b81526004016104da90612f88565b6001600160a01b0381166112ca5760405162461bcd60e51b815260206004820152602660248201527f4f776e61626c653a206e6577206f776e657220697320746865207a65726f206160448201526564647265737360d01b60648201526084016104da565b6112d381611622565b50565b3360009081526011602052604081205460ff166113055760405162461bcd60e51b81526004016104da90612fbd565b600061130f6107e8565b9050801561131d5792915050565b6040805180820190915233815260208101848152600e8054600181018255600082905283517fbb7b4a454dc3493923482f07822329ed19e8244eff582cc204f8554c3620c3fd600290920291820180546001600160a01b0319166001600160a01b0390921691909117905591517fbb7b4a454dc3493923482f07822329ed19e8244eff582cc204f8554c3620c3fe90920191909155600f5490546113c19190613065565b949350505050565b600480546001600160a01b038381166001600160a01b0319831681179093556040519116919082907f8be0079c531659141344cd1fd0a4f28419497f9722a3daafe3b4186f6b6457e090600090a35050565b815183511461147d5760405162461bcd60e51b815260206004820152602860248201527f455243313135353a2069647320616e6420616d6f756e7473206c656e677468206044820152670dad2e6dac2e8c6d60c31b60648201526084016104da565b6001600160a01b0384166114a35760405162461bcd60e51b81526004016104da90612ef9565b336114b2818787878787611e9f565b60005b84518110156115b45760008582815181106114e057634e487b7160e01b600052603260045260246000fd5b60200260200101519050600085838151811061150c57634e487b7160e01b600052603260045260246000fd5b602090810291909101810151600084815280835260408082206001600160a01b038e16835290935291909120549091508181101561155c5760405162461bcd60e51b81526004016104da90612f3e565b6000838152602081815260408083206001600160a01b038e8116855292528083208585039055908b1682528120805484929061159990849061300e565b92505081905550505050806115ad906130e4565b90506114b5565b50846001600160a01b0316866001600160a01b0316826001600160a01b03167f4a39dc06d4c0dbc64b70af90fd698a233a518aa5d07e595d983b8c0526c8f7fb8787604051611604929190612e46565b60405180910390a461161a818787878787611f40565b505050505050565b60006116366004546001600160a01b031690565b6001600160a01b0316148061165857506004546001600160a01b038281169116145b6116af5760405162461bcd60e51b815260206004820152602260248201527f48494c4f3a2063616e6e6f74207472616e73666572206f776e65727368697020604482015261746f60f01b60648201526084016104da565b6112d3816113c9565b816001600160a01b0316836001600160a01b0316141561172c5760405162461bcd60e51b815260206004820152602960248201527f455243313135353a2073657474696e6720617070726f76616c20737461747573604482015268103337b91039b2b63360b91b60648201526084016104da565b6001600160a01b03838116600081815260016020908152604080832094871680845294825291829020805460ff191686151590811790915591519182527f17307eab39ab6107e8899845ad3d59bd9653f200f220920489ca2b5937696c31910160405180910390a3505050565b806117ab576117a66120ab565b6117b3565b6117b36120fa565b6000908152600c60209081526040808320839055600d909152812055565b6001600160a01b0384166118315760405162461bcd60e51b815260206004820152602160248201527f455243313135353a206d696e7420746f20746865207a65726f206164647265736044820152607360f81b60648201526084016104da565b33600061183d8561215f565b9050600061184a8561215f565b905061185b83600089858589611e9f565b6000868152602081815260408083206001600160a01b038b1684529091528120805487929061188b90849061300e565b909155505060408051878152602081018790526001600160a01b03808a1692600092918716917fc3d58168c5ae7397731d063d5bbf3d657854427343f4c083240f7aacaa2d0f62910160405180910390a46118eb836000898989896121b8565b50505050505050565b600a546000828152600c60205260409020541015611936576000818152600c602052604090205461192690600161300e565b6000828152600c60205260409020555b600b546000828152600d602052604090205410156112d3576000818152600d602052604090205461196890600161300e565b6000828152600d602052604090205550565b600454600160a01b900460ff16156119a45760405162461bcd60e51b81526004016104da90612ecf565b600e546119ad57565b600f8054600091600e9190836119c2836130e4565b91905055815481106119e457634e487b7160e01b600052603260045260246000fd5b600091825260208083206040805180820190915260029093020180546001600160a01b0316808452600190910154918301829052919350611a259190610472565b905080611a30575050565b610cba826000015183602001515b600454600160a01b900460ff1615611a685760405162461bcd60e51b81526004016104da90612ecf565b801580611a755750600181145b611ab25760405162461bcd60e51b815260206004820152600e60248201526d24b73b30b634b2103a37b5b2b71760911b60448201526064016104da565b80158015611aca57506000611ac8836000610472565b115b80611aea5750600181148015611aea57506000611ae8836001610472565b115b611b485760405162461bcd60e51b815260206004820152602960248201527f48494c4f3a2063616e6e6f742073656c6c207768656e20796f752068617665206044820152686e6f20746f6b656e7360b81b60648201526084016104da565b600a546000828152600c60205260409020541480611bba5760405162461bcd60e51b815260206004820152602960248201527f48494c4f3a2063616e6e6f742073656c6c207768656e207468652073616c65206044820152681a5cc81b1bd8dad95960ba1b60648201526084016104da565b611bc48383612282565b6009546008541415611be657611be1611bdc83611187565b612347565b505050565b6000611bf183611187565b9050611c0581670de0b6b3a7640000613046565b60165460405163a9059cbb60e01b81526001600160a01b0387811660048301526024820184905292935091169063a9059cbb90604401602060405180830381600087803b158015611c5557600080fd5b505af1158015611c69573d6000803e3d6000fd5b505050506040513d601f19601f82011682018060405250810190611c8d9190612be4565b50611c9a848460016124a6565b611ca383611799565b604080516001600160a01b0386168152602081018590527f0d86730737b142fc160892fa8a0f2db687a92a0e294d1ad70624cf5acef03b84910160405180910390a182158015611cfb5750611cf9846001610472565b155b15610b6c57611d1c84600180604051806020016040528060008152506117d1565b6001600a54611d2b9190613065565b6001600052600c6020527fd421a5181c571bba3f01190c922c3b2a896fc1d84e86c9f17ac10e67ebef8b5c541015610b6c57610b6c60016118f4565b6001600160a01b038416611d8d5760405162461bcd60e51b81526004016104da90612ef9565b336000611d998561215f565b90506000611da68561215f565b9050611db6838989858589611e9f565b6000868152602081815260408083206001600160a01b038c16845290915290205485811015611df75760405162461bcd60e51b81526004016104da90612f3e565b6000878152602081815260408083206001600160a01b038d8116855292528083208985039055908a16825281208054889290611e3490849061300e565b909155505060408051888152602081018890526001600160a01b03808b16928c821692918816917fc3d58168c5ae7397731d063d5bbf3d657854427343f4c083240f7aacaa2d0f62910160405180910390a4611e94848a8a8a8a8a6121b8565b505050505050505050565b600454600160a01b900460ff1615611ec95760405162461bcd60e51b81526004016104da90612ecf565b6001600160a01b0385161580611ee657506001600160a01b038416155b611f325760405162461bcd60e51b815260206004820152601760248201527f48494c4f3a206e6f6e207472616e736665727261626c6500000000000000000060448201526064016104da565b61161a868686868686612636565b6001600160a01b0384163b1561161a5760405163bc197c8160e01b81526001600160a01b0385169063bc197c8190611f849089908990889088908890600401612ced565b602060405180830381600087803b158015611f9e57600080fd5b505af1925050508015611fce575060408051601f3d908101601f19168201909252611fcb91810190612c1c565b60015b61207b57611fda61312b565b806308c379a014156120145750611fef613143565b80611ffa5750612016565b8060405162461bcd60e51b81526004016104da9190612e74565b505b60405162461bcd60e51b815260206004820152603460248201527f455243313135353a207472616e7366657220746f206e6f6e20455243313135356044820152732932b1b2b4bb32b91034b6b83632b6b2b73a32b960611b60648201526084016104da565b6001600160e01b0319811663bc197c8160e01b146118eb5760405162461bcd60e51b81526004016104da90612e87565b60016008546120ba9190613065565b6008557f5a258dc6fce0816c9caf9835f08fa5596416dd55037714d2e51688cea5f062c56008546040516120f091815260200190565b60405180910390a1565b60095461210890600161300e565b6009819055600854101561212c57634e487b7160e01b600052600160045260246000fd5b7f3f9b5fbd1bfff0a78edef53fb452db3ea00eb6ea96cb06defcc66dd171bbca216009546040516120f091815260200190565b604080516001808252818301909252606091600091906020808301908036833701905050905082816000815181106121a757634e487b7160e01b600052603260045260246000fd5b602090810291909101015292915050565b6001600160a01b0384163b1561161a5760405163f23a6e6160e01b81526001600160a01b0385169063f23a6e61906121fc9089908990889088908890600401612d4b565b602060405180830381600087803b15801561221657600080fd5b505af1925050508015612246575060408051601f3d908101601f1916820190925261224391810190612c1c565b60015b61225257611fda61312b565b6001600160e01b0319811663f23a6e6160e01b146118eb5760405162461bcd60e51b81526004016104da90612e87565b600061228d82611187565b60408051606080820183526001600160a01b03878116808452602080850189815285870188815260008981526010845288812080546001808201835591835291859020895160039093020180546001600160a01b03191692909716919091178655915191850191909155516002909301929092558451908152908101879052928301849052929350917fc19f70d47acbbf1d2faf3a7944182cf6b5345c67d2156ed328ea510e72f13066910160405180910390a150505050565b6000601060006008548152602001908152602001600020805480602002602001604051908101604052809291908181526020016000905b828210156123d3576000848152602090819020604080516060810182526003860290920180546001600160a01b031683526001808201548486015260029091015491830191909152908352909201910161237e565b50505050905060005b815181101561245557601482828151811061240757634e487b7160e01b600052603260045260246000fd5b6020908102919091018101515182546001810184556000938452919092200180546001600160a01b0319166001600160a01b039092169190911790558061244d816130e4565b9150506123dc565b506013805460ff191660011790556040517f10dee8c2942b449b177825c6d5eb7131392949ec2008676761b93b00acea615a90612496906014908590612ddd565b60405180910390a1610cba6127e7565b6001600160a01b0383166125085760405162461bcd60e51b815260206004820152602360248201527f455243313135353a206275726e2066726f6d20746865207a65726f206164647260448201526265737360e81b60648201526084016104da565b3360006125148461215f565b905060006125218461215f565b905061254183876000858560405180602001604052806000815250611e9f565b6000858152602081815260408083206001600160a01b038a168452909152902054848110156125be5760405162461bcd60e51b8152602060048201526024808201527f455243313135353a206275726e20616d6f756e7420657863656564732062616c604482015263616e636560e01b60648201526084016104da565b6000868152602081815260408083206001600160a01b038b81168086529184528285208a8703905582518b81529384018a90529092908816917fc3d58168c5ae7397731d063d5bbf3d657854427343f4c083240f7aacaa2d0f62910160405180910390a46040805160208101909152600090526118eb565b6001600160a01b0385166126d95760005b83518110156126d75782818151811061267057634e487b7160e01b600052603260045260246000fd5b60200260200101516003600086848151811061269c57634e487b7160e01b600052603260045260246000fd5b6020026020010151815260200190815260200160002060008282546126c1919061300e565b909155506126d09050816130e4565b9050612647565b505b6001600160a01b03841661161a5760005b83518110156118eb57600084828151811061271557634e487b7160e01b600052603260045260246000fd5b60200260200101519050600084838151811061274157634e487b7160e01b600052603260045260246000fd5b60200260200101519050600060036000848152602001908152602001600020549050818110156127c45760405162461bcd60e51b815260206004820152602860248201527f455243313135353a206275726e20616d6f756e74206578636565647320746f74604482015267616c537570706c7960c01b60648201526084016104da565b600092835260036020526040909220910390556127e0816130e4565b90506126ea565b600454600160a01b900460ff16156128115760405162461bcd60e51b81526004016104da90612ecf565b6004805460ff60a01b1916600160a01b1790557f62e78cea01bee320cd4e420270b5ea74000d11b0c9f74754ebdbfc544b05a25861284c3390565b6040516001600160a01b0390911681526020016120f0565b80356001600160a01b03811681146111af57600080fd5b600082601f83011261288b578081fd5b8135602061289882612fea565b6040516128a582826130b7565b8381528281019150858301600585901b870184018810156128c4578586fd5b855b858110156128e2578135845292840192908401906001016128c6565b5090979650505050505050565b600082601f8301126128ff578081fd5b813567ffffffffffffffff81111561291957612919613115565b604051612930601f8301601f1916602001826130b7565b818152846020838601011115612944578283fd5b816020850160208301379081016020019190915292915050565b60006020828403121561296f578081fd5b61297882612864565b9392505050565b60008060408385031215612991578081fd5b61299a83612864565b91506129a860208401612864565b90509250929050565b600080600080600060a086880312156129c8578081fd5b6129d186612864565b94506129df60208701612864565b9350604086013567ffffffffffffffff808211156129fb578283fd5b612a0789838a0161287b565b94506060880135915080821115612a1c578283fd5b612a2889838a0161287b565b93506080880135915080821115612a3d578283fd5b50612a4a888289016128ef565b9150509295509295909350565b600080600080600060a08688031215612a6e578081fd5b612a7786612864565b9450612a8560208701612864565b93506040860135925060608601359150608086013567ffffffffffffffff811115612aae578182fd5b612a4a888289016128ef565b60008060408385031215612acc578182fd5b612ad583612864565b91506020830135612ae5816131cd565b809150509250929050565b60008060408385031215612b02578182fd5b612b0b83612864565b946020939093013593505050565b60008060408385031215612b2b578182fd5b823567ffffffffffffffff80821115612b42578384fd5b818501915085601f830112612b55578384fd5b81356020612b6282612fea565b604051612b6f82826130b7565b8381528281019150858301600585901b870184018b1015612b8e578889fd5b8896505b84871015612bb757612ba381612864565b835260019690960195918301918301612b92565b5096505086013592505080821115612bcd578283fd5b50612bda8582860161287b565b9150509250929050565b600060208284031215612bf5578081fd5b8151612978816131cd565b600060208284031215612c11578081fd5b8135612978816131db565b600060208284031215612c2d578081fd5b8151612978816131db565b600060208284031215612c49578081fd5b5035919050565b600060208284031215612c61578081fd5b5051919050565b6000815180845260208085019450808401835b83811015612c9757815187529582019590820190600101612c7b565b509495945050505050565b60008151808452815b81811015612cc757602081850181015186830182015201612cab565b81811115612cd85782602083870101525b50601f01601f19169290920160200192915050565b6001600160a01b0386811682528516602082015260a060408201819052600090612d1990830186612c68565b8281036060840152612d2b8186612c68565b90508281036080840152612d3f8185612ca2565b98975050505050505050565b6001600160a01b03868116825285166020820152604081018490526060810183905260a060808201819052600090612d8590830184612ca2565b979650505050505050565b6020808252825182820181905260009190848201906040850190845b81811015612dd15783516001600160a01b031683529284019291840191600101612dac565b50909695505050505050565b6000604082016040835280855480835260608501915086845260209250828420845b82811015612e245781546001600160a01b031684529284019260019182019101612dff565b50505092019290925292915050565b6020815260006129786020830184612c68565b604081526000612e596040830185612c68565b8281036020840152612e6b8185612c68565b95945050505050565b6020815260006129786020830184612ca2565b60208082526028908201527f455243313135353a204552433131353552656365697665722072656a656374656040820152676420746f6b656e7360c01b606082015260800190565b60208082526010908201526f14185d5cd8589b194e881c185d5cd95960821b604082015260600190565b60208082526025908201527f455243313135353a207472616e7366657220746f20746865207a65726f206164604082015264647265737360d81b606082015260800190565b6020808252602a908201527f455243313135353a20696e73756666696369656e742062616c616e636520666f60408201526939103a3930b739b332b960b11b606082015260800190565b6020808252818101527f4f776e61626c653a2063616c6c6572206973206e6f7420746865206f776e6572604082015260600190565b6020808252601390820152722ab73932b3b4b9ba32b932b210383630bcb2b960691b604082015260600190565b600067ffffffffffffffff82111561300457613004613115565b5060051b60200190565b60008219821115613021576130216130ff565b500190565b60008261304157634e487b7160e01b81526012600452602481fd5b500490565b6000816000190483118215151615613060576130606130ff565b500290565b600082821015613077576130776130ff565b500390565b600181811c9082168061309057607f821691505b602082108114156130b157634e487b7160e01b600052602260045260246000fd5b50919050565b601f8201601f1916810167ffffffffffffffff811182821017156130dd576130dd613115565b6040525050565b60006000198214156130f8576130f86130ff565b5060010190565b634e487b7160e01b600052601160045260246000fd5b634e487b7160e01b600052604160045260246000fd5b600060033d111561314057600481823e5160e01c5b90565b600060443d10156131515790565b6040516003193d81016004833e81513d67ffffffffffffffff816024840111818411171561318157505050505090565b82850191508151818111156131995750505050505090565b843d87010160208285010111156131b35750505050505090565b6131c2602082860101876130b7565b509095945050505050565b80151581146112d357600080fd5b6001600160e01b0319811681146112d357600080fdfea26469706673582212206d58566f32ad999294a5fb3206dbf80c6c759adfa6c8a8607583c4644c26ce5e64736f6c6343000804003368747470733a2f2f68696c6f2d65696768742e76657263656c2e6170702f6170692f746f6b656e732f7b69647d",
  "linkReferences": {},
  "deployedLinkReferences": {}
}