{
  "_format": "hh-sol-artifact-1",
  "contractName": "HILO",
  "sourceName": "contracts/HILO.sol",
  "abi": [
    {
      "inputs": [
        {
          "internalType": "uint256",
          "name": "_initialHi",
          "type": "uint256"
        },
        {
          "internalType": "uint256",
          "name": "_initialLo",
          "type": "uint256"
        },
        {
          "internalType": "uint256",
          "name": "_buyRequiredCount",
          "type": "uint256"
        },
        {
          "internalType": "uint256",
          "name": "_jackpot",
          "type": "uint256"
        }
      ],
      "stateMutability": "nonpayable",
      "type": "constructor"
    },
    {
      "anonymous": false,
      "inputs": [
        {
          "indexed": false,
          "internalType": "address",
          "name": "player",
          "type": "address"
        },
        {
          "indexed": false,
          "internalType": "uint256",
          "name": "tokenId",
          "type": "uint256"
        },
        {
          "indexed": false,
          "internalType": "uint256",
          "name": "price",
          "type": "uint256"
        }
      ],
      "name": "ActionAdded",
      "type": "event"
    },
    {
      "anonymous": false,
      "inputs": [
        {
          "indexed": true,
          "internalType": "address",
          "name": "account",
          "type": "address"
        },
        {
          "indexed": true,
          "internalType": "address",
          "name": "operator",
          "type": "address"
        },
        {
          "indexed": false,
          "internalType": "bool",
          "name": "approved",
          "type": "bool"
        }
      ],
      "name": "ApprovalForAll",
      "type": "event"
    },
    {
      "anonymous": false,
      "inputs": [
        {
          "indexed": false,
          "internalType": "uint256",
          "name": "newHiPrice",
          "type": "uint256"
        }
      ],
      "name": "HiDecreased",
      "type": "event"
    },
    {
      "anonymous": false,
      "inputs": [
        {
          "indexed": false,
          "internalType": "address",
          "name": "player",
          "type": "address"
        },
        {
          "indexed": false,
          "internalType": "uint256",
          "name": "amount",
          "type": "uint256"
        }
      ],
      "name": "JackpotPaid",
      "type": "event"
    },
    {
      "anonymous": false,
      "inputs": [
        {
          "indexed": false,
          "internalType": "uint256",
          "name": "newLoPrice",
          "type": "uint256"
        }
      ],
      "name": "LoIncreased",
      "type": "event"
    },
    {
      "anonymous": false,
      "inputs": [
        {
          "indexed": true,
          "internalType": "address",
          "name": "previousOwner",
          "type": "address"
        },
        {
          "indexed": true,
          "internalType": "address",
          "name": "newOwner",
          "type": "address"
        }
      ],
      "name": "OwnershipTransferred",
      "type": "event"
    },
    {
      "anonymous": false,
      "inputs": [
        {
          "indexed": false,
          "internalType": "address",
          "name": "account",
          "type": "address"
        }
      ],
      "name": "Paused",
      "type": "event"
    },
    {
      "anonymous": false,
      "inputs": [
        {
          "indexed": false,
          "internalType": "address",
          "name": "player",
          "type": "address"
        }
      ],
      "name": "PlayerRegistered",
      "type": "event"
    },
    {
      "anonymous": false,
      "inputs": [
        {
          "indexed": false,
          "internalType": "address",
          "name": "player",
          "type": "address"
        },
        {
          "indexed": false,
          "internalType": "uint256",
          "name": "tokenId",
          "type": "uint256"
        }
      ],
      "name": "PriceUpdated",
      "type": "event"
    },
    {
      "anonymous": false,
      "inputs": [
        {
          "indexed": false,
          "internalType": "address[]",
          "name": "winners",
          "type": "address[]"
        },
        {
          "indexed": false,
          "internalType": "uint256",
          "name": "price",
          "type": "uint256"
        }
      ],
      "name": "PricesConverged",
      "type": "event"
    },
    {
      "anonymous": false,
      "inputs": [
        {
          "indexed": true,
          "internalType": "address",
          "name": "operator",
          "type": "address"
        },
        {
          "indexed": true,
          "internalType": "address",
          "name": "from",
          "type": "address"
        },
        {
          "indexed": true,
          "internalType": "address",
          "name": "to",
          "type": "address"
        },
        {
          "indexed": false,
          "internalType": "uint256[]",
          "name": "ids",
          "type": "uint256[]"
        },
        {
          "indexed": false,
          "internalType": "uint256[]",
          "name": "values",
          "type": "uint256[]"
        }
      ],
      "name": "TransferBatch",
      "type": "event"
    },
    {
      "anonymous": false,
      "inputs": [
        {
          "indexed": true,
          "internalType": "address",
          "name": "operator",
          "type": "address"
        },
        {
          "indexed": true,
          "internalType": "address",
          "name": "from",
          "type": "address"
        },
        {
          "indexed": true,
          "internalType": "address",
          "name": "to",
          "type": "address"
        },
        {
          "indexed": false,
          "internalType": "uint256",
          "name": "id",
          "type": "uint256"
        },
        {
          "indexed": false,
          "internalType": "uint256",
          "name": "value",
          "type": "uint256"
        }
      ],
      "name": "TransferSingle",
      "type": "event"
    },
    {
      "anonymous": false,
      "inputs": [
        {
          "indexed": false,
          "internalType": "string",
          "name": "value",
          "type": "string"
        },
        {
          "indexed": true,
          "internalType": "uint256",
          "name": "id",
          "type": "uint256"
        }
      ],
      "name": "URI",
      "type": "event"
    },
    {
      "anonymous": false,
      "inputs": [
        {
          "indexed": false,
          "internalType": "address",
          "name": "account",
          "type": "address"
        }
      ],
      "name": "Unpaused",
      "type": "event"
    },
    {
      "inputs": [],
      "name": "HI",
      "outputs": [
        {
          "internalType": "uint256",
          "name": "",
          "type": "uint256"
        }
      ],
      "stateMutability": "view",
      "type": "function"
    },
    {
      "inputs": [],
      "name": "LO",
      "outputs": [
        {
          "internalType": "uint256",
          "name": "",
          "type": "uint256"
        }
      ],
      "stateMutability": "view",
      "type": "function"
    },
    {
      "inputs": [
        {
          "internalType": "uint256",
          "name": "tokenId",
          "type": "uint256"
        }
      ],
      "name": "addToQueue",
      "outputs": [
        {
          "internalType": "uint256",
          "name": "",
          "type": "uint256"
        }
      ],
      "stateMutability": "nonpayable",
      "type": "function"
    },
    {
      "inputs": [
        {
          "internalType": "address",
          "name": "account",
          "type": "address"
        },
        {
          "internalType": "uint256",
          "name": "id",
          "type": "uint256"
        }
      ],
      "name": "balanceOf",
      "outputs": [
        {
          "internalType": "uint256",
          "name": "",
          "type": "uint256"
        }
      ],
      "stateMutability": "view",
      "type": "function"
    },
    {
      "inputs": [
        {
          "internalType": "address[]",
          "name": "accounts",
          "type": "address[]"
        },
        {
          "internalType": "uint256[]",
          "name": "ids",
          "type": "uint256[]"
        }
      ],
      "name": "balanceOfBatch",
      "outputs": [
        {
          "internalType": "uint256[]",
          "name": "",
          "type": "uint256[]"
        }
      ],
      "stateMutability": "view",
      "type": "function"
    },
    {
      "inputs": [
        {
          "internalType": "uint256",
          "name": "tokenId",
          "type": "uint256"
        }
      ],
      "name": "buy",
      "outputs": [],
      "stateMutability": "nonpayable",
      "type": "function"
    },
    {
      "inputs": [],
      "name": "checkInQueue",
      "outputs": [
        {
          "internalType": "uint256",
          "name": "",
          "type": "uint256"
        }
      ],
      "stateMutability": "view",
      "type": "function"
    },
    {
      "inputs": [
        {
          "internalType": "address",
          "name": "player",
          "type": "address"
        }
      ],
      "name": "checkPlayerRegistered",
      "outputs": [
        {
          "internalType": "bool",
          "name": "",
          "type": "bool"
        }
      ],
      "stateMutability": "view",
      "type": "function"
    },
    {
      "inputs": [
        {
          "internalType": "uint256",
          "name": "id",
          "type": "uint256"
        }
      ],
      "name": "exists",
      "outputs": [
        {
          "internalType": "bool",
          "name": "",
          "type": "bool"
        }
      ],
      "stateMutability": "view",
      "type": "function"
    },
    {
      "inputs": [],
      "name": "gameWon",
      "outputs": [
        {
          "internalType": "bool",
          "name": "",
          "type": "bool"
        }
      ],
      "stateMutability": "view",
      "type": "function"
    },
    {
      "inputs": [
        {
          "internalType": "uint256",
          "name": "tokenId",
          "type": "uint256"
        }
      ],
      "name": "getPrice",
      "outputs": [
        {
          "internalType": "uint256",
          "name": "",
          "type": "uint256"
        }
      ],
      "stateMutability": "view",
      "type": "function"
    },
    {
      "inputs": [],
      "name": "getWinners",
      "outputs": [
        {
          "internalType": "address[]",
          "name": "",
          "type": "address[]"
        }
      ],
      "stateMutability": "view",
      "type": "function"
    },
    {
      "inputs": [
        {
          "internalType": "address",
          "name": "account",
          "type": "address"
        },
        {
          "internalType": "address",
          "name": "operator",
          "type": "address"
        }
      ],
      "name": "isApprovedForAll",
      "outputs": [
        {
          "internalType": "bool",
          "name": "",
          "type": "bool"
        }
      ],
      "stateMutability": "view",
      "type": "function"
    },
    {
      "inputs": [],
      "name": "jackpot",
      "outputs": [
        {
          "internalType": "uint256",
          "name": "",
          "type": "uint256"
        }
      ],
      "stateMutability": "view",
      "type": "function"
    },
    {
      "inputs": [],
      "name": "owner",
      "outputs": [
        {
          "internalType": "address",
          "name": "",
          "type": "address"
        }
      ],
      "stateMutability": "view",
      "type": "function"
    },
    {
      "inputs": [],
      "name": "paused",
      "outputs": [
        {
          "internalType": "bool",
          "name": "",
          "type": "bool"
        }
      ],
      "stateMutability": "view",
      "type": "function"
    },
    {
      "inputs": [],
      "name": "payout",
      "outputs": [],
      "stateMutability": "nonpayable",
      "type": "function"
    },
    {
      "inputs": [],
      "name": "playerCount",
      "outputs": [
        {
          "internalType": "uint256",
          "name": "",
          "type": "uint256"
        }
      ],
      "stateMutability": "view",
      "type": "function"
    },
    {
      "inputs": [
        {
          "internalType": "address",
          "name": "player",
          "type": "address"
        }
      ],
      "name": "registerPlayer",
      "outputs": [],
      "stateMutability": "nonpayable",
      "type": "function"
    },
    {
      "inputs": [],
      "name": "renounceOwnership",
      "outputs": [],
      "stateMutability": "nonpayable",
      "type": "function"
    },
    {
      "inputs": [
        {
          "internalType": "address",
          "name": "from",
          "type": "address"
        },
        {
          "internalType": "address",
          "name": "to",
          "type": "address"
        },
        {
          "internalType": "uint256[]",
          "name": "ids",
          "type": "uint256[]"
        },
        {
          "internalType": "uint256[]",
          "name": "amounts",
          "type": "uint256[]"
        },
        {
          "internalType": "bytes",
          "name": "data",
          "type": "bytes"
        }
      ],
      "name": "safeBatchTransferFrom",
      "outputs": [],
      "stateMutability": "nonpayable",
      "type": "function"
    },
    {
      "inputs": [
        {
          "internalType": "address",
          "name": "from",
          "type": "address"
        },
        {
          "internalType": "address",
          "name": "to",
          "type": "address"
        },
        {
          "internalType": "uint256",
          "name": "id",
          "type": "uint256"
        },
        {
          "internalType": "uint256",
          "name": "amount",
          "type": "uint256"
        },
        {
          "internalType": "bytes",
          "name": "data",
          "type": "bytes"
        }
      ],
      "name": "safeTransferFrom",
      "outputs": [],
      "stateMutability": "nonpayable",
      "type": "function"
    },
    {
      "inputs": [
        {
          "internalType": "uint256",
          "name": "tokenId",
          "type": "uint256"
        }
      ],
      "name": "sell",
      "outputs": [],
      "stateMutability": "nonpayable",
      "type": "function"
    },
    {
      "inputs": [
        {
          "internalType": "address",
          "name": "operator",
          "type": "address"
        },
        {
          "internalType": "bool",
          "name": "approved",
          "type": "bool"
        }
      ],
      "name": "setApprovalForAll",
      "outputs": [],
      "stateMutability": "nonpayable",
      "type": "function"
    },
    {
      "inputs": [
        {
          "internalType": "bytes4",
          "name": "interfaceId",
          "type": "bytes4"
        }
      ],
      "name": "supportsInterface",
      "outputs": [
        {
          "internalType": "bool",
          "name": "",
          "type": "bool"
        }
      ],
      "stateMutability": "view",
      "type": "function"
    },
    {
      "inputs": [
        {
          "internalType": "uint256",
          "name": "id",
          "type": "uint256"
        }
      ],
      "name": "totalSupply",
      "outputs": [
        {
          "internalType": "uint256",
          "name": "",
          "type": "uint256"
        }
      ],
      "stateMutability": "view",
      "type": "function"
    },
    {
      "inputs": [
        {
          "internalType": "address",
          "name": "newOwner",
          "type": "address"
        }
      ],
      "name": "transferOwnership",
      "outputs": [],
      "stateMutability": "nonpayable",
      "type": "function"
    },
    {
      "inputs": [
        {
          "internalType": "uint256",
          "name": "",
          "type": "uint256"
        }
      ],
      "name": "uri",
      "outputs": [
        {
          "internalType": "string",
          "name": "",
          "type": "string"
        }
      ],
      "stateMutability": "view",
      "type": "function"
    },
    {
      "inputs": [],
      "name": "usdc",
      "outputs": [
        {
          "internalType": "contract IERC20",
          "name": "",
          "type": "address"
        }
      ],
      "stateMutability": "view",
      "type": "function"
    },
    {
      "inputs": [
        {
          "internalType": "uint256",
          "name": "",
          "type": "uint256"
        }
      ],
      "name": "winners",
      "outputs": [
        {
          "internalType": "address",
          "name": "",
          "type": "address"
        }
      ],
      "stateMutability": "view",
      "type": "function"
    }
  ],
  "bytecode": "0x60806040526000600f556013805460ff19169055601680546001600160a01b03191673e11a86849d99f524cac3e7a0ec1241828e332c621790553480156200004657600080fd5b50604051620036c9380380620036c98339810160408190526200006991620003a3565b6040518060600160405280602d81526020016200369c602d91396200008e8162000292565b506200009a33620002ab565b6004805460ff60a01b191690556001600555600884905560068490556009839055600783905560006002620000d08587620003d9565b600754600654620000e2919062000437565b620000ef906001620003d9565b620000fb919062000415565b620001079190620003f4565b90508162000117600283620003f4565b10156200016a5760405162461bcd60e51b815260206004820152601e60248201527f4a61636b706f7420746f6f206c6172676520666f72207468652067616d650000604482015260640160405180910390fd5b60158290556008546200018d57634e487b7160e01b600052600160045260246000fd5b600060095411620001ae57634e487b7160e01b600052600160045260246000fd5b60095460085411620001d057634e487b7160e01b600052600160045260246000fd5b600a839055600c60205260007f13649b2456f1b42fef0f0040b3aaeabcd21a76a0f3f5defd4f583839455116e8819055600181527fd421a5181c571bba3f01190c922c3b2a896fc1d84e86c9f17ac10e67ebef8b5c556200023383600262000415565b600b555050600d602052505060007f81955a0a11e65eac625c29e8882660bae4e165a75d72780094acae8ece9a29ee819055600181527ffd54ff1ed53f34a900b24c5ba64f85761163b5d82d98a47b9bd80e45466993c55550620004a4565b8051620002a7906002906020840190620002fd565b5050565b600480546001600160a01b038381166001600160a01b0319831681179093556040519116919082907f8be0079c531659141344cd1fd0a4f28419497f9722a3daafe3b4186f6b6457e090600090a35050565b8280546200030b9062000451565b90600052602060002090601f0160209004810192826200032f57600085556200037a565b82601f106200034a57805160ff19168380011785556200037a565b828001600101855582156200037a579182015b828111156200037a5782518255916020019190600101906200035d565b50620003889291506200038c565b5090565b5b808211156200038857600081556001016200038d565b60008060008060808587031215620003b9578384fd5b505082516020840151604085015160609095015191969095509092509050565b60008219821115620003ef57620003ef6200048e565b500190565b6000826200041057634e487b7160e01b81526012600452602481fd5b500490565b60008160001904831182151516156200043257620004326200048e565b500290565b6000828210156200044c576200044c6200048e565b500390565b600181811c908216806200046657607f821691505b602082108114156200048857634e487b7160e01b600052602260045260246000fd5b50919050565b634e487b7160e01b600052601160045260246000fd5b6131e880620004b46000396000f3fe608060405234801561001057600080fd5b50600436106101d95760003560e01c80636b5cc6d911610104578063df15c37e116100a2578063f242432a11610071578063f242432a1461043a578063f2e8dfdb1461044d578063f2fde38b14610455578063f5cf330b1461046857600080fd5b8063df15c37e146103c3578063e4849b32146103d8578063e7572230146103eb578063e985e9c5146103fe57600080fd5b8063a22cb465116100de578063a22cb4651461036a578063a2fb11751461037d578063bd85b03914610390578063d96a094a146103b057600080fd5b80636b5cc6d91461033e578063715018a6146103515780638da5cb5b1461035957600080fd5b80634e1273f41161017c5780635c975abb1161014b5780635c975abb1461031357806363bd1d4a1461032557806368d2be8f1461032d5780636b31ee011461033557600080fd5b80634e1273f41461029d5780634ee14bab146102bd5780634f558e79146102c5578063581458b9146102e757600080fd5b80630e89341c116101b85780630e89341c146102345780632eb2c2d614610254578063302bcc57146102695780633e413bee1461027257600080fd5b8062fdd58e146101de57806301ffc9a714610204578063069a825c14610227575b600080fd5b6101f16101ec366004612ab1565b61047b565b6040519081526020015b60405180910390f35b610217610212366004612bc1565b610512565b60405190151581526020016101fb565b6013546102179060ff1681565b610247610242366004612bf9565b610564565b6040516101fb9190612e35565b610267610262366004612972565b6105f8565b005b6101f160125481565b601654610285906001600160a01b031681565b6040516001600160a01b0390911681526020016101fb565b6102b06102ab366004612ada565b61068f565b6040516101fb9190612df4565b6101f16107f1565b6102176102d3366004612bf9565b600090815260036020526040902054151590565b6102176102f536600461291f565b6001600160a01b031660009081526011602052604090205460011490565b600454600160a01b900460ff16610217565b6102676108aa565b6101f1600181565b6101f160155481565b61026761034c36600461291f565b610bcb565b610267610cd0565b6004546001600160a01b0316610285565b610267610378366004612a7b565b610d06565b61028561038b366004612bf9565b610d15565b6101f161039e366004612bf9565b60009081526003602052604090205490565b6102676103be366004612bf9565b610d3f565b6103cb6110e1565b6040516101fb9190612d51565b6102676103e6366004612bf9565b611143565b6101f16103f9366004612bf9565b6111de565b61021761040c366004612940565b6001600160a01b03918216600090815260016020908152604080832093909416825291909152205460ff1690565b610267610448366004612a18565b61120b565b6101f1600081565b61026761046336600461291f565b611292565b6101f1610476366004612bf9565b61132d565b60006001600160a01b0383166104ec5760405162461bcd60e51b815260206004820152602b60248201527f455243313135353a2062616c616e636520717565727920666f7220746865207a60448201526a65726f206164647265737360a81b60648201526084015b60405180910390fd5b506000908152602081815260408083206001600160a01b03949094168352929052205490565b60006001600160e01b03198216636cdb3d1360e11b148061054357506001600160e01b031982166303a24d0760e21b145b8061055e57506301ffc9a760e01b6001600160e01b03198316145b92915050565b6060600280546105739061303d565b80601f016020809104026020016040519081016040528092919081815260200182805461059f9061303d565b80156105ec5780601f106105c1576101008083540402835291602001916105ec565b820191906000526020600020905b8154815290600101906020018083116105cf57829003601f168201915b50505050509050919050565b6001600160a01b0385163314806106145750610614853361040c565b61067b5760405162461bcd60e51b815260206004820152603260248201527f455243313135353a207472616e736665722063616c6c6572206973206e6f74206044820152711bdddb995c881b9bdc88185c1c1c9bdd995960721b60648201526084016104e3565b6106888585858585611420565b5050505050565b606081518351146106f45760405162461bcd60e51b815260206004820152602960248201527f455243313135353a206163636f756e747320616e6420696473206c656e677468604482015268040dad2e6dac2e8c6d60bb1b60648201526084016104e3565b6000835167ffffffffffffffff81111561071e57634e487b7160e01b600052604160045260246000fd5b604051908082528060200260200182016040528015610747578160200160208202803683370190505b50905060005b84518110156107e9576107ae85828151811061077957634e487b7160e01b600052603260045260246000fd5b60200260200101518583815181106107a157634e487b7160e01b600052603260045260246000fd5b602002602001015161047b565b8282815181106107ce57634e487b7160e01b600052603260045260246000fd5b60209081029190910101526107e2816130a5565b905061074d565b509392505050565b336000908152601160205260408120546001146108205760405162461bcd60e51b81526004016104e390612f7e565b600f546001905b600e548110156108a157336001600160a01b0316600e828154811061085c57634e487b7160e01b600052603260045260246000fd5b60009182526020909120600290910201546001600160a01b031614156108825750919050565b61088d600183612fcf565b915080610899816130a5565b915050610827565b50600091505090565b6004546001600160a01b031633146108d45760405162461bcd60e51b81526004016104e390612f49565b600454600160a01b900460ff166109245760405162461bcd60e51b815260206004820152601460248201527314185d5cd8589b194e881b9bdd081c185d5cd95960621b60448201526064016104e3565b60145460155460009061093f90670de0b6b3a7640000613007565b905060005b82811015610aa25760006109588484612fe7565b601654601480549293506001600160a01b039091169163a9059cbb91908590811061099357634e487b7160e01b600052603260045260246000fd5b60009182526020909120015460405160e083901b6001600160e01b03191681526001600160a01b03909116600482015260248101849052604401602060405180830381600087803b1580156109e757600080fd5b505af11580156109fb573d6000803e3d6000fd5b505050506040513d601f19601f82011682018060405250810190610a1f9190612ba5565b507f88c519ab1745d32c7a1e2c97aa7817ca6e8046aaa146002b9ec1c8516ed6785460148381548110610a6257634e487b7160e01b600052603260045260246000fd5b60009182526020918290200154604080516001600160a01b0390921682529181018490520160405180910390a15080610a9a816130a5565b915050610944565b506016546040516370a0823160e01b81523060048201526000916001600160a01b0316906370a082319060240160206040518083038186803b158015610ae757600080fd5b505afa158015610afb573d6000803e3d6000fd5b505050506040513d601f19601f82011682018060405250810190610b1f9190612c11565b6016549091506001600160a01b031663a9059cbb610b456004546001600160a01b031690565b6040516001600160e01b031960e084901b1681526001600160a01b03909116600482015260248101849052604401602060405180830381600087803b158015610b8d57600080fd5b505af1158015610ba1573d6000803e3d6000fd5b505050506040513d601f19601f82011682018060405250810190610bc59190612ba5565b50505050565b6004546001600160a01b03163314610bf55760405162461bcd60e51b81526004016104e390612f49565b6001600160a01b03811660009081526011602052604090205415610c5b5760405162461bcd60e51b815260206004820152601960248201527f506c6179657220616c726561647920726567697374657265640000000000000060448201526064016104e3565b6001600160a01b03811660009081526011602052604081206001908190556012805491929091610c8c908490612fcf565b90915550506040516001600160a01b03821681527f8cd3331e32cec677d80b82cf0f71496605e7ed6ff864a3ccedc7d5d11d838c839060200160405180910390a150565b6004546001600160a01b03163314610cfa5760405162461bcd60e51b81526004016104e390612f49565b610d046000611627565b565b610d11338383611679565b5050565b60148181548110610d2557600080fd5b6000918252602090912001546001600160a01b0316905081565b600454600160a01b900460ff1615610d695760405162461bcd60e51b81526004016104e390612e90565b33600090815260116020526040902054600114610d985760405162461bcd60e51b81526004016104e390612f7e565b801580610da55750600181145b610de25760405162461bcd60e51b815260206004820152600e60248201526d24b73b30b634b2103a37b5b2b71760911b60448201526064016104e3565b610ded33600061047b565b158015610e025750610e0033600161047b565b155b610e5c5760405162461bcd60e51b815260206004820152602560248201527f48494c4f3a2063616e6e6f742068617665206d6f7265207468616e206f6e65206044820152643a37b5b2b760d91b60648201526084016104e3565b6000610e67826111de565b905060008111610e8757634e487b7160e01b600052600160045260246000fd5b600060075482148015610e9a5750600183145b80610eaf575060065482148015610eaf575082155b600b546000858152600d602052604090205460095460085493945091149114801590610edf57508180610edf5750805b15610f2757610eed8461175a565b60408051338152602081018690527f0d86730737b142fc160892fa8a0f2db687a92a0e294d1ad70624cf5acef03b84910160405180910390a15b610f3983670de0b6b3a7640000613007565b6016546040516370a0823160e01b81523360048201529194506000916001600160a01b03909116906370a082319060240160206040518083038186803b158015610f8257600080fd5b505afa158015610f96573d6000803e3d6000fd5b505050506040513d601f19601f82011682018060405250810190610fba9190612c11565b90508381101561100c5760405162461bcd60e51b815260206004820152601a60248201527f496e73756666696369656e7420555344432062616c616e63652e00000000000060448201526064016104e3565b6016546040516323b872dd60e01b8152336004820152306024820152604481018690526001600160a01b03909116906323b872dd90606401602060405180830381600087803b15801561105e57600080fd5b505af1158015611072573d6000803e3d6000fd5b505050506040513d601f19601f820116820180604052508101906110969190612ba5565b506110b33386600160405180602001604052806000815250611792565b816110c1576110c1856118b5565b600a546000868152600c602052604090205414156106885761068861193b565b6060601480548060200260200160405190810160405280929190818152602001828054801561113957602002820191906000526020600020905b81546001600160a01b0316815260019091019060200180831161111b575b5050505050905090565b600260055414156111965760405162461bcd60e51b815260206004820152601f60248201527f5265656e7472616e637947756172643a207265656e7472616e742063616c6c0060448201526064016104e3565b6002600555336000908152601160205260409020546001146111ca5760405162461bcd60e51b81526004016104e390612f7e565b336111d581836119ff565b50506001600555565b6000816111ed57505060085490565b60018214156111fe57505060095490565b506000919050565b919050565b6001600160a01b0385163314806112275750611227853361040c565b6112855760405162461bcd60e51b815260206004820152602960248201527f455243313135353a2063616c6c6572206973206e6f74206f776e6572206e6f7260448201526808185c1c1c9bdd995960ba1b60648201526084016104e3565b6106888585858585611d28565b6004546001600160a01b031633146112bc5760405162461bcd60e51b81526004016104e390612f49565b6001600160a01b0381166113215760405162461bcd60e51b815260206004820152602660248201527f4f776e61626c653a206e6577206f776e657220697320746865207a65726f206160448201526564647265737360d01b60648201526084016104e3565b61132a81611627565b50565b3360009081526011602052604081205460011461135c5760405162461bcd60e51b81526004016104e390612f7e565b60006113666107f1565b905080156113745792915050565b6040805180820190915233815260208101848152600e8054600181018255600082905283517fbb7b4a454dc3493923482f07822329ed19e8244eff582cc204f8554c3620c3fd600290920291820180546001600160a01b0319166001600160a01b0390921691909117905591517fbb7b4a454dc3493923482f07822329ed19e8244eff582cc204f8554c3620c3fe90920191909155600f5490546114189190613026565b949350505050565b81518351146114825760405162461bcd60e51b815260206004820152602860248201527f455243313135353a2069647320616e6420616d6f756e7473206c656e677468206044820152670dad2e6dac2e8c6d60c31b60648201526084016104e3565b6001600160a01b0384166114a85760405162461bcd60e51b81526004016104e390612eba565b336114b7818787878787611e60565b60005b84518110156115b95760008582815181106114e557634e487b7160e01b600052603260045260246000fd5b60200260200101519050600085838151811061151157634e487b7160e01b600052603260045260246000fd5b602090810291909101810151600084815280835260408082206001600160a01b038e1683529093529190912054909150818110156115615760405162461bcd60e51b81526004016104e390612eff565b6000838152602081815260408083206001600160a01b038e8116855292528083208585039055908b1682528120805484929061159e908490612fcf565b92505081905550505050806115b2906130a5565b90506114ba565b50846001600160a01b0316866001600160a01b0316826001600160a01b03167f4a39dc06d4c0dbc64b70af90fd698a233a518aa5d07e595d983b8c0526c8f7fb8787604051611609929190612e07565b60405180910390a461161f818787878787611f01565b505050505050565b600480546001600160a01b038381166001600160a01b0319831681179093556040519116919082907f8be0079c531659141344cd1fd0a4f28419497f9722a3daafe3b4186f6b6457e090600090a35050565b816001600160a01b0316836001600160a01b031614156116ed5760405162461bcd60e51b815260206004820152602960248201527f455243313135353a2073657474696e6720617070726f76616c20737461747573604482015268103337b91039b2b63360b91b60648201526084016104e3565b6001600160a01b03838116600081815260016020908152604080832094871680845294825291829020805460ff191686151590811790915591519182527f17307eab39ab6107e8899845ad3d59bd9653f200f220920489ca2b5937696c31910160405180910390a3505050565b8061176c5761176761206c565b611774565b6117746120bb565b6000908152600c60209081526040808320839055600d909152812055565b6001600160a01b0384166117f25760405162461bcd60e51b815260206004820152602160248201527f455243313135353a206d696e7420746f20746865207a65726f206164647265736044820152607360f81b60648201526084016104e3565b3360006117fe85612120565b9050600061180b85612120565b905061181c83600089858589611e60565b6000868152602081815260408083206001600160a01b038b1684529091528120805487929061184c908490612fcf565b909155505060408051878152602081018790526001600160a01b03808a1692600092918716917fc3d58168c5ae7397731d063d5bbf3d657854427343f4c083240f7aacaa2d0f62910160405180910390a46118ac83600089898989612179565b50505050505050565b600a546000828152600c602052604090205410156118f7576000818152600c60205260409020546118e7906001612fcf565b6000828152600c60205260409020555b600b546000828152600d6020526040902054101561132a576000818152600d6020526040902054611929906001612fcf565b6000828152600d602052604090205550565b600454600160a01b900460ff16156119655760405162461bcd60e51b81526004016104e390612e90565b600e5461196e57565b600f8054600091600e919083611983836130a5565b91905055815481106119a557634e487b7160e01b600052603260045260246000fd5b600091825260208083206040805180820190915260029093020180546001600160a01b03168084526001909101549183018290529193506119e6919061047b565b9050806119f1575050565b610d11826000015183602001515b600454600160a01b900460ff1615611a295760405162461bcd60e51b81526004016104e390612e90565b801580611a365750600181145b611a735760405162461bcd60e51b815260206004820152600e60248201526d24b73b30b634b2103a37b5b2b71760911b60448201526064016104e3565b80158015611a8b57506000611a8983600061047b565b115b80611aab5750600181148015611aab57506000611aa983600161047b565b115b611b095760405162461bcd60e51b815260206004820152602960248201527f48494c4f3a2063616e6e6f742073656c6c207768656e20796f752068617665206044820152686e6f20746f6b656e7360b81b60648201526084016104e3565b600a546000828152600c60205260409020541480611b7b5760405162461bcd60e51b815260206004820152602960248201527f48494c4f3a2063616e6e6f742073656c6c207768656e207468652073616c65206044820152681a5cc81b1bd8dad95960ba1b60648201526084016104e3565b611b858383612243565b6009546008541415611ba757611ba2611b9d836111de565b612308565b505050565b6000611bb2836111de565b9050611bc681670de0b6b3a7640000613007565b60165460405163a9059cbb60e01b81526001600160a01b0387811660048301526024820184905292935091169063a9059cbb90604401602060405180830381600087803b158015611c1657600080fd5b505af1158015611c2a573d6000803e3d6000fd5b505050506040513d601f19601f82011682018060405250810190611c4e9190612ba5565b50611c5b84846001612467565b611c648361175a565b604080516001600160a01b0386168152602081018590527f0d86730737b142fc160892fa8a0f2db687a92a0e294d1ad70624cf5acef03b84910160405180910390a182158015611cbc5750611cba84600161047b565b155b15610bc557611cdd8460018060405180602001604052806000815250611792565b6001600a54611cec9190613026565b6001600052600c6020527fd421a5181c571bba3f01190c922c3b2a896fc1d84e86c9f17ac10e67ebef8b5c541015610bc557610bc560016118b5565b6001600160a01b038416611d4e5760405162461bcd60e51b81526004016104e390612eba565b336000611d5a85612120565b90506000611d6785612120565b9050611d77838989858589611e60565b6000868152602081815260408083206001600160a01b038c16845290915290205485811015611db85760405162461bcd60e51b81526004016104e390612eff565b6000878152602081815260408083206001600160a01b038d8116855292528083208985039055908a16825281208054889290611df5908490612fcf565b909155505060408051888152602081018890526001600160a01b03808b16928c821692918816917fc3d58168c5ae7397731d063d5bbf3d657854427343f4c083240f7aacaa2d0f62910160405180910390a4611e55848a8a8a8a8a612179565b505050505050505050565b600454600160a01b900460ff1615611e8a5760405162461bcd60e51b81526004016104e390612e90565b6001600160a01b0385161580611ea757506001600160a01b038416155b611ef35760405162461bcd60e51b815260206004820152601760248201527f48494c4f3a206e6f6e207472616e736665727261626c6500000000000000000060448201526064016104e3565b61161f8686868686866125f7565b6001600160a01b0384163b1561161f5760405163bc197c8160e01b81526001600160a01b0385169063bc197c8190611f459089908990889088908890600401612cae565b602060405180830381600087803b158015611f5f57600080fd5b505af1925050508015611f8f575060408051601f3d908101601f19168201909252611f8c91810190612bdd565b60015b61203c57611f9b6130ec565b806308c379a01415611fd55750611fb0613104565b80611fbb5750611fd7565b8060405162461bcd60e51b81526004016104e39190612e35565b505b60405162461bcd60e51b815260206004820152603460248201527f455243313135353a207472616e7366657220746f206e6f6e20455243313135356044820152732932b1b2b4bb32b91034b6b83632b6b2b73a32b960611b60648201526084016104e3565b6001600160e01b0319811663bc197c8160e01b146118ac5760405162461bcd60e51b81526004016104e390612e48565b600160085461207b9190613026565b6008557f5a258dc6fce0816c9caf9835f08fa5596416dd55037714d2e51688cea5f062c56008546040516120b191815260200190565b60405180910390a1565b6009546120c9906001612fcf565b600981905560085410156120ed57634e487b7160e01b600052600160045260246000fd5b7f3f9b5fbd1bfff0a78edef53fb452db3ea00eb6ea96cb06defcc66dd171bbca216009546040516120b191815260200190565b6040805160018082528183019092526060916000919060208083019080368337019050509050828160008151811061216857634e487b7160e01b600052603260045260246000fd5b602090810291909101015292915050565b6001600160a01b0384163b1561161f5760405163f23a6e6160e01b81526001600160a01b0385169063f23a6e61906121bd9089908990889088908890600401612d0c565b602060405180830381600087803b1580156121d757600080fd5b505af1925050508015612207575060408051601f3d908101601f1916820190925261220491810190612bdd565b60015b61221357611f9b6130ec565b6001600160e01b0319811663f23a6e6160e01b146118ac5760405162461bcd60e51b81526004016104e390612e48565b600061224e826111de565b60408051606080820183526001600160a01b03878116808452602080850189815285870188815260008981526010845288812080546001808201835591835291859020895160039093020180546001600160a01b03191692909716919091178655915191850191909155516002909301929092558451908152908101879052928301849052929350917fc19f70d47acbbf1d2faf3a7944182cf6b5345c67d2156ed328ea510e72f13066910160405180910390a150505050565b6000601060006008548152602001908152602001600020805480602002602001604051908101604052809291908181526020016000905b82821015612394576000848152602090819020604080516060810182526003860290920180546001600160a01b031683526001808201548486015260029091015491830191909152908352909201910161233f565b50505050905060005b81518110156124165760148282815181106123c857634e487b7160e01b600052603260045260246000fd5b6020908102919091018101515182546001810184556000938452919092200180546001600160a01b0319166001600160a01b039092169190911790558061240e816130a5565b91505061239d565b506013805460ff191660011790556040517f10dee8c2942b449b177825c6d5eb7131392949ec2008676761b93b00acea615a90612457906014908590612d9e565b60405180910390a1610d116127a8565b6001600160a01b0383166124c95760405162461bcd60e51b815260206004820152602360248201527f455243313135353a206275726e2066726f6d20746865207a65726f206164647260448201526265737360e81b60648201526084016104e3565b3360006124d584612120565b905060006124e284612120565b905061250283876000858560405180602001604052806000815250611e60565b6000858152602081815260408083206001600160a01b038a1684529091529020548481101561257f5760405162461bcd60e51b8152602060048201526024808201527f455243313135353a206275726e20616d6f756e7420657863656564732062616c604482015263616e636560e01b60648201526084016104e3565b6000868152602081815260408083206001600160a01b038b81168086529184528285208a8703905582518b81529384018a90529092908816917fc3d58168c5ae7397731d063d5bbf3d657854427343f4c083240f7aacaa2d0f62910160405180910390a46040805160208101909152600090526118ac565b6001600160a01b03851661269a5760005b83518110156126985782818151811061263157634e487b7160e01b600052603260045260246000fd5b60200260200101516003600086848151811061265d57634e487b7160e01b600052603260045260246000fd5b6020026020010151815260200190815260200160002060008282546126829190612fcf565b909155506126919050816130a5565b9050612608565b505b6001600160a01b03841661161f5760005b83518110156118ac5760008482815181106126d657634e487b7160e01b600052603260045260246000fd5b60200260200101519050600084838151811061270257634e487b7160e01b600052603260045260246000fd5b60200260200101519050600060036000848152602001908152602001600020549050818110156127855760405162461bcd60e51b815260206004820152602860248201527f455243313135353a206275726e20616d6f756e74206578636565647320746f74604482015267616c537570706c7960c01b60648201526084016104e3565b600092835260036020526040909220910390556127a1816130a5565b90506126ab565b600454600160a01b900460ff16156127d25760405162461bcd60e51b81526004016104e390612e90565b6004805460ff60a01b1916600160a01b1790557f62e78cea01bee320cd4e420270b5ea74000d11b0c9f74754ebdbfc544b05a25861280d3390565b6040516001600160a01b0390911681526020016120b1565b80356001600160a01b038116811461120657600080fd5b600082601f83011261284c578081fd5b8135602061285982612fab565b6040516128668282613078565b8381528281019150858301600585901b87018401881015612885578586fd5b855b858110156128a357813584529284019290840190600101612887565b5090979650505050505050565b600082601f8301126128c0578081fd5b813567ffffffffffffffff8111156128da576128da6130d6565b6040516128f1601f8301601f191660200182613078565b818152846020838601011115612905578283fd5b816020850160208301379081016020019190915292915050565b600060208284031215612930578081fd5b61293982612825565b9392505050565b60008060408385031215612952578081fd5b61295b83612825565b915061296960208401612825565b90509250929050565b600080600080600060a08688031215612989578081fd5b61299286612825565b94506129a060208701612825565b9350604086013567ffffffffffffffff808211156129bc578283fd5b6129c889838a0161283c565b945060608801359150808211156129dd578283fd5b6129e989838a0161283c565b935060808801359150808211156129fe578283fd5b50612a0b888289016128b0565b9150509295509295909350565b600080600080600060a08688031215612a2f578081fd5b612a3886612825565b9450612a4660208701612825565b93506040860135925060608601359150608086013567ffffffffffffffff811115612a6f578182fd5b612a0b888289016128b0565b60008060408385031215612a8d578182fd5b612a9683612825565b91506020830135612aa68161318e565b809150509250929050565b60008060408385031215612ac3578182fd5b612acc83612825565b946020939093013593505050565b60008060408385031215612aec578182fd5b823567ffffffffffffffff80821115612b03578384fd5b818501915085601f830112612b16578384fd5b81356020612b2382612fab565b604051612b308282613078565b8381528281019150858301600585901b870184018b1015612b4f578889fd5b8896505b84871015612b7857612b6481612825565b835260019690960195918301918301612b53565b5096505086013592505080821115612b8e578283fd5b50612b9b8582860161283c565b9150509250929050565b600060208284031215612bb6578081fd5b81516129398161318e565b600060208284031215612bd2578081fd5b81356129398161319c565b600060208284031215612bee578081fd5b81516129398161319c565b600060208284031215612c0a578081fd5b5035919050565b600060208284031215612c22578081fd5b5051919050565b6000815180845260208085019450808401835b83811015612c5857815187529582019590820190600101612c3c565b509495945050505050565b60008151808452815b81811015612c8857602081850181015186830182015201612c6c565b81811115612c995782602083870101525b50601f01601f19169290920160200192915050565b6001600160a01b0386811682528516602082015260a060408201819052600090612cda90830186612c29565b8281036060840152612cec8186612c29565b90508281036080840152612d008185612c63565b98975050505050505050565b6001600160a01b03868116825285166020820152604081018490526060810183905260a060808201819052600090612d4690830184612c63565b979650505050505050565b6020808252825182820181905260009190848201906040850190845b81811015612d925783516001600160a01b031683529284019291840191600101612d6d565b50909695505050505050565b6000604082016040835280855480835260608501915086845260209250828420845b82811015612de55781546001600160a01b031684529284019260019182019101612dc0565b50505092019290925292915050565b6020815260006129396020830184612c29565b604081526000612e1a6040830185612c29565b8281036020840152612e2c8185612c29565b95945050505050565b6020815260006129396020830184612c63565b60208082526028908201527f455243313135353a204552433131353552656365697665722072656a656374656040820152676420746f6b656e7360c01b606082015260800190565b60208082526010908201526f14185d5cd8589b194e881c185d5cd95960821b604082015260600190565b60208082526025908201527f455243313135353a207472616e7366657220746f20746865207a65726f206164604082015264647265737360d81b606082015260800190565b6020808252602a908201527f455243313135353a20696e73756666696369656e742062616c616e636520666f60408201526939103a3930b739b332b960b11b606082015260800190565b6020808252818101527f4f776e61626c653a2063616c6c6572206973206e6f7420746865206f776e6572604082015260600190565b6020808252601390820152722ab73932b3b4b9ba32b932b210383630bcb2b960691b604082015260600190565b600067ffffffffffffffff821115612fc557612fc56130d6565b5060051b60200190565b60008219821115612fe257612fe26130c0565b500190565b60008261300257634e487b7160e01b81526012600452602481fd5b500490565b6000816000190483118215151615613021576130216130c0565b500290565b600082821015613038576130386130c0565b500390565b600181811c9082168061305157607f821691505b6020821081141561307257634e487b7160e01b600052602260045260246000fd5b50919050565b601f8201601f1916810167ffffffffffffffff8111828210171561309e5761309e6130d6565b6040525050565b60006000198214156130b9576130b96130c0565b5060010190565b634e487b7160e01b600052601160045260246000fd5b634e487b7160e01b600052604160045260246000fd5b600060033d111561310157600481823e5160e01c5b90565b600060443d10156131125790565b6040516003193d81016004833e81513d67ffffffffffffffff816024840111818411171561314257505050505090565b828501915081518181111561315a5750505050505090565b843d87010160208285010111156131745750505050505090565b61318360208286010187613078565b509095945050505050565b801515811461132a57600080fd5b6001600160e01b03198116811461132a57600080fdfea2646970667358221220bde4e68048de43aa9e81f2d62c0ab0b493a0c9090a4e236db7bce2675aaa87e564736f6c6343000804003368747470733a2f2f68696c6f2d65696768742e76657263656c2e6170702f6170692f746f6b656e732f7b69647d",
  "linkReferences": {},
  "deployedLinkReferences": {}
}