{
  "_format": "hh-sol-artifact-1",
  "contractName": "HILO",
  "sourceName": "contracts/HILO.sol",
  "abi": [
    {
      "inputs": [
        {
          "internalType": "uint256",
          "name": "_initialHi",
          "type": "uint256"
        },
        {
          "internalType": "uint256",
          "name": "_initialLo",
          "type": "uint256"
        },
        {
          "internalType": "uint256",
          "name": "_buyRequiredCount",
          "type": "uint256"
        },
        {
          "internalType": "uint256",
          "name": "_jackpot",
          "type": "uint256"
        }
      ],
      "stateMutability": "nonpayable",
      "type": "constructor"
    },
    {
      "anonymous": false,
      "inputs": [
        {
          "indexed": false,
          "internalType": "address",
          "name": "player",
          "type": "address"
        },
        {
          "indexed": false,
          "internalType": "uint256",
          "name": "tokenId",
          "type": "uint256"
        },
        {
          "indexed": false,
          "internalType": "uint256",
          "name": "price",
          "type": "uint256"
        }
      ],
      "name": "ActionAdded",
      "type": "event"
    },
    {
      "anonymous": false,
      "inputs": [
        {
          "indexed": true,
          "internalType": "address",
          "name": "account",
          "type": "address"
        },
        {
          "indexed": true,
          "internalType": "address",
          "name": "operator",
          "type": "address"
        },
        {
          "indexed": false,
          "internalType": "bool",
          "name": "approved",
          "type": "bool"
        }
      ],
      "name": "ApprovalForAll",
      "type": "event"
    },
    {
      "anonymous": false,
      "inputs": [
        {
          "indexed": false,
          "internalType": "uint256",
          "name": "newHiPrice",
          "type": "uint256"
        }
      ],
      "name": "HiDecreased",
      "type": "event"
    },
    {
      "anonymous": false,
      "inputs": [
        {
          "indexed": false,
          "internalType": "address",
          "name": "player",
          "type": "address"
        },
        {
          "indexed": false,
          "internalType": "uint256",
          "name": "amount",
          "type": "uint256"
        }
      ],
      "name": "JackpotPaid",
      "type": "event"
    },
    {
      "anonymous": false,
      "inputs": [
        {
          "indexed": false,
          "internalType": "uint256",
          "name": "newLoPrice",
          "type": "uint256"
        }
      ],
      "name": "LoIncreased",
      "type": "event"
    },
    {
      "anonymous": false,
      "inputs": [
        {
          "indexed": true,
          "internalType": "address",
          "name": "previousOwner",
          "type": "address"
        },
        {
          "indexed": true,
          "internalType": "address",
          "name": "newOwner",
          "type": "address"
        }
      ],
      "name": "OwnershipTransferred",
      "type": "event"
    },
    {
      "anonymous": false,
      "inputs": [
        {
          "indexed": false,
          "internalType": "address",
          "name": "account",
          "type": "address"
        }
      ],
      "name": "Paused",
      "type": "event"
    },
    {
      "anonymous": false,
      "inputs": [
        {
          "indexed": false,
          "internalType": "address",
          "name": "player",
          "type": "address"
        }
      ],
      "name": "PlayerRegistered",
      "type": "event"
    },
    {
      "anonymous": false,
      "inputs": [
        {
          "indexed": false,
          "internalType": "address",
          "name": "player",
          "type": "address"
        },
        {
          "indexed": false,
          "internalType": "uint256",
          "name": "tokenId",
          "type": "uint256"
        }
      ],
      "name": "PriceUpdated",
      "type": "event"
    },
    {
      "anonymous": false,
      "inputs": [
        {
          "indexed": false,
          "internalType": "address[]",
          "name": "winners",
          "type": "address[]"
        },
        {
          "indexed": false,
          "internalType": "uint256",
          "name": "price",
          "type": "uint256"
        }
      ],
      "name": "PricesConverged",
      "type": "event"
    },
    {
      "anonymous": false,
      "inputs": [
        {
          "indexed": true,
          "internalType": "address",
          "name": "operator",
          "type": "address"
        },
        {
          "indexed": true,
          "internalType": "address",
          "name": "from",
          "type": "address"
        },
        {
          "indexed": true,
          "internalType": "address",
          "name": "to",
          "type": "address"
        },
        {
          "indexed": false,
          "internalType": "uint256[]",
          "name": "ids",
          "type": "uint256[]"
        },
        {
          "indexed": false,
          "internalType": "uint256[]",
          "name": "values",
          "type": "uint256[]"
        }
      ],
      "name": "TransferBatch",
      "type": "event"
    },
    {
      "anonymous": false,
      "inputs": [
        {
          "indexed": true,
          "internalType": "address",
          "name": "operator",
          "type": "address"
        },
        {
          "indexed": true,
          "internalType": "address",
          "name": "from",
          "type": "address"
        },
        {
          "indexed": true,
          "internalType": "address",
          "name": "to",
          "type": "address"
        },
        {
          "indexed": false,
          "internalType": "uint256",
          "name": "id",
          "type": "uint256"
        },
        {
          "indexed": false,
          "internalType": "uint256",
          "name": "value",
          "type": "uint256"
        }
      ],
      "name": "TransferSingle",
      "type": "event"
    },
    {
      "anonymous": false,
      "inputs": [
        {
          "indexed": false,
          "internalType": "string",
          "name": "value",
          "type": "string"
        },
        {
          "indexed": true,
          "internalType": "uint256",
          "name": "id",
          "type": "uint256"
        }
      ],
      "name": "URI",
      "type": "event"
    },
    {
      "anonymous": false,
      "inputs": [
        {
          "indexed": false,
          "internalType": "address",
          "name": "account",
          "type": "address"
        }
      ],
      "name": "Unpaused",
      "type": "event"
    },
    {
      "inputs": [],
      "name": "HI",
      "outputs": [
        {
          "internalType": "uint256",
          "name": "",
          "type": "uint256"
        }
      ],
      "stateMutability": "view",
      "type": "function"
    },
    {
      "inputs": [],
      "name": "LO",
      "outputs": [
        {
          "internalType": "uint256",
          "name": "",
          "type": "uint256"
        }
      ],
      "stateMutability": "view",
      "type": "function"
    },
    {
      "inputs": [
        {
          "internalType": "uint256",
          "name": "tokenId",
          "type": "uint256"
        }
      ],
      "name": "addToQueue",
      "outputs": [
        {
          "internalType": "uint256",
          "name": "",
          "type": "uint256"
        }
      ],
      "stateMutability": "nonpayable",
      "type": "function"
    },
    {
      "inputs": [
        {
          "internalType": "address",
          "name": "account",
          "type": "address"
        },
        {
          "internalType": "uint256",
          "name": "id",
          "type": "uint256"
        }
      ],
      "name": "balanceOf",
      "outputs": [
        {
          "internalType": "uint256",
          "name": "",
          "type": "uint256"
        }
      ],
      "stateMutability": "view",
      "type": "function"
    },
    {
      "inputs": [
        {
          "internalType": "address[]",
          "name": "accounts",
          "type": "address[]"
        },
        {
          "internalType": "uint256[]",
          "name": "ids",
          "type": "uint256[]"
        }
      ],
      "name": "balanceOfBatch",
      "outputs": [
        {
          "internalType": "uint256[]",
          "name": "",
          "type": "uint256[]"
        }
      ],
      "stateMutability": "view",
      "type": "function"
    },
    {
      "inputs": [
        {
          "internalType": "uint256",
          "name": "tokenId",
          "type": "uint256"
        }
      ],
      "name": "buy",
      "outputs": [],
      "stateMutability": "nonpayable",
      "type": "function"
    },
    {
      "inputs": [],
      "name": "checkInQueue",
      "outputs": [
        {
          "internalType": "uint256",
          "name": "",
          "type": "uint256"
        }
      ],
      "stateMutability": "view",
      "type": "function"
    },
    {
      "inputs": [
        {
          "internalType": "address",
          "name": "player",
          "type": "address"
        }
      ],
      "name": "checkPlayerRegistered",
      "outputs": [
        {
          "internalType": "bool",
          "name": "",
          "type": "bool"
        }
      ],
      "stateMutability": "view",
      "type": "function"
    },
    {
      "inputs": [
        {
          "internalType": "uint256",
          "name": "id",
          "type": "uint256"
        }
      ],
      "name": "exists",
      "outputs": [
        {
          "internalType": "bool",
          "name": "",
          "type": "bool"
        }
      ],
      "stateMutability": "view",
      "type": "function"
    },
    {
      "inputs": [],
      "name": "gameWon",
      "outputs": [
        {
          "internalType": "bool",
          "name": "",
          "type": "bool"
        }
      ],
      "stateMutability": "view",
      "type": "function"
    },
    {
      "inputs": [
        {
          "internalType": "uint256",
          "name": "tokenId",
          "type": "uint256"
        }
      ],
      "name": "getPrice",
      "outputs": [
        {
          "internalType": "uint256",
          "name": "",
          "type": "uint256"
        }
      ],
      "stateMutability": "view",
      "type": "function"
    },
    {
      "inputs": [],
      "name": "getWinners",
      "outputs": [
        {
          "internalType": "address[]",
          "name": "",
          "type": "address[]"
        }
      ],
      "stateMutability": "view",
      "type": "function"
    },
    {
      "inputs": [
        {
          "internalType": "address",
          "name": "account",
          "type": "address"
        },
        {
          "internalType": "address",
          "name": "operator",
          "type": "address"
        }
      ],
      "name": "isApprovedForAll",
      "outputs": [
        {
          "internalType": "bool",
          "name": "",
          "type": "bool"
        }
      ],
      "stateMutability": "view",
      "type": "function"
    },
    {
      "inputs": [],
      "name": "jackpot",
      "outputs": [
        {
          "internalType": "uint256",
          "name": "",
          "type": "uint256"
        }
      ],
      "stateMutability": "view",
      "type": "function"
    },
    {
      "inputs": [],
      "name": "owner",
      "outputs": [
        {
          "internalType": "address",
          "name": "",
          "type": "address"
        }
      ],
      "stateMutability": "view",
      "type": "function"
    },
    {
      "inputs": [],
      "name": "paused",
      "outputs": [
        {
          "internalType": "bool",
          "name": "",
          "type": "bool"
        }
      ],
      "stateMutability": "view",
      "type": "function"
    },
    {
      "inputs": [],
      "name": "payout",
      "outputs": [],
      "stateMutability": "nonpayable",
      "type": "function"
    },
    {
      "inputs": [],
      "name": "playerCount",
      "outputs": [
        {
          "internalType": "uint256",
          "name": "",
          "type": "uint256"
        }
      ],
      "stateMutability": "view",
      "type": "function"
    },
    {
      "inputs": [
        {
          "internalType": "address",
          "name": "_player",
          "type": "address"
        }
      ],
      "name": "registerPlayer",
      "outputs": [],
      "stateMutability": "nonpayable",
      "type": "function"
    },
    {
      "inputs": [],
      "name": "renounceOwnership",
      "outputs": [],
      "stateMutability": "nonpayable",
      "type": "function"
    },
    {
      "inputs": [
        {
          "internalType": "address",
          "name": "from",
          "type": "address"
        },
        {
          "internalType": "address",
          "name": "to",
          "type": "address"
        },
        {
          "internalType": "uint256[]",
          "name": "ids",
          "type": "uint256[]"
        },
        {
          "internalType": "uint256[]",
          "name": "amounts",
          "type": "uint256[]"
        },
        {
          "internalType": "bytes",
          "name": "data",
          "type": "bytes"
        }
      ],
      "name": "safeBatchTransferFrom",
      "outputs": [],
      "stateMutability": "nonpayable",
      "type": "function"
    },
    {
      "inputs": [
        {
          "internalType": "address",
          "name": "from",
          "type": "address"
        },
        {
          "internalType": "address",
          "name": "to",
          "type": "address"
        },
        {
          "internalType": "uint256",
          "name": "id",
          "type": "uint256"
        },
        {
          "internalType": "uint256",
          "name": "amount",
          "type": "uint256"
        },
        {
          "internalType": "bytes",
          "name": "data",
          "type": "bytes"
        }
      ],
      "name": "safeTransferFrom",
      "outputs": [],
      "stateMutability": "nonpayable",
      "type": "function"
    },
    {
      "inputs": [
        {
          "internalType": "uint256",
          "name": "tokenId",
          "type": "uint256"
        }
      ],
      "name": "sell",
      "outputs": [],
      "stateMutability": "nonpayable",
      "type": "function"
    },
    {
      "inputs": [
        {
          "internalType": "address",
          "name": "operator",
          "type": "address"
        },
        {
          "internalType": "bool",
          "name": "approved",
          "type": "bool"
        }
      ],
      "name": "setApprovalForAll",
      "outputs": [],
      "stateMutability": "nonpayable",
      "type": "function"
    },
    {
      "inputs": [
        {
          "internalType": "bytes4",
          "name": "interfaceId",
          "type": "bytes4"
        }
      ],
      "name": "supportsInterface",
      "outputs": [
        {
          "internalType": "bool",
          "name": "",
          "type": "bool"
        }
      ],
      "stateMutability": "view",
      "type": "function"
    },
    {
      "inputs": [
        {
          "internalType": "uint256",
          "name": "id",
          "type": "uint256"
        }
      ],
      "name": "totalSupply",
      "outputs": [
        {
          "internalType": "uint256",
          "name": "",
          "type": "uint256"
        }
      ],
      "stateMutability": "view",
      "type": "function"
    },
    {
      "inputs": [
        {
          "internalType": "address",
          "name": "newOwner",
          "type": "address"
        }
      ],
      "name": "transferOwnership",
      "outputs": [],
      "stateMutability": "nonpayable",
      "type": "function"
    },
    {
      "inputs": [
        {
          "internalType": "uint256",
          "name": "",
          "type": "uint256"
        }
      ],
      "name": "uri",
      "outputs": [
        {
          "internalType": "string",
          "name": "",
          "type": "string"
        }
      ],
      "stateMutability": "view",
      "type": "function"
    },
    {
      "inputs": [],
      "name": "usdc",
      "outputs": [
        {
          "internalType": "contract IERC20",
          "name": "",
          "type": "address"
        }
      ],
      "stateMutability": "view",
      "type": "function"
    },
    {
      "inputs": [
        {
          "internalType": "uint256",
          "name": "",
          "type": "uint256"
        }
      ],
      "name": "winners",
      "outputs": [
        {
          "internalType": "address",
          "name": "",
          "type": "address"
        }
      ],
      "stateMutability": "view",
      "type": "function"
    }
  ],
  "bytecode": "0x60806040526000600f556013805460ff19169055601680546001600160a01b03191673e11a86849d99f524cac3e7a0ec1241828e332c621790553480156200004657600080fd5b506040516200366f3803806200366f8339810160408190526200006991620003a3565b6040518060600160405280602d815260200162003642602d91396200008e8162000292565b506200009a33620002ab565b6004805460ff60a01b191690556001600555600884905560068490556009839055600783905560006002620000d08587620003d9565b600754600654620000e2919062000437565b620000ef906001620003d9565b620000fb919062000415565b620001079190620003f4565b90508162000117600283620003f4565b10156200016a5760405162461bcd60e51b815260206004820152601e60248201527f4a61636b706f7420746f6f206c6172676520666f72207468652067616d650000604482015260640160405180910390fd5b60158290556008546200018d57634e487b7160e01b600052600160045260246000fd5b600060095411620001ae57634e487b7160e01b600052600160045260246000fd5b60095460085411620001d057634e487b7160e01b600052600160045260246000fd5b600a839055600c60205260007f13649b2456f1b42fef0f0040b3aaeabcd21a76a0f3f5defd4f583839455116e8819055600181527fd421a5181c571bba3f01190c922c3b2a896fc1d84e86c9f17ac10e67ebef8b5c556200023383600262000415565b600b555050600d602052505060007f81955a0a11e65eac625c29e8882660bae4e165a75d72780094acae8ece9a29ee819055600181527ffd54ff1ed53f34a900b24c5ba64f85761163b5d82d98a47b9bd80e45466993c55550620004a4565b8051620002a7906002906020840190620002fd565b5050565b600480546001600160a01b038381166001600160a01b0319831681179093556040519116919082907f8be0079c531659141344cd1fd0a4f28419497f9722a3daafe3b4186f6b6457e090600090a35050565b8280546200030b9062000451565b90600052602060002090601f0160209004810192826200032f57600085556200037a565b82601f106200034a57805160ff19168380011785556200037a565b828001600101855582156200037a579182015b828111156200037a5782518255916020019190600101906200035d565b50620003889291506200038c565b5090565b5b808211156200038857600081556001016200038d565b60008060008060808587031215620003b9578384fd5b505082516020840151604085015160609095015191969095509092509050565b60008219821115620003ef57620003ef6200048e565b500190565b6000826200041057634e487b7160e01b81526012600452602481fd5b500490565b60008160001904831182151516156200043257620004326200048e565b500290565b6000828210156200044c576200044c6200048e565b500390565b600181811c908216806200046657607f821691505b602082108114156200048857634e487b7160e01b600052602260045260246000fd5b50919050565b634e487b7160e01b600052601160045260246000fd5b61318e80620004b46000396000f3fe608060405234801561001057600080fd5b50600436106101d95760003560e01c80636b5cc6d911610104578063df15c37e116100a2578063f242432a11610071578063f242432a14610421578063f2e8dfdb14610434578063f2fde38b1461043c578063f5cf330b1461044f57600080fd5b8063df15c37e146103aa578063e4849b32146103bf578063e7572230146103d2578063e985e9c5146103e557600080fd5b8063a22cb465116100de578063a22cb46514610351578063a2fb117514610364578063bd85b03914610377578063d96a094a1461039757600080fd5b80636b5cc6d914610325578063715018a6146103385780638da5cb5b1461034057600080fd5b80634e1273f41161017c5780635c975abb1161014b5780635c975abb146102fa57806363bd1d4a1461030c57806368d2be8f146103145780636b31ee011461031c57600080fd5b80634e1273f41461029d5780634ee14bab146102bd5780634f558e79146102c5578063581458b9146102e757600080fd5b80630e89341c116101b85780630e89341c146102345780632eb2c2d614610254578063302bcc57146102695780633e413bee1461027257600080fd5b8062fdd58e146101de57806301ffc9a714610204578063069a825c14610227575b600080fd5b6101f16101ec366004612a57565b610462565b6040519081526020015b60405180910390f35b610217610212366004612b67565b6104f9565b60405190151581526020016101fb565b6013546102179060ff1681565b610247610242366004612b9f565b61054b565b6040516101fb9190612ddb565b610267610262366004612918565b6105df565b005b6101f160125481565b601654610285906001600160a01b031681565b6040516001600160a01b0390911681526020016101fb565b6102b06102ab366004612a80565b610676565b6040516101fb9190612d9a565b6101f16107d8565b6102176102d3366004612b9f565b600090815260036020526040902054151590565b6102176102f53660046128c5565b610889565b600454600160a01b900460ff16610217565b6102676108ac565b6101f1600181565b6101f160155481565b6102676103333660046128c5565b610b7d565b610267610c92565b6004546001600160a01b0316610285565b61026761035f366004612a21565b610cc8565b610285610372366004612b9f565b610cd7565b6101f1610385366004612b9f565b60009081526003602052604090205490565b6102676103a5366004612b9f565b610d01565b6103b2611099565b6040516101fb9190612cf7565b6102676103cd366004612b9f565b6110fb565b6101f16103e0366004612b9f565b61118c565b6102176103f33660046128e6565b6001600160a01b03918216600090815260016020908152604080832093909416825291909152205460ff1690565b61026761042f3660046129be565b6111b9565b6101f1600081565b61026761044a3660046128c5565b611240565b6101f161045d366004612b9f565b6112db565b60006001600160a01b0383166104d35760405162461bcd60e51b815260206004820152602b60248201527f455243313135353a2062616c616e636520717565727920666f7220746865207a60448201526a65726f206164647265737360a81b60648201526084015b60405180910390fd5b506000908152602081815260408083206001600160a01b03949094168352929052205490565b60006001600160e01b03198216636cdb3d1360e11b148061052a57506001600160e01b031982166303a24d0760e21b145b8061054557506301ffc9a760e01b6001600160e01b03198316145b92915050565b60606002805461055a90612fe3565b80601f016020809104026020016040519081016040528092919081815260200182805461058690612fe3565b80156105d35780601f106105a8576101008083540402835291602001916105d3565b820191906000526020600020905b8154815290600101906020018083116105b657829003601f168201915b50505050509050919050565b6001600160a01b0385163314806105fb57506105fb85336103f3565b6106625760405162461bcd60e51b815260206004820152603260248201527f455243313135353a207472616e736665722063616c6c6572206973206e6f74206044820152711bdddb995c881b9bdc88185c1c1c9bdd995960721b60648201526084016104ca565b61066f85858585856113c6565b5050505050565b606081518351146106db5760405162461bcd60e51b815260206004820152602960248201527f455243313135353a206163636f756e747320616e6420696473206c656e677468604482015268040dad2e6dac2e8c6d60bb1b60648201526084016104ca565b6000835167ffffffffffffffff81111561070557634e487b7160e01b600052604160045260246000fd5b60405190808252806020026020018201604052801561072e578160200160208202803683370190505b50905060005b84518110156107d05761079585828151811061076057634e487b7160e01b600052603260045260246000fd5b602002602001015185838151811061078857634e487b7160e01b600052603260045260246000fd5b6020026020010151610462565b8282815181106107b557634e487b7160e01b600052603260045260246000fd5b60209081029190910101526107c98161304b565b9050610734565b509392505050565b60006107e333610889565b6107ff5760405162461bcd60e51b81526004016104ca90612f24565b600f546001905b600e5481101561088057336001600160a01b0316600e828154811061083b57634e487b7160e01b600052603260045260246000fd5b60009182526020909120600290910201546001600160a01b031614156108615750919050565b61086c600183612f75565b9150806108788161304b565b915050610806565b50600091505090565b6001600160a01b031660009081526011602052604090205460ff16151560011490565b6004546001600160a01b031633146108d65760405162461bcd60e51b81526004016104ca90612eef565b6014546015546000906108f190670de0b6b3a7640000612fad565b905060005b82811015610a5457600061090a8484612f8d565b601654601480549293506001600160a01b039091169163a9059cbb91908590811061094557634e487b7160e01b600052603260045260246000fd5b60009182526020909120015460405160e083901b6001600160e01b03191681526001600160a01b03909116600482015260248101849052604401602060405180830381600087803b15801561099957600080fd5b505af11580156109ad573d6000803e3d6000fd5b505050506040513d601f19601f820116820180604052508101906109d19190612b4b565b507f88c519ab1745d32c7a1e2c97aa7817ca6e8046aaa146002b9ec1c8516ed6785460148381548110610a1457634e487b7160e01b600052603260045260246000fd5b60009182526020918290200154604080516001600160a01b0390921682529181018490520160405180910390a15080610a4c8161304b565b9150506108f6565b506016546040516370a0823160e01b81523060048201526000916001600160a01b0316906370a082319060240160206040518083038186803b158015610a9957600080fd5b505afa158015610aad573d6000803e3d6000fd5b505050506040513d601f19601f82011682018060405250810190610ad19190612bb7565b6016549091506001600160a01b031663a9059cbb610af76004546001600160a01b031690565b6040516001600160e01b031960e084901b1681526001600160a01b03909116600482015260248101849052604401602060405180830381600087803b158015610b3f57600080fd5b505af1158015610b53573d6000803e3d6000fd5b505050506040513d601f19601f82011682018060405250810190610b779190612b4b565b50505050565b6004546001600160a01b03163314610ba75760405162461bcd60e51b81526004016104ca90612eef565b6001600160a01b03811660009081526011602052604090205460ff16151560011415610c155760405162461bcd60e51b815260206004820152601960248201527f506c6179657220616c726561647920726567697374657265640000000000000060448201526064016104ca565b6001600160a01b0381166000908152601160205260408120805460ff191660019081179091556012805491929091610c4e908490612f75565b90915550506040516001600160a01b03821681527f8cd3331e32cec677d80b82cf0f71496605e7ed6ff864a3ccedc7d5d11d838c839060200160405180910390a150565b6004546001600160a01b03163314610cbc5760405162461bcd60e51b81526004016104ca90612eef565b610cc660006115cd565b565b610cd333838361161f565b5050565b60148181548110610ce757600080fd5b6000918252602090912001546001600160a01b0316905081565b600454600160a01b900460ff1615610d2b5760405162461bcd60e51b81526004016104ca90612e36565b610d3433610889565b610d505760405162461bcd60e51b81526004016104ca90612f24565b801580610d5d5750600181145b610d9a5760405162461bcd60e51b815260206004820152600e60248201526d24b73b30b634b2103a37b5b2b71760911b60448201526064016104ca565b610da5336000610462565b158015610dba5750610db8336001610462565b155b610e145760405162461bcd60e51b815260206004820152602560248201527f48494c4f3a2063616e6e6f742068617665206d6f7265207468616e206f6e65206044820152643a37b5b2b760d91b60648201526084016104ca565b6000610e1f8261118c565b905060008111610e3f57634e487b7160e01b600052600160045260246000fd5b600060075482148015610e525750600183145b80610e67575060065482148015610e67575082155b600b546000858152600d602052604090205460095460085493945091149114801590610e9757508180610e975750805b15610edf57610ea584611700565b60408051338152602081018690527f0d86730737b142fc160892fa8a0f2db687a92a0e294d1ad70624cf5acef03b84910160405180910390a15b610ef183670de0b6b3a7640000612fad565b6016546040516370a0823160e01b81523360048201529194506000916001600160a01b03909116906370a082319060240160206040518083038186803b158015610f3a57600080fd5b505afa158015610f4e573d6000803e3d6000fd5b505050506040513d601f19601f82011682018060405250810190610f729190612bb7565b905083811015610fc45760405162461bcd60e51b815260206004820152601a60248201527f496e73756666696369656e7420555344432062616c616e63652e00000000000060448201526064016104ca565b6016546040516323b872dd60e01b8152336004820152306024820152604481018690526001600160a01b03909116906323b872dd90606401602060405180830381600087803b15801561101657600080fd5b505af115801561102a573d6000803e3d6000fd5b505050506040513d601f19601f8201168201806040525081019061104e9190612b4b565b5061106b3386600160405180602001604052806000815250611738565b81611079576110798561185b565b600a546000868152600c6020526040902054141561066f5761066f6118e1565b606060148054806020026020016040519081016040528092919081815260200182805480156110f157602002820191906000526020600020905b81546001600160a01b031681526001909101906020018083116110d3575b5050505050905090565b6002600554141561114e5760405162461bcd60e51b815260206004820152601f60248201527f5265656e7472616e637947756172643a207265656e7472616e742063616c6c0060448201526064016104ca565b600260055561115c33610889565b6111785760405162461bcd60e51b81526004016104ca90612f24565b3361118381836119a5565b50506001600555565b60008161119b57505060085490565b60018214156111ac57505060095490565b506000919050565b919050565b6001600160a01b0385163314806111d557506111d585336103f3565b6112335760405162461bcd60e51b815260206004820152602960248201527f455243313135353a2063616c6c6572206973206e6f74206f776e6572206e6f7260448201526808185c1c1c9bdd995960ba1b60648201526084016104ca565b61066f8585858585611cce565b6004546001600160a01b0316331461126a5760405162461bcd60e51b81526004016104ca90612eef565b6001600160a01b0381166112cf5760405162461bcd60e51b815260206004820152602660248201527f4f776e61626c653a206e6577206f776e657220697320746865207a65726f206160448201526564647265737360d01b60648201526084016104ca565b6112d8816115cd565b50565b60006112e633610889565b6113025760405162461bcd60e51b81526004016104ca90612f24565b600061130c6107d8565b9050801561131a5792915050565b6040805180820190915233815260208101848152600e8054600181018255600082905283517fbb7b4a454dc3493923482f07822329ed19e8244eff582cc204f8554c3620c3fd600290920291820180546001600160a01b0319166001600160a01b0390921691909117905591517fbb7b4a454dc3493923482f07822329ed19e8244eff582cc204f8554c3620c3fe90920191909155600f5490546113be9190612fcc565b949350505050565b81518351146114285760405162461bcd60e51b815260206004820152602860248201527f455243313135353a2069647320616e6420616d6f756e7473206c656e677468206044820152670dad2e6dac2e8c6d60c31b60648201526084016104ca565b6001600160a01b03841661144e5760405162461bcd60e51b81526004016104ca90612e60565b3361145d818787878787611e06565b60005b845181101561155f57600085828151811061148b57634e487b7160e01b600052603260045260246000fd5b6020026020010151905060008583815181106114b757634e487b7160e01b600052603260045260246000fd5b602090810291909101810151600084815280835260408082206001600160a01b038e1683529093529190912054909150818110156115075760405162461bcd60e51b81526004016104ca90612ea5565b6000838152602081815260408083206001600160a01b038e8116855292528083208585039055908b16825281208054849290611544908490612f75565b92505081905550505050806115589061304b565b9050611460565b50846001600160a01b0316866001600160a01b0316826001600160a01b03167f4a39dc06d4c0dbc64b70af90fd698a233a518aa5d07e595d983b8c0526c8f7fb87876040516115af929190612dad565b60405180910390a46115c5818787878787611ea7565b505050505050565b600480546001600160a01b038381166001600160a01b0319831681179093556040519116919082907f8be0079c531659141344cd1fd0a4f28419497f9722a3daafe3b4186f6b6457e090600090a35050565b816001600160a01b0316836001600160a01b031614156116935760405162461bcd60e51b815260206004820152602960248201527f455243313135353a2073657474696e6720617070726f76616c20737461747573604482015268103337b91039b2b63360b91b60648201526084016104ca565b6001600160a01b03838116600081815260016020908152604080832094871680845294825291829020805460ff191686151590811790915591519182527f17307eab39ab6107e8899845ad3d59bd9653f200f220920489ca2b5937696c31910160405180910390a3505050565b806117125761170d612012565b61171a565b61171a612061565b6000908152600c60209081526040808320839055600d909152812055565b6001600160a01b0384166117985760405162461bcd60e51b815260206004820152602160248201527f455243313135353a206d696e7420746f20746865207a65726f206164647265736044820152607360f81b60648201526084016104ca565b3360006117a4856120c6565b905060006117b1856120c6565b90506117c283600089858589611e06565b6000868152602081815260408083206001600160a01b038b168452909152812080548792906117f2908490612f75565b909155505060408051878152602081018790526001600160a01b03808a1692600092918716917fc3d58168c5ae7397731d063d5bbf3d657854427343f4c083240f7aacaa2d0f62910160405180910390a46118528360008989898961211f565b50505050505050565b600a546000828152600c6020526040902054101561189d576000818152600c602052604090205461188d906001612f75565b6000828152600c60205260409020555b600b546000828152600d602052604090205410156112d8576000818152600d60205260409020546118cf906001612f75565b6000828152600d602052604090205550565b600454600160a01b900460ff161561190b5760405162461bcd60e51b81526004016104ca90612e36565b600e5461191457565b600f8054600091600e9190836119298361304b565b919050558154811061194b57634e487b7160e01b600052603260045260246000fd5b600091825260208083206040805180820190915260029093020180546001600160a01b031680845260019091015491830182905291935061198c9190610462565b905080611997575050565b610cd3826000015183602001515b600454600160a01b900460ff16156119cf5760405162461bcd60e51b81526004016104ca90612e36565b8015806119dc5750600181145b611a195760405162461bcd60e51b815260206004820152600e60248201526d24b73b30b634b2103a37b5b2b71760911b60448201526064016104ca565b80158015611a3157506000611a2f836000610462565b115b80611a515750600181148015611a5157506000611a4f836001610462565b115b611aaf5760405162461bcd60e51b815260206004820152602960248201527f48494c4f3a2063616e6e6f742073656c6c207768656e20796f752068617665206044820152686e6f20746f6b656e7360b81b60648201526084016104ca565b600a546000828152600c60205260409020541480611b215760405162461bcd60e51b815260206004820152602960248201527f48494c4f3a2063616e6e6f742073656c6c207768656e207468652073616c65206044820152681a5cc81b1bd8dad95960ba1b60648201526084016104ca565b611b2b83836121e9565b6009546008541415611b4d57611b48611b438361118c565b6122ae565b505050565b6000611b588361118c565b9050611b6c81670de0b6b3a7640000612fad565b60165460405163a9059cbb60e01b81526001600160a01b0387811660048301526024820184905292935091169063a9059cbb90604401602060405180830381600087803b158015611bbc57600080fd5b505af1158015611bd0573d6000803e3d6000fd5b505050506040513d601f19601f82011682018060405250810190611bf49190612b4b565b50611c018484600161240d565b611c0a83611700565b604080516001600160a01b0386168152602081018590527f0d86730737b142fc160892fa8a0f2db687a92a0e294d1ad70624cf5acef03b84910160405180910390a182158015611c625750611c60846001610462565b155b15610b7757611c838460018060405180602001604052806000815250611738565b6001600a54611c929190612fcc565b6001600052600c6020527fd421a5181c571bba3f01190c922c3b2a896fc1d84e86c9f17ac10e67ebef8b5c541015610b7757610b77600161185b565b6001600160a01b038416611cf45760405162461bcd60e51b81526004016104ca90612e60565b336000611d00856120c6565b90506000611d0d856120c6565b9050611d1d838989858589611e06565b6000868152602081815260408083206001600160a01b038c16845290915290205485811015611d5e5760405162461bcd60e51b81526004016104ca90612ea5565b6000878152602081815260408083206001600160a01b038d8116855292528083208985039055908a16825281208054889290611d9b908490612f75565b909155505060408051888152602081018890526001600160a01b03808b16928c821692918816917fc3d58168c5ae7397731d063d5bbf3d657854427343f4c083240f7aacaa2d0f62910160405180910390a4611dfb848a8a8a8a8a61211f565b505050505050505050565b600454600160a01b900460ff1615611e305760405162461bcd60e51b81526004016104ca90612e36565b6001600160a01b0385161580611e4d57506001600160a01b038416155b611e995760405162461bcd60e51b815260206004820152601760248201527f48494c4f3a206e6f6e207472616e736665727261626c6500000000000000000060448201526064016104ca565b6115c586868686868661259d565b6001600160a01b0384163b156115c55760405163bc197c8160e01b81526001600160a01b0385169063bc197c8190611eeb9089908990889088908890600401612c54565b602060405180830381600087803b158015611f0557600080fd5b505af1925050508015611f35575060408051601f3d908101601f19168201909252611f3291810190612b83565b60015b611fe257611f41613092565b806308c379a01415611f7b5750611f566130aa565b80611f615750611f7d565b8060405162461bcd60e51b81526004016104ca9190612ddb565b505b60405162461bcd60e51b815260206004820152603460248201527f455243313135353a207472616e7366657220746f206e6f6e20455243313135356044820152732932b1b2b4bb32b91034b6b83632b6b2b73a32b960611b60648201526084016104ca565b6001600160e01b0319811663bc197c8160e01b146118525760405162461bcd60e51b81526004016104ca90612dee565b60016008546120219190612fcc565b6008557f5a258dc6fce0816c9caf9835f08fa5596416dd55037714d2e51688cea5f062c560085460405161205791815260200190565b60405180910390a1565b60095461206f906001612f75565b6009819055600854101561209357634e487b7160e01b600052600160045260246000fd5b7f3f9b5fbd1bfff0a78edef53fb452db3ea00eb6ea96cb06defcc66dd171bbca2160095460405161205791815260200190565b6040805160018082528183019092526060916000919060208083019080368337019050509050828160008151811061210e57634e487b7160e01b600052603260045260246000fd5b602090810291909101015292915050565b6001600160a01b0384163b156115c55760405163f23a6e6160e01b81526001600160a01b0385169063f23a6e61906121639089908990889088908890600401612cb2565b602060405180830381600087803b15801561217d57600080fd5b505af19250505080156121ad575060408051601f3d908101601f191682019092526121aa91810190612b83565b60015b6121b957611f41613092565b6001600160e01b0319811663f23a6e6160e01b146118525760405162461bcd60e51b81526004016104ca90612dee565b60006121f48261118c565b60408051606080820183526001600160a01b03878116808452602080850189815285870188815260008981526010845288812080546001808201835591835291859020895160039093020180546001600160a01b03191692909716919091178655915191850191909155516002909301929092558451908152908101879052928301849052929350917fc19f70d47acbbf1d2faf3a7944182cf6b5345c67d2156ed328ea510e72f13066910160405180910390a150505050565b6000601060006008548152602001908152602001600020805480602002602001604051908101604052809291908181526020016000905b8282101561233a576000848152602090819020604080516060810182526003860290920180546001600160a01b03168352600180820154848601526002909101549183019190915290835290920191016122e5565b50505050905060005b81518110156123bc57601482828151811061236e57634e487b7160e01b600052603260045260246000fd5b6020908102919091018101515182546001810184556000938452919092200180546001600160a01b0319166001600160a01b03909216919091179055806123b48161304b565b915050612343565b506013805460ff191660011790556040517f10dee8c2942b449b177825c6d5eb7131392949ec2008676761b93b00acea615a906123fd906014908590612d44565b60405180910390a1610cd361274e565b6001600160a01b03831661246f5760405162461bcd60e51b815260206004820152602360248201527f455243313135353a206275726e2066726f6d20746865207a65726f206164647260448201526265737360e81b60648201526084016104ca565b33600061247b846120c6565b90506000612488846120c6565b90506124a883876000858560405180602001604052806000815250611e06565b6000858152602081815260408083206001600160a01b038a168452909152902054848110156125255760405162461bcd60e51b8152602060048201526024808201527f455243313135353a206275726e20616d6f756e7420657863656564732062616c604482015263616e636560e01b60648201526084016104ca565b6000868152602081815260408083206001600160a01b038b81168086529184528285208a8703905582518b81529384018a90529092908816917fc3d58168c5ae7397731d063d5bbf3d657854427343f4c083240f7aacaa2d0f62910160405180910390a4604080516020810190915260009052611852565b6001600160a01b0385166126405760005b835181101561263e578281815181106125d757634e487b7160e01b600052603260045260246000fd5b60200260200101516003600086848151811061260357634e487b7160e01b600052603260045260246000fd5b6020026020010151815260200190815260200160002060008282546126289190612f75565b9091555061263790508161304b565b90506125ae565b505b6001600160a01b0384166115c55760005b835181101561185257600084828151811061267c57634e487b7160e01b600052603260045260246000fd5b6020026020010151905060008483815181106126a857634e487b7160e01b600052603260045260246000fd5b602002602001015190506000600360008481526020019081526020016000205490508181101561272b5760405162461bcd60e51b815260206004820152602860248201527f455243313135353a206275726e20616d6f756e74206578636565647320746f74604482015267616c537570706c7960c01b60648201526084016104ca565b600092835260036020526040909220910390556127478161304b565b9050612651565b600454600160a01b900460ff16156127785760405162461bcd60e51b81526004016104ca90612e36565b6004805460ff60a01b1916600160a01b1790557f62e78cea01bee320cd4e420270b5ea74000d11b0c9f74754ebdbfc544b05a2586127b33390565b6040516001600160a01b039091168152602001612057565b80356001600160a01b03811681146111b457600080fd5b600082601f8301126127f2578081fd5b813560206127ff82612f51565b60405161280c828261301e565b8381528281019150858301600585901b8701840188101561282b578586fd5b855b858110156128495781358452928401929084019060010161282d565b5090979650505050505050565b600082601f830112612866578081fd5b813567ffffffffffffffff8111156128805761288061307c565b604051612897601f8301601f19166020018261301e565b8181528460208386010111156128ab578283fd5b816020850160208301379081016020019190915292915050565b6000602082840312156128d6578081fd5b6128df826127cb565b9392505050565b600080604083850312156128f8578081fd5b612901836127cb565b915061290f602084016127cb565b90509250929050565b600080600080600060a0868803121561292f578081fd5b612938866127cb565b9450612946602087016127cb565b9350604086013567ffffffffffffffff80821115612962578283fd5b61296e89838a016127e2565b94506060880135915080821115612983578283fd5b61298f89838a016127e2565b935060808801359150808211156129a4578283fd5b506129b188828901612856565b9150509295509295909350565b600080600080600060a086880312156129d5578081fd5b6129de866127cb565b94506129ec602087016127cb565b93506040860135925060608601359150608086013567ffffffffffffffff811115612a15578182fd5b6129b188828901612856565b60008060408385031215612a33578182fd5b612a3c836127cb565b91506020830135612a4c81613134565b809150509250929050565b60008060408385031215612a69578182fd5b612a72836127cb565b946020939093013593505050565b60008060408385031215612a92578182fd5b823567ffffffffffffffff80821115612aa9578384fd5b818501915085601f830112612abc578384fd5b81356020612ac982612f51565b604051612ad6828261301e565b8381528281019150858301600585901b870184018b1015612af5578889fd5b8896505b84871015612b1e57612b0a816127cb565b835260019690960195918301918301612af9565b5096505086013592505080821115612b34578283fd5b50612b41858286016127e2565b9150509250929050565b600060208284031215612b5c578081fd5b81516128df81613134565b600060208284031215612b78578081fd5b81356128df81613142565b600060208284031215612b94578081fd5b81516128df81613142565b600060208284031215612bb0578081fd5b5035919050565b600060208284031215612bc8578081fd5b5051919050565b6000815180845260208085019450808401835b83811015612bfe57815187529582019590820190600101612be2565b509495945050505050565b60008151808452815b81811015612c2e57602081850181015186830182015201612c12565b81811115612c3f5782602083870101525b50601f01601f19169290920160200192915050565b6001600160a01b0386811682528516602082015260a060408201819052600090612c8090830186612bcf565b8281036060840152612c928186612bcf565b90508281036080840152612ca68185612c09565b98975050505050505050565b6001600160a01b03868116825285166020820152604081018490526060810183905260a060808201819052600090612cec90830184612c09565b979650505050505050565b6020808252825182820181905260009190848201906040850190845b81811015612d385783516001600160a01b031683529284019291840191600101612d13565b50909695505050505050565b6000604082016040835280855480835260608501915086845260209250828420845b82811015612d8b5781546001600160a01b031684529284019260019182019101612d66565b50505092019290925292915050565b6020815260006128df6020830184612bcf565b604081526000612dc06040830185612bcf565b8281036020840152612dd28185612bcf565b95945050505050565b6020815260006128df6020830184612c09565b60208082526028908201527f455243313135353a204552433131353552656365697665722072656a656374656040820152676420746f6b656e7360c01b606082015260800190565b60208082526010908201526f14185d5cd8589b194e881c185d5cd95960821b604082015260600190565b60208082526025908201527f455243313135353a207472616e7366657220746f20746865207a65726f206164604082015264647265737360d81b606082015260800190565b6020808252602a908201527f455243313135353a20696e73756666696369656e742062616c616e636520666f60408201526939103a3930b739b332b960b11b606082015260800190565b6020808252818101527f4f776e61626c653a2063616c6c6572206973206e6f7420746865206f776e6572604082015260600190565b6020808252601390820152722ab73932b3b4b9ba32b932b210383630bcb2b960691b604082015260600190565b600067ffffffffffffffff821115612f6b57612f6b61307c565b5060051b60200190565b60008219821115612f8857612f88613066565b500190565b600082612fa857634e487b7160e01b81526012600452602481fd5b500490565b6000816000190483118215151615612fc757612fc7613066565b500290565b600082821015612fde57612fde613066565b500390565b600181811c90821680612ff757607f821691505b6020821081141561301857634e487b7160e01b600052602260045260246000fd5b50919050565b601f8201601f1916810167ffffffffffffffff811182821017156130445761304461307c565b6040525050565b600060001982141561305f5761305f613066565b5060010190565b634e487b7160e01b600052601160045260246000fd5b634e487b7160e01b600052604160045260246000fd5b600060033d11156130a757600481823e5160e01c5b90565b600060443d10156130b85790565b6040516003193d81016004833e81513d67ffffffffffffffff81602484011181841117156130e857505050505090565b82850191508151818111156131005750505050505090565b843d870101602082850101111561311a5750505050505090565b6131296020828601018761301e565b509095945050505050565b80151581146112d857600080fd5b6001600160e01b0319811681146112d857600080fdfea2646970667358221220e9d478e94bcb816f01439d3a86f843197dbb427b37785c4acad61523c90b8e0964736f6c6343000804003368747470733a2f2f68696c6f2d65696768742e76657263656c2e6170702f6170692f746f6b656e732f7b69647d",
  "linkReferences": {},
  "deployedLinkReferences": {}
}