{
  "_format": "hh-sol-artifact-1",
  "contractName": "HILO",
  "sourceName": "contracts/HILO.sol",
  "abi": [
    {
      "inputs": [
        {
          "internalType": "uint256",
          "name": "_initialHi",
          "type": "uint256"
        },
        {
          "internalType": "uint256",
          "name": "_initialLo",
          "type": "uint256"
        },
        {
          "internalType": "uint256",
          "name": "_buyRequiredCount",
          "type": "uint256"
        },
        {
          "internalType": "uint256",
          "name": "_jackpot",
          "type": "uint256"
        }
      ],
      "stateMutability": "nonpayable",
      "type": "constructor"
    },
    {
      "anonymous": false,
      "inputs": [
        {
          "indexed": false,
          "internalType": "address",
          "name": "player",
          "type": "address"
        },
        {
          "indexed": false,
          "internalType": "uint256",
          "name": "tokenId",
          "type": "uint256"
        },
        {
          "indexed": false,
          "internalType": "uint256",
          "name": "price",
          "type": "uint256"
        }
      ],
      "name": "ActionAdded",
      "type": "event"
    },
    {
      "anonymous": false,
      "inputs": [
        {
          "indexed": false,
          "internalType": "address",
          "name": "player",
          "type": "address"
        },
        {
          "indexed": false,
          "internalType": "uint256",
          "name": "tokenId",
          "type": "uint256"
        },
        {
          "indexed": false,
          "internalType": "uint256",
          "name": "position",
          "type": "uint256"
        }
      ],
      "name": "AddedToQueue",
      "type": "event"
    },
    {
      "anonymous": false,
      "inputs": [
        {
          "indexed": true,
          "internalType": "address",
          "name": "account",
          "type": "address"
        },
        {
          "indexed": true,
          "internalType": "address",
          "name": "operator",
          "type": "address"
        },
        {
          "indexed": false,
          "internalType": "bool",
          "name": "approved",
          "type": "bool"
        }
      ],
      "name": "ApprovalForAll",
      "type": "event"
    },
    {
      "anonymous": false,
      "inputs": [
        {
          "indexed": false,
          "internalType": "uint256",
          "name": "newHiPrice",
          "type": "uint256"
        }
      ],
      "name": "HiDecreased",
      "type": "event"
    },
    {
      "anonymous": false,
      "inputs": [
        {
          "indexed": false,
          "internalType": "address",
          "name": "player",
          "type": "address"
        },
        {
          "indexed": false,
          "internalType": "uint256",
          "name": "amount",
          "type": "uint256"
        }
      ],
      "name": "JackpotPaid",
      "type": "event"
    },
    {
      "anonymous": false,
      "inputs": [
        {
          "indexed": false,
          "internalType": "uint256",
          "name": "newLoPrice",
          "type": "uint256"
        }
      ],
      "name": "LoIncreased",
      "type": "event"
    },
    {
      "anonymous": false,
      "inputs": [
        {
          "indexed": true,
          "internalType": "address",
          "name": "previousOwner",
          "type": "address"
        },
        {
          "indexed": true,
          "internalType": "address",
          "name": "newOwner",
          "type": "address"
        }
      ],
      "name": "OwnershipTransferred",
      "type": "event"
    },
    {
      "anonymous": false,
      "inputs": [
        {
          "indexed": false,
          "internalType": "address",
          "name": "account",
          "type": "address"
        }
      ],
      "name": "Paused",
      "type": "event"
    },
    {
      "anonymous": false,
      "inputs": [
        {
          "indexed": false,
          "internalType": "address",
          "name": "player",
          "type": "address"
        },
        {
          "indexed": false,
          "internalType": "uint256",
          "name": "tokenId",
          "type": "uint256"
        }
      ],
      "name": "PriceUpdated",
      "type": "event"
    },
    {
      "anonymous": false,
      "inputs": [
        {
          "indexed": false,
          "internalType": "address[]",
          "name": "winners",
          "type": "address[]"
        },
        {
          "indexed": false,
          "internalType": "uint256",
          "name": "price",
          "type": "uint256"
        }
      ],
      "name": "PricesConverged",
      "type": "event"
    },
    {
      "anonymous": false,
      "inputs": [
        {
          "indexed": true,
          "internalType": "address",
          "name": "operator",
          "type": "address"
        },
        {
          "indexed": true,
          "internalType": "address",
          "name": "from",
          "type": "address"
        },
        {
          "indexed": true,
          "internalType": "address",
          "name": "to",
          "type": "address"
        },
        {
          "indexed": false,
          "internalType": "uint256[]",
          "name": "ids",
          "type": "uint256[]"
        },
        {
          "indexed": false,
          "internalType": "uint256[]",
          "name": "values",
          "type": "uint256[]"
        }
      ],
      "name": "TransferBatch",
      "type": "event"
    },
    {
      "anonymous": false,
      "inputs": [
        {
          "indexed": true,
          "internalType": "address",
          "name": "operator",
          "type": "address"
        },
        {
          "indexed": true,
          "internalType": "address",
          "name": "from",
          "type": "address"
        },
        {
          "indexed": true,
          "internalType": "address",
          "name": "to",
          "type": "address"
        },
        {
          "indexed": false,
          "internalType": "uint256",
          "name": "id",
          "type": "uint256"
        },
        {
          "indexed": false,
          "internalType": "uint256",
          "name": "value",
          "type": "uint256"
        }
      ],
      "name": "TransferSingle",
      "type": "event"
    },
    {
      "anonymous": false,
      "inputs": [
        {
          "indexed": false,
          "internalType": "string",
          "name": "value",
          "type": "string"
        },
        {
          "indexed": true,
          "internalType": "uint256",
          "name": "id",
          "type": "uint256"
        }
      ],
      "name": "URI",
      "type": "event"
    },
    {
      "anonymous": false,
      "inputs": [
        {
          "indexed": false,
          "internalType": "address",
          "name": "account",
          "type": "address"
        }
      ],
      "name": "Unpaused",
      "type": "event"
    },
    {
      "inputs": [],
      "name": "HI",
      "outputs": [
        {
          "internalType": "uint256",
          "name": "",
          "type": "uint256"
        }
      ],
      "stateMutability": "view",
      "type": "function"
    },
    {
      "inputs": [],
      "name": "LO",
      "outputs": [
        {
          "internalType": "uint256",
          "name": "",
          "type": "uint256"
        }
      ],
      "stateMutability": "view",
      "type": "function"
    },
    {
      "inputs": [
        {
          "internalType": "uint256",
          "name": "",
          "type": "uint256"
        },
        {
          "internalType": "uint256",
          "name": "",
          "type": "uint256"
        }
      ],
      "name": "actions",
      "outputs": [
        {
          "internalType": "address",
          "name": "player",
          "type": "address"
        },
        {
          "internalType": "uint256",
          "name": "tokenId",
          "type": "uint256"
        },
        {
          "internalType": "uint256",
          "name": "price",
          "type": "uint256"
        }
      ],
      "stateMutability": "view",
      "type": "function"
    },
    {
      "inputs": [
        {
          "internalType": "uint256",
          "name": "tokenId",
          "type": "uint256"
        }
      ],
      "name": "addToQueue",
      "outputs": [
        {
          "internalType": "uint256",
          "name": "",
          "type": "uint256"
        }
      ],
      "stateMutability": "nonpayable",
      "type": "function"
    },
    {
      "inputs": [
        {
          "internalType": "address",
          "name": "account",
          "type": "address"
        },
        {
          "internalType": "uint256",
          "name": "id",
          "type": "uint256"
        }
      ],
      "name": "balanceOf",
      "outputs": [
        {
          "internalType": "uint256",
          "name": "",
          "type": "uint256"
        }
      ],
      "stateMutability": "view",
      "type": "function"
    },
    {
      "inputs": [
        {
          "internalType": "address[]",
          "name": "accounts",
          "type": "address[]"
        },
        {
          "internalType": "uint256[]",
          "name": "ids",
          "type": "uint256[]"
        }
      ],
      "name": "balanceOfBatch",
      "outputs": [
        {
          "internalType": "uint256[]",
          "name": "",
          "type": "uint256[]"
        }
      ],
      "stateMutability": "view",
      "type": "function"
    },
    {
      "inputs": [
        {
          "internalType": "uint256",
          "name": "tokenId",
          "type": "uint256"
        },
        {
          "internalType": "uint256",
          "name": "amount",
          "type": "uint256"
        }
      ],
      "name": "buy",
      "outputs": [],
      "stateMutability": "nonpayable",
      "type": "function"
    },
    {
      "inputs": [
        {
          "internalType": "uint256",
          "name": "",
          "type": "uint256"
        }
      ],
      "name": "buyCounts",
      "outputs": [
        {
          "internalType": "uint256",
          "name": "",
          "type": "uint256"
        }
      ],
      "stateMutability": "view",
      "type": "function"
    },
    {
      "inputs": [],
      "name": "buyForceCount",
      "outputs": [
        {
          "internalType": "uint256",
          "name": "",
          "type": "uint256"
        }
      ],
      "stateMutability": "view",
      "type": "function"
    },
    {
      "inputs": [
        {
          "internalType": "uint256",
          "name": "",
          "type": "uint256"
        }
      ],
      "name": "buyForceCounts",
      "outputs": [
        {
          "internalType": "uint256",
          "name": "",
          "type": "uint256"
        }
      ],
      "stateMutability": "view",
      "type": "function"
    },
    {
      "inputs": [],
      "name": "buyRequiredCount",
      "outputs": [
        {
          "internalType": "uint256",
          "name": "",
          "type": "uint256"
        }
      ],
      "stateMutability": "view",
      "type": "function"
    },
    {
      "inputs": [
        {
          "internalType": "uint256",
          "name": "tokenId",
          "type": "uint256"
        }
      ],
      "name": "canSell",
      "outputs": [
        {
          "internalType": "bool",
          "name": "",
          "type": "bool"
        }
      ],
      "stateMutability": "view",
      "type": "function"
    },
    {
      "inputs": [
        {
          "internalType": "uint256",
          "name": "tokenId",
          "type": "uint256"
        },
        {
          "internalType": "address",
          "name": "player",
          "type": "address"
        }
      ],
      "name": "checkInQueue",
      "outputs": [
        {
          "internalType": "uint256",
          "name": "",
          "type": "uint256"
        }
      ],
      "stateMutability": "view",
      "type": "function"
    },
    {
      "inputs": [
        {
          "internalType": "uint256",
          "name": "id",
          "type": "uint256"
        }
      ],
      "name": "exists",
      "outputs": [
        {
          "internalType": "bool",
          "name": "",
          "type": "bool"
        }
      ],
      "stateMutability": "view",
      "type": "function"
    },
    {
      "inputs": [],
      "name": "gameWon",
      "outputs": [
        {
          "internalType": "bool",
          "name": "",
          "type": "bool"
        }
      ],
      "stateMutability": "view",
      "type": "function"
    },
    {
      "inputs": [
        {
          "internalType": "address",
          "name": "player",
          "type": "address"
        }
      ],
      "name": "getGameState",
      "outputs": [
        {
          "components": [
            {
              "internalType": "uint256",
              "name": "currentHi",
              "type": "uint256"
            },
            {
              "internalType": "uint256",
              "name": "currentLo",
              "type": "uint256"
            },
            {
              "internalType": "address[]",
              "name": "winners",
              "type": "address[]"
            },
            {
              "internalType": "uint256[3]",
              "name": "playerTotals",
              "type": "uint256[3]"
            },
            {
              "internalType": "uint256[2]",
              "name": "tokenBalances",
              "type": "uint256[2]"
            },
            {
              "internalType": "uint256",
              "name": "approvedSpend",
              "type": "uint256"
            }
          ],
          "internalType": "struct HILO.GameState",
          "name": "",
          "type": "tuple"
        }
      ],
      "stateMutability": "view",
      "type": "function"
    },
    {
      "inputs": [
        {
          "internalType": "uint256",
          "name": "tokenId",
          "type": "uint256"
        }
      ],
      "name": "getPrice",
      "outputs": [
        {
          "internalType": "uint256",
          "name": "",
          "type": "uint256"
        }
      ],
      "stateMutability": "view",
      "type": "function"
    },
    {
      "inputs": [],
      "name": "getWinners",
      "outputs": [
        {
          "internalType": "address[]",
          "name": "",
          "type": "address[]"
        }
      ],
      "stateMutability": "view",
      "type": "function"
    },
    {
      "inputs": [],
      "name": "hiPrice",
      "outputs": [
        {
          "internalType": "uint256",
          "name": "",
          "type": "uint256"
        }
      ],
      "stateMutability": "view",
      "type": "function"
    },
    {
      "inputs": [
        {
          "internalType": "uint256",
          "name": "",
          "type": "uint256"
        }
      ],
      "name": "hiSaleQueue",
      "outputs": [
        {
          "internalType": "address",
          "name": "",
          "type": "address"
        }
      ],
      "stateMutability": "view",
      "type": "function"
    },
    {
      "inputs": [],
      "name": "hiSaleQueueIndex",
      "outputs": [
        {
          "internalType": "uint256",
          "name": "",
          "type": "uint256"
        }
      ],
      "stateMutability": "view",
      "type": "function"
    },
    {
      "inputs": [],
      "name": "initialHi",
      "outputs": [
        {
          "internalType": "uint256",
          "name": "",
          "type": "uint256"
        }
      ],
      "stateMutability": "view",
      "type": "function"
    },
    {
      "inputs": [],
      "name": "initialLo",
      "outputs": [
        {
          "internalType": "uint256",
          "name": "",
          "type": "uint256"
        }
      ],
      "stateMutability": "view",
      "type": "function"
    },
    {
      "inputs": [
        {
          "internalType": "address",
          "name": "account",
          "type": "address"
        },
        {
          "internalType": "address",
          "name": "operator",
          "type": "address"
        }
      ],
      "name": "isApprovedForAll",
      "outputs": [
        {
          "internalType": "bool",
          "name": "",
          "type": "bool"
        }
      ],
      "stateMutability": "view",
      "type": "function"
    },
    {
      "inputs": [],
      "name": "jackpot",
      "outputs": [
        {
          "internalType": "uint256",
          "name": "",
          "type": "uint256"
        }
      ],
      "stateMutability": "view",
      "type": "function"
    },
    {
      "inputs": [],
      "name": "loPrice",
      "outputs": [
        {
          "internalType": "uint256",
          "name": "",
          "type": "uint256"
        }
      ],
      "stateMutability": "view",
      "type": "function"
    },
    {
      "inputs": [
        {
          "internalType": "uint256",
          "name": "",
          "type": "uint256"
        }
      ],
      "name": "loSaleQueue",
      "outputs": [
        {
          "internalType": "address",
          "name": "",
          "type": "address"
        }
      ],
      "stateMutability": "view",
      "type": "function"
    },
    {
      "inputs": [],
      "name": "loSaleQueueIndex",
      "outputs": [
        {
          "internalType": "uint256",
          "name": "",
          "type": "uint256"
        }
      ],
      "stateMutability": "view",
      "type": "function"
    },
    {
      "inputs": [],
      "name": "owner",
      "outputs": [
        {
          "internalType": "address",
          "name": "",
          "type": "address"
        }
      ],
      "stateMutability": "view",
      "type": "function"
    },
    {
      "inputs": [],
      "name": "paused",
      "outputs": [
        {
          "internalType": "bool",
          "name": "",
          "type": "bool"
        }
      ],
      "stateMutability": "view",
      "type": "function"
    },
    {
      "inputs": [],
      "name": "payout",
      "outputs": [],
      "stateMutability": "nonpayable",
      "type": "function"
    },
    {
      "inputs": [],
      "name": "playerCount",
      "outputs": [
        {
          "internalType": "uint256",
          "name": "",
          "type": "uint256"
        }
      ],
      "stateMutability": "view",
      "type": "function"
    },
    {
      "inputs": [],
      "name": "renounceOwnership",
      "outputs": [],
      "stateMutability": "nonpayable",
      "type": "function"
    },
    {
      "inputs": [
        {
          "internalType": "address",
          "name": "from",
          "type": "address"
        },
        {
          "internalType": "address",
          "name": "to",
          "type": "address"
        },
        {
          "internalType": "uint256[]",
          "name": "ids",
          "type": "uint256[]"
        },
        {
          "internalType": "uint256[]",
          "name": "amounts",
          "type": "uint256[]"
        },
        {
          "internalType": "bytes",
          "name": "data",
          "type": "bytes"
        }
      ],
      "name": "safeBatchTransferFrom",
      "outputs": [],
      "stateMutability": "nonpayable",
      "type": "function"
    },
    {
      "inputs": [
        {
          "internalType": "address",
          "name": "from",
          "type": "address"
        },
        {
          "internalType": "address",
          "name": "to",
          "type": "address"
        },
        {
          "internalType": "uint256",
          "name": "id",
          "type": "uint256"
        },
        {
          "internalType": "uint256",
          "name": "amount",
          "type": "uint256"
        },
        {
          "internalType": "bytes",
          "name": "data",
          "type": "bytes"
        }
      ],
      "name": "safeTransferFrom",
      "outputs": [],
      "stateMutability": "nonpayable",
      "type": "function"
    },
    {
      "inputs": [
        {
          "internalType": "uint256",
          "name": "tokenId",
          "type": "uint256"
        }
      ],
      "name": "sell",
      "outputs": [],
      "stateMutability": "nonpayable",
      "type": "function"
    },
    {
      "inputs": [
        {
          "internalType": "address",
          "name": "operator",
          "type": "address"
        },
        {
          "internalType": "bool",
          "name": "approved",
          "type": "bool"
        }
      ],
      "name": "setApprovalForAll",
      "outputs": [],
      "stateMutability": "nonpayable",
      "type": "function"
    },
    {
      "inputs": [
        {
          "internalType": "bytes4",
          "name": "interfaceId",
          "type": "bytes4"
        }
      ],
      "name": "supportsInterface",
      "outputs": [
        {
          "internalType": "bool",
          "name": "",
          "type": "bool"
        }
      ],
      "stateMutability": "view",
      "type": "function"
    },
    {
      "inputs": [
        {
          "internalType": "uint256",
          "name": "id",
          "type": "uint256"
        }
      ],
      "name": "totalSupply",
      "outputs": [
        {
          "internalType": "uint256",
          "name": "",
          "type": "uint256"
        }
      ],
      "stateMutability": "view",
      "type": "function"
    },
    {
      "inputs": [
        {
          "internalType": "address",
          "name": "newOwner",
          "type": "address"
        }
      ],
      "name": "transferOwnership",
      "outputs": [],
      "stateMutability": "nonpayable",
      "type": "function"
    },
    {
      "inputs": [
        {
          "internalType": "uint256",
          "name": "",
          "type": "uint256"
        }
      ],
      "name": "uri",
      "outputs": [
        {
          "internalType": "string",
          "name": "",
          "type": "string"
        }
      ],
      "stateMutability": "view",
      "type": "function"
    },
    {
      "inputs": [],
      "name": "usdc",
      "outputs": [
        {
          "internalType": "contract IERC20",
          "name": "",
          "type": "address"
        }
      ],
      "stateMutability": "view",
      "type": "function"
    },
    {
      "inputs": [
        {
          "internalType": "uint256",
          "name": "",
          "type": "uint256"
        }
      ],
      "name": "winners",
      "outputs": [
        {
          "internalType": "address",
          "name": "",
          "type": "address"
        }
      ],
      "stateMutability": "view",
      "type": "function"
    }
  ],
  "bytecode": "0x60806040526000601081905560118190556014556015805460ff19169055601880546001600160a01b03191673e11a86849d99f524cac3e7a0ec1241828e332c621790553480156200005057600080fd5b5060405162003bf538038062003bf5833981016040819052620000739162000451565b6040518060600160405280602d815260200162003bc8602d91396200009881620002a1565b50620000a433620002ba565b6004805460ff60a01b191690556001600555600884905560068490556009839055600783905560006002620000da858762000487565b600754600654620000ec9190620004e5565b620000f990600162000487565b620001059190620004c3565b620001119190620004a2565b90508162000121600283620004a2565b1015620001755760405162461bcd60e51b815260206004820152601e60248201527f4a61636b706f7420746f6f206c6172676520666f72207468652067616d65000060448201526064015b60405180910390fd5b60178290556008546200019857634e487b7160e01b600052600160045260246000fd5b600060095411620001b957634e487b7160e01b600052600160045260246000fd5b60095460085411620001db57634e487b7160e01b600052600160045260246000fd5b600a839055600c60205260007f13649b2456f1b42fef0f0040b3aaeabcd21a76a0f3f5defd4f583839455116e881905560018082527fd421a5181c571bba3f01190c922c3b2a896fc1d84e86c9f17ac10e67ebef8b5c919091556200024290849062000487565b600b555050600d602052505060007f81955a0a11e65eac625c29e8882660bae4e165a75d72780094acae8ece9a29ee819055600181527ffd54ff1ed53f34a900b24c5ba64f85761163b5d82d98a47b9bd80e45466993c5555062000552565b8051620002b6906002906020840190620003ab565b5050565b6000620002cf6004546001600160a01b031690565b6001600160a01b03161480620002f257506004546001600160a01b038281169116145b620003405760405162461bcd60e51b815260206004820152601f60248201527f48494c4f3a2063616e6e6f74207472616e73666572206f776e6572736869700060448201526064016200016c565b62000356816200035960201b6200166a1760201c565b50565b600480546001600160a01b038381166001600160a01b0319831681179093556040519116919082907f8be0079c531659141344cd1fd0a4f28419497f9722a3daafe3b4186f6b6457e090600090a35050565b828054620003b990620004ff565b90600052602060002090601f016020900481019282620003dd576000855562000428565b82601f10620003f857805160ff191683800117855562000428565b8280016001018555821562000428579182015b82811115620004285782518255916020019190600101906200040b565b50620004369291506200043a565b5090565b5b808211156200043657600081556001016200043b565b6000806000806080858703121562000467578384fd5b505082516020840151604085015160609095015191969095509092509050565b600082198211156200049d576200049d6200053c565b500190565b600082620004be57634e487b7160e01b81526012600452602481fd5b500490565b6000816000190483118215151615620004e057620004e06200053c565b500290565b600082821015620004fa57620004fa6200053c565b500390565b600181811c908216806200051457607f821691505b602082108114156200053657634e487b7160e01b600052602260045260246000fd5b50919050565b634e487b7160e01b600052601160045260246000fd5b61366680620005626000396000f3fe608060405234801561001057600080fd5b50600436106102685760003560e01c8063833cbacf11610151578063cd1fb31d116100c3578063e757223011610087578063e75722301461055f578063e985e9c514610572578063f242432a146105ae578063f2e8dfdb146105c1578063f2fde38b146105c9578063f5cf330b146105dc57600080fd5b8063cd1fb31d146104fb578063d6febde814610504578063d9d60b5214610517578063df15c37e14610537578063e4849b321461054c57600080fd5b8063b23c328b11610115578063b23c328b1461046b578063b2ecfad414610474578063b33dbd3014610487578063b976fe611461049a578063bd85b039146104a3578063cab8ec9f146104c357600080fd5b8063833cbacf146104185780638da5cb5b1461042157806391362a3b14610432578063a22cb46514610445578063a2fb11751461045857600080fd5b80634e1273f4116101ea578063633a8d0f116101ae578063633a8d0f146103c457806363bd1d4a146103e457806368d2be8f146103ec5780636b31ee01146103f4578063715018a6146103fd5780637d9347ef1461040557600080fd5b80634e1273f4146103475780634f558e79146103675780635a437daa146103895780635c5c4d61146103925780635c975abb146103b257600080fd5b806321441d9d1161023157806321441d9d146102ec5780632eb2c2d6146102f5578063302bcc571461030a5780633e413bee146103135780634021d15d1461033e57600080fd5b8062fdd58e1461026d57806301ffc9a714610293578063069a825c146102b65780630e89341c146102c3578063212a7bcd146102e3575b600080fd5b61028061027b366004612e70565b6105ef565b6040519081526020015b60405180910390f35b6102a66102a1366004612f80565b610689565b604051901515815260200161028a565b6015546102a69060ff1681565b6102d66102d1366004612fb8565b6106d9565b60405161028a9190613258565b61028060075481565b61028060085481565b610308610303366004612d31565b61076d565b005b61028060145481565b601854610326906001600160a01b031681565b6040516001600160a01b03909116815260200161028a565b61028060105481565b61035a610355366004612e99565b610804565b60405161028a9190613217565b6102a6610375366004612fb8565b600090815260036020526040902054151590565b61028060095481565b6102806103a0366004612fb8565b600c6020526000908152604090205481565b600454600160a01b900460ff166102a6565b6102806103d2366004612fb8565b600d6020526000908152604090205481565b610308610966565b610280600181565b61028060175481565b610308610c37565b610280610413366004612fe8565b610c6d565b610280600a5481565b6004546001600160a01b0316610326565b610326610440366004612fb8565b610d78565b610308610453366004612e3a565b610da2565b610326610466366004612fb8565b610db1565b61028060065481565b6102a6610482366004612fb8565b610dc1565b610326610495366004612fb8565b610de9565b61028060115481565b6102806104b1366004612fb8565b60009081526003602052604090205490565b6104d66104d136600461300a565b610df9565b604080516001600160a01b03909416845260208401929092529082015260600161028a565b610280600b5481565b61030861051236600461300a565b610e45565b61052a610525366004612cde565b6111c5565b60405161028a91906133a1565b61053f61137f565b60405161028a91906131ae565b61030861055a366004612fb8565b6113e1565b61028061056d366004612fb8565b611458565b6102a6610580366004612cff565b6001600160a01b03918216600090815260016020908152604080832093909416825291909152205460ff1690565b6103086105bc366004612dd7565b611485565b610280600081565b6103086105d7366004612cde565b61150c565b6102806105ea366004612fb8565b6115a7565b60006001600160a01b0383166106605760405162461bcd60e51b815260206004820152602b60248201527f455243313135353a2062616c616e636520717565727920666f7220746865207a60448201526a65726f206164647265737360a81b60648201526084015b60405180910390fd5b506000818152602081815260408083206001600160a01b03861684529091529020545b92915050565b60006001600160e01b03198216636cdb3d1360e11b14806106ba57506001600160e01b031982166303a24d0760e21b145b8061068357506301ffc9a760e01b6001600160e01b0319831614610683565b6060600280546106e8906134bb565b80601f0160208091040260200160405190810160405280929190818152602001828054610714906134bb565b80156107615780601f1061073657610100808354040283529160200191610761565b820191906000526020600020905b81548152906001019060200180831161074457829003601f168201915b50505050509050919050565b6001600160a01b03851633148061078957506107898533610580565b6107f05760405162461bcd60e51b815260206004820152603260248201527f455243313135353a207472616e736665722063616c6c6572206973206e6f74206044820152711bdddb995c881b9bdc88185c1c1c9bdd995960721b6064820152608401610657565b6107fd85858585856116bc565b5050505050565b606081518351146108695760405162461bcd60e51b815260206004820152602960248201527f455243313135353a206163636f756e747320616e6420696473206c656e677468604482015268040dad2e6dac2e8c6d60bb1b6064820152608401610657565b6000835167ffffffffffffffff81111561089357634e487b7160e01b600052604160045260246000fd5b6040519080825280602002602001820160405280156108bc578160200160208202803683370190505b50905060005b845181101561095e576109238582815181106108ee57634e487b7160e01b600052603260045260246000fd5b602002602001015185838151811061091657634e487b7160e01b600052603260045260246000fd5b60200260200101516105ef565b82828151811061094357634e487b7160e01b600052603260045260246000fd5b602090810291909101015261095781613523565b90506108c2565b509392505050565b6004546001600160a01b031633146109905760405162461bcd60e51b81526004016106579061336c565b6016546017546000906109ab90670de0b6b3a7640000613485565b905060005b82811015610b0e5760006109c48484613465565b601854601680549293506001600160a01b039091169163a9059cbb9190859081106109ff57634e487b7160e01b600052603260045260246000fd5b60009182526020909120015460405160e083901b6001600160e01b03191681526001600160a01b03909116600482015260248101849052604401602060405180830381600087803b158015610a5357600080fd5b505af1158015610a67573d6000803e3d6000fd5b505050506040513d601f19601f82011682018060405250810190610a8b9190612f64565b507f88c519ab1745d32c7a1e2c97aa7817ca6e8046aaa146002b9ec1c8516ed6785460168381548110610ace57634e487b7160e01b600052603260045260246000fd5b60009182526020918290200154604080516001600160a01b0390921682529181018490520160405180910390a15080610b0681613523565b9150506109b0565b506018546040516370a0823160e01b81523060048201526000916001600160a01b0316906370a082319060240160206040518083038186803b158015610b5357600080fd5b505afa158015610b67573d6000803e3d6000fd5b505050506040513d601f19601f82011682018060405250810190610b8b9190612fd0565b6018549091506001600160a01b031663a9059cbb610bb16004546001600160a01b031690565b6040516001600160e01b031960e084901b1681526001600160a01b03909116600482015260248101849052604401602060405180830381600087803b158015610bf957600080fd5b505af1158015610c0d573d6000803e3d6000fd5b505050506040513d601f19601f82011682018060405250810190610c319190612f64565b50505050565b6004546001600160a01b03163314610c615760405162461bcd60e51b81526004016106579061336c565b610c6b60006118bb565b565b60006001818415610c7f57600f610c82565b600e5b805480602002602001604051908101604052809291908181526020018280548015610cd657602002820191906000526020600020905b81546001600160a01b03168152600190910190602001808311610cb8575b505050505090506000808614610cee57601154610cf2565b6010545b9050805b8251811015610d6b57856001600160a01b0316838281518110610d2957634e487b7160e01b600052603260045260246000fd5b60200260200101516001600160a01b03161415610d4c5783945050505050610683565b610d5784600161344d565b935080610d6381613523565b915050610cf6565b5060009695505050505050565b600f8181548110610d8857600080fd5b6000918252602090912001546001600160a01b0316905081565b610dad338383611946565b5050565b60168181548110610d8857600080fd5b600a546000828152600c60205260408120549091148061068357506009546008541492915050565b600e8181548110610d8857600080fd5b60126020528160005260406000208181548110610e1557600080fd5b60009182526020909120600390910201805460018201546002909201546001600160a01b03909116935090915083565b600454600160a01b900460ff1615610e6f5760405162461bcd60e51b8152600401610657906132b3565b811580610e7c5750600182145b610eb95760405162461bcd60e51b815260206004820152600e60248201526d24b73b30b634b2103a37b5b2b71760911b6044820152606401610657565b8060011480610ec85750806003145b610f065760405162461bcd60e51b815260206004820152600f60248201526e24b73b30b634b21030b6b7bab73a1760891b6044820152606401610657565b6000610f1183611458565b905060008111610f3157634e487b7160e01b600052600160045260246000fd5b610f3b8282613485565b610f4d90670de0b6b3a7640000613485565b6018546040516370a0823160e01b81523360048201529192506000916001600160a01b03909116906370a082319060240160206040518083038186803b158015610f9657600080fd5b505afa158015610faa573d6000803e3d6000fd5b505050506040513d601f19601f82011682018060405250810190610fce9190612fd0565b9050818110156110205760405162461bcd60e51b815260206004820152601a60248201527f496e73756666696369656e7420555344432062616c616e63652e0000000000006044820152606401610657565b6018546040516323b872dd60e01b8152336004820152306024820152604481018490526001600160a01b03909116906323b872dd90606401602060405180830381600087803b15801561107257600080fd5b505af1158015611086573d6000803e3d6000fd5b505050506040513d601f19601f820116820180604052508101906110aa9190612f64565b506110c633858560405180602001604052806000815250611a27565b60095460085414156110d85750505050565b6000600754831480156110eb5750600185145b80611100575060065483148015611100575084155b600b546000878152600d60205260408120549293509114806111225750846003145b9050818061112d5750805b156111755761113b86611b4a565b60408051338152602081018890527f0d86730737b142fc160892fa8a0f2db687a92a0e294d1ad70624cf5acef03b84910160405180910390a15b801561119c576000868152600d60209081526040808320839055600c9091528120556111a5565b6111a586611b5f565b80156111b4576111b486611be5565b6111bd33611d24565b505050505050565b6111cd612b66565b60006111da8360006105ef565b905060006111e98460016105ef565b601854604051636eb1769f60e11b81526001600160a01b0387811660048301523060248301529293506000929091169063dd62ed3e9060440160206040518083038186803b15801561123a57600080fd5b505afa15801561124e573d6000803e3d6000fd5b505050506040513d601f19601f820116820180604052508101906112729190612fd0565b600360209081527f3617319a054d772f909f7c479a2cebe5066e836a939412e32403c99029b92eff5460016000527fa15bc60c955c405d20d9149c709e2460f1c2d9a497496a7f46004d1772c3054c546040805160c0810182526008548152600954818601526016805483518188028101880185528181529798509496939591949285019392909183018282801561133357602002820191906000526020600020905b81546001600160a01b03168152600190910190602001808311611315575b5050509183525050604080516060808201835295815260208181019590955260145481830152848301528051808201825297885292870195909552908401949094529091015292915050565b606060168054806020026020016040519081016040528092919081815260200182805480156113d757602002820191906000526020600020905b81546001600160a01b031681526001909101906020018083116113b9575b5050505050905090565b600260055414156114345760405162461bcd60e51b815260206004820152601f60248201527f5265656e7472616e637947756172643a207265656e7472616e742063616c6c006044820152606401610657565b60026005553361144681836000611e04565b61144f81611d24565b50506001600555565b60008161146757505060085490565b600182141561147857505060095490565b506000919050565b919050565b6001600160a01b0385163314806114a157506114a18533610580565b6114ff5760405162461bcd60e51b815260206004820152602960248201527f455243313135353a2063616c6c6572206973206e6f74206f776e6572206e6f7260448201526808185c1c1c9bdd995960ba1b6064820152608401610657565b6107fd8585858585612069565b6004546001600160a01b031633146115365760405162461bcd60e51b81526004016106579061336c565b6001600160a01b03811661159b5760405162461bcd60e51b815260206004820152602660248201527f4f776e61626c653a206e6577206f776e657220697320746865207a65726f206160448201526564647265737360d01b6064820152608401610657565b6115a4816118bb565b50565b6000806115b48333610c6d565b905080156115c25792915050565b600083156115d157600f6115d4565b600e5b805460018101825560008281526020812090910180546001600160a01b0319163317905590915084156116095760115461160d565b6010545b825490915061161d9082906134a4565b60408051338152602081018890529081018290529093507f53efec596e831eee87aaffc911be481a756fc7f3b402a3540b286998fbf15fa29060600160405180910390a150909392505050565b600480546001600160a01b038381166001600160a01b0319831681179093556040519116919082907f8be0079c531659141344cd1fd0a4f28419497f9722a3daafe3b4186f6b6457e090600090a35050565b815183511461171e5760405162461bcd60e51b815260206004820152602860248201527f455243313135353a2069647320616e6420616d6f756e7473206c656e677468206044820152670dad2e6dac2e8c6d60c31b6064820152608401610657565b6001600160a01b0384166117445760405162461bcd60e51b8152600401610657906132dd565b336117538187878787876121a1565b60005b845181101561185557600085828151811061178157634e487b7160e01b600052603260045260246000fd5b6020026020010151905060008583815181106117ad57634e487b7160e01b600052603260045260246000fd5b602090810291909101810151600084815280835260408082206001600160a01b038e1683529093529190912054909150818110156117fd5760405162461bcd60e51b815260040161065790613322565b6000838152602081815260408083206001600160a01b038e8116855292528083208585039055908b1682528120805484929061183a90849061344d565b925050819055505050508061184e90613523565b9050611756565b50846001600160a01b0316866001600160a01b0316826001600160a01b03167f4a39dc06d4c0dbc64b70af90fd698a233a518aa5d07e595d983b8c0526c8f7fb87876040516118a592919061322a565b60405180910390a46111bd818787878787612242565b60006118cf6004546001600160a01b031690565b6001600160a01b031614806118f157506004546001600160a01b038281169116145b61193d5760405162461bcd60e51b815260206004820152601f60248201527f48494c4f3a2063616e6e6f74207472616e73666572206f776e657273686970006044820152606401610657565b6115a48161166a565b816001600160a01b0316836001600160a01b031614156119ba5760405162461bcd60e51b815260206004820152602960248201527f455243313135353a2073657474696e6720617070726f76616c20737461747573604482015268103337b91039b2b63360b91b6064820152608401610657565b6001600160a01b03838116600081815260016020908152604080832094871680845294825291829020805460ff191686151590811790915591519182527f17307eab39ab6107e8899845ad3d59bd9653f200f220920489ca2b5937696c31910160405180910390a3505050565b6001600160a01b038416611a875760405162461bcd60e51b815260206004820152602160248201527f455243313135353a206d696e7420746f20746865207a65726f206164647265736044820152607360f81b6064820152608401610657565b336000611a93856123ad565b90506000611aa0856123ad565b9050611ab1836000898585896121a1565b6000868152602081815260408083206001600160a01b038b16845290915281208054879290611ae190849061344d565b909155505060408051878152602081018790526001600160a01b03808a1692600092918716917fc3d58168c5ae7397731d063d5bbf3d657854427343f4c083240f7aacaa2d0f62910160405180910390a4611b4183600089898989612406565b50505050505050565b80611b57576115a46124d0565b6115a461251f565b600a546000828152600c60205260409020541015611ba1576000818152600c6020526040902054611b9190600161344d565b6000828152600c60205260409020555b600b546000828152600d602052604090205410156115a4576000818152600d6020526040902054611bd390600161344d565b6000828152600d602052604090205550565b600454600160a01b900460ff1615611c0f5760405162461bcd60e51b8152600401610657906132b3565b60008115611c1e57600f611c21565b600e5b805480602002602001604051908101604052809291908181526020018280548015611c7557602002820191906000526020600020905b81546001600160a01b03168152600190910190602001808311611c57575b50505050509050805160001415611c8a575050565b60008215611c9a57601154611c9e565b6010545b90506000828281518110611cc257634e487b7160e01b600052603260045260246000fd5b602002602001015190506000611cd882866105ef565b905080611ce6575050505050565b611cf282866001611e04565b84611d0d57601054611d0590600161344d565b601055611d1f565b601154611d1b90600161344d565b6011555b6107fd825b6000611d318260006105ef565b90506000611d408360016105ef565b9050600080831180611d525750600082115b6001600160a01b03851660009081526013602052604090205490915060ff16818015611d7c575080155b15611dbb576001600160a01b0385166000908152601360205260409020805460ff19166001908117909155601454611db39161344d565b6014556107fd565b81158015611dc65750805b156107fd576001600160a01b0385166000908152601360205260409020805460ff19169055601454611dfa906001906134a4565b6014555050505050565b600454600160a01b900460ff1615611e2e5760405162461bcd60e51b8152600401610657906132b3565b811580611e3b5750600182145b611e785760405162461bcd60e51b815260206004820152600e60248201526d24b73b30b634b2103a37b5b2b71760911b6044820152606401610657565b600a546000838152600c602052604081205490911480611e955750815b9050808015611ea8575060095460085414155b611f065760405162461bcd60e51b815260206004820152602960248201527f48494c4f3a2063616e6e6f742073656c6c207768656e207468652073616c65206044820152681a5cc81b1bd8dad95960ba1b6064820152608401610657565b611f108484612584565b6009546008541415611f2d57610c31611f2884611458565b612649565b6000611f3884611458565b9050611f4c81670de0b6b3a7640000613485565b60185460405163a9059cbb60e01b81526001600160a01b0388811660048301526024820184905292935091169063a9059cbb90604401602060405180830381600087803b158015611f9c57600080fd5b505af1158015611fb0573d6000803e3d6000fd5b505050506040513d601f19601f82011682018060405250810190611fd49190612f64565b50611fe1858560016127a8565b8261203257611fef84611b4a565b604080516001600160a01b0387168152602081018690527f0d86730737b142fc160892fa8a0f2db687a92a0e294d1ad70624cf5acef03b84910160405180910390a15b8315801561204857506120468560016105ef565b155b156107fd576107fd8560018060405180602001604052806000815250611a27565b6001600160a01b03841661208f5760405162461bcd60e51b8152600401610657906132dd565b33600061209b856123ad565b905060006120a8856123ad565b90506120b88389898585896121a1565b6000868152602081815260408083206001600160a01b038c168452909152902054858110156120f95760405162461bcd60e51b815260040161065790613322565b6000878152602081815260408083206001600160a01b038d8116855292528083208985039055908a1682528120805488929061213690849061344d565b909155505060408051888152602081018890526001600160a01b03808b16928c821692918816917fc3d58168c5ae7397731d063d5bbf3d657854427343f4c083240f7aacaa2d0f62910160405180910390a4612196848a8a8a8a8a612406565b505050505050505050565b600454600160a01b900460ff16156121cb5760405162461bcd60e51b8152600401610657906132b3565b6001600160a01b03851615806121e857506001600160a01b038416155b6122345760405162461bcd60e51b815260206004820152601760248201527f48494c4f3a206e6f6e207472616e736665727261626c650000000000000000006044820152606401610657565b6111bd868686868686612938565b6001600160a01b0384163b156111bd5760405163bc197c8160e01b81526001600160a01b0385169063bc197c8190612286908990899088908890889060040161310b565b602060405180830381600087803b1580156122a057600080fd5b505af19250505080156122d0575060408051601f3d908101601f191682019092526122cd91810190612f9c565b60015b61237d576122dc61356a565b806308c379a0141561231657506122f1613582565b806122fc5750612318565b8060405162461bcd60e51b81526004016106579190613258565b505b60405162461bcd60e51b815260206004820152603460248201527f455243313135353a207472616e7366657220746f206e6f6e20455243313135356044820152732932b1b2b4bb32b91034b6b83632b6b2b73a32b960611b6064820152608401610657565b6001600160e01b0319811663bc197c8160e01b14611b415760405162461bcd60e51b81526004016106579061326b565b604080516001808252818301909252606091600091906020808301908036833701905050905082816000815181106123f557634e487b7160e01b600052603260045260246000fd5b602090810291909101015292915050565b6001600160a01b0384163b156111bd5760405163f23a6e6160e01b81526001600160a01b0385169063f23a6e619061244a9089908990889088908890600401613169565b602060405180830381600087803b15801561246457600080fd5b505af1925050508015612494575060408051601f3d908101601f1916820190925261249191810190612f9c565b60015b6124a0576122dc61356a565b6001600160e01b0319811663f23a6e6160e01b14611b415760405162461bcd60e51b81526004016106579061326b565b60016008546124df91906134a4565b6008557f5a258dc6fce0816c9caf9835f08fa5596416dd55037714d2e51688cea5f062c560085460405161251591815260200190565b60405180910390a1565b60095461252d90600161344d565b6009819055600854101561255157634e487b7160e01b600052600160045260246000fd5b7f3f9b5fbd1bfff0a78edef53fb452db3ea00eb6ea96cb06defcc66dd171bbca2160095460405161251591815260200190565b600061258f82611458565b60408051606080820183526001600160a01b03878116808452602080850189815285870188815260008981526012845288812080546001808201835591835291859020895160039093020180546001600160a01b03191692909716919091178655915191850191909155516002909301929092558451908152908101879052928301849052929350917fc19f70d47acbbf1d2faf3a7944182cf6b5345c67d2156ed328ea510e72f13066910160405180910390a150505050565b6000601260006008548152602001908152602001600020805480602002602001604051908101604052809291908181526020016000905b828210156126d5576000848152602090819020604080516060810182526003860290920180546001600160a01b0316835260018082015484860152600290910154918301919091529083529092019101612680565b50505050905060005b815181101561275757601682828151811061270957634e487b7160e01b600052603260045260246000fd5b6020908102919091018101515182546001810184556000938452919092200180546001600160a01b0319166001600160a01b039092169190911790558061274f81613523565b9150506126de565b506015805460ff191660011790556040517f10dee8c2942b449b177825c6d5eb7131392949ec2008676761b93b00acea615a906127989060169085906131c1565b60405180910390a1610dad612ae9565b6001600160a01b03831661280a5760405162461bcd60e51b815260206004820152602360248201527f455243313135353a206275726e2066726f6d20746865207a65726f206164647260448201526265737360e81b6064820152608401610657565b336000612816846123ad565b90506000612823846123ad565b9050612843838760008585604051806020016040528060008152506121a1565b6000858152602081815260408083206001600160a01b038a168452909152902054848110156128c05760405162461bcd60e51b8152602060048201526024808201527f455243313135353a206275726e20616d6f756e7420657863656564732062616c604482015263616e636560e01b6064820152608401610657565b6000868152602081815260408083206001600160a01b038b81168086529184528285208a8703905582518b81529384018a90529092908816917fc3d58168c5ae7397731d063d5bbf3d657854427343f4c083240f7aacaa2d0f62910160405180910390a4604080516020810190915260009052611b41565b6001600160a01b0385166129db5760005b83518110156129d95782818151811061297257634e487b7160e01b600052603260045260246000fd5b60200260200101516003600086848151811061299e57634e487b7160e01b600052603260045260246000fd5b6020026020010151815260200190815260200160002060008282546129c3919061344d565b909155506129d2905081613523565b9050612949565b505b6001600160a01b0384166111bd5760005b8351811015611b41576000848281518110612a1757634e487b7160e01b600052603260045260246000fd5b602002602001015190506000848381518110612a4357634e487b7160e01b600052603260045260246000fd5b6020026020010151905060006003600084815260200190815260200160002054905081811015612ac65760405162461bcd60e51b815260206004820152602860248201527f455243313135353a206275726e20616d6f756e74206578636565647320746f74604482015267616c537570706c7960c01b6064820152608401610657565b60009283526003602052604090922091039055612ae281613523565b90506129ec565b600454600160a01b900460ff1615612b135760405162461bcd60e51b8152600401610657906132b3565b6004805460ff60a01b1916600160a01b1790557f62e78cea01bee320cd4e420270b5ea74000d11b0c9f74754ebdbfc544b05a258612b4e3390565b6040516001600160a01b039091168152602001612515565b6040518060c00160405280600081526020016000815260200160608152602001612b8e612ba8565b8152602001612b9b612bc6565b8152602001600081525090565b60405180606001604052806003906020820280368337509192915050565b60405180604001604052806002906020820280368337509192915050565b80356001600160a01b038116811461148057600080fd5b600082601f830112612c0b578081fd5b81356020612c1882613429565b604051612c2582826134f6565b8381528281019150858301600585901b87018401881015612c44578586fd5b855b85811015612c6257813584529284019290840190600101612c46565b5090979650505050505050565b600082601f830112612c7f578081fd5b813567ffffffffffffffff811115612c9957612c99613554565b604051612cb0601f8301601f1916602001826134f6565b818152846020838601011115612cc4578283fd5b816020850160208301379081016020019190915292915050565b600060208284031215612cef578081fd5b612cf882612be4565b9392505050565b60008060408385031215612d11578081fd5b612d1a83612be4565b9150612d2860208401612be4565b90509250929050565b600080600080600060a08688031215612d48578081fd5b612d5186612be4565b9450612d5f60208701612be4565b9350604086013567ffffffffffffffff80821115612d7b578283fd5b612d8789838a01612bfb565b94506060880135915080821115612d9c578283fd5b612da889838a01612bfb565b93506080880135915080821115612dbd578283fd5b50612dca88828901612c6f565b9150509295509295909350565b600080600080600060a08688031215612dee578081fd5b612df786612be4565b9450612e0560208701612be4565b93506040860135925060608601359150608086013567ffffffffffffffff811115612e2e578182fd5b612dca88828901612c6f565b60008060408385031215612e4c578182fd5b612e5583612be4565b91506020830135612e658161360c565b809150509250929050565b60008060408385031215612e82578182fd5b612e8b83612be4565b946020939093013593505050565b60008060408385031215612eab578182fd5b823567ffffffffffffffff80821115612ec2578384fd5b818501915085601f830112612ed5578384fd5b81356020612ee282613429565b604051612eef82826134f6565b8381528281019150858301600585901b870184018b1015612f0e578889fd5b8896505b84871015612f3757612f2381612be4565b835260019690960195918301918301612f12565b5096505086013592505080821115612f4d578283fd5b50612f5a85828601612bfb565b9150509250929050565b600060208284031215612f75578081fd5b8151612cf88161360c565b600060208284031215612f91578081fd5b8135612cf88161361a565b600060208284031215612fad578081fd5b8151612cf88161361a565b600060208284031215612fc9578081fd5b5035919050565b600060208284031215612fe1578081fd5b5051919050565b60008060408385031215612ffa578182fd5b82359150612d2860208401612be4565b6000806040838503121561301c578182fd5b50508035926020909101359150565b6000815180845260208085019450808401835b838110156130635781516001600160a01b03168752958201959082019060010161303e565b509495945050505050565b8060005b6002811015610c31578151845260209384019390910190600101613072565b6000815180845260208085019450808401835b83811015613063578151875295820195908201906001016130a4565b60008151808452815b818110156130e5576020818501810151868301820152016130c9565b818111156130f65782602083870101525b50601f01601f19169290920160200192915050565b6001600160a01b0386811682528516602082015260a06040820181905260009061313790830186613091565b82810360608401526131498186613091565b9050828103608084015261315d81856130c0565b98975050505050505050565b6001600160a01b03868116825285166020820152604081018490526060810183905260a0608082018190526000906131a3908301846130c0565b979650505050505050565b602081526000612cf8602083018461302b565b6000604082016040835280855480835260608501915086845260209250828420845b828110156132085781546001600160a01b0316845292840192600191820191016131e3565b50505092019290925292915050565b602081526000612cf86020830184613091565b60408152600061323d6040830185613091565b828103602084015261324f8185613091565b95945050505050565b602081526000612cf860208301846130c0565b60208082526028908201527f455243313135353a204552433131353552656365697665722072656a656374656040820152676420746f6b656e7360c01b606082015260800190565b60208082526010908201526f14185d5cd8589b194e881c185d5cd95960821b604082015260600190565b60208082526025908201527f455243313135353a207472616e7366657220746f20746865207a65726f206164604082015264647265737360d81b606082015260800190565b6020808252602a908201527f455243313135353a20696e73756666696369656e742062616c616e636520666f60408201526939103a3930b739b332b960b11b606082015260800190565b6020808252818101527f4f776e61626c653a2063616c6c6572206973206e6f7420746865206f776e6572604082015260600190565b6000602080835283518184015280840151604084015260408401516101208060608601526133d361014086018361302b565b9150606086015160808601855b60038110156133fd578251825291850191908501906001016133e0565b5050506080860151925061341460e086018461306e565b60a08601518186015250809250505092915050565b600067ffffffffffffffff82111561344357613443613554565b5060051b60200190565b600082198211156134605761346061353e565b500190565b60008261348057634e487b7160e01b81526012600452602481fd5b500490565b600081600019048311821515161561349f5761349f61353e565b500290565b6000828210156134b6576134b661353e565b500390565b600181811c908216806134cf57607f821691505b602082108114156134f057634e487b7160e01b600052602260045260246000fd5b50919050565b601f8201601f1916810167ffffffffffffffff8111828210171561351c5761351c613554565b6040525050565b60006000198214156135375761353761353e565b5060010190565b634e487b7160e01b600052601160045260246000fd5b634e487b7160e01b600052604160045260246000fd5b600060033d111561357f57600481823e5160e01c5b90565b600060443d10156135905790565b6040516003193d81016004833e81513d67ffffffffffffffff81602484011181841117156135c057505050505090565b82850191508151818111156135d85750505050505090565b843d87010160208285010111156135f25750505050505090565b613601602082860101876134f6565b509095945050505050565b80151581146115a457600080fd5b6001600160e01b0319811681146115a457600080fdfea2646970667358221220467871e7e3cc7f794c95038f4bae315d89ad6cd3bf477bba697391d71077ad4764736f6c6343000804003368747470733a2f2f68696c6f2d65696768742e76657263656c2e6170702f6170692f746f6b656e732f7b69647d",
  "linkReferences": {},
  "deployedLinkReferences": {}
}