{
  "_format": "hh-sol-artifact-1",
  "contractName": "HILO",
  "sourceName": "contracts/HILO.sol",
  "abi": [
    {
      "inputs": [
        {
          "internalType": "uint256",
          "name": "_initialHi",
          "type": "uint256"
        },
        {
          "internalType": "uint256",
          "name": "_initialLo",
          "type": "uint256"
        },
        {
          "internalType": "uint256",
          "name": "_buyRequiredCount",
          "type": "uint256"
        },
        {
          "internalType": "uint256",
          "name": "_jackpot",
          "type": "uint256"
        }
      ],
      "stateMutability": "nonpayable",
      "type": "constructor"
    },
    {
      "anonymous": false,
      "inputs": [
        {
          "indexed": false,
          "internalType": "address",
          "name": "player",
          "type": "address"
        },
        {
          "indexed": false,
          "internalType": "uint256",
          "name": "tokenId",
          "type": "uint256"
        },
        {
          "indexed": false,
          "internalType": "uint256",
          "name": "price",
          "type": "uint256"
        }
      ],
      "name": "ActionAdded",
      "type": "event"
    },
    {
      "anonymous": false,
      "inputs": [
        {
          "indexed": true,
          "internalType": "address",
          "name": "account",
          "type": "address"
        },
        {
          "indexed": true,
          "internalType": "address",
          "name": "operator",
          "type": "address"
        },
        {
          "indexed": false,
          "internalType": "bool",
          "name": "approved",
          "type": "bool"
        }
      ],
      "name": "ApprovalForAll",
      "type": "event"
    },
    {
      "anonymous": false,
      "inputs": [
        {
          "indexed": false,
          "internalType": "uint256",
          "name": "newHiPrice",
          "type": "uint256"
        }
      ],
      "name": "HiDecreased",
      "type": "event"
    },
    {
      "anonymous": false,
      "inputs": [
        {
          "indexed": false,
          "internalType": "address",
          "name": "player",
          "type": "address"
        },
        {
          "indexed": false,
          "internalType": "uint256",
          "name": "amount",
          "type": "uint256"
        }
      ],
      "name": "JackpotPaid",
      "type": "event"
    },
    {
      "anonymous": false,
      "inputs": [
        {
          "indexed": false,
          "internalType": "uint256",
          "name": "newLoPrice",
          "type": "uint256"
        }
      ],
      "name": "LoIncreased",
      "type": "event"
    },
    {
      "anonymous": false,
      "inputs": [
        {
          "indexed": true,
          "internalType": "address",
          "name": "previousOwner",
          "type": "address"
        },
        {
          "indexed": true,
          "internalType": "address",
          "name": "newOwner",
          "type": "address"
        }
      ],
      "name": "OwnershipTransferred",
      "type": "event"
    },
    {
      "anonymous": false,
      "inputs": [
        {
          "indexed": false,
          "internalType": "address",
          "name": "account",
          "type": "address"
        }
      ],
      "name": "Paused",
      "type": "event"
    },
    {
      "anonymous": false,
      "inputs": [
        {
          "indexed": false,
          "internalType": "address",
          "name": "player",
          "type": "address"
        },
        {
          "indexed": false,
          "internalType": "uint256",
          "name": "tokenId",
          "type": "uint256"
        }
      ],
      "name": "PriceUpdated",
      "type": "event"
    },
    {
      "anonymous": false,
      "inputs": [
        {
          "indexed": false,
          "internalType": "address[]",
          "name": "winners",
          "type": "address[]"
        },
        {
          "indexed": false,
          "internalType": "uint256",
          "name": "price",
          "type": "uint256"
        }
      ],
      "name": "PricesConverged",
      "type": "event"
    },
    {
      "anonymous": false,
      "inputs": [
        {
          "indexed": true,
          "internalType": "address",
          "name": "operator",
          "type": "address"
        },
        {
          "indexed": true,
          "internalType": "address",
          "name": "from",
          "type": "address"
        },
        {
          "indexed": true,
          "internalType": "address",
          "name": "to",
          "type": "address"
        },
        {
          "indexed": false,
          "internalType": "uint256[]",
          "name": "ids",
          "type": "uint256[]"
        },
        {
          "indexed": false,
          "internalType": "uint256[]",
          "name": "values",
          "type": "uint256[]"
        }
      ],
      "name": "TransferBatch",
      "type": "event"
    },
    {
      "anonymous": false,
      "inputs": [
        {
          "indexed": true,
          "internalType": "address",
          "name": "operator",
          "type": "address"
        },
        {
          "indexed": true,
          "internalType": "address",
          "name": "from",
          "type": "address"
        },
        {
          "indexed": true,
          "internalType": "address",
          "name": "to",
          "type": "address"
        },
        {
          "indexed": false,
          "internalType": "uint256",
          "name": "id",
          "type": "uint256"
        },
        {
          "indexed": false,
          "internalType": "uint256",
          "name": "value",
          "type": "uint256"
        }
      ],
      "name": "TransferSingle",
      "type": "event"
    },
    {
      "anonymous": false,
      "inputs": [
        {
          "indexed": false,
          "internalType": "string",
          "name": "value",
          "type": "string"
        },
        {
          "indexed": true,
          "internalType": "uint256",
          "name": "id",
          "type": "uint256"
        }
      ],
      "name": "URI",
      "type": "event"
    },
    {
      "anonymous": false,
      "inputs": [
        {
          "indexed": false,
          "internalType": "address",
          "name": "account",
          "type": "address"
        }
      ],
      "name": "Unpaused",
      "type": "event"
    },
    {
      "inputs": [],
      "name": "HI",
      "outputs": [
        {
          "internalType": "uint256",
          "name": "",
          "type": "uint256"
        }
      ],
      "stateMutability": "view",
      "type": "function"
    },
    {
      "inputs": [],
      "name": "LO",
      "outputs": [
        {
          "internalType": "uint256",
          "name": "",
          "type": "uint256"
        }
      ],
      "stateMutability": "view",
      "type": "function"
    },
    {
      "inputs": [
        {
          "internalType": "uint256",
          "name": "",
          "type": "uint256"
        },
        {
          "internalType": "uint256",
          "name": "",
          "type": "uint256"
        }
      ],
      "name": "actions",
      "outputs": [
        {
          "internalType": "address",
          "name": "player",
          "type": "address"
        },
        {
          "internalType": "uint256",
          "name": "tokenId",
          "type": "uint256"
        },
        {
          "internalType": "uint256",
          "name": "price",
          "type": "uint256"
        }
      ],
      "stateMutability": "view",
      "type": "function"
    },
    {
      "inputs": [
        {
          "internalType": "uint256",
          "name": "tokenId",
          "type": "uint256"
        }
      ],
      "name": "addToQueue",
      "outputs": [
        {
          "internalType": "uint256",
          "name": "",
          "type": "uint256"
        }
      ],
      "stateMutability": "nonpayable",
      "type": "function"
    },
    {
      "inputs": [
        {
          "internalType": "address",
          "name": "account",
          "type": "address"
        },
        {
          "internalType": "uint256",
          "name": "id",
          "type": "uint256"
        }
      ],
      "name": "balanceOf",
      "outputs": [
        {
          "internalType": "uint256",
          "name": "",
          "type": "uint256"
        }
      ],
      "stateMutability": "view",
      "type": "function"
    },
    {
      "inputs": [
        {
          "internalType": "address[]",
          "name": "accounts",
          "type": "address[]"
        },
        {
          "internalType": "uint256[]",
          "name": "ids",
          "type": "uint256[]"
        }
      ],
      "name": "balanceOfBatch",
      "outputs": [
        {
          "internalType": "uint256[]",
          "name": "",
          "type": "uint256[]"
        }
      ],
      "stateMutability": "view",
      "type": "function"
    },
    {
      "inputs": [
        {
          "internalType": "uint256",
          "name": "tokenId",
          "type": "uint256"
        },
        {
          "internalType": "uint256",
          "name": "amount",
          "type": "uint256"
        }
      ],
      "name": "buy",
      "outputs": [],
      "stateMutability": "nonpayable",
      "type": "function"
    },
    {
      "inputs": [
        {
          "internalType": "uint256",
          "name": "",
          "type": "uint256"
        }
      ],
      "name": "buyCounts",
      "outputs": [
        {
          "internalType": "uint256",
          "name": "",
          "type": "uint256"
        }
      ],
      "stateMutability": "view",
      "type": "function"
    },
    {
      "inputs": [],
      "name": "buyForceCount",
      "outputs": [
        {
          "internalType": "uint256",
          "name": "",
          "type": "uint256"
        }
      ],
      "stateMutability": "view",
      "type": "function"
    },
    {
      "inputs": [
        {
          "internalType": "uint256",
          "name": "",
          "type": "uint256"
        }
      ],
      "name": "buyForceCounts",
      "outputs": [
        {
          "internalType": "uint256",
          "name": "",
          "type": "uint256"
        }
      ],
      "stateMutability": "view",
      "type": "function"
    },
    {
      "inputs": [],
      "name": "buyRequiredCount",
      "outputs": [
        {
          "internalType": "uint256",
          "name": "",
          "type": "uint256"
        }
      ],
      "stateMutability": "view",
      "type": "function"
    },
    {
      "inputs": [
        {
          "internalType": "uint256",
          "name": "tokenId",
          "type": "uint256"
        }
      ],
      "name": "canSell",
      "outputs": [
        {
          "internalType": "bool",
          "name": "",
          "type": "bool"
        }
      ],
      "stateMutability": "view",
      "type": "function"
    },
    {
      "inputs": [
        {
          "internalType": "uint256",
          "name": "tokenId",
          "type": "uint256"
        }
      ],
      "name": "checkInQueue",
      "outputs": [
        {
          "internalType": "uint256",
          "name": "",
          "type": "uint256"
        }
      ],
      "stateMutability": "view",
      "type": "function"
    },
    {
      "inputs": [
        {
          "internalType": "uint256",
          "name": "id",
          "type": "uint256"
        }
      ],
      "name": "exists",
      "outputs": [
        {
          "internalType": "bool",
          "name": "",
          "type": "bool"
        }
      ],
      "stateMutability": "view",
      "type": "function"
    },
    {
      "inputs": [],
      "name": "gameWon",
      "outputs": [
        {
          "internalType": "bool",
          "name": "",
          "type": "bool"
        }
      ],
      "stateMutability": "view",
      "type": "function"
    },
    {
      "inputs": [
        {
          "internalType": "address",
          "name": "player",
          "type": "address"
        }
      ],
      "name": "getGameState",
      "outputs": [
        {
          "components": [
            {
              "internalType": "uint256",
              "name": "currentHi",
              "type": "uint256"
            },
            {
              "internalType": "uint256",
              "name": "currentLo",
              "type": "uint256"
            },
            {
              "internalType": "address[]",
              "name": "winners",
              "type": "address[]"
            },
            {
              "internalType": "uint256[3]",
              "name": "playerTotals",
              "type": "uint256[3]"
            },
            {
              "internalType": "uint256[2]",
              "name": "tokenBalances",
              "type": "uint256[2]"
            },
            {
              "internalType": "uint256",
              "name": "approvedSpend",
              "type": "uint256"
            }
          ],
          "internalType": "struct HILO.GameState",
          "name": "",
          "type": "tuple"
        }
      ],
      "stateMutability": "view",
      "type": "function"
    },
    {
      "inputs": [
        {
          "internalType": "uint256",
          "name": "tokenId",
          "type": "uint256"
        }
      ],
      "name": "getPrice",
      "outputs": [
        {
          "internalType": "uint256",
          "name": "",
          "type": "uint256"
        }
      ],
      "stateMutability": "view",
      "type": "function"
    },
    {
      "inputs": [],
      "name": "getWinners",
      "outputs": [
        {
          "internalType": "address[]",
          "name": "",
          "type": "address[]"
        }
      ],
      "stateMutability": "view",
      "type": "function"
    },
    {
      "inputs": [],
      "name": "hiPrice",
      "outputs": [
        {
          "internalType": "uint256",
          "name": "",
          "type": "uint256"
        }
      ],
      "stateMutability": "view",
      "type": "function"
    },
    {
      "inputs": [],
      "name": "hiSaleQueueIndex",
      "outputs": [
        {
          "internalType": "uint256",
          "name": "",
          "type": "uint256"
        }
      ],
      "stateMutability": "view",
      "type": "function"
    },
    {
      "inputs": [],
      "name": "initialHi",
      "outputs": [
        {
          "internalType": "uint256",
          "name": "",
          "type": "uint256"
        }
      ],
      "stateMutability": "view",
      "type": "function"
    },
    {
      "inputs": [],
      "name": "initialLo",
      "outputs": [
        {
          "internalType": "uint256",
          "name": "",
          "type": "uint256"
        }
      ],
      "stateMutability": "view",
      "type": "function"
    },
    {
      "inputs": [
        {
          "internalType": "address",
          "name": "account",
          "type": "address"
        },
        {
          "internalType": "address",
          "name": "operator",
          "type": "address"
        }
      ],
      "name": "isApprovedForAll",
      "outputs": [
        {
          "internalType": "bool",
          "name": "",
          "type": "bool"
        }
      ],
      "stateMutability": "view",
      "type": "function"
    },
    {
      "inputs": [],
      "name": "jackpot",
      "outputs": [
        {
          "internalType": "uint256",
          "name": "",
          "type": "uint256"
        }
      ],
      "stateMutability": "view",
      "type": "function"
    },
    {
      "inputs": [],
      "name": "loPrice",
      "outputs": [
        {
          "internalType": "uint256",
          "name": "",
          "type": "uint256"
        }
      ],
      "stateMutability": "view",
      "type": "function"
    },
    {
      "inputs": [],
      "name": "loSaleQueueIndex",
      "outputs": [
        {
          "internalType": "uint256",
          "name": "",
          "type": "uint256"
        }
      ],
      "stateMutability": "view",
      "type": "function"
    },
    {
      "inputs": [],
      "name": "owner",
      "outputs": [
        {
          "internalType": "address",
          "name": "",
          "type": "address"
        }
      ],
      "stateMutability": "view",
      "type": "function"
    },
    {
      "inputs": [],
      "name": "paused",
      "outputs": [
        {
          "internalType": "bool",
          "name": "",
          "type": "bool"
        }
      ],
      "stateMutability": "view",
      "type": "function"
    },
    {
      "inputs": [],
      "name": "payout",
      "outputs": [],
      "stateMutability": "nonpayable",
      "type": "function"
    },
    {
      "inputs": [],
      "name": "playerCount",
      "outputs": [
        {
          "internalType": "uint256",
          "name": "",
          "type": "uint256"
        }
      ],
      "stateMutability": "view",
      "type": "function"
    },
    {
      "inputs": [],
      "name": "renounceOwnership",
      "outputs": [],
      "stateMutability": "nonpayable",
      "type": "function"
    },
    {
      "inputs": [
        {
          "internalType": "address",
          "name": "from",
          "type": "address"
        },
        {
          "internalType": "address",
          "name": "to",
          "type": "address"
        },
        {
          "internalType": "uint256[]",
          "name": "ids",
          "type": "uint256[]"
        },
        {
          "internalType": "uint256[]",
          "name": "amounts",
          "type": "uint256[]"
        },
        {
          "internalType": "bytes",
          "name": "data",
          "type": "bytes"
        }
      ],
      "name": "safeBatchTransferFrom",
      "outputs": [],
      "stateMutability": "nonpayable",
      "type": "function"
    },
    {
      "inputs": [
        {
          "internalType": "address",
          "name": "from",
          "type": "address"
        },
        {
          "internalType": "address",
          "name": "to",
          "type": "address"
        },
        {
          "internalType": "uint256",
          "name": "id",
          "type": "uint256"
        },
        {
          "internalType": "uint256",
          "name": "amount",
          "type": "uint256"
        },
        {
          "internalType": "bytes",
          "name": "data",
          "type": "bytes"
        }
      ],
      "name": "safeTransferFrom",
      "outputs": [],
      "stateMutability": "nonpayable",
      "type": "function"
    },
    {
      "inputs": [
        {
          "internalType": "uint256",
          "name": "",
          "type": "uint256"
        },
        {
          "internalType": "uint256",
          "name": "",
          "type": "uint256"
        }
      ],
      "name": "saleQueue",
      "outputs": [
        {
          "internalType": "address",
          "name": "",
          "type": "address"
        }
      ],
      "stateMutability": "view",
      "type": "function"
    },
    {
      "inputs": [
        {
          "internalType": "uint256",
          "name": "tokenId",
          "type": "uint256"
        }
      ],
      "name": "sell",
      "outputs": [],
      "stateMutability": "nonpayable",
      "type": "function"
    },
    {
      "inputs": [
        {
          "internalType": "address",
          "name": "operator",
          "type": "address"
        },
        {
          "internalType": "bool",
          "name": "approved",
          "type": "bool"
        }
      ],
      "name": "setApprovalForAll",
      "outputs": [],
      "stateMutability": "nonpayable",
      "type": "function"
    },
    {
      "inputs": [
        {
          "internalType": "bytes4",
          "name": "interfaceId",
          "type": "bytes4"
        }
      ],
      "name": "supportsInterface",
      "outputs": [
        {
          "internalType": "bool",
          "name": "",
          "type": "bool"
        }
      ],
      "stateMutability": "view",
      "type": "function"
    },
    {
      "inputs": [
        {
          "internalType": "uint256",
          "name": "id",
          "type": "uint256"
        }
      ],
      "name": "totalSupply",
      "outputs": [
        {
          "internalType": "uint256",
          "name": "",
          "type": "uint256"
        }
      ],
      "stateMutability": "view",
      "type": "function"
    },
    {
      "inputs": [
        {
          "internalType": "address",
          "name": "newOwner",
          "type": "address"
        }
      ],
      "name": "transferOwnership",
      "outputs": [],
      "stateMutability": "nonpayable",
      "type": "function"
    },
    {
      "inputs": [
        {
          "internalType": "uint256",
          "name": "",
          "type": "uint256"
        }
      ],
      "name": "uri",
      "outputs": [
        {
          "internalType": "string",
          "name": "",
          "type": "string"
        }
      ],
      "stateMutability": "view",
      "type": "function"
    },
    {
      "inputs": [],
      "name": "usdc",
      "outputs": [
        {
          "internalType": "contract IERC20",
          "name": "",
          "type": "address"
        }
      ],
      "stateMutability": "view",
      "type": "function"
    },
    {
      "inputs": [
        {
          "internalType": "uint256",
          "name": "",
          "type": "uint256"
        }
      ],
      "name": "winners",
      "outputs": [
        {
          "internalType": "address",
          "name": "",
          "type": "address"
        }
      ],
      "stateMutability": "view",
      "type": "function"
    }
  ],
  "bytecode": "0x60806040526000600f81905560108190556013556014805460ff19169055601780546001600160a01b03191673e11a86849d99f524cac3e7a0ec1241828e332c621790553480156200005057600080fd5b5060405162003b5638038062003b56833981016040819052620000739162000451565b6040518060600160405280602d815260200162003b29602d91396200009881620002a1565b50620000a433620002ba565b6004805460ff60a01b191690556001600555600884905560068490556009839055600783905560006002620000da858762000487565b600754600654620000ec9190620004e5565b620000f990600162000487565b620001059190620004c3565b620001119190620004a2565b90508162000121600283620004a2565b1015620001755760405162461bcd60e51b815260206004820152601e60248201527f4a61636b706f7420746f6f206c6172676520666f72207468652067616d65000060448201526064015b60405180910390fd5b60168290556008546200019857634e487b7160e01b600052600160045260246000fd5b600060095411620001b957634e487b7160e01b600052600160045260246000fd5b60095460085411620001db57634e487b7160e01b600052600160045260246000fd5b600a839055600c60205260007f13649b2456f1b42fef0f0040b3aaeabcd21a76a0f3f5defd4f583839455116e881905560018082527fd421a5181c571bba3f01190c922c3b2a896fc1d84e86c9f17ac10e67ebef8b5c919091556200024290849062000487565b600b555050600d602052505060007f81955a0a11e65eac625c29e8882660bae4e165a75d72780094acae8ece9a29ee819055600181527ffd54ff1ed53f34a900b24c5ba64f85761163b5d82d98a47b9bd80e45466993c5555062000552565b8051620002b6906002906020840190620003ab565b5050565b6000620002cf6004546001600160a01b031690565b6001600160a01b03161480620002f257506004546001600160a01b038281169116145b620003405760405162461bcd60e51b815260206004820152601f60248201527f48494c4f3a2063616e6e6f74207472616e73666572206f776e6572736869700060448201526064016200016c565b62000356816200035960201b620015eb1760201c565b50565b600480546001600160a01b038381166001600160a01b0319831681179093556040519116919082907f8be0079c531659141344cd1fd0a4f28419497f9722a3daafe3b4186f6b6457e090600090a35050565b828054620003b990620004ff565b90600052602060002090601f016020900481019282620003dd576000855562000428565b82601f10620003f857805160ff191683800117855562000428565b8280016001018555821562000428579182015b82811115620004285782518255916020019190600101906200040b565b50620004369291506200043a565b5090565b5b808211156200043657600081556001016200043b565b6000806000806080858703121562000467578384fd5b505082516020840151604085015160609095015191969095509092509050565b600082198211156200049d576200049d6200053c565b500190565b600082620004be57634e487b7160e01b81526012600452602481fd5b500490565b6000816000190483118215151615620004e057620004e06200053c565b500290565b600082821015620004fa57620004fa6200053c565b500390565b600181811c908216806200051457607f821691505b602082108114156200053657634e487b7160e01b600052602260045260246000fd5b50919050565b634e487b7160e01b600052601160045260246000fd5b6135c780620005626000396000f3fe608060405234801561001057600080fd5b506004361061025d5760003560e01c80638da5cb5b11610146578063d9d60b52116100c3578063e985e9c511610087578063e985e9c514610553578063e9b6d9371461058f578063f242432a146105a2578063f2e8dfdb146105b5578063f2fde38b146105bd578063f5cf330b146105d057600080fd5b8063d9d60b52146104e5578063df15c37e14610505578063e4849b321461051a578063e75722301461052d578063e820084e1461054057600080fd5b8063b976fe611161010a578063b976fe6114610468578063bd85b03914610471578063cab8ec9f14610491578063cd1fb31d146104c9578063d6febde8146104d257600080fd5b80638da5cb5b14610403578063a22cb46514610414578063a2fb117514610427578063b23c328b1461043a578063b2ecfad41461044357600080fd5b80634e1273f4116101df578063633a8d0f116101a3578063633a8d0f146103b957806363bd1d4a146103d957806368d2be8f146103e15780636b31ee01146103e9578063715018a6146103f2578063833cbacf146103fa57600080fd5b80634e1273f41461033c5780634f558e791461035c5780635a437daa1461037e5780635c5c4d61146103875780635c975abb146103a757600080fd5b806321441d9d1161022657806321441d9d146102e15780632eb2c2d6146102ea578063302bcc57146102ff5780633e413bee146103085780634021d15d1461033357600080fd5b8062fdd58e1461026257806301ffc9a714610288578063069a825c146102ab5780630e89341c146102b8578063212a7bcd146102d8575b600080fd5b610275610270366004612df3565b6105e3565b6040519081526020015b60405180910390f35b61029b610296366004612f03565b61067a565b604051901515815260200161027f565b60145461029b9060ff1681565b6102cb6102c6366004612f3b565b6106cc565b60405161027f91906131b9565b61027560075481565b61027560085481565b6102fd6102f8366004612cb4565b610760565b005b61027560135481565b60175461031b906001600160a01b031681565b6040516001600160a01b03909116815260200161027f565b610275600f5481565b61034f61034a366004612e1c565b6107f7565b60405161027f9190613178565b61029b61036a366004612f3b565b600090815260036020526040902054151590565b61027560095481565b610275610395366004612f3b565b600c6020526000908152604090205481565b600454600160a01b900460ff1661029b565b6102756103c7366004612f3b565b600d6020526000908152604090205481565b6102fd610959565b610275600181565b61027560165481565b6102fd610c2a565b610275600a5481565b6004546001600160a01b031661031b565b6102fd610422366004612dbd565b610c60565b61031b610435366004612f3b565b610c6f565b61027560065481565b61029b610451366004612f3b565b600a546000918252600c6020526040909120541490565b61027560105481565b61027561047f366004612f3b565b60009081526003602052604090205490565b6104a461049f366004612f6b565b610c99565b604080516001600160a01b03909416845260208401929092529082015260600161027f565b610275600b5481565b6102fd6104e0366004612f6b565b610ce5565b6104f86104f3366004612c61565b611051565b60405161027f9190613302565b61050d61120b565b60405161027f919061310f565b6102fd610528366004612f3b565b61126d565b61027561053b366004612f3b565b6112e2565b61031b61054e366004612f6b565b61130f565b61029b610561366004612c82565b6001600160a01b03918216600090815260016020908152604080832093909416825291909152205460ff1690565b61027561059d366004612f3b565b611347565b6102fd6105b0366004612d5a565b611449565b610275600081565b6102fd6105cb366004612c61565b6114d0565b6102756105de366004612f3b565b61156b565b60006001600160a01b0383166106545760405162461bcd60e51b815260206004820152602b60248201527f455243313135353a2062616c616e636520717565727920666f7220746865207a60448201526a65726f206164647265737360a81b60648201526084015b60405180910390fd5b506000908152602081815260408083206001600160a01b03949094168352929052205490565b60006001600160e01b03198216636cdb3d1360e11b14806106ab57506001600160e01b031982166303a24d0760e21b145b806106c657506301ffc9a760e01b6001600160e01b03198316145b92915050565b6060600280546106db9061341c565b80601f01602080910402602001604051908101604052809291908181526020018280546107079061341c565b80156107545780601f1061072957610100808354040283529160200191610754565b820191906000526020600020905b81548152906001019060200180831161073757829003601f168201915b50505050509050919050565b6001600160a01b03851633148061077c575061077c8533610561565b6107e35760405162461bcd60e51b815260206004820152603260248201527f455243313135353a207472616e736665722063616c6c6572206973206e6f74206044820152711bdddb995c881b9bdc88185c1c1c9bdd995960721b606482015260840161064b565b6107f0858585858561163d565b5050505050565b6060815183511461085c5760405162461bcd60e51b815260206004820152602960248201527f455243313135353a206163636f756e747320616e6420696473206c656e677468604482015268040dad2e6dac2e8c6d60bb1b606482015260840161064b565b6000835167ffffffffffffffff81111561088657634e487b7160e01b600052604160045260246000fd5b6040519080825280602002602001820160405280156108af578160200160208202803683370190505b50905060005b8451811015610951576109168582815181106108e157634e487b7160e01b600052603260045260246000fd5b602002602001015185838151811061090957634e487b7160e01b600052603260045260246000fd5b60200260200101516105e3565b82828151811061093657634e487b7160e01b600052603260045260246000fd5b602090810291909101015261094a81613484565b90506108b5565b509392505050565b6004546001600160a01b031633146109835760405162461bcd60e51b815260040161064b906132cd565b60155460165460009061099e90670de0b6b3a76400006133e6565b905060005b82811015610b015760006109b784846133c6565b601754601580549293506001600160a01b039091169163a9059cbb9190859081106109f257634e487b7160e01b600052603260045260246000fd5b60009182526020909120015460405160e083901b6001600160e01b03191681526001600160a01b03909116600482015260248101849052604401602060405180830381600087803b158015610a4657600080fd5b505af1158015610a5a573d6000803e3d6000fd5b505050506040513d601f19601f82011682018060405250810190610a7e9190612ee7565b507f88c519ab1745d32c7a1e2c97aa7817ca6e8046aaa146002b9ec1c8516ed6785460158381548110610ac157634e487b7160e01b600052603260045260246000fd5b60009182526020918290200154604080516001600160a01b0390921682529181018490520160405180910390a15080610af981613484565b9150506109a3565b506017546040516370a0823160e01b81523060048201526000916001600160a01b0316906370a082319060240160206040518083038186803b158015610b4657600080fd5b505afa158015610b5a573d6000803e3d6000fd5b505050506040513d601f19601f82011682018060405250810190610b7e9190612f53565b6017549091506001600160a01b031663a9059cbb610ba46004546001600160a01b031690565b6040516001600160e01b031960e084901b1681526001600160a01b03909116600482015260248101849052604401602060405180830381600087803b158015610bec57600080fd5b505af1158015610c00573d6000803e3d6000fd5b505050506040513d601f19601f82011682018060405250810190610c249190612ee7565b50505050565b6004546001600160a01b03163314610c545760405162461bcd60e51b815260040161064b906132cd565b610c5e600061183c565b565b610c6b3383836118c7565b5050565b60158181548110610c7f57600080fd5b6000918252602090912001546001600160a01b0316905081565b60116020528160005260406000208181548110610cb557600080fd5b60009182526020909120600390910201805460018201546002909201546001600160a01b03909116935090915083565b600454600160a01b900460ff1615610d0f5760405162461bcd60e51b815260040161064b90613214565b811580610d1c5750600182145b610d595760405162461bcd60e51b815260206004820152600e60248201526d24b73b30b634b2103a37b5b2b71760911b604482015260640161064b565b8060011480610d685750806003145b610da65760405162461bcd60e51b815260206004820152600f60248201526e24b73b30b634b21030b6b7bab73a1760891b604482015260640161064b565b6000610db1836112e2565b905060008111610dd157634e487b7160e01b600052600160045260246000fd5b600060075482148015610de45750600184145b80610df9575060065482148015610df9575083155b600b546000868152600d602052604090205460095460085493945091149114801590610e3457508180610e295750805b80610e345750836003145b15610e7c57610e42856119a8565b60408051338152602081018790527f0d86730737b142fc160892fa8a0f2db687a92a0e294d1ad70624cf5acef03b84910160405180910390a15b610e8684846133e6565b610e9890670de0b6b3a76400006133e6565b6017546040516370a0823160e01b81523360048201529194506000916001600160a01b03909116906370a082319060240160206040518083038186803b158015610ee157600080fd5b505afa158015610ef5573d6000803e3d6000fd5b505050506040513d601f19601f82011682018060405250810190610f199190612f53565b905083811015610f6b5760405162461bcd60e51b815260206004820152601a60248201527f496e73756666696369656e7420555344432062616c616e63652e000000000000604482015260640161064b565b6017546040516323b872dd60e01b8152336004820152306024820152604481018690526001600160a01b03909116906323b872dd90606401602060405180830381600087803b158015610fbd57600080fd5b505af1158015610fd1573d6000803e3d6000fd5b505050506040513d601f19601f82011682018060405250810190610ff59190612ee7565b50611011338787604051806020016040528060008152506119e0565b8161101f5761101f86611b03565b600a546000878152600c602052604090205414156110405761104086611b89565b61104933611c79565b505050505050565b611059612ae9565b60006110668360006105e3565b905060006110758460016105e3565b601754604051636eb1769f60e11b81526001600160a01b0387811660048301523060248301529293506000929091169063dd62ed3e9060440160206040518083038186803b1580156110c657600080fd5b505afa1580156110da573d6000803e3d6000fd5b505050506040513d601f19601f820116820180604052508101906110fe9190612f53565b600360209081527f3617319a054d772f909f7c479a2cebe5066e836a939412e32403c99029b92eff5460016000527fa15bc60c955c405d20d9149c709e2460f1c2d9a497496a7f46004d1772c3054c546040805160c081018252600854815260095481860152601580548351818802810188018552818152979850949693959194928501939290918301828280156111bf57602002820191906000526020600020905b81546001600160a01b031681526001909101906020018083116111a1575b5050509183525050604080516060808201835295815260208181019590955260135481830152848301528051808201825297885292870195909552908401949094529091015292915050565b6060601580548060200260200160405190810160405280929190818152602001828054801561126357602002820191906000526020600020905b81546001600160a01b03168152600190910190602001808311611245575b5050505050905090565b600260055414156112c05760405162461bcd60e51b815260206004820152601f60248201527f5265656e7472616e637947756172643a207265656e7472616e742063616c6c00604482015260640161064b565b6002600555336112d08183611d59565b6112d981611c79565b50506001600555565b6000816112f157505060085490565b600182141561130257505060095490565b506000919050565b919050565b600e602052816000526040600020818154811061132b57600080fd5b6000918252602090912001546001600160a01b03169150829050565b6000818152600e60209081526040808320805482518185028101850190935280835260019385939291908301828280156113aa57602002820191906000526020600020905b81546001600160a01b0316815260019091019060200180831161138c575b5050505050905060008085146113c2576010546113c6565b600f545b9050805b825181101561143d57336001600160a01b03168382815181106113fd57634e487b7160e01b600052603260045260246000fd5b60200260200101516001600160a01b0316141561141e575091949350505050565b6114298460016133ae565b93508061143581613484565b9150506113ca565b50600095945050505050565b6001600160a01b03851633148061146557506114658533610561565b6114c35760405162461bcd60e51b815260206004820152602960248201527f455243313135353a2063616c6c6572206973206e6f74206f776e6572206e6f7260448201526808185c1c1c9bdd995960ba1b606482015260840161064b565b6107f08585858585611fec565b6004546001600160a01b031633146114fa5760405162461bcd60e51b815260040161064b906132cd565b6001600160a01b03811661155f5760405162461bcd60e51b815260206004820152602660248201527f4f776e61626c653a206e6577206f776e657220697320746865207a65726f206160448201526564647265737360d01b606482015260840161064b565b6115688161183c565b50565b60008061157783611347565b905080156115855792915050565b6000838152600e60209081526040822080546001810182559083529082200180546001600160a01b0319163317905583156115c2576010546115c6565b600f545b6000858152600e60205260409020549091506115e3908290613405565b949350505050565b600480546001600160a01b038381166001600160a01b0319831681179093556040519116919082907f8be0079c531659141344cd1fd0a4f28419497f9722a3daafe3b4186f6b6457e090600090a35050565b815183511461169f5760405162461bcd60e51b815260206004820152602860248201527f455243313135353a2069647320616e6420616d6f756e7473206c656e677468206044820152670dad2e6dac2e8c6d60c31b606482015260840161064b565b6001600160a01b0384166116c55760405162461bcd60e51b815260040161064b9061323e565b336116d4818787878787612124565b60005b84518110156117d657600085828151811061170257634e487b7160e01b600052603260045260246000fd5b60200260200101519050600085838151811061172e57634e487b7160e01b600052603260045260246000fd5b602090810291909101810151600084815280835260408082206001600160a01b038e16835290935291909120549091508181101561177e5760405162461bcd60e51b815260040161064b90613283565b6000838152602081815260408083206001600160a01b038e8116855292528083208585039055908b168252812080548492906117bb9084906133ae565b92505081905550505050806117cf90613484565b90506116d7565b50846001600160a01b0316866001600160a01b0316826001600160a01b03167f4a39dc06d4c0dbc64b70af90fd698a233a518aa5d07e595d983b8c0526c8f7fb878760405161182692919061318b565b60405180910390a46110498187878787876121c5565b60006118506004546001600160a01b031690565b6001600160a01b0316148061187257506004546001600160a01b038281169116145b6118be5760405162461bcd60e51b815260206004820152601f60248201527f48494c4f3a2063616e6e6f74207472616e73666572206f776e65727368697000604482015260640161064b565b611568816115eb565b816001600160a01b0316836001600160a01b0316141561193b5760405162461bcd60e51b815260206004820152602960248201527f455243313135353a2073657474696e6720617070726f76616c20737461747573604482015268103337b91039b2b63360b91b606482015260840161064b565b6001600160a01b03838116600081815260016020908152604080832094871680845294825291829020805460ff191686151590811790915591519182527f17307eab39ab6107e8899845ad3d59bd9653f200f220920489ca2b5937696c31910160405180910390a3505050565b806119ba576119b5612330565b6119c2565b6119c261237f565b6000908152600c60209081526040808320839055600d909152812055565b6001600160a01b038416611a405760405162461bcd60e51b815260206004820152602160248201527f455243313135353a206d696e7420746f20746865207a65726f206164647265736044820152607360f81b606482015260840161064b565b336000611a4c856123e4565b90506000611a59856123e4565b9050611a6a83600089858589612124565b6000868152602081815260408083206001600160a01b038b16845290915281208054879290611a9a9084906133ae565b909155505060408051878152602081018790526001600160a01b03808a1692600092918716917fc3d58168c5ae7397731d063d5bbf3d657854427343f4c083240f7aacaa2d0f62910160405180910390a4611afa8360008989898961243d565b50505050505050565b600a546000828152600c60205260409020541015611b45576000818152600c6020526040902054611b359060016133ae565b6000828152600c60205260409020555b600b546000828152600d60205260409020541015611568576000818152600d6020526040902054611b779060016133ae565b6000828152600d602052604090205550565b600454600160a01b900460ff1615611bb35760405162461bcd60e51b815260040161064b90613214565b6000818152600e6020526040902054611bc95750565b60008115611bd957601054611bdd565b600f545b6000838152600e602052604081208054929350909183908110611c1057634e487b7160e01b600052603260045260246000fd5b60009182526020822001546001600160a01b03169150611c3082856105e3565b905080611c3d5750505050565b611c478285611d59565b83611c6257600f54611c5a9060016133ae565b600f55611c74565b601054611c709060016133ae565b6010555b610c24825b6000611c868260006105e3565b90506000611c958360016105e3565b9050600080831180611ca75750600082115b6001600160a01b03851660009081526012602052604090205490915060ff16818015611cd1575080155b15611d10576001600160a01b0385166000908152601260205260409020805460ff19166001908117909155601354611d08916133ae565b6013556107f0565b81158015611d1b5750805b156107f0576001600160a01b0385166000908152601260205260409020805460ff19169055601354611d4f90600190613405565b6013555050505050565b600454600160a01b900460ff1615611d835760405162461bcd60e51b815260040161064b90613214565b801580611d905750600181145b611dcd5760405162461bcd60e51b815260206004820152600e60248201526d24b73b30b634b2103a37b5b2b71760911b604482015260640161064b565b600a546000828152600c60205260409020541480611e3f5760405162461bcd60e51b815260206004820152602960248201527f48494c4f3a2063616e6e6f742073656c6c207768656e207468652073616c65206044820152681a5cc81b1bd8dad95960ba1b606482015260840161064b565b611e498383612507565b6009546008541415611e6b57611e66611e61836112e2565b6125cc565b505050565b6000611e76836112e2565b9050611e8a81670de0b6b3a76400006133e6565b60175460405163a9059cbb60e01b81526001600160a01b0387811660048301526024820184905292935091169063a9059cbb90604401602060405180830381600087803b158015611eda57600080fd5b505af1158015611eee573d6000803e3d6000fd5b505050506040513d601f19601f82011682018060405250810190611f129190612ee7565b50611f1f8484600161272b565b611f28836119a8565b604080516001600160a01b0386168152602081018590527f0d86730737b142fc160892fa8a0f2db687a92a0e294d1ad70624cf5acef03b84910160405180910390a182158015611f805750611f7e8460016105e3565b155b15610c2457611fa184600180604051806020016040528060008152506119e0565b6001600a54611fb09190613405565b6001600052600c6020527fd421a5181c571bba3f01190c922c3b2a896fc1d84e86c9f17ac10e67ebef8b5c541015610c2457610c246001611b03565b6001600160a01b0384166120125760405162461bcd60e51b815260040161064b9061323e565b33600061201e856123e4565b9050600061202b856123e4565b905061203b838989858589612124565b6000868152602081815260408083206001600160a01b038c1684529091529020548581101561207c5760405162461bcd60e51b815260040161064b90613283565b6000878152602081815260408083206001600160a01b038d8116855292528083208985039055908a168252812080548892906120b99084906133ae565b909155505060408051888152602081018890526001600160a01b03808b16928c821692918816917fc3d58168c5ae7397731d063d5bbf3d657854427343f4c083240f7aacaa2d0f62910160405180910390a4612119848a8a8a8a8a61243d565b505050505050505050565b600454600160a01b900460ff161561214e5760405162461bcd60e51b815260040161064b90613214565b6001600160a01b038516158061216b57506001600160a01b038416155b6121b75760405162461bcd60e51b815260206004820152601760248201527f48494c4f3a206e6f6e207472616e736665727261626c65000000000000000000604482015260640161064b565b6110498686868686866128bb565b6001600160a01b0384163b156110495760405163bc197c8160e01b81526001600160a01b0385169063bc197c8190612209908990899088908890889060040161306c565b602060405180830381600087803b15801561222357600080fd5b505af1925050508015612253575060408051601f3d908101601f1916820190925261225091810190612f1f565b60015b6123005761225f6134cb565b806308c379a0141561229957506122746134e3565b8061227f575061229b565b8060405162461bcd60e51b815260040161064b91906131b9565b505b60405162461bcd60e51b815260206004820152603460248201527f455243313135353a207472616e7366657220746f206e6f6e20455243313135356044820152732932b1b2b4bb32b91034b6b83632b6b2b73a32b960611b606482015260840161064b565b6001600160e01b0319811663bc197c8160e01b14611afa5760405162461bcd60e51b815260040161064b906131cc565b600160085461233f9190613405565b6008557f5a258dc6fce0816c9caf9835f08fa5596416dd55037714d2e51688cea5f062c560085460405161237591815260200190565b60405180910390a1565b60095461238d9060016133ae565b600981905560085410156123b157634e487b7160e01b600052600160045260246000fd5b7f3f9b5fbd1bfff0a78edef53fb452db3ea00eb6ea96cb06defcc66dd171bbca2160095460405161237591815260200190565b6040805160018082528183019092526060916000919060208083019080368337019050509050828160008151811061242c57634e487b7160e01b600052603260045260246000fd5b602090810291909101015292915050565b6001600160a01b0384163b156110495760405163f23a6e6160e01b81526001600160a01b0385169063f23a6e619061248190899089908890889088906004016130ca565b602060405180830381600087803b15801561249b57600080fd5b505af19250505080156124cb575060408051601f3d908101601f191682019092526124c891810190612f1f565b60015b6124d75761225f6134cb565b6001600160e01b0319811663f23a6e6160e01b14611afa5760405162461bcd60e51b815260040161064b906131cc565b6000612512826112e2565b60408051606080820183526001600160a01b03878116808452602080850189815285870188815260008981526011845288812080546001808201835591835291859020895160039093020180546001600160a01b03191692909716919091178655915191850191909155516002909301929092558451908152908101879052928301849052929350917fc19f70d47acbbf1d2faf3a7944182cf6b5345c67d2156ed328ea510e72f13066910160405180910390a150505050565b6000601160006008548152602001908152602001600020805480602002602001604051908101604052809291908181526020016000905b82821015612658576000848152602090819020604080516060810182526003860290920180546001600160a01b0316835260018082015484860152600290910154918301919091529083529092019101612603565b50505050905060005b81518110156126da57601582828151811061268c57634e487b7160e01b600052603260045260246000fd5b6020908102919091018101515182546001810184556000938452919092200180546001600160a01b0319166001600160a01b03909216919091179055806126d281613484565b915050612661565b506014805460ff191660011790556040517f10dee8c2942b449b177825c6d5eb7131392949ec2008676761b93b00acea615a9061271b906015908590613122565b60405180910390a1610c6b612a6c565b6001600160a01b03831661278d5760405162461bcd60e51b815260206004820152602360248201527f455243313135353a206275726e2066726f6d20746865207a65726f206164647260448201526265737360e81b606482015260840161064b565b336000612799846123e4565b905060006127a6846123e4565b90506127c683876000858560405180602001604052806000815250612124565b6000858152602081815260408083206001600160a01b038a168452909152902054848110156128435760405162461bcd60e51b8152602060048201526024808201527f455243313135353a206275726e20616d6f756e7420657863656564732062616c604482015263616e636560e01b606482015260840161064b565b6000868152602081815260408083206001600160a01b038b81168086529184528285208a8703905582518b81529384018a90529092908816917fc3d58168c5ae7397731d063d5bbf3d657854427343f4c083240f7aacaa2d0f62910160405180910390a4604080516020810190915260009052611afa565b6001600160a01b03851661295e5760005b835181101561295c578281815181106128f557634e487b7160e01b600052603260045260246000fd5b60200260200101516003600086848151811061292157634e487b7160e01b600052603260045260246000fd5b60200260200101518152602001908152602001600020600082825461294691906133ae565b90915550612955905081613484565b90506128cc565b505b6001600160a01b0384166110495760005b8351811015611afa57600084828151811061299a57634e487b7160e01b600052603260045260246000fd5b6020026020010151905060008483815181106129c657634e487b7160e01b600052603260045260246000fd5b6020026020010151905060006003600084815260200190815260200160002054905081811015612a495760405162461bcd60e51b815260206004820152602860248201527f455243313135353a206275726e20616d6f756e74206578636565647320746f74604482015267616c537570706c7960c01b606482015260840161064b565b60009283526003602052604090922091039055612a6581613484565b905061296f565b600454600160a01b900460ff1615612a965760405162461bcd60e51b815260040161064b90613214565b6004805460ff60a01b1916600160a01b1790557f62e78cea01bee320cd4e420270b5ea74000d11b0c9f74754ebdbfc544b05a258612ad13390565b6040516001600160a01b039091168152602001612375565b6040518060c00160405280600081526020016000815260200160608152602001612b11612b2b565b8152602001612b1e612b49565b8152602001600081525090565b60405180606001604052806003906020820280368337509192915050565b60405180604001604052806002906020820280368337509192915050565b80356001600160a01b038116811461130a57600080fd5b600082601f830112612b8e578081fd5b81356020612b9b8261338a565b604051612ba88282613457565b8381528281019150858301600585901b87018401881015612bc7578586fd5b855b85811015612be557813584529284019290840190600101612bc9565b5090979650505050505050565b600082601f830112612c02578081fd5b813567ffffffffffffffff811115612c1c57612c1c6134b5565b604051612c33601f8301601f191660200182613457565b818152846020838601011115612c47578283fd5b816020850160208301379081016020019190915292915050565b600060208284031215612c72578081fd5b612c7b82612b67565b9392505050565b60008060408385031215612c94578081fd5b612c9d83612b67565b9150612cab60208401612b67565b90509250929050565b600080600080600060a08688031215612ccb578081fd5b612cd486612b67565b9450612ce260208701612b67565b9350604086013567ffffffffffffffff80821115612cfe578283fd5b612d0a89838a01612b7e565b94506060880135915080821115612d1f578283fd5b612d2b89838a01612b7e565b93506080880135915080821115612d40578283fd5b50612d4d88828901612bf2565b9150509295509295909350565b600080600080600060a08688031215612d71578081fd5b612d7a86612b67565b9450612d8860208701612b67565b93506040860135925060608601359150608086013567ffffffffffffffff811115612db1578182fd5b612d4d88828901612bf2565b60008060408385031215612dcf578182fd5b612dd883612b67565b91506020830135612de88161356d565b809150509250929050565b60008060408385031215612e05578182fd5b612e0e83612b67565b946020939093013593505050565b60008060408385031215612e2e578182fd5b823567ffffffffffffffff80821115612e45578384fd5b818501915085601f830112612e58578384fd5b81356020612e658261338a565b604051612e728282613457565b8381528281019150858301600585901b870184018b1015612e91578889fd5b8896505b84871015612eba57612ea681612b67565b835260019690960195918301918301612e95565b5096505086013592505080821115612ed0578283fd5b50612edd85828601612b7e565b9150509250929050565b600060208284031215612ef8578081fd5b8151612c7b8161356d565b600060208284031215612f14578081fd5b8135612c7b8161357b565b600060208284031215612f30578081fd5b8151612c7b8161357b565b600060208284031215612f4c578081fd5b5035919050565b600060208284031215612f64578081fd5b5051919050565b60008060408385031215612f7d578182fd5b50508035926020909101359150565b6000815180845260208085019450808401835b83811015612fc45781516001600160a01b031687529582019590820190600101612f9f565b509495945050505050565b8060005b6002811015610c24578151845260209384019390910190600101612fd3565b6000815180845260208085019450808401835b83811015612fc457815187529582019590820190600101613005565b60008151808452815b818110156130465760208185018101518683018201520161302a565b818111156130575782602083870101525b50601f01601f19169290920160200192915050565b6001600160a01b0386811682528516602082015260a06040820181905260009061309890830186612ff2565b82810360608401526130aa8186612ff2565b905082810360808401526130be8185613021565b98975050505050505050565b6001600160a01b03868116825285166020820152604081018490526060810183905260a06080820181905260009061310490830184613021565b979650505050505050565b602081526000612c7b6020830184612f8c565b6000604082016040835280855480835260608501915086845260209250828420845b828110156131695781546001600160a01b031684529284019260019182019101613144565b50505092019290925292915050565b602081526000612c7b6020830184612ff2565b60408152600061319e6040830185612ff2565b82810360208401526131b08185612ff2565b95945050505050565b602081526000612c7b6020830184613021565b60208082526028908201527f455243313135353a204552433131353552656365697665722072656a656374656040820152676420746f6b656e7360c01b606082015260800190565b60208082526010908201526f14185d5cd8589b194e881c185d5cd95960821b604082015260600190565b60208082526025908201527f455243313135353a207472616e7366657220746f20746865207a65726f206164604082015264647265737360d81b606082015260800190565b6020808252602a908201527f455243313135353a20696e73756666696369656e742062616c616e636520666f60408201526939103a3930b739b332b960b11b606082015260800190565b6020808252818101527f4f776e61626c653a2063616c6c6572206973206e6f7420746865206f776e6572604082015260600190565b600060208083528351818401528084015160408401526040840151610120806060860152613334610140860183612f8c565b9150606086015160808601855b600381101561335e57825182529185019190850190600101613341565b5050506080860151925061337560e0860184612fcf565b60a08601518186015250809250505092915050565b600067ffffffffffffffff8211156133a4576133a46134b5565b5060051b60200190565b600082198211156133c1576133c161349f565b500190565b6000826133e157634e487b7160e01b81526012600452602481fd5b500490565b60008160001904831182151516156134005761340061349f565b500290565b6000828210156134175761341761349f565b500390565b600181811c9082168061343057607f821691505b6020821081141561345157634e487b7160e01b600052602260045260246000fd5b50919050565b601f8201601f1916810167ffffffffffffffff8111828210171561347d5761347d6134b5565b6040525050565b60006000198214156134985761349861349f565b5060010190565b634e487b7160e01b600052601160045260246000fd5b634e487b7160e01b600052604160045260246000fd5b600060033d11156134e057600481823e5160e01c5b90565b600060443d10156134f15790565b6040516003193d81016004833e81513d67ffffffffffffffff816024840111818411171561352157505050505090565b82850191508151818111156135395750505050505090565b843d87010160208285010111156135535750505050505090565b61356260208286010187613457565b509095945050505050565b801515811461156857600080fd5b6001600160e01b03198116811461156857600080fdfea264697066735822122049e0b376ac7530733598a53d41c545dc14cc2eb62d82b1c7aad261741baad12064736f6c6343000804003368747470733a2f2f68696c6f2d65696768742e76657263656c2e6170702f6170692f746f6b656e732f7b69647d",
  "linkReferences": {},
  "deployedLinkReferences": {}
}