{
  "_format": "hh-sol-artifact-1",
  "contractName": "HILO",
  "sourceName": "contracts/HILO.sol",
  "abi": [
    {
      "inputs": [
        {
          "internalType": "uint256",
          "name": "_initialHi",
          "type": "uint256"
        },
        {
          "internalType": "uint256",
          "name": "_initialLo",
          "type": "uint256"
        },
        {
          "internalType": "uint256",
          "name": "_buyRequiredCount",
          "type": "uint256"
        },
        {
          "internalType": "uint256",
          "name": "_jackpot",
          "type": "uint256"
        }
      ],
      "stateMutability": "nonpayable",
      "type": "constructor"
    },
    {
      "anonymous": false,
      "inputs": [
        {
          "indexed": false,
          "internalType": "address",
          "name": "player",
          "type": "address"
        },
        {
          "indexed": false,
          "internalType": "uint256",
          "name": "tokenId",
          "type": "uint256"
        },
        {
          "indexed": false,
          "internalType": "uint256",
          "name": "price",
          "type": "uint256"
        }
      ],
      "name": "ActionAdded",
      "type": "event"
    },
    {
      "anonymous": false,
      "inputs": [
        {
          "indexed": true,
          "internalType": "address",
          "name": "account",
          "type": "address"
        },
        {
          "indexed": true,
          "internalType": "address",
          "name": "operator",
          "type": "address"
        },
        {
          "indexed": false,
          "internalType": "bool",
          "name": "approved",
          "type": "bool"
        }
      ],
      "name": "ApprovalForAll",
      "type": "event"
    },
    {
      "anonymous": false,
      "inputs": [
        {
          "indexed": false,
          "internalType": "uint256",
          "name": "newHiPrice",
          "type": "uint256"
        }
      ],
      "name": "HiDecreased",
      "type": "event"
    },
    {
      "anonymous": false,
      "inputs": [
        {
          "indexed": false,
          "internalType": "address",
          "name": "player",
          "type": "address"
        },
        {
          "indexed": false,
          "internalType": "uint256",
          "name": "amount",
          "type": "uint256"
        }
      ],
      "name": "JackpotPaid",
      "type": "event"
    },
    {
      "anonymous": false,
      "inputs": [
        {
          "indexed": false,
          "internalType": "uint256",
          "name": "newLoPrice",
          "type": "uint256"
        }
      ],
      "name": "LoIncreased",
      "type": "event"
    },
    {
      "anonymous": false,
      "inputs": [
        {
          "indexed": true,
          "internalType": "address",
          "name": "previousOwner",
          "type": "address"
        },
        {
          "indexed": true,
          "internalType": "address",
          "name": "newOwner",
          "type": "address"
        }
      ],
      "name": "OwnershipTransferred",
      "type": "event"
    },
    {
      "anonymous": false,
      "inputs": [
        {
          "indexed": false,
          "internalType": "address",
          "name": "account",
          "type": "address"
        }
      ],
      "name": "Paused",
      "type": "event"
    },
    {
      "anonymous": false,
      "inputs": [
        {
          "indexed": false,
          "internalType": "address",
          "name": "player",
          "type": "address"
        }
      ],
      "name": "PlayerRegistered",
      "type": "event"
    },
    {
      "anonymous": false,
      "inputs": [
        {
          "indexed": false,
          "internalType": "address",
          "name": "player",
          "type": "address"
        },
        {
          "indexed": false,
          "internalType": "uint256",
          "name": "tokenId",
          "type": "uint256"
        }
      ],
      "name": "PriceUpdated",
      "type": "event"
    },
    {
      "anonymous": false,
      "inputs": [
        {
          "indexed": false,
          "internalType": "address[]",
          "name": "winners",
          "type": "address[]"
        },
        {
          "indexed": false,
          "internalType": "uint256",
          "name": "price",
          "type": "uint256"
        }
      ],
      "name": "PricesConverged",
      "type": "event"
    },
    {
      "anonymous": false,
      "inputs": [
        {
          "indexed": true,
          "internalType": "address",
          "name": "operator",
          "type": "address"
        },
        {
          "indexed": true,
          "internalType": "address",
          "name": "from",
          "type": "address"
        },
        {
          "indexed": true,
          "internalType": "address",
          "name": "to",
          "type": "address"
        },
        {
          "indexed": false,
          "internalType": "uint256[]",
          "name": "ids",
          "type": "uint256[]"
        },
        {
          "indexed": false,
          "internalType": "uint256[]",
          "name": "values",
          "type": "uint256[]"
        }
      ],
      "name": "TransferBatch",
      "type": "event"
    },
    {
      "anonymous": false,
      "inputs": [
        {
          "indexed": true,
          "internalType": "address",
          "name": "operator",
          "type": "address"
        },
        {
          "indexed": true,
          "internalType": "address",
          "name": "from",
          "type": "address"
        },
        {
          "indexed": true,
          "internalType": "address",
          "name": "to",
          "type": "address"
        },
        {
          "indexed": false,
          "internalType": "uint256",
          "name": "id",
          "type": "uint256"
        },
        {
          "indexed": false,
          "internalType": "uint256",
          "name": "value",
          "type": "uint256"
        }
      ],
      "name": "TransferSingle",
      "type": "event"
    },
    {
      "anonymous": false,
      "inputs": [
        {
          "indexed": false,
          "internalType": "string",
          "name": "value",
          "type": "string"
        },
        {
          "indexed": true,
          "internalType": "uint256",
          "name": "id",
          "type": "uint256"
        }
      ],
      "name": "URI",
      "type": "event"
    },
    {
      "anonymous": false,
      "inputs": [
        {
          "indexed": false,
          "internalType": "address",
          "name": "account",
          "type": "address"
        }
      ],
      "name": "Unpaused",
      "type": "event"
    },
    {
      "inputs": [],
      "name": "HI",
      "outputs": [
        {
          "internalType": "uint256",
          "name": "",
          "type": "uint256"
        }
      ],
      "stateMutability": "view",
      "type": "function"
    },
    {
      "inputs": [],
      "name": "LO",
      "outputs": [
        {
          "internalType": "uint256",
          "name": "",
          "type": "uint256"
        }
      ],
      "stateMutability": "view",
      "type": "function"
    },
    {
      "inputs": [
        {
          "internalType": "uint256",
          "name": "",
          "type": "uint256"
        },
        {
          "internalType": "uint256",
          "name": "",
          "type": "uint256"
        }
      ],
      "name": "actions",
      "outputs": [
        {
          "internalType": "address",
          "name": "player",
          "type": "address"
        },
        {
          "internalType": "uint256",
          "name": "tokenId",
          "type": "uint256"
        },
        {
          "internalType": "uint256",
          "name": "price",
          "type": "uint256"
        }
      ],
      "stateMutability": "view",
      "type": "function"
    },
    {
      "inputs": [
        {
          "internalType": "uint256",
          "name": "tokenId",
          "type": "uint256"
        }
      ],
      "name": "addToQueue",
      "outputs": [
        {
          "internalType": "uint256",
          "name": "",
          "type": "uint256"
        }
      ],
      "stateMutability": "nonpayable",
      "type": "function"
    },
    {
      "inputs": [
        {
          "internalType": "address",
          "name": "account",
          "type": "address"
        },
        {
          "internalType": "uint256",
          "name": "id",
          "type": "uint256"
        }
      ],
      "name": "balanceOf",
      "outputs": [
        {
          "internalType": "uint256",
          "name": "",
          "type": "uint256"
        }
      ],
      "stateMutability": "view",
      "type": "function"
    },
    {
      "inputs": [
        {
          "internalType": "address[]",
          "name": "accounts",
          "type": "address[]"
        },
        {
          "internalType": "uint256[]",
          "name": "ids",
          "type": "uint256[]"
        }
      ],
      "name": "balanceOfBatch",
      "outputs": [
        {
          "internalType": "uint256[]",
          "name": "",
          "type": "uint256[]"
        }
      ],
      "stateMutability": "view",
      "type": "function"
    },
    {
      "inputs": [
        {
          "internalType": "uint256",
          "name": "tokenId",
          "type": "uint256"
        }
      ],
      "name": "buy",
      "outputs": [],
      "stateMutability": "nonpayable",
      "type": "function"
    },
    {
      "inputs": [
        {
          "internalType": "uint256",
          "name": "",
          "type": "uint256"
        }
      ],
      "name": "buyCounts",
      "outputs": [
        {
          "internalType": "uint256",
          "name": "",
          "type": "uint256"
        }
      ],
      "stateMutability": "view",
      "type": "function"
    },
    {
      "inputs": [],
      "name": "buyForceCount",
      "outputs": [
        {
          "internalType": "uint256",
          "name": "",
          "type": "uint256"
        }
      ],
      "stateMutability": "view",
      "type": "function"
    },
    {
      "inputs": [
        {
          "internalType": "uint256",
          "name": "",
          "type": "uint256"
        }
      ],
      "name": "buyForceCounts",
      "outputs": [
        {
          "internalType": "uint256",
          "name": "",
          "type": "uint256"
        }
      ],
      "stateMutability": "view",
      "type": "function"
    },
    {
      "inputs": [],
      "name": "buyRequiredCount",
      "outputs": [
        {
          "internalType": "uint256",
          "name": "",
          "type": "uint256"
        }
      ],
      "stateMutability": "view",
      "type": "function"
    },
    {
      "inputs": [
        {
          "internalType": "uint256",
          "name": "tokenId",
          "type": "uint256"
        }
      ],
      "name": "checkInQueue",
      "outputs": [
        {
          "internalType": "uint256",
          "name": "",
          "type": "uint256"
        }
      ],
      "stateMutability": "view",
      "type": "function"
    },
    {
      "inputs": [
        {
          "internalType": "uint256",
          "name": "id",
          "type": "uint256"
        }
      ],
      "name": "exists",
      "outputs": [
        {
          "internalType": "bool",
          "name": "",
          "type": "bool"
        }
      ],
      "stateMutability": "view",
      "type": "function"
    },
    {
      "inputs": [],
      "name": "gameWon",
      "outputs": [
        {
          "internalType": "bool",
          "name": "",
          "type": "bool"
        }
      ],
      "stateMutability": "view",
      "type": "function"
    },
    {
      "inputs": [
        {
          "internalType": "address",
          "name": "player",
          "type": "address"
        }
      ],
      "name": "getApprovedSpend",
      "outputs": [
        {
          "internalType": "uint256",
          "name": "",
          "type": "uint256"
        }
      ],
      "stateMutability": "view",
      "type": "function"
    },
    {
      "inputs": [
        {
          "internalType": "address",
          "name": "player",
          "type": "address"
        }
      ],
      "name": "getGameState",
      "outputs": [
        {
          "components": [
            {
              "internalType": "uint256",
              "name": "currentHi",
              "type": "uint256"
            },
            {
              "internalType": "uint256",
              "name": "currentLo",
              "type": "uint256"
            },
            {
              "internalType": "address[]",
              "name": "winners",
              "type": "address[]"
            },
            {
              "internalType": "uint256[2]",
              "name": "playerTotals",
              "type": "uint256[2]"
            },
            {
              "internalType": "uint256[2]",
              "name": "tokenBalances",
              "type": "uint256[2]"
            },
            {
              "internalType": "uint256",
              "name": "approvedSpend",
              "type": "uint256"
            }
          ],
          "internalType": "struct HILO.GameState",
          "name": "",
          "type": "tuple"
        }
      ],
      "stateMutability": "view",
      "type": "function"
    },
    {
      "inputs": [
        {
          "internalType": "address",
          "name": "player",
          "type": "address"
        }
      ],
      "name": "getHiBalance",
      "outputs": [
        {
          "internalType": "uint256",
          "name": "",
          "type": "uint256"
        }
      ],
      "stateMutability": "view",
      "type": "function"
    },
    {
      "inputs": [],
      "name": "getHiTotal",
      "outputs": [
        {
          "internalType": "uint256",
          "name": "",
          "type": "uint256"
        }
      ],
      "stateMutability": "view",
      "type": "function"
    },
    {
      "inputs": [
        {
          "internalType": "address",
          "name": "player",
          "type": "address"
        }
      ],
      "name": "getLoBalance",
      "outputs": [
        {
          "internalType": "uint256",
          "name": "",
          "type": "uint256"
        }
      ],
      "stateMutability": "view",
      "type": "function"
    },
    {
      "inputs": [],
      "name": "getLoTotal",
      "outputs": [
        {
          "internalType": "uint256",
          "name": "",
          "type": "uint256"
        }
      ],
      "stateMutability": "view",
      "type": "function"
    },
    {
      "inputs": [
        {
          "internalType": "uint256",
          "name": "tokenId",
          "type": "uint256"
        }
      ],
      "name": "getPrice",
      "outputs": [
        {
          "internalType": "uint256",
          "name": "",
          "type": "uint256"
        }
      ],
      "stateMutability": "view",
      "type": "function"
    },
    {
      "inputs": [],
      "name": "getWinners",
      "outputs": [
        {
          "internalType": "address[]",
          "name": "",
          "type": "address[]"
        }
      ],
      "stateMutability": "view",
      "type": "function"
    },
    {
      "inputs": [],
      "name": "hiPrice",
      "outputs": [
        {
          "internalType": "uint256",
          "name": "",
          "type": "uint256"
        }
      ],
      "stateMutability": "view",
      "type": "function"
    },
    {
      "inputs": [],
      "name": "initialHi",
      "outputs": [
        {
          "internalType": "uint256",
          "name": "",
          "type": "uint256"
        }
      ],
      "stateMutability": "view",
      "type": "function"
    },
    {
      "inputs": [],
      "name": "initialLo",
      "outputs": [
        {
          "internalType": "uint256",
          "name": "",
          "type": "uint256"
        }
      ],
      "stateMutability": "view",
      "type": "function"
    },
    {
      "inputs": [
        {
          "internalType": "address",
          "name": "account",
          "type": "address"
        },
        {
          "internalType": "address",
          "name": "operator",
          "type": "address"
        }
      ],
      "name": "isApprovedForAll",
      "outputs": [
        {
          "internalType": "bool",
          "name": "",
          "type": "bool"
        }
      ],
      "stateMutability": "view",
      "type": "function"
    },
    {
      "inputs": [],
      "name": "jackpot",
      "outputs": [
        {
          "internalType": "uint256",
          "name": "",
          "type": "uint256"
        }
      ],
      "stateMutability": "view",
      "type": "function"
    },
    {
      "inputs": [],
      "name": "loPrice",
      "outputs": [
        {
          "internalType": "uint256",
          "name": "",
          "type": "uint256"
        }
      ],
      "stateMutability": "view",
      "type": "function"
    },
    {
      "inputs": [],
      "name": "owner",
      "outputs": [
        {
          "internalType": "address",
          "name": "",
          "type": "address"
        }
      ],
      "stateMutability": "view",
      "type": "function"
    },
    {
      "inputs": [],
      "name": "paused",
      "outputs": [
        {
          "internalType": "bool",
          "name": "",
          "type": "bool"
        }
      ],
      "stateMutability": "view",
      "type": "function"
    },
    {
      "inputs": [],
      "name": "payout",
      "outputs": [],
      "stateMutability": "nonpayable",
      "type": "function"
    },
    {
      "inputs": [],
      "name": "renounceOwnership",
      "outputs": [],
      "stateMutability": "nonpayable",
      "type": "function"
    },
    {
      "inputs": [
        {
          "internalType": "address",
          "name": "from",
          "type": "address"
        },
        {
          "internalType": "address",
          "name": "to",
          "type": "address"
        },
        {
          "internalType": "uint256[]",
          "name": "ids",
          "type": "uint256[]"
        },
        {
          "internalType": "uint256[]",
          "name": "amounts",
          "type": "uint256[]"
        },
        {
          "internalType": "bytes",
          "name": "data",
          "type": "bytes"
        }
      ],
      "name": "safeBatchTransferFrom",
      "outputs": [],
      "stateMutability": "nonpayable",
      "type": "function"
    },
    {
      "inputs": [
        {
          "internalType": "address",
          "name": "from",
          "type": "address"
        },
        {
          "internalType": "address",
          "name": "to",
          "type": "address"
        },
        {
          "internalType": "uint256",
          "name": "id",
          "type": "uint256"
        },
        {
          "internalType": "uint256",
          "name": "amount",
          "type": "uint256"
        },
        {
          "internalType": "bytes",
          "name": "data",
          "type": "bytes"
        }
      ],
      "name": "safeTransferFrom",
      "outputs": [],
      "stateMutability": "nonpayable",
      "type": "function"
    },
    {
      "inputs": [
        {
          "internalType": "uint256",
          "name": "",
          "type": "uint256"
        }
      ],
      "name": "saleQueue",
      "outputs": [
        {
          "internalType": "address",
          "name": "player",
          "type": "address"
        },
        {
          "internalType": "uint256",
          "name": "tokenId",
          "type": "uint256"
        }
      ],
      "stateMutability": "view",
      "type": "function"
    },
    {
      "inputs": [],
      "name": "saleQueueIndex",
      "outputs": [
        {
          "internalType": "uint256",
          "name": "",
          "type": "uint256"
        }
      ],
      "stateMutability": "view",
      "type": "function"
    },
    {
      "inputs": [
        {
          "internalType": "uint256",
          "name": "tokenId",
          "type": "uint256"
        }
      ],
      "name": "sell",
      "outputs": [],
      "stateMutability": "nonpayable",
      "type": "function"
    },
    {
      "inputs": [
        {
          "internalType": "address",
          "name": "operator",
          "type": "address"
        },
        {
          "internalType": "bool",
          "name": "approved",
          "type": "bool"
        }
      ],
      "name": "setApprovalForAll",
      "outputs": [],
      "stateMutability": "nonpayable",
      "type": "function"
    },
    {
      "inputs": [
        {
          "internalType": "bytes4",
          "name": "interfaceId",
          "type": "bytes4"
        }
      ],
      "name": "supportsInterface",
      "outputs": [
        {
          "internalType": "bool",
          "name": "",
          "type": "bool"
        }
      ],
      "stateMutability": "view",
      "type": "function"
    },
    {
      "inputs": [
        {
          "internalType": "uint256",
          "name": "id",
          "type": "uint256"
        }
      ],
      "name": "totalSupply",
      "outputs": [
        {
          "internalType": "uint256",
          "name": "",
          "type": "uint256"
        }
      ],
      "stateMutability": "view",
      "type": "function"
    },
    {
      "inputs": [
        {
          "internalType": "address",
          "name": "newOwner",
          "type": "address"
        }
      ],
      "name": "transferOwnership",
      "outputs": [],
      "stateMutability": "nonpayable",
      "type": "function"
    },
    {
      "inputs": [
        {
          "internalType": "uint256",
          "name": "",
          "type": "uint256"
        }
      ],
      "name": "uri",
      "outputs": [
        {
          "internalType": "string",
          "name": "",
          "type": "string"
        }
      ],
      "stateMutability": "view",
      "type": "function"
    },
    {
      "inputs": [],
      "name": "usdc",
      "outputs": [
        {
          "internalType": "contract IERC20",
          "name": "",
          "type": "address"
        }
      ],
      "stateMutability": "view",
      "type": "function"
    },
    {
      "inputs": [
        {
          "internalType": "uint256",
          "name": "",
          "type": "uint256"
        }
      ],
      "name": "winners",
      "outputs": [
        {
          "internalType": "address",
          "name": "",
          "type": "address"
        }
      ],
      "stateMutability": "view",
      "type": "function"
    }
  ],
  "bytecode": "0x60806040526000600f556011805460ff19169055601480546001600160a01b03191673e11a86849d99f524cac3e7a0ec1241828e332c621790553480156200004657600080fd5b5060405162003aec38038062003aec83398101604081905262000069916200044e565b6040518060600160405280602d815260200162003abf602d91396200008e8162000293565b506200009a33620002ac565b6004805460ff60a01b191690556001600555600884905560068490556009839055600783905560006002620000d0858762000484565b600754600654620000e29190620004e2565b620000ef90600162000484565b620000fb9190620004c0565b6200010791906200049f565b905081620001176002836200049f565b10156200016b5760405162461bcd60e51b815260206004820152601e60248201527f4a61636b706f7420746f6f206c6172676520666f72207468652067616d65000060448201526064015b60405180910390fd5b60138290556008546200018e57634e487b7160e01b600052600160045260246000fd5b600060095411620001af57634e487b7160e01b600052600160045260246000fd5b60095460085411620001d157634e487b7160e01b600052600160045260246000fd5b600a839055600c60205260007f13649b2456f1b42fef0f0040b3aaeabcd21a76a0f3f5defd4f583839455116e8819055600181527fd421a5181c571bba3f01190c922c3b2a896fc1d84e86c9f17ac10e67ebef8b5c5562000234836002620004c0565b600b555050600d602052505060007f81955a0a11e65eac625c29e8882660bae4e165a75d72780094acae8ece9a29ee819055600181527ffd54ff1ed53f34a900b24c5ba64f85761163b5d82d98a47b9bd80e45466993c555506200054f565b8051620002a8906002906020840190620003a8565b5050565b6000620002c16004546001600160a01b031690565b6001600160a01b03161480620002e457506004546001600160a01b038281169116145b6200033d5760405162461bcd60e51b815260206004820152602260248201527f48494c4f3a2063616e6e6f74207472616e73666572206f776e65727368697020604482015261746f60f01b606482015260840162000162565b62000353816200035660201b620016b51760201c565b50565b600480546001600160a01b038381166001600160a01b0319831681179093556040519116919082907f8be0079c531659141344cd1fd0a4f28419497f9722a3daafe3b4186f6b6457e090600090a35050565b828054620003b690620004fc565b90600052602060002090601f016020900481019282620003da576000855562000425565b82601f10620003f557805160ff191683800117855562000425565b8280016001018555821562000425579182015b828111156200042557825182559160200191906001019062000408565b506200043392915062000437565b5090565b5b8082111562000433576000815560010162000438565b6000806000806080858703121562000464578384fd5b505082516020840151604085015160609095015191969095509092509050565b600082198211156200049a576200049a62000539565b500190565b600082620004bb57634e487b7160e01b81526012600452602481fd5b500490565b6000816000190483118215151615620004dd57620004dd62000539565b500290565b600082821015620004f757620004f762000539565b500390565b600181811c908216806200051157607f821691505b602082108114156200053357634e487b7160e01b600052602260045260246000fd5b50919050565b634e487b7160e01b600052601160045260246000fd5b613560806200055f6000396000f3fe608060405234801561001057600080fd5b50600436106102735760003560e01c8063833cbacf11610151578063d96a094a116100c3578063e985e9c511610087578063e985e9c5146105eb578063e9b6d93714610627578063f242432a1461063a578063f2e8dfdb1461064d578063f2fde38b14610655578063f5cf330b1461066857600080fd5b8063d96a094a1461057d578063d9d60b5214610590578063df15c37e146105b0578063e4849b32146105c5578063e7572230146105d857600080fd5b8063a2fb117511610115578063a2fb1175146104cf578063b23c328b146104e2578063bd85b039146104eb578063cab8ec9f1461050b578063caccac2414610543578063cd1fb31d1461057457600080fd5b8063833cbacf1461047c578063864e11c1146104855780638da5cb5b146104985780639c23389a146104a9578063a22cb465146104bc57600080fd5b80634e1273f4116101ea5780635c975abb116101ae5780635c975abb14610429578063633a8d0f1461043b57806363bd1d4a1461045b57806368d2be8f146104635780636b31ee011461046b578063715018a61461047457600080fd5b80634e1273f4146103ab5780634f558e79146103cb57806351aa1943146103ed5780635a437daa146104005780635c5c4d611461040957600080fd5b8063212a7bcd1161023c578063212a7bcd1461032057806321441d9d14610329578063266f9723146103325780632eb2c2d61461036257806337449eb7146103775780633e413bee1461038057600080fd5b8062fdd58e1461027857806301ffc9a71461029e578063069a825c146102c157806308415c91146102ce5780630e89341c14610300575b600080fd5b61028b610286366004612da6565b61067b565b6040519081526020015b60405180910390f35b6102b16102ac366004612eb6565b610712565b6040519015158152602001610295565b6011546102b19060ff1681565b6102e16102dc366004612eee565b610764565b604080516001600160a01b039093168352602083019190915201610295565b61031361030e366004612eee565b61079c565b604051610295919061316c565b61028b60075481565b61028b60085481565b6000805260036020527f3617319a054d772f909f7c479a2cebe5066e836a939412e32403c99029b92eff5461028b565b610375610370366004612c67565b610830565b005b61028b600f5481565b601454610393906001600160a01b031681565b6040516001600160a01b039091168152602001610295565b6103be6103b9366004612dcf565b6108c7565b604051610295919061312b565b6102b16103d9366004612eee565b600090815260036020526040902054151590565b61028b6103fb366004612c14565b610a29565b61028b60095481565b61028b610417366004612eee565b600c6020526000908152604090205481565b600454600160a01b900460ff166102b1565b61028b610449366004612eee565b600d6020526000908152604090205481565b610375610a36565b61028b600181565b61028b60135481565b610375610d07565b61028b600a5481565b61028b610493366004612c14565b610d3d565b6004546001600160a01b0316610393565b61028b6104b7366004612c14565b610d4a565b6103756104ca366004612d70565b610dce565b6103936104dd366004612eee565b610ddd565b61028b60065481565b61028b6104f9366004612eee565b60009081526003602052604090205490565b61051e610519366004612f1e565b610e07565b604080516001600160a01b039094168452602084019290925290820152606001610295565b600160005260036020527fa15bc60c955c405d20d9149c709e2460f1c2d9a497496a7f46004d1772c3054c5461028b565b61028b600b5481565b61037561058b366004612eee565b610e53565b6105a361059e366004612c14565b61114c565b60405161029591906132b5565b6105b8611308565b60405161029591906130c2565b6103756105d3366004612eee565b61136a565b61028b6105e6366004612eee565b6113d6565b6102b16105f9366004612c35565b6001600160a01b03918216600090815260016020908152604080832093909416825291909152205460ff1690565b61028b610635366004612eee565b611403565b610375610648366004612d0d565b6114cd565b61028b600081565b610375610663366004612c14565b611554565b61028b610676366004612eee565b6115ef565b60006001600160a01b0383166106ec5760405162461bcd60e51b815260206004820152602b60248201527f455243313135353a2062616c616e636520717565727920666f7220746865207a60448201526a65726f206164647265737360a81b60648201526084015b60405180910390fd5b506000908152602081815260408083206001600160a01b03949094168352929052205490565b60006001600160e01b03198216636cdb3d1360e11b148061074357506001600160e01b031982166303a24d0760e21b145b8061075e57506301ffc9a760e01b6001600160e01b03198316145b92915050565b600e818154811061077457600080fd5b6000918252602090912060029091020180546001909101546001600160a01b03909116915082565b6060600280546107ab906133b5565b80601f01602080910402602001604051908101604052809291908181526020018280546107d7906133b5565b80156108245780601f106107f957610100808354040283529160200191610824565b820191906000526020600020905b81548152906001019060200180831161080757829003601f168201915b50505050509050919050565b6001600160a01b03851633148061084c575061084c85336105f9565b6108b35760405162461bcd60e51b815260206004820152603260248201527f455243313135353a207472616e736665722063616c6c6572206973206e6f74206044820152711bdddb995c881b9bdc88185c1c1c9bdd995960721b60648201526084016106e3565b6108c08585858585611707565b5050505050565b6060815183511461092c5760405162461bcd60e51b815260206004820152602960248201527f455243313135353a206163636f756e747320616e6420696473206c656e677468604482015268040dad2e6dac2e8c6d60bb1b60648201526084016106e3565b6000835167ffffffffffffffff81111561095657634e487b7160e01b600052604160045260246000fd5b60405190808252806020026020018201604052801561097f578160200160208202803683370190505b50905060005b8451811015610a21576109e68582815181106109b157634e487b7160e01b600052603260045260246000fd5b60200260200101518583815181106109d957634e487b7160e01b600052603260045260246000fd5b602002602001015161067b565b828281518110610a0657634e487b7160e01b600052603260045260246000fd5b6020908102919091010152610a1a8161341d565b9050610985565b509392505050565b600061075e82600161067b565b6004546001600160a01b03163314610a605760405162461bcd60e51b81526004016106e390613280565b601254601354600090610a7b90670de0b6b3a764000061337f565b905060005b82811015610bde576000610a94848461335f565b601454601280549293506001600160a01b039091169163a9059cbb919085908110610acf57634e487b7160e01b600052603260045260246000fd5b60009182526020909120015460405160e083901b6001600160e01b03191681526001600160a01b03909116600482015260248101849052604401602060405180830381600087803b158015610b2357600080fd5b505af1158015610b37573d6000803e3d6000fd5b505050506040513d601f19601f82011682018060405250810190610b5b9190612e9a565b507f88c519ab1745d32c7a1e2c97aa7817ca6e8046aaa146002b9ec1c8516ed6785460128381548110610b9e57634e487b7160e01b600052603260045260246000fd5b60009182526020918290200154604080516001600160a01b0390921682529181018490520160405180910390a15080610bd68161341d565b915050610a80565b506014546040516370a0823160e01b81523060048201526000916001600160a01b0316906370a082319060240160206040518083038186803b158015610c2357600080fd5b505afa158015610c37573d6000803e3d6000fd5b505050506040513d601f19601f82011682018060405250810190610c5b9190612f06565b6014549091506001600160a01b031663a9059cbb610c816004546001600160a01b031690565b6040516001600160e01b031960e084901b1681526001600160a01b03909116600482015260248101849052604401602060405180830381600087803b158015610cc957600080fd5b505af1158015610cdd573d6000803e3d6000fd5b505050506040513d601f19601f82011682018060405250810190610d019190612e9a565b50505050565b6004546001600160a01b03163314610d315760405162461bcd60e51b81526004016106e390613280565b610d3b600061190e565b565b600061075e82600061067b565b601454604051636eb1769f60e11b81526001600160a01b038381166004830152306024830152600092169063dd62ed3e9060440160206040518083038186803b158015610d9657600080fd5b505afa158015610daa573d6000803e3d6000fd5b505050506040513d601f19601f8201168201806040525081019061075e9190612f06565b610dd93383836119a4565b5050565b60128181548110610ded57600080fd5b6000918252602090912001546001600160a01b0316905081565b60106020528160005260406000208181548110610e2357600080fd5b60009182526020909120600390910201805460018201546002909201546001600160a01b03909116935090915083565b600454600160a01b900460ff1615610e7d5760405162461bcd60e51b81526004016106e3906131c7565b801580610e8a5750600181145b610ec75760405162461bcd60e51b815260206004820152600e60248201526d24b73b30b634b2103a37b5b2b71760911b60448201526064016106e3565b6000610ed2826113d6565b905060008111610ef257634e487b7160e01b600052600160045260246000fd5b600060075482148015610f055750600183145b80610f1a575060065482148015610f1a575082155b600b546000858152600d602052604090205460095460085493945091149114801590610f4a57508180610f4a5750805b15610f9257610f5884611a85565b60408051338152602081018690527f0d86730737b142fc160892fa8a0f2db687a92a0e294d1ad70624cf5acef03b84910160405180910390a15b610fa483670de0b6b3a764000061337f565b6014546040516370a0823160e01b81523360048201529194506000916001600160a01b03909116906370a082319060240160206040518083038186803b158015610fed57600080fd5b505afa158015611001573d6000803e3d6000fd5b505050506040513d601f19601f820116820180604052508101906110259190612f06565b9050838110156110775760405162461bcd60e51b815260206004820152601a60248201527f496e73756666696369656e7420555344432062616c616e63652e00000000000060448201526064016106e3565b6014546040516323b872dd60e01b8152336004820152306024820152604481018690526001600160a01b03909116906323b872dd90606401602060405180830381600087803b1580156110c957600080fd5b505af11580156110dd573d6000803e3d6000fd5b505050506040513d601f19601f820116820180604052508101906111019190612e9a565b5061111e3386600160405180602001604052806000815250611abd565b8161112c5761112c85611be0565b600a546000868152600c602052604090205414156108c0576108c0611c66565b611154612aba565b600061116183600061067b565b9050600061117084600161067b565b601454604051636eb1769f60e11b81526001600160a01b0387811660048301523060248301529293506000929091169063dd62ed3e9060440160206040518083038186803b1580156111c157600080fd5b505afa1580156111d5573d6000803e3d6000fd5b505050506040513d601f19601f820116820180604052508101906111f99190612f06565b600360209081527f3617319a054d772f909f7c479a2cebe5066e836a939412e32403c99029b92eff5460016000527fa15bc60c955c405d20d9149c709e2460f1c2d9a497496a7f46004d1772c3054c546040805160c081018252600854815260095481860152601280548351818802810188018552818152979850949693959194928501939290918301828280156112ba57602002820191906000526020600020905b81546001600160a01b0316815260019091019060200180831161129c575b50505050508152602001604051806040016040528085815260200184815250815260200160405180604001604052808881526020018781525081526020018481525095505050505050919050565b6060601280548060200260200160405190810160405280929190818152602001828054801561136057602002820191906000526020600020905b81546001600160a01b03168152600190910190602001808311611342575b5050505050905090565b600260055414156113bd5760405162461bcd60e51b815260206004820152601f60248201527f5265656e7472616e637947756172643a207265656e7472616e742063616c6c0060448201526064016106e3565b6002600555336113cd8183611d2a565b50506001600555565b6000816113e557505060085490565b60018214156113f657505060095490565b506000919050565b919050565b600f546000906001905b600e548110156114c357336001600160a01b0316600e828154811061144257634e487b7160e01b600052603260045260246000fd5b60009182526020909120600290910201546001600160a01b03161415611469575092915050565b83600e828154811061148b57634e487b7160e01b600052603260045260246000fd5b90600052602060002090600202016001015414156114b1576114ae600183613347565b91505b806114bb8161341d565b91505061140d565b5060009392505050565b6001600160a01b0385163314806114e957506114e985336105f9565b6115475760405162461bcd60e51b815260206004820152602960248201527f455243313135353a2063616c6c6572206973206e6f74206f776e6572206e6f7260448201526808185c1c1c9bdd995960ba1b60648201526084016106e3565b6108c08585858585611fbd565b6004546001600160a01b0316331461157e5760405162461bcd60e51b81526004016106e390613280565b6001600160a01b0381166115e35760405162461bcd60e51b815260206004820152602660248201527f4f776e61626c653a206e6577206f776e657220697320746865207a65726f206160448201526564647265737360d01b60648201526084016106e3565b6115ec8161190e565b50565b6000806115fb83611403565b905080156116095792915050565b6040805180820190915233815260208101848152600e8054600181018255600082905283517fbb7b4a454dc3493923482f07822329ed19e8244eff582cc204f8554c3620c3fd600290920291820180546001600160a01b0319166001600160a01b0390921691909117905591517fbb7b4a454dc3493923482f07822329ed19e8244eff582cc204f8554c3620c3fe90920191909155600f5490546116ad919061339e565b949350505050565b600480546001600160a01b038381166001600160a01b0319831681179093556040519116919082907f8be0079c531659141344cd1fd0a4f28419497f9722a3daafe3b4186f6b6457e090600090a35050565b81518351146117695760405162461bcd60e51b815260206004820152602860248201527f455243313135353a2069647320616e6420616d6f756e7473206c656e677468206044820152670dad2e6dac2e8c6d60c31b60648201526084016106e3565b6001600160a01b03841661178f5760405162461bcd60e51b81526004016106e3906131f1565b3361179e8187878787876120f5565b60005b84518110156118a05760008582815181106117cc57634e487b7160e01b600052603260045260246000fd5b6020026020010151905060008583815181106117f857634e487b7160e01b600052603260045260246000fd5b602090810291909101810151600084815280835260408082206001600160a01b038e1683529093529190912054909150818110156118485760405162461bcd60e51b81526004016106e390613236565b6000838152602081815260408083206001600160a01b038e8116855292528083208585039055908b16825281208054849290611885908490613347565b92505081905550505050806118999061341d565b90506117a1565b50846001600160a01b0316866001600160a01b0316826001600160a01b03167f4a39dc06d4c0dbc64b70af90fd698a233a518aa5d07e595d983b8c0526c8f7fb87876040516118f092919061313e565b60405180910390a4611906818787878787612196565b505050505050565b60006119226004546001600160a01b031690565b6001600160a01b0316148061194457506004546001600160a01b038281169116145b61199b5760405162461bcd60e51b815260206004820152602260248201527f48494c4f3a2063616e6e6f74207472616e73666572206f776e65727368697020604482015261746f60f01b60648201526084016106e3565b6115ec816116b5565b816001600160a01b0316836001600160a01b03161415611a185760405162461bcd60e51b815260206004820152602960248201527f455243313135353a2073657474696e6720617070726f76616c20737461747573604482015268103337b91039b2b63360b91b60648201526084016106e3565b6001600160a01b03838116600081815260016020908152604080832094871680845294825291829020805460ff191686151590811790915591519182527f17307eab39ab6107e8899845ad3d59bd9653f200f220920489ca2b5937696c31910160405180910390a3505050565b80611a9757611a92612301565b611a9f565b611a9f612350565b6000908152600c60209081526040808320839055600d909152812055565b6001600160a01b038416611b1d5760405162461bcd60e51b815260206004820152602160248201527f455243313135353a206d696e7420746f20746865207a65726f206164647265736044820152607360f81b60648201526084016106e3565b336000611b29856123b5565b90506000611b36856123b5565b9050611b47836000898585896120f5565b6000868152602081815260408083206001600160a01b038b16845290915281208054879290611b77908490613347565b909155505060408051878152602081018790526001600160a01b03808a1692600092918716917fc3d58168c5ae7397731d063d5bbf3d657854427343f4c083240f7aacaa2d0f62910160405180910390a4611bd78360008989898961240e565b50505050505050565b600a546000828152600c60205260409020541015611c22576000818152600c6020526040902054611c12906001613347565b6000828152600c60205260409020555b600b546000828152600d602052604090205410156115ec576000818152600d6020526040902054611c54906001613347565b6000828152600d602052604090205550565b600454600160a01b900460ff1615611c905760405162461bcd60e51b81526004016106e3906131c7565b600e54611c9957565b600f8054600091600e919083611cae8361341d565b9190505581548110611cd057634e487b7160e01b600052603260045260246000fd5b600091825260208083206040805180820190915260029093020180546001600160a01b0316808452600190910154918301829052919350611d11919061067b565b905080611d1c575050565b610dd9826000015183602001515b600454600160a01b900460ff1615611d545760405162461bcd60e51b81526004016106e3906131c7565b801580611d615750600181145b611d9e5760405162461bcd60e51b815260206004820152600e60248201526d24b73b30b634b2103a37b5b2b71760911b60448201526064016106e3565b600a546000828152600c60205260409020541480611e105760405162461bcd60e51b815260206004820152602960248201527f48494c4f3a2063616e6e6f742073656c6c207768656e207468652073616c65206044820152681a5cc81b1bd8dad95960ba1b60648201526084016106e3565b611e1a83836124d8565b6009546008541415611e3c57611e37611e32836113d6565b61259d565b505050565b6000611e47836113d6565b9050611e5b81670de0b6b3a764000061337f565b60145460405163a9059cbb60e01b81526001600160a01b0387811660048301526024820184905292935091169063a9059cbb90604401602060405180830381600087803b158015611eab57600080fd5b505af1158015611ebf573d6000803e3d6000fd5b505050506040513d601f19601f82011682018060405250810190611ee39190612e9a565b50611ef0848460016126fc565b611ef983611a85565b604080516001600160a01b0386168152602081018590527f0d86730737b142fc160892fa8a0f2db687a92a0e294d1ad70624cf5acef03b84910160405180910390a182158015611f515750611f4f84600161067b565b155b15610d0157611f728460018060405180602001604052806000815250611abd565b6001600a54611f81919061339e565b6001600052600c6020527fd421a5181c571bba3f01190c922c3b2a896fc1d84e86c9f17ac10e67ebef8b5c541015610d0157610d016001611be0565b6001600160a01b038416611fe35760405162461bcd60e51b81526004016106e3906131f1565b336000611fef856123b5565b90506000611ffc856123b5565b905061200c8389898585896120f5565b6000868152602081815260408083206001600160a01b038c1684529091529020548581101561204d5760405162461bcd60e51b81526004016106e390613236565b6000878152602081815260408083206001600160a01b038d8116855292528083208985039055908a1682528120805488929061208a908490613347565b909155505060408051888152602081018890526001600160a01b03808b16928c821692918816917fc3d58168c5ae7397731d063d5bbf3d657854427343f4c083240f7aacaa2d0f62910160405180910390a46120ea848a8a8a8a8a61240e565b505050505050505050565b600454600160a01b900460ff161561211f5760405162461bcd60e51b81526004016106e3906131c7565b6001600160a01b038516158061213c57506001600160a01b038416155b6121885760405162461bcd60e51b815260206004820152601760248201527f48494c4f3a206e6f6e207472616e736665727261626c6500000000000000000060448201526064016106e3565b61190686868686868661288c565b6001600160a01b0384163b156119065760405163bc197c8160e01b81526001600160a01b0385169063bc197c81906121da908990899088908890889060040161301f565b602060405180830381600087803b1580156121f457600080fd5b505af1925050508015612224575060408051601f3d908101601f1916820190925261222191810190612ed2565b60015b6122d157612230613464565b806308c379a0141561226a575061224561347c565b80612250575061226c565b8060405162461bcd60e51b81526004016106e3919061316c565b505b60405162461bcd60e51b815260206004820152603460248201527f455243313135353a207472616e7366657220746f206e6f6e20455243313135356044820152732932b1b2b4bb32b91034b6b83632b6b2b73a32b960611b60648201526084016106e3565b6001600160e01b0319811663bc197c8160e01b14611bd75760405162461bcd60e51b81526004016106e39061317f565b6001600854612310919061339e565b6008557f5a258dc6fce0816c9caf9835f08fa5596416dd55037714d2e51688cea5f062c560085460405161234691815260200190565b60405180910390a1565b60095461235e906001613347565b6009819055600854101561238257634e487b7160e01b600052600160045260246000fd5b7f3f9b5fbd1bfff0a78edef53fb452db3ea00eb6ea96cb06defcc66dd171bbca2160095460405161234691815260200190565b604080516001808252818301909252606091600091906020808301908036833701905050905082816000815181106123fd57634e487b7160e01b600052603260045260246000fd5b602090810291909101015292915050565b6001600160a01b0384163b156119065760405163f23a6e6160e01b81526001600160a01b0385169063f23a6e6190612452908990899088908890889060040161307d565b602060405180830381600087803b15801561246c57600080fd5b505af192505050801561249c575060408051601f3d908101601f1916820190925261249991810190612ed2565b60015b6124a857612230613464565b6001600160e01b0319811663f23a6e6160e01b14611bd75760405162461bcd60e51b81526004016106e39061317f565b60006124e3826113d6565b60408051606080820183526001600160a01b03878116808452602080850189815285870188815260008981526010845288812080546001808201835591835291859020895160039093020180546001600160a01b03191692909716919091178655915191850191909155516002909301929092558451908152908101879052928301849052929350917fc19f70d47acbbf1d2faf3a7944182cf6b5345c67d2156ed328ea510e72f13066910160405180910390a150505050565b6000601060006008548152602001908152602001600020805480602002602001604051908101604052809291908181526020016000905b82821015612629576000848152602090819020604080516060810182526003860290920180546001600160a01b03168352600180820154848601526002909101549183019190915290835290920191016125d4565b50505050905060005b81518110156126ab57601282828151811061265d57634e487b7160e01b600052603260045260246000fd5b6020908102919091018101515182546001810184556000938452919092200180546001600160a01b0319166001600160a01b03909216919091179055806126a38161341d565b915050612632565b506011805460ff191660011790556040517f10dee8c2942b449b177825c6d5eb7131392949ec2008676761b93b00acea615a906126ec9060129085906130d5565b60405180910390a1610dd9612a3d565b6001600160a01b03831661275e5760405162461bcd60e51b815260206004820152602360248201527f455243313135353a206275726e2066726f6d20746865207a65726f206164647260448201526265737360e81b60648201526084016106e3565b33600061276a846123b5565b90506000612777846123b5565b9050612797838760008585604051806020016040528060008152506120f5565b6000858152602081815260408083206001600160a01b038a168452909152902054848110156128145760405162461bcd60e51b8152602060048201526024808201527f455243313135353a206275726e20616d6f756e7420657863656564732062616c604482015263616e636560e01b60648201526084016106e3565b6000868152602081815260408083206001600160a01b038b81168086529184528285208a8703905582518b81529384018a90529092908816917fc3d58168c5ae7397731d063d5bbf3d657854427343f4c083240f7aacaa2d0f62910160405180910390a4604080516020810190915260009052611bd7565b6001600160a01b03851661292f5760005b835181101561292d578281815181106128c657634e487b7160e01b600052603260045260246000fd5b6020026020010151600360008684815181106128f257634e487b7160e01b600052603260045260246000fd5b6020026020010151815260200190815260200160002060008282546129179190613347565b9091555061292690508161341d565b905061289d565b505b6001600160a01b0384166119065760005b8351811015611bd757600084828151811061296b57634e487b7160e01b600052603260045260246000fd5b60200260200101519050600084838151811061299757634e487b7160e01b600052603260045260246000fd5b6020026020010151905060006003600084815260200190815260200160002054905081811015612a1a5760405162461bcd60e51b815260206004820152602860248201527f455243313135353a206275726e20616d6f756e74206578636565647320746f74604482015267616c537570706c7960c01b60648201526084016106e3565b60009283526003602052604090922091039055612a368161341d565b9050612940565b600454600160a01b900460ff1615612a675760405162461bcd60e51b81526004016106e3906131c7565b6004805460ff60a01b1916600160a01b1790557f62e78cea01bee320cd4e420270b5ea74000d11b0c9f74754ebdbfc544b05a258612aa23390565b6040516001600160a01b039091168152602001612346565b6040518060c00160405280600081526020016000815260200160608152602001612ae2612afc565b8152602001612aef612afc565b8152602001600081525090565b60405180604001604052806002906020820280368337509192915050565b80356001600160a01b03811681146113fe57600080fd5b600082601f830112612b41578081fd5b81356020612b4e82613323565b604051612b5b82826133f0565b8381528281019150858301600585901b87018401881015612b7a578586fd5b855b85811015612b9857813584529284019290840190600101612b7c565b5090979650505050505050565b600082601f830112612bb5578081fd5b813567ffffffffffffffff811115612bcf57612bcf61344e565b604051612be6601f8301601f1916602001826133f0565b818152846020838601011115612bfa578283fd5b816020850160208301379081016020019190915292915050565b600060208284031215612c25578081fd5b612c2e82612b1a565b9392505050565b60008060408385031215612c47578081fd5b612c5083612b1a565b9150612c5e60208401612b1a565b90509250929050565b600080600080600060a08688031215612c7e578081fd5b612c8786612b1a565b9450612c9560208701612b1a565b9350604086013567ffffffffffffffff80821115612cb1578283fd5b612cbd89838a01612b31565b94506060880135915080821115612cd2578283fd5b612cde89838a01612b31565b93506080880135915080821115612cf3578283fd5b50612d0088828901612ba5565b9150509295509295909350565b600080600080600060a08688031215612d24578081fd5b612d2d86612b1a565b9450612d3b60208701612b1a565b93506040860135925060608601359150608086013567ffffffffffffffff811115612d64578182fd5b612d0088828901612ba5565b60008060408385031215612d82578182fd5b612d8b83612b1a565b91506020830135612d9b81613506565b809150509250929050565b60008060408385031215612db8578182fd5b612dc183612b1a565b946020939093013593505050565b60008060408385031215612de1578182fd5b823567ffffffffffffffff80821115612df8578384fd5b818501915085601f830112612e0b578384fd5b81356020612e1882613323565b604051612e2582826133f0565b8381528281019150858301600585901b870184018b1015612e44578889fd5b8896505b84871015612e6d57612e5981612b1a565b835260019690960195918301918301612e48565b5096505086013592505080821115612e83578283fd5b50612e9085828601612b31565b9150509250929050565b600060208284031215612eab578081fd5b8151612c2e81613506565b600060208284031215612ec7578081fd5b8135612c2e81613514565b600060208284031215612ee3578081fd5b8151612c2e81613514565b600060208284031215612eff578081fd5b5035919050565b600060208284031215612f17578081fd5b5051919050565b60008060408385031215612f30578182fd5b50508035926020909101359150565b6000815180845260208085019450808401835b83811015612f775781516001600160a01b031687529582019590820190600101612f52565b509495945050505050565b8060005b6002811015610d01578151845260209384019390910190600101612f86565b6000815180845260208085019450808401835b83811015612f7757815187529582019590820190600101612fb8565b60008151808452815b81811015612ff957602081850181015186830182015201612fdd565b8181111561300a5782602083870101525b50601f01601f19169290920160200192915050565b6001600160a01b0386811682528516602082015260a06040820181905260009061304b90830186612fa5565b828103606084015261305d8186612fa5565b905082810360808401526130718185612fd4565b98975050505050505050565b6001600160a01b03868116825285166020820152604081018490526060810183905260a0608082018190526000906130b790830184612fd4565b979650505050505050565b602081526000612c2e6020830184612f3f565b6000604082016040835280855480835260608501915086845260209250828420845b8281101561311c5781546001600160a01b0316845292840192600191820191016130f7565b50505092019290925292915050565b602081526000612c2e6020830184612fa5565b6040815260006131516040830185612fa5565b82810360208401526131638185612fa5565b95945050505050565b602081526000612c2e6020830184612fd4565b60208082526028908201527f455243313135353a204552433131353552656365697665722072656a656374656040820152676420746f6b656e7360c01b606082015260800190565b60208082526010908201526f14185d5cd8589b194e881c185d5cd95960821b604082015260600190565b60208082526025908201527f455243313135353a207472616e7366657220746f20746865207a65726f206164604082015264647265737360d81b606082015260800190565b6020808252602a908201527f455243313135353a20696e73756666696369656e742062616c616e636520666f60408201526939103a3930b739b332b960b11b606082015260800190565b6020808252818101527f4f776e61626c653a2063616c6c6572206973206e6f7420746865206f776e6572604082015260600190565b602081528151602082015260208201516040820152600060408301516101008060608501526132e8610120850183612f3f565b915060608501516132fc6080860182612f82565b50608085015161330f60c0860182612f82565b5060a0949094015192909301919091525090565b600067ffffffffffffffff82111561333d5761333d61344e565b5060051b60200190565b6000821982111561335a5761335a613438565b500190565b60008261337a57634e487b7160e01b81526012600452602481fd5b500490565b600081600019048311821515161561339957613399613438565b500290565b6000828210156133b0576133b0613438565b500390565b600181811c908216806133c957607f821691505b602082108114156133ea57634e487b7160e01b600052602260045260246000fd5b50919050565b601f8201601f1916810167ffffffffffffffff811182821017156134165761341661344e565b6040525050565b600060001982141561343157613431613438565b5060010190565b634e487b7160e01b600052601160045260246000fd5b634e487b7160e01b600052604160045260246000fd5b600060033d111561347957600481823e5160e01c5b90565b600060443d101561348a5790565b6040516003193d81016004833e81513d67ffffffffffffffff81602484011181841117156134ba57505050505090565b82850191508151818111156134d25750505050505090565b843d87010160208285010111156134ec5750505050505090565b6134fb602082860101876133f0565b509095945050505050565b80151581146115ec57600080fd5b6001600160e01b0319811681146115ec57600080fdfea26469706673582212203acfb82ed94dfda4df2b7be44d045061249311879da573003e67fd2af052f5f164736f6c6343000804003368747470733a2f2f68696c6f2d65696768742e76657263656c2e6170702f6170692f746f6b656e732f7b69647d",
  "linkReferences": {},
  "deployedLinkReferences": {}
}