{
  "_format": "hh-sol-artifact-1",
  "contractName": "HILO",
  "sourceName": "contracts/HILO.sol",
  "abi": [
    {
      "inputs": [
        {
          "internalType": "uint256",
          "name": "_initialHi",
          "type": "uint256"
        },
        {
          "internalType": "uint256",
          "name": "_initialLo",
          "type": "uint256"
        },
        {
          "internalType": "uint256",
          "name": "_buyRequiredCount",
          "type": "uint256"
        },
        {
          "internalType": "uint256",
          "name": "_jackpot",
          "type": "uint256"
        }
      ],
      "stateMutability": "nonpayable",
      "type": "constructor"
    },
    {
      "anonymous": false,
      "inputs": [
        {
          "indexed": false,
          "internalType": "address",
          "name": "player",
          "type": "address"
        },
        {
          "indexed": false,
          "internalType": "uint256",
          "name": "tokenId",
          "type": "uint256"
        },
        {
          "indexed": false,
          "internalType": "uint256",
          "name": "price",
          "type": "uint256"
        }
      ],
      "name": "ActionAdded",
      "type": "event"
    },
    {
      "anonymous": false,
      "inputs": [
        {
          "indexed": true,
          "internalType": "address",
          "name": "account",
          "type": "address"
        },
        {
          "indexed": true,
          "internalType": "address",
          "name": "operator",
          "type": "address"
        },
        {
          "indexed": false,
          "internalType": "bool",
          "name": "approved",
          "type": "bool"
        }
      ],
      "name": "ApprovalForAll",
      "type": "event"
    },
    {
      "anonymous": false,
      "inputs": [
        {
          "indexed": false,
          "internalType": "uint256",
          "name": "newHiPrice",
          "type": "uint256"
        }
      ],
      "name": "HiDecreased",
      "type": "event"
    },
    {
      "anonymous": false,
      "inputs": [
        {
          "indexed": false,
          "internalType": "address",
          "name": "player",
          "type": "address"
        },
        {
          "indexed": false,
          "internalType": "uint256",
          "name": "amount",
          "type": "uint256"
        }
      ],
      "name": "JackpotPaid",
      "type": "event"
    },
    {
      "anonymous": false,
      "inputs": [
        {
          "indexed": false,
          "internalType": "uint256",
          "name": "newLoPrice",
          "type": "uint256"
        }
      ],
      "name": "LoIncreased",
      "type": "event"
    },
    {
      "anonymous": false,
      "inputs": [
        {
          "indexed": true,
          "internalType": "address",
          "name": "previousOwner",
          "type": "address"
        },
        {
          "indexed": true,
          "internalType": "address",
          "name": "newOwner",
          "type": "address"
        }
      ],
      "name": "OwnershipTransferred",
      "type": "event"
    },
    {
      "anonymous": false,
      "inputs": [
        {
          "indexed": false,
          "internalType": "address",
          "name": "account",
          "type": "address"
        }
      ],
      "name": "Paused",
      "type": "event"
    },
    {
      "anonymous": false,
      "inputs": [
        {
          "indexed": false,
          "internalType": "address",
          "name": "player",
          "type": "address"
        },
        {
          "indexed": false,
          "internalType": "uint256",
          "name": "tokenId",
          "type": "uint256"
        }
      ],
      "name": "PriceUpdated",
      "type": "event"
    },
    {
      "anonymous": false,
      "inputs": [
        {
          "indexed": false,
          "internalType": "address[]",
          "name": "winners",
          "type": "address[]"
        },
        {
          "indexed": false,
          "internalType": "uint256",
          "name": "price",
          "type": "uint256"
        }
      ],
      "name": "PricesConverged",
      "type": "event"
    },
    {
      "anonymous": false,
      "inputs": [
        {
          "indexed": true,
          "internalType": "address",
          "name": "operator",
          "type": "address"
        },
        {
          "indexed": true,
          "internalType": "address",
          "name": "from",
          "type": "address"
        },
        {
          "indexed": true,
          "internalType": "address",
          "name": "to",
          "type": "address"
        },
        {
          "indexed": false,
          "internalType": "uint256[]",
          "name": "ids",
          "type": "uint256[]"
        },
        {
          "indexed": false,
          "internalType": "uint256[]",
          "name": "values",
          "type": "uint256[]"
        }
      ],
      "name": "TransferBatch",
      "type": "event"
    },
    {
      "anonymous": false,
      "inputs": [
        {
          "indexed": true,
          "internalType": "address",
          "name": "operator",
          "type": "address"
        },
        {
          "indexed": true,
          "internalType": "address",
          "name": "from",
          "type": "address"
        },
        {
          "indexed": true,
          "internalType": "address",
          "name": "to",
          "type": "address"
        },
        {
          "indexed": false,
          "internalType": "uint256",
          "name": "id",
          "type": "uint256"
        },
        {
          "indexed": false,
          "internalType": "uint256",
          "name": "value",
          "type": "uint256"
        }
      ],
      "name": "TransferSingle",
      "type": "event"
    },
    {
      "anonymous": false,
      "inputs": [
        {
          "indexed": false,
          "internalType": "string",
          "name": "value",
          "type": "string"
        },
        {
          "indexed": true,
          "internalType": "uint256",
          "name": "id",
          "type": "uint256"
        }
      ],
      "name": "URI",
      "type": "event"
    },
    {
      "anonymous": false,
      "inputs": [
        {
          "indexed": false,
          "internalType": "address",
          "name": "account",
          "type": "address"
        }
      ],
      "name": "Unpaused",
      "type": "event"
    },
    {
      "inputs": [],
      "name": "HI",
      "outputs": [
        {
          "internalType": "uint256",
          "name": "",
          "type": "uint256"
        }
      ],
      "stateMutability": "view",
      "type": "function"
    },
    {
      "inputs": [],
      "name": "LO",
      "outputs": [
        {
          "internalType": "uint256",
          "name": "",
          "type": "uint256"
        }
      ],
      "stateMutability": "view",
      "type": "function"
    },
    {
      "inputs": [
        {
          "internalType": "uint256",
          "name": "tokenId",
          "type": "uint256"
        }
      ],
      "name": "addToQueue",
      "outputs": [
        {
          "internalType": "uint256",
          "name": "",
          "type": "uint256"
        }
      ],
      "stateMutability": "nonpayable",
      "type": "function"
    },
    {
      "inputs": [
        {
          "internalType": "address",
          "name": "account",
          "type": "address"
        },
        {
          "internalType": "uint256",
          "name": "id",
          "type": "uint256"
        }
      ],
      "name": "balanceOf",
      "outputs": [
        {
          "internalType": "uint256",
          "name": "",
          "type": "uint256"
        }
      ],
      "stateMutability": "view",
      "type": "function"
    },
    {
      "inputs": [
        {
          "internalType": "address[]",
          "name": "accounts",
          "type": "address[]"
        },
        {
          "internalType": "uint256[]",
          "name": "ids",
          "type": "uint256[]"
        }
      ],
      "name": "balanceOfBatch",
      "outputs": [
        {
          "internalType": "uint256[]",
          "name": "",
          "type": "uint256[]"
        }
      ],
      "stateMutability": "view",
      "type": "function"
    },
    {
      "inputs": [
        {
          "internalType": "uint256",
          "name": "tokenId",
          "type": "uint256"
        }
      ],
      "name": "buy",
      "outputs": [],
      "stateMutability": "nonpayable",
      "type": "function"
    },
    {
      "inputs": [
        {
          "internalType": "uint256",
          "name": "id",
          "type": "uint256"
        }
      ],
      "name": "exists",
      "outputs": [
        {
          "internalType": "bool",
          "name": "",
          "type": "bool"
        }
      ],
      "stateMutability": "view",
      "type": "function"
    },
    {
      "inputs": [],
      "name": "gameWon",
      "outputs": [
        {
          "internalType": "bool",
          "name": "",
          "type": "bool"
        }
      ],
      "stateMutability": "view",
      "type": "function"
    },
    {
      "inputs": [
        {
          "internalType": "uint256",
          "name": "tokenId",
          "type": "uint256"
        }
      ],
      "name": "getPrice",
      "outputs": [
        {
          "internalType": "uint256",
          "name": "",
          "type": "uint256"
        }
      ],
      "stateMutability": "view",
      "type": "function"
    },
    {
      "inputs": [],
      "name": "getWinners",
      "outputs": [
        {
          "internalType": "address[]",
          "name": "",
          "type": "address[]"
        }
      ],
      "stateMutability": "view",
      "type": "function"
    },
    {
      "inputs": [
        {
          "internalType": "address",
          "name": "account",
          "type": "address"
        },
        {
          "internalType": "address",
          "name": "operator",
          "type": "address"
        }
      ],
      "name": "isApprovedForAll",
      "outputs": [
        {
          "internalType": "bool",
          "name": "",
          "type": "bool"
        }
      ],
      "stateMutability": "view",
      "type": "function"
    },
    {
      "inputs": [],
      "name": "jackpot",
      "outputs": [
        {
          "internalType": "uint256",
          "name": "",
          "type": "uint256"
        }
      ],
      "stateMutability": "view",
      "type": "function"
    },
    {
      "inputs": [],
      "name": "owner",
      "outputs": [
        {
          "internalType": "address",
          "name": "",
          "type": "address"
        }
      ],
      "stateMutability": "view",
      "type": "function"
    },
    {
      "inputs": [],
      "name": "paused",
      "outputs": [
        {
          "internalType": "bool",
          "name": "",
          "type": "bool"
        }
      ],
      "stateMutability": "view",
      "type": "function"
    },
    {
      "inputs": [],
      "name": "payout",
      "outputs": [],
      "stateMutability": "nonpayable",
      "type": "function"
    },
    {
      "inputs": [],
      "name": "renounceOwnership",
      "outputs": [],
      "stateMutability": "nonpayable",
      "type": "function"
    },
    {
      "inputs": [
        {
          "internalType": "address",
          "name": "from",
          "type": "address"
        },
        {
          "internalType": "address",
          "name": "to",
          "type": "address"
        },
        {
          "internalType": "uint256[]",
          "name": "ids",
          "type": "uint256[]"
        },
        {
          "internalType": "uint256[]",
          "name": "amounts",
          "type": "uint256[]"
        },
        {
          "internalType": "bytes",
          "name": "data",
          "type": "bytes"
        }
      ],
      "name": "safeBatchTransferFrom",
      "outputs": [],
      "stateMutability": "nonpayable",
      "type": "function"
    },
    {
      "inputs": [
        {
          "internalType": "address",
          "name": "from",
          "type": "address"
        },
        {
          "internalType": "address",
          "name": "to",
          "type": "address"
        },
        {
          "internalType": "uint256",
          "name": "id",
          "type": "uint256"
        },
        {
          "internalType": "uint256",
          "name": "amount",
          "type": "uint256"
        },
        {
          "internalType": "bytes",
          "name": "data",
          "type": "bytes"
        }
      ],
      "name": "safeTransferFrom",
      "outputs": [],
      "stateMutability": "nonpayable",
      "type": "function"
    },
    {
      "inputs": [
        {
          "internalType": "uint256",
          "name": "tokenId",
          "type": "uint256"
        }
      ],
      "name": "sell",
      "outputs": [],
      "stateMutability": "nonpayable",
      "type": "function"
    },
    {
      "inputs": [
        {
          "internalType": "address",
          "name": "operator",
          "type": "address"
        },
        {
          "internalType": "bool",
          "name": "approved",
          "type": "bool"
        }
      ],
      "name": "setApprovalForAll",
      "outputs": [],
      "stateMutability": "nonpayable",
      "type": "function"
    },
    {
      "inputs": [
        {
          "internalType": "bytes4",
          "name": "interfaceId",
          "type": "bytes4"
        }
      ],
      "name": "supportsInterface",
      "outputs": [
        {
          "internalType": "bool",
          "name": "",
          "type": "bool"
        }
      ],
      "stateMutability": "view",
      "type": "function"
    },
    {
      "inputs": [
        {
          "internalType": "uint256",
          "name": "id",
          "type": "uint256"
        }
      ],
      "name": "totalSupply",
      "outputs": [
        {
          "internalType": "uint256",
          "name": "",
          "type": "uint256"
        }
      ],
      "stateMutability": "view",
      "type": "function"
    },
    {
      "inputs": [
        {
          "internalType": "address",
          "name": "newOwner",
          "type": "address"
        }
      ],
      "name": "transferOwnership",
      "outputs": [],
      "stateMutability": "nonpayable",
      "type": "function"
    },
    {
      "inputs": [
        {
          "internalType": "uint256",
          "name": "",
          "type": "uint256"
        }
      ],
      "name": "uri",
      "outputs": [
        {
          "internalType": "string",
          "name": "",
          "type": "string"
        }
      ],
      "stateMutability": "view",
      "type": "function"
    },
    {
      "inputs": [],
      "name": "usdc",
      "outputs": [
        {
          "internalType": "contract IERC20",
          "name": "",
          "type": "address"
        }
      ],
      "stateMutability": "view",
      "type": "function"
    },
    {
      "inputs": [
        {
          "internalType": "uint256",
          "name": "",
          "type": "uint256"
        }
      ],
      "name": "winners",
      "outputs": [
        {
          "internalType": "address",
          "name": "",
          "type": "address"
        }
      ],
      "stateMutability": "view",
      "type": "function"
    }
  ],
  "bytecode": "0x60806040526000600f556011805460ff19169055601480546001600160a01b03191673e11a86849d99f524cac3e7a0ec1241828e332c621790553480156200004657600080fd5b5060405162003437380380620034378339810160408190526200006991620003a3565b6040518060600160405280602d81526020016200340a602d91396200008e8162000292565b506200009a33620002ab565b6004805460ff60a01b191690556001600555600884905560068490556009839055600783905560006002620000d08587620003d9565b600754600654620000e2919062000437565b620000ef906001620003d9565b620000fb919062000415565b620001079190620003f4565b90508162000117600283620003f4565b10156200016a5760405162461bcd60e51b815260206004820152601e60248201527f4a61636b706f7420746f6f206c6172676520666f72207468652067616d650000604482015260640160405180910390fd5b60138290556008546200018d57634e487b7160e01b600052600160045260246000fd5b600060095411620001ae57634e487b7160e01b600052600160045260246000fd5b60095460085411620001d057634e487b7160e01b600052600160045260246000fd5b600a839055600c60205260007f13649b2456f1b42fef0f0040b3aaeabcd21a76a0f3f5defd4f583839455116e8819055600181527fd421a5181c571bba3f01190c922c3b2a896fc1d84e86c9f17ac10e67ebef8b5c556200023383600262000415565b600b555050600d602052505060007f81955a0a11e65eac625c29e8882660bae4e165a75d72780094acae8ece9a29ee819055600181527ffd54ff1ed53f34a900b24c5ba64f85761163b5d82d98a47b9bd80e45466993c55550620004a4565b8051620002a7906002906020840190620002fd565b5050565b600480546001600160a01b038381166001600160a01b0319831681179093556040519116919082907f8be0079c531659141344cd1fd0a4f28419497f9722a3daafe3b4186f6b6457e090600090a35050565b8280546200030b9062000451565b90600052602060002090601f0160209004810192826200032f57600085556200037a565b82601f106200034a57805160ff19168380011785556200037a565b828001600101855582156200037a579182015b828111156200037a5782518255916020019190600101906200035d565b50620003889291506200038c565b5090565b5b808211156200038857600081556001016200038d565b60008060008060808587031215620003b9578384fd5b505082516020840151604085015160609095015191969095509092509050565b60008219821115620003ef57620003ef6200048e565b500190565b6000826200041057634e487b7160e01b81526012600452602481fd5b500490565b60008160001904831182151516156200043257620004326200048e565b500290565b6000828210156200044c576200044c6200048e565b500390565b600181811c908216806200046657607f821691505b602082108114156200048857634e487b7160e01b600052602260045260246000fd5b50919050565b634e487b7160e01b600052601160045260246000fd5b612f5680620004b46000396000f3fe608060405234801561001057600080fd5b506004361061018d5760003560e01c80638da5cb5b116100de578063e4849b3211610097578063f242432a11610071578063f242432a1461039e578063f2e8dfdb146103b1578063f2fde38b146103b9578063f5cf330b146103cc57600080fd5b8063e4849b321461033c578063e75722301461034f578063e985e9c51461036257600080fd5b80638da5cb5b146102bd578063a22cb465146102ce578063a2fb1175146102e1578063bd85b039146102f4578063d96a094a14610314578063df15c37e1461032757600080fd5b80634e1273f41161014b57806363bd1d4a1161012557806363bd1d4a1461029c57806368d2be8f146102a45780636b31ee01146102ac578063715018a6146102b557600080fd5b80634e1273f4146102485780634f558e79146102685780635c975abb1461028a57600080fd5b8062fdd58e1461019257806301ffc9a7146101b8578063069a825c146101db5780630e89341c146101e85780632eb2c2d6146102085780633e413bee1461021d575b600080fd5b6101a56101a036600461284c565b6103df565b6040519081526020015b60405180910390f35b6101cb6101c636600461295c565b610476565b60405190151581526020016101af565b6011546101cb9060ff1681565b6101fb6101f6366004612994565b6104c8565b6040516101af9190612bd0565b61021b61021636600461270d565b61055c565b005b601454610230906001600160a01b031681565b6040516001600160a01b0390911681526020016101af565b61025b610256366004612875565b6105f3565b6040516101af9190612b8f565b6101cb610276366004612994565b600090815260036020526040902054151590565b600454600160a01b900460ff166101cb565b61021b610755565b6101a5600181565b6101a560135481565b61021b610a76565b6004546001600160a01b0316610230565b61021b6102dc366004612816565b610aac565b6102306102ef366004612994565b610abb565b6101a5610302366004612994565b60009081526003602052604090205490565b61021b610322366004612994565b610ae5565b61032f610e58565b6040516101af9190612aec565b61021b61034a366004612994565b610eba565b6101a561035d366004612994565b610f26565b6101cb6103703660046126db565b6001600160a01b03918216600090815260016020908152604080832093909416825291909152205460ff1690565b61021b6103ac3660046127b3565b610f53565b6101a5600081565b61021b6103c73660046126c1565b610fda565b6101a56103da366004612994565b611075565b60006001600160a01b0383166104505760405162461bcd60e51b815260206004820152602b60248201527f455243313135353a2062616c616e636520717565727920666f7220746865207a60448201526a65726f206164647265737360a81b60648201526084015b60405180910390fd5b506000908152602081815260408083206001600160a01b03949094168352929052205490565b60006001600160e01b03198216636cdb3d1360e11b14806104a757506001600160e01b031982166303a24d0760e21b145b806104c257506301ffc9a760e01b6001600160e01b03198316145b92915050565b6060600280546104d790612dab565b80601f016020809104026020016040519081016040528092919081815260200182805461050390612dab565b80156105505780601f1061052557610100808354040283529160200191610550565b820191906000526020600020905b81548152906001019060200180831161053357829003601f168201915b50505050509050919050565b6001600160a01b03851633148061057857506105788533610370565b6105df5760405162461bcd60e51b815260206004820152603260248201527f455243313135353a207472616e736665722063616c6c6572206973206e6f74206044820152711bdddb995c881b9bdc88185c1c1c9bdd995960721b6064820152608401610447565b6105ec858585858561119c565b5050505050565b606081518351146106585760405162461bcd60e51b815260206004820152602960248201527f455243313135353a206163636f756e747320616e6420696473206c656e677468604482015268040dad2e6dac2e8c6d60bb1b6064820152608401610447565b6000835167ffffffffffffffff81111561068257634e487b7160e01b600052604160045260246000fd5b6040519080825280602002602001820160405280156106ab578160200160208202803683370190505b50905060005b845181101561074d576107128582815181106106dd57634e487b7160e01b600052603260045260246000fd5b602002602001015185838151811061070557634e487b7160e01b600052603260045260246000fd5b60200260200101516103df565b82828151811061073257634e487b7160e01b600052603260045260246000fd5b602090810291909101015261074681612e13565b90506106b1565b509392505050565b6004546001600160a01b0316331461077f5760405162461bcd60e51b815260040161044790612ce4565b600454600160a01b900460ff166107cf5760405162461bcd60e51b815260206004820152601460248201527314185d5cd8589b194e881b9bdd081c185d5cd95960621b6044820152606401610447565b6012546013546000906107ea90670de0b6b3a7640000612d75565b905060005b8281101561094d5760006108038484612d55565b601454601280549293506001600160a01b039091169163a9059cbb91908590811061083e57634e487b7160e01b600052603260045260246000fd5b60009182526020909120015460405160e083901b6001600160e01b03191681526001600160a01b03909116600482015260248101849052604401602060405180830381600087803b15801561089257600080fd5b505af11580156108a6573d6000803e3d6000fd5b505050506040513d601f19601f820116820180604052508101906108ca9190612940565b507f88c519ab1745d32c7a1e2c97aa7817ca6e8046aaa146002b9ec1c8516ed678546012838154811061090d57634e487b7160e01b600052603260045260246000fd5b60009182526020918290200154604080516001600160a01b0390921682529181018490520160405180910390a1508061094581612e13565b9150506107ef565b506014546040516370a0823160e01b81523060048201526000916001600160a01b0316906370a082319060240160206040518083038186803b15801561099257600080fd5b505afa1580156109a6573d6000803e3d6000fd5b505050506040513d601f19601f820116820180604052508101906109ca91906129ac565b6014549091506001600160a01b031663a9059cbb6109f06004546001600160a01b031690565b6040516001600160e01b031960e084901b1681526001600160a01b03909116600482015260248101849052604401602060405180830381600087803b158015610a3857600080fd5b505af1158015610a4c573d6000803e3d6000fd5b505050506040513d601f19601f82011682018060405250810190610a709190612940565b50505050565b6004546001600160a01b03163314610aa05760405162461bcd60e51b815260040161044790612ce4565b610aaa60006113a3565b565b610ab73383836113f5565b5050565b60128181548110610acb57600080fd5b6000918252602090912001546001600160a01b0316905081565b600454600160a01b900460ff1615610b0f5760405162461bcd60e51b815260040161044790612c2b565b801580610b1c5750600181145b610b595760405162461bcd60e51b815260206004820152600e60248201526d24b73b30b634b2103a37b5b2b71760911b6044820152606401610447565b610b643360006103df565b158015610b795750610b773360016103df565b155b610bd35760405162461bcd60e51b815260206004820152602560248201527f48494c4f3a2063616e6e6f742068617665206d6f7265207468616e206f6e65206044820152643a37b5b2b760d91b6064820152608401610447565b6000610bde82610f26565b905060008111610bfe57634e487b7160e01b600052600160045260246000fd5b600060075482148015610c115750600183145b80610c26575060065482148015610c26575082155b600b546000858152600d602052604090205460095460085493945091149114801590610c5657508180610c565750805b15610c9e57610c64846114d6565b60408051338152602081018690527f0d86730737b142fc160892fa8a0f2db687a92a0e294d1ad70624cf5acef03b84910160405180910390a15b610cb083670de0b6b3a7640000612d75565b6014546040516370a0823160e01b81523360048201529194506000916001600160a01b03909116906370a082319060240160206040518083038186803b158015610cf957600080fd5b505afa158015610d0d573d6000803e3d6000fd5b505050506040513d601f19601f82011682018060405250810190610d3191906129ac565b905083811015610d835760405162461bcd60e51b815260206004820152601a60248201527f496e73756666696369656e7420555344432062616c616e63652e0000000000006044820152606401610447565b6014546040516323b872dd60e01b8152336004820152306024820152604481018690526001600160a01b03909116906323b872dd90606401602060405180830381600087803b158015610dd557600080fd5b505af1158015610de9573d6000803e3d6000fd5b505050506040513d601f19601f82011682018060405250810190610e0d9190612940565b50610e2a338660016040518060200160405280600081525061150e565b81610e3857610e3885611631565b600a546000868152600c602052604090205414156105ec576105ec6116b7565b60606012805480602002602001604051908101604052809291908181526020018280548015610eb057602002820191906000526020600020905b81546001600160a01b03168152600190910190602001808311610e92575b5050505050905090565b60026005541415610f0d5760405162461bcd60e51b815260206004820152601f60248201527f5265656e7472616e637947756172643a207265656e7472616e742063616c6c006044820152606401610447565b600260055533610f1d818361177b565b50506001600555565b600081610f3557505060085490565b6001821415610f4657505060095490565b506000919050565b919050565b6001600160a01b038516331480610f6f5750610f6f8533610370565b610fcd5760405162461bcd60e51b815260206004820152602960248201527f455243313135353a2063616c6c6572206973206e6f74206f776e6572206e6f7260448201526808185c1c1c9bdd995960ba1b6064820152608401610447565b6105ec8585858585611aa4565b6004546001600160a01b031633146110045760405162461bcd60e51b815260040161044790612ce4565b6001600160a01b0381166110695760405162461bcd60e51b815260206004820152602660248201527f4f776e61626c653a206e6577206f776e657220697320746865207a65726f206160448201526564647265737360d01b6064820152608401610447565b611072816113a3565b50565b600f546000905b600e548110156110f757336001600160a01b0316600e82815481106110b157634e487b7160e01b600052603260045260246000fd5b60009182526020909120600290910201546001600160a01b031614156110e557600f546110de9082612d94565b9392505050565b806110ef81612e13565b91505061107c565b506040805180820190915233815260208101838152600e8054600181018255600082905283517fbb7b4a454dc3493923482f07822329ed19e8244eff582cc204f8554c3620c3fd600290920291820180546001600160a01b0319166001600160a01b0390921691909117905591517fbb7b4a454dc3493923482f07822329ed19e8244eff582cc204f8554c3620c3fe90920191909155600f5490546110de9190612d94565b81518351146111fe5760405162461bcd60e51b815260206004820152602860248201527f455243313135353a2069647320616e6420616d6f756e7473206c656e677468206044820152670dad2e6dac2e8c6d60c31b6064820152608401610447565b6001600160a01b0384166112245760405162461bcd60e51b815260040161044790612c55565b33611233818787878787611bdc565b60005b845181101561133557600085828151811061126157634e487b7160e01b600052603260045260246000fd5b60200260200101519050600085838151811061128d57634e487b7160e01b600052603260045260246000fd5b602090810291909101810151600084815280835260408082206001600160a01b038e1683529093529190912054909150818110156112dd5760405162461bcd60e51b815260040161044790612c9a565b6000838152602081815260408083206001600160a01b038e8116855292528083208585039055908b1682528120805484929061131a908490612d3d565b925050819055505050508061132e90612e13565b9050611236565b50846001600160a01b0316866001600160a01b0316826001600160a01b03167f4a39dc06d4c0dbc64b70af90fd698a233a518aa5d07e595d983b8c0526c8f7fb8787604051611385929190612ba2565b60405180910390a461139b818787878787611ca3565b505050505050565b600480546001600160a01b038381166001600160a01b0319831681179093556040519116919082907f8be0079c531659141344cd1fd0a4f28419497f9722a3daafe3b4186f6b6457e090600090a35050565b816001600160a01b0316836001600160a01b031614156114695760405162461bcd60e51b815260206004820152602960248201527f455243313135353a2073657474696e6720617070726f76616c20737461747573604482015268103337b91039b2b63360b91b6064820152608401610447565b6001600160a01b03838116600081815260016020908152604080832094871680845294825291829020805460ff191686151590811790915591519182527f17307eab39ab6107e8899845ad3d59bd9653f200f220920489ca2b5937696c31910160405180910390a3505050565b806114e8576114e3611e0e565b6114f0565b6114f0611e5d565b6000908152600c60209081526040808320839055600d909152812055565b6001600160a01b03841661156e5760405162461bcd60e51b815260206004820152602160248201527f455243313135353a206d696e7420746f20746865207a65726f206164647265736044820152607360f81b6064820152608401610447565b33600061157a85611ec2565b9050600061158785611ec2565b905061159883600089858589611bdc565b6000868152602081815260408083206001600160a01b038b168452909152812080548792906115c8908490612d3d565b909155505060408051878152602081018790526001600160a01b03808a1692600092918716917fc3d58168c5ae7397731d063d5bbf3d657854427343f4c083240f7aacaa2d0f62910160405180910390a461162883600089898989611f1b565b50505050505050565b600a546000828152600c60205260409020541015611673576000818152600c6020526040902054611663906001612d3d565b6000828152600c60205260409020555b600b546000828152600d60205260409020541015611072576000818152600d60205260409020546116a5906001612d3d565b6000828152600d602052604090205550565b600454600160a01b900460ff16156116e15760405162461bcd60e51b815260040161044790612c2b565b600e546116ea57565b600f8054600091600e9190836116ff83612e13565b919050558154811061172157634e487b7160e01b600052603260045260246000fd5b600091825260208083206040805180820190915260029093020180546001600160a01b031680845260019091015491830182905291935061176291906103df565b90508061176d575050565b610ab7826000015183602001515b600454600160a01b900460ff16156117a55760405162461bcd60e51b815260040161044790612c2b565b8015806117b25750600181145b6117ef5760405162461bcd60e51b815260206004820152600e60248201526d24b73b30b634b2103a37b5b2b71760911b6044820152606401610447565b80158015611807575060006118058360006103df565b115b806118275750600181148015611827575060006118258360016103df565b115b6118855760405162461bcd60e51b815260206004820152602960248201527f48494c4f3a2063616e6e6f742073656c6c207768656e20796f752068617665206044820152686e6f20746f6b656e7360b81b6064820152608401610447565b600a546000828152600c602052604090205414806118f75760405162461bcd60e51b815260206004820152602960248201527f48494c4f3a2063616e6e6f742073656c6c207768656e207468652073616c65206044820152681a5cc81b1bd8dad95960ba1b6064820152608401610447565b6119018383611fe5565b60095460085414156119235761191e61191983610f26565b6120aa565b505050565b600061192e83610f26565b905061194281670de0b6b3a7640000612d75565b60145460405163a9059cbb60e01b81526001600160a01b0387811660048301526024820184905292935091169063a9059cbb90604401602060405180830381600087803b15801561199257600080fd5b505af11580156119a6573d6000803e3d6000fd5b505050506040513d601f19601f820116820180604052508101906119ca9190612940565b506119d784846001612209565b6119e0836114d6565b604080516001600160a01b0386168152602081018590527f0d86730737b142fc160892fa8a0f2db687a92a0e294d1ad70624cf5acef03b84910160405180910390a182158015611a385750611a368460016103df565b155b15610a7057611a59846001806040518060200160405280600081525061150e565b6001600a54611a689190612d94565b6001600052600c6020527fd421a5181c571bba3f01190c922c3b2a896fc1d84e86c9f17ac10e67ebef8b5c541015610a7057610a706001611631565b6001600160a01b038416611aca5760405162461bcd60e51b815260040161044790612c55565b336000611ad685611ec2565b90506000611ae385611ec2565b9050611af3838989858589611bdc565b6000868152602081815260408083206001600160a01b038c16845290915290205485811015611b345760405162461bcd60e51b815260040161044790612c9a565b6000878152602081815260408083206001600160a01b038d8116855292528083208985039055908a16825281208054889290611b71908490612d3d565b909155505060408051888152602081018890526001600160a01b03808b16928c821692918816917fc3d58168c5ae7397731d063d5bbf3d657854427343f4c083240f7aacaa2d0f62910160405180910390a4611bd1848a8a8a8a8a611f1b565b505050505050505050565b600454600160a01b900460ff1615611c065760405162461bcd60e51b815260040161044790612c2b565b6001600160a01b0385161580611c2357506001600160a01b038416155b80611c3657506001600160a01b03851630145b80611c4957506001600160a01b03841630145b611c955760405162461bcd60e51b815260206004820152601760248201527f48494c4f3a206e6f6e207472616e736665727261626c650000000000000000006044820152606401610447565b61139b868686868686612399565b6001600160a01b0384163b1561139b5760405163bc197c8160e01b81526001600160a01b0385169063bc197c8190611ce79089908990889088908890600401612a49565b602060405180830381600087803b158015611d0157600080fd5b505af1925050508015611d31575060408051601f3d908101601f19168201909252611d2e91810190612978565b60015b611dde57611d3d612e5a565b806308c379a01415611d775750611d52612e72565b80611d5d5750611d79565b8060405162461bcd60e51b81526004016104479190612bd0565b505b60405162461bcd60e51b815260206004820152603460248201527f455243313135353a207472616e7366657220746f206e6f6e20455243313135356044820152732932b1b2b4bb32b91034b6b83632b6b2b73a32b960611b6064820152608401610447565b6001600160e01b0319811663bc197c8160e01b146116285760405162461bcd60e51b815260040161044790612be3565b6001600854611e1d9190612d94565b6008557f5a258dc6fce0816c9caf9835f08fa5596416dd55037714d2e51688cea5f062c5600854604051611e5391815260200190565b60405180910390a1565b600954611e6b906001612d3d565b60098190556008541015611e8f57634e487b7160e01b600052600160045260246000fd5b7f3f9b5fbd1bfff0a78edef53fb452db3ea00eb6ea96cb06defcc66dd171bbca21600954604051611e5391815260200190565b60408051600180825281830190925260609160009190602080830190803683370190505090508281600081518110611f0a57634e487b7160e01b600052603260045260246000fd5b602090810291909101015292915050565b6001600160a01b0384163b1561139b5760405163f23a6e6160e01b81526001600160a01b0385169063f23a6e6190611f5f9089908990889088908890600401612aa7565b602060405180830381600087803b158015611f7957600080fd5b505af1925050508015611fa9575060408051601f3d908101601f19168201909252611fa691810190612978565b60015b611fb557611d3d612e5a565b6001600160e01b0319811663f23a6e6160e01b146116285760405162461bcd60e51b815260040161044790612be3565b6000611ff082610f26565b60408051606080820183526001600160a01b03878116808452602080850189815285870188815260008981526010845288812080546001808201835591835291859020895160039093020180546001600160a01b03191692909716919091178655915191850191909155516002909301929092558451908152908101879052928301849052929350917fc19f70d47acbbf1d2faf3a7944182cf6b5345c67d2156ed328ea510e72f13066910160405180910390a150505050565b6000601060006008548152602001908152602001600020805480602002602001604051908101604052809291908181526020016000905b82821015612136576000848152602090819020604080516060810182526003860290920180546001600160a01b03168352600180820154848601526002909101549183019190915290835290920191016120e1565b50505050905060005b81518110156121b857601282828151811061216a57634e487b7160e01b600052603260045260246000fd5b6020908102919091018101515182546001810184556000938452919092200180546001600160a01b0319166001600160a01b03909216919091179055806121b081612e13565b91505061213f565b506011805460ff191660011790556040517f10dee8c2942b449b177825c6d5eb7131392949ec2008676761b93b00acea615a906121f9906012908590612b39565b60405180910390a1610ab761254a565b6001600160a01b03831661226b5760405162461bcd60e51b815260206004820152602360248201527f455243313135353a206275726e2066726f6d20746865207a65726f206164647260448201526265737360e81b6064820152608401610447565b33600061227784611ec2565b9050600061228484611ec2565b90506122a483876000858560405180602001604052806000815250611bdc565b6000858152602081815260408083206001600160a01b038a168452909152902054848110156123215760405162461bcd60e51b8152602060048201526024808201527f455243313135353a206275726e20616d6f756e7420657863656564732062616c604482015263616e636560e01b6064820152608401610447565b6000868152602081815260408083206001600160a01b038b81168086529184528285208a8703905582518b81529384018a90529092908816917fc3d58168c5ae7397731d063d5bbf3d657854427343f4c083240f7aacaa2d0f62910160405180910390a4604080516020810190915260009052611628565b6001600160a01b03851661243c5760005b835181101561243a578281815181106123d357634e487b7160e01b600052603260045260246000fd5b6020026020010151600360008684815181106123ff57634e487b7160e01b600052603260045260246000fd5b6020026020010151815260200190815260200160002060008282546124249190612d3d565b90915550612433905081612e13565b90506123aa565b505b6001600160a01b03841661139b5760005b835181101561162857600084828151811061247857634e487b7160e01b600052603260045260246000fd5b6020026020010151905060008483815181106124a457634e487b7160e01b600052603260045260246000fd5b60200260200101519050600060036000848152602001908152602001600020549050818110156125275760405162461bcd60e51b815260206004820152602860248201527f455243313135353a206275726e20616d6f756e74206578636565647320746f74604482015267616c537570706c7960c01b6064820152608401610447565b6000928352600360205260409092209103905561254381612e13565b905061244d565b600454600160a01b900460ff16156125745760405162461bcd60e51b815260040161044790612c2b565b6004805460ff60a01b1916600160a01b1790557f62e78cea01bee320cd4e420270b5ea74000d11b0c9f74754ebdbfc544b05a2586125af3390565b6040516001600160a01b039091168152602001611e53565b80356001600160a01b0381168114610f4e57600080fd5b600082601f8301126125ee578081fd5b813560206125fb82612d19565b6040516126088282612de6565b8381528281019150858301600585901b87018401881015612627578586fd5b855b8581101561264557813584529284019290840190600101612629565b5090979650505050505050565b600082601f830112612662578081fd5b813567ffffffffffffffff81111561267c5761267c612e44565b604051612693601f8301601f191660200182612de6565b8181528460208386010111156126a7578283fd5b816020850160208301379081016020019190915292915050565b6000602082840312156126d2578081fd5b6110de826125c7565b600080604083850312156126ed578081fd5b6126f6836125c7565b9150612704602084016125c7565b90509250929050565b600080600080600060a08688031215612724578081fd5b61272d866125c7565b945061273b602087016125c7565b9350604086013567ffffffffffffffff80821115612757578283fd5b61276389838a016125de565b94506060880135915080821115612778578283fd5b61278489838a016125de565b93506080880135915080821115612799578283fd5b506127a688828901612652565b9150509295509295909350565b600080600080600060a086880312156127ca578081fd5b6127d3866125c7565b94506127e1602087016125c7565b93506040860135925060608601359150608086013567ffffffffffffffff81111561280a578182fd5b6127a688828901612652565b60008060408385031215612828578182fd5b612831836125c7565b9150602083013561284181612efc565b809150509250929050565b6000806040838503121561285e578182fd5b612867836125c7565b946020939093013593505050565b60008060408385031215612887578182fd5b823567ffffffffffffffff8082111561289e578384fd5b818501915085601f8301126128b1578384fd5b813560206128be82612d19565b6040516128cb8282612de6565b8381528281019150858301600585901b870184018b10156128ea578889fd5b8896505b84871015612913576128ff816125c7565b8352600196909601959183019183016128ee565b5096505086013592505080821115612929578283fd5b50612936858286016125de565b9150509250929050565b600060208284031215612951578081fd5b81516110de81612efc565b60006020828403121561296d578081fd5b81356110de81612f0a565b600060208284031215612989578081fd5b81516110de81612f0a565b6000602082840312156129a5578081fd5b5035919050565b6000602082840312156129bd578081fd5b5051919050565b6000815180845260208085019450808401835b838110156129f3578151875295820195908201906001016129d7565b509495945050505050565b60008151808452815b81811015612a2357602081850181015186830182015201612a07565b81811115612a345782602083870101525b50601f01601f19169290920160200192915050565b6001600160a01b0386811682528516602082015260a060408201819052600090612a75908301866129c4565b8281036060840152612a8781866129c4565b90508281036080840152612a9b81856129fe565b98975050505050505050565b6001600160a01b03868116825285166020820152604081018490526060810183905260a060808201819052600090612ae1908301846129fe565b979650505050505050565b6020808252825182820181905260009190848201906040850190845b81811015612b2d5783516001600160a01b031683529284019291840191600101612b08565b50909695505050505050565b6000604082016040835280855480835260608501915086845260209250828420845b82811015612b805781546001600160a01b031684529284019260019182019101612b5b565b50505092019290925292915050565b6020815260006110de60208301846129c4565b604081526000612bb560408301856129c4565b8281036020840152612bc781856129c4565b95945050505050565b6020815260006110de60208301846129fe565b60208082526028908201527f455243313135353a204552433131353552656365697665722072656a656374656040820152676420746f6b656e7360c01b606082015260800190565b60208082526010908201526f14185d5cd8589b194e881c185d5cd95960821b604082015260600190565b60208082526025908201527f455243313135353a207472616e7366657220746f20746865207a65726f206164604082015264647265737360d81b606082015260800190565b6020808252602a908201527f455243313135353a20696e73756666696369656e742062616c616e636520666f60408201526939103a3930b739b332b960b11b606082015260800190565b6020808252818101527f4f776e61626c653a2063616c6c6572206973206e6f7420746865206f776e6572604082015260600190565b600067ffffffffffffffff821115612d3357612d33612e44565b5060051b60200190565b60008219821115612d5057612d50612e2e565b500190565b600082612d7057634e487b7160e01b81526012600452602481fd5b500490565b6000816000190483118215151615612d8f57612d8f612e2e565b500290565b600082821015612da657612da6612e2e565b500390565b600181811c90821680612dbf57607f821691505b60208210811415612de057634e487b7160e01b600052602260045260246000fd5b50919050565b601f8201601f1916810167ffffffffffffffff81118282101715612e0c57612e0c612e44565b6040525050565b6000600019821415612e2757612e27612e2e565b5060010190565b634e487b7160e01b600052601160045260246000fd5b634e487b7160e01b600052604160045260246000fd5b600060033d1115612e6f57600481823e5160e01c5b90565b600060443d1015612e805790565b6040516003193d81016004833e81513d67ffffffffffffffff8160248401118184111715612eb057505050505090565b8285019150815181811115612ec85750505050505090565b843d8701016020828501011115612ee25750505050505090565b612ef160208286010187612de6565b509095945050505050565b801515811461107257600080fd5b6001600160e01b03198116811461107257600080fdfea2646970667358221220c358568bca9b1685098d8a5f6621ef7728d533feb95c0f3ed19b02b6f278d03e64736f6c6343000804003368747470733a2f2f68696c6f2d65696768742e76657263656c2e6170702f6170692f746f6b656e732f7b69647d",
  "linkReferences": {},
  "deployedLinkReferences": {}
}