{
  "_format": "hh-sol-artifact-1",
  "contractName": "HILOToken",
  "sourceName": "contracts/HILOToken.sol",
  "abi": [
    {
      "inputs": [
        {
          "internalType": "uint256",
          "name": "_initialHi",
          "type": "uint256"
        },
        {
          "internalType": "uint256",
          "name": "_initialLo",
          "type": "uint256"
        },
        {
          "internalType": "uint256",
          "name": "_buyRequiredCount",
          "type": "uint256"
        }
      ],
      "stateMutability": "nonpayable",
      "type": "constructor"
    },
    {
      "anonymous": false,
      "inputs": [
        {
          "indexed": true,
          "internalType": "address",
          "name": "account",
          "type": "address"
        },
        {
          "indexed": true,
          "internalType": "address",
          "name": "operator",
          "type": "address"
        },
        {
          "indexed": false,
          "internalType": "bool",
          "name": "approved",
          "type": "bool"
        }
      ],
      "name": "ApprovalForAll",
      "type": "event"
    },
    {
      "anonymous": false,
      "inputs": [
        {
          "indexed": true,
          "internalType": "address",
          "name": "previousOwner",
          "type": "address"
        },
        {
          "indexed": true,
          "internalType": "address",
          "name": "newOwner",
          "type": "address"
        }
      ],
      "name": "OwnershipTransferred",
      "type": "event"
    },
    {
      "anonymous": false,
      "inputs": [
        {
          "indexed": false,
          "internalType": "address",
          "name": "account",
          "type": "address"
        }
      ],
      "name": "Paused",
      "type": "event"
    },
    {
      "anonymous": false,
      "inputs": [
        {
          "indexed": true,
          "internalType": "address",
          "name": "operator",
          "type": "address"
        },
        {
          "indexed": true,
          "internalType": "address",
          "name": "from",
          "type": "address"
        },
        {
          "indexed": true,
          "internalType": "address",
          "name": "to",
          "type": "address"
        },
        {
          "indexed": false,
          "internalType": "uint256[]",
          "name": "ids",
          "type": "uint256[]"
        },
        {
          "indexed": false,
          "internalType": "uint256[]",
          "name": "values",
          "type": "uint256[]"
        }
      ],
      "name": "TransferBatch",
      "type": "event"
    },
    {
      "anonymous": false,
      "inputs": [
        {
          "indexed": true,
          "internalType": "address",
          "name": "operator",
          "type": "address"
        },
        {
          "indexed": true,
          "internalType": "address",
          "name": "from",
          "type": "address"
        },
        {
          "indexed": true,
          "internalType": "address",
          "name": "to",
          "type": "address"
        },
        {
          "indexed": false,
          "internalType": "uint256",
          "name": "id",
          "type": "uint256"
        },
        {
          "indexed": false,
          "internalType": "uint256",
          "name": "value",
          "type": "uint256"
        }
      ],
      "name": "TransferSingle",
      "type": "event"
    },
    {
      "anonymous": false,
      "inputs": [
        {
          "indexed": false,
          "internalType": "string",
          "name": "value",
          "type": "string"
        },
        {
          "indexed": true,
          "internalType": "uint256",
          "name": "id",
          "type": "uint256"
        }
      ],
      "name": "URI",
      "type": "event"
    },
    {
      "anonymous": false,
      "inputs": [
        {
          "indexed": false,
          "internalType": "address",
          "name": "account",
          "type": "address"
        }
      ],
      "name": "Unpaused",
      "type": "event"
    },
    {
      "anonymous": false,
      "inputs": [
        {
          "indexed": false,
          "internalType": "address",
          "name": "player",
          "type": "address"
        },
        {
          "indexed": false,
          "internalType": "uint256",
          "name": "tokenId",
          "type": "uint256"
        },
        {
          "indexed": false,
          "internalType": "uint256",
          "name": "price",
          "type": "uint256"
        }
      ],
      "name": "actionAdded",
      "type": "event"
    },
    {
      "anonymous": false,
      "inputs": [
        {
          "indexed": false,
          "internalType": "address",
          "name": "player",
          "type": "address"
        },
        {
          "indexed": false,
          "internalType": "uint256",
          "name": "tokenId",
          "type": "uint256"
        },
        {
          "indexed": false,
          "internalType": "uint256",
          "name": "price",
          "type": "uint256"
        }
      ],
      "name": "buyPriceCheck",
      "type": "event"
    },
    {
      "anonymous": false,
      "inputs": [
        {
          "indexed": false,
          "internalType": "address",
          "name": "player",
          "type": "address"
        },
        {
          "indexed": false,
          "internalType": "uint256",
          "name": "tokenId",
          "type": "uint256"
        }
      ],
      "name": "buyPriceUpdate",
      "type": "event"
    },
    {
      "anonymous": false,
      "inputs": [
        {
          "indexed": false,
          "internalType": "uint256",
          "name": "newHiPrice",
          "type": "uint256"
        }
      ],
      "name": "hiDecreased",
      "type": "event"
    },
    {
      "anonymous": false,
      "inputs": [
        {
          "indexed": false,
          "internalType": "uint256",
          "name": "newLoPrice",
          "type": "uint256"
        }
      ],
      "name": "loIncreased",
      "type": "event"
    },
    {
      "anonymous": false,
      "inputs": [
        {
          "indexed": false,
          "internalType": "address",
          "name": "player",
          "type": "address"
        },
        {
          "indexed": false,
          "internalType": "uint256",
          "name": "balance",
          "type": "uint256"
        }
      ],
      "name": "playerBalanceCheck",
      "type": "event"
    },
    {
      "anonymous": false,
      "inputs": [
        {
          "indexed": false,
          "internalType": "address",
          "name": "player",
          "type": "address"
        },
        {
          "indexed": false,
          "internalType": "uint256",
          "name": "amount",
          "type": "uint256"
        }
      ],
      "name": "playerPayment",
      "type": "event"
    },
    {
      "anonymous": false,
      "inputs": [
        {
          "indexed": false,
          "internalType": "address[]",
          "name": "winners",
          "type": "address[]"
        },
        {
          "indexed": false,
          "internalType": "uint256",
          "name": "price",
          "type": "uint256"
        }
      ],
      "name": "pricesConverged",
      "type": "event"
    },
    {
      "anonymous": false,
      "inputs": [
        {
          "indexed": false,
          "internalType": "uint256",
          "name": "tokenId",
          "type": "uint256"
        }
      ],
      "name": "saleUnlocked",
      "type": "event"
    },
    {
      "anonymous": false,
      "inputs": [
        {
          "indexed": false,
          "internalType": "uint256",
          "name": "tokenId",
          "type": "uint256"
        },
        {
          "indexed": false,
          "internalType": "bool",
          "name": "shouldUnlock",
          "type": "bool"
        }
      ],
      "name": "shouldUnlockCheck",
      "type": "event"
    },
    {
      "anonymous": false,
      "inputs": [
        {
          "indexed": false,
          "internalType": "address",
          "name": "player",
          "type": "address"
        },
        {
          "indexed": false,
          "internalType": "uint256",
          "name": "tokenId",
          "type": "uint256"
        }
      ],
      "name": "tokenMinted",
      "type": "event"
    },
    {
      "inputs": [],
      "name": "HI",
      "outputs": [
        {
          "internalType": "uint256",
          "name": "",
          "type": "uint256"
        }
      ],
      "stateMutability": "view",
      "type": "function"
    },
    {
      "inputs": [],
      "name": "LO",
      "outputs": [
        {
          "internalType": "uint256",
          "name": "",
          "type": "uint256"
        }
      ],
      "stateMutability": "view",
      "type": "function"
    },
    {
      "inputs": [
        {
          "internalType": "address",
          "name": "account",
          "type": "address"
        },
        {
          "internalType": "uint256",
          "name": "id",
          "type": "uint256"
        }
      ],
      "name": "balanceOf",
      "outputs": [
        {
          "internalType": "uint256",
          "name": "",
          "type": "uint256"
        }
      ],
      "stateMutability": "view",
      "type": "function"
    },
    {
      "inputs": [
        {
          "internalType": "address[]",
          "name": "accounts",
          "type": "address[]"
        },
        {
          "internalType": "uint256[]",
          "name": "ids",
          "type": "uint256[]"
        }
      ],
      "name": "balanceOfBatch",
      "outputs": [
        {
          "internalType": "uint256[]",
          "name": "",
          "type": "uint256[]"
        }
      ],
      "stateMutability": "view",
      "type": "function"
    },
    {
      "inputs": [
        {
          "internalType": "uint256",
          "name": "tokenId",
          "type": "uint256"
        }
      ],
      "name": "buy",
      "outputs": [],
      "stateMutability": "nonpayable",
      "type": "function"
    },
    {
      "inputs": [
        {
          "internalType": "uint256",
          "name": "tokenId",
          "type": "uint256"
        }
      ],
      "name": "getPrice",
      "outputs": [
        {
          "internalType": "uint256",
          "name": "",
          "type": "uint256"
        }
      ],
      "stateMutability": "view",
      "type": "function"
    },
    {
      "inputs": [
        {
          "internalType": "address",
          "name": "account",
          "type": "address"
        },
        {
          "internalType": "address",
          "name": "operator",
          "type": "address"
        }
      ],
      "name": "isApprovedForAll",
      "outputs": [
        {
          "internalType": "bool",
          "name": "",
          "type": "bool"
        }
      ],
      "stateMutability": "view",
      "type": "function"
    },
    {
      "inputs": [],
      "name": "owner",
      "outputs": [
        {
          "internalType": "address",
          "name": "",
          "type": "address"
        }
      ],
      "stateMutability": "view",
      "type": "function"
    },
    {
      "inputs": [],
      "name": "paused",
      "outputs": [
        {
          "internalType": "bool",
          "name": "",
          "type": "bool"
        }
      ],
      "stateMutability": "view",
      "type": "function"
    },
    {
      "inputs": [],
      "name": "renounceOwnership",
      "outputs": [],
      "stateMutability": "nonpayable",
      "type": "function"
    },
    {
      "inputs": [
        {
          "internalType": "address",
          "name": "from",
          "type": "address"
        },
        {
          "internalType": "address",
          "name": "to",
          "type": "address"
        },
        {
          "internalType": "uint256[]",
          "name": "ids",
          "type": "uint256[]"
        },
        {
          "internalType": "uint256[]",
          "name": "amounts",
          "type": "uint256[]"
        },
        {
          "internalType": "bytes",
          "name": "data",
          "type": "bytes"
        }
      ],
      "name": "safeBatchTransferFrom",
      "outputs": [],
      "stateMutability": "nonpayable",
      "type": "function"
    },
    {
      "inputs": [
        {
          "internalType": "address",
          "name": "from",
          "type": "address"
        },
        {
          "internalType": "address",
          "name": "to",
          "type": "address"
        },
        {
          "internalType": "uint256",
          "name": "id",
          "type": "uint256"
        },
        {
          "internalType": "uint256",
          "name": "amount",
          "type": "uint256"
        },
        {
          "internalType": "bytes",
          "name": "data",
          "type": "bytes"
        }
      ],
      "name": "safeTransferFrom",
      "outputs": [],
      "stateMutability": "nonpayable",
      "type": "function"
    },
    {
      "inputs": [
        {
          "internalType": "uint256",
          "name": "tokenId",
          "type": "uint256"
        }
      ],
      "name": "sell",
      "outputs": [],
      "stateMutability": "nonpayable",
      "type": "function"
    },
    {
      "inputs": [
        {
          "internalType": "address",
          "name": "operator",
          "type": "address"
        },
        {
          "internalType": "bool",
          "name": "approved",
          "type": "bool"
        }
      ],
      "name": "setApprovalForAll",
      "outputs": [],
      "stateMutability": "nonpayable",
      "type": "function"
    },
    {
      "inputs": [
        {
          "internalType": "bytes4",
          "name": "interfaceId",
          "type": "bytes4"
        }
      ],
      "name": "supportsInterface",
      "outputs": [
        {
          "internalType": "bool",
          "name": "",
          "type": "bool"
        }
      ],
      "stateMutability": "view",
      "type": "function"
    },
    {
      "inputs": [
        {
          "internalType": "address",
          "name": "newOwner",
          "type": "address"
        }
      ],
      "name": "transferOwnership",
      "outputs": [],
      "stateMutability": "nonpayable",
      "type": "function"
    },
    {
      "inputs": [
        {
          "internalType": "uint256",
          "name": "",
          "type": "uint256"
        }
      ],
      "name": "uri",
      "outputs": [
        {
          "internalType": "string",
          "name": "",
          "type": "string"
        }
      ],
      "stateMutability": "view",
      "type": "function"
    },
    {
      "inputs": [],
      "name": "usdc",
      "outputs": [
        {
          "internalType": "contract IERC20",
          "name": "",
          "type": "address"
        }
      ],
      "stateMutability": "view",
      "type": "function"
    }
  ],
  "bytecode": "0x60806040523480156200001157600080fd5b5060405162002c9638038062002c9683398101604081905262000034916200027e565b6040805160208101909152600081526200004e816200016d565b506200005a3362000186565b6003805460ff60a01b191690556006839055600483905560078290556005829055826200009757634e487b7160e01b600052600160045260246000fd5b600060075411620000b857634e487b7160e01b600052600160045260246000fd5b60075460065411620000da57634e487b7160e01b600052600160045260246000fd5b6009555050600a60205260007f13da86008ba1c6922daee3e07db95305ef49ebced9f5467a0b8613fcc6b343e3819055600181527fbbc70db1b6c7afd11e79c0fb0051300458f1a3acb8ee9789d9b6b26c61ad9bc7556008805461010161ffff19909116179055600f80546001600160a01b03191673e11a86849d99f524cac3e7a0ec1241828e332c62179055620002e9565b805162000182906002906020840190620001d8565b5050565b600380546001600160a01b038381166001600160a01b0319831681179093556040519116919082907f8be0079c531659141344cd1fd0a4f28419497f9722a3daafe3b4186f6b6457e090600090a35050565b828054620001e690620002ac565b90600052602060002090601f0160209004810192826200020a576000855562000255565b82601f106200022557805160ff191683800117855562000255565b8280016001018555821562000255579182015b828111156200025557825182559160200191906001019062000238565b506200026392915062000267565b5090565b5b8082111562000263576000815560010162000268565b60008060006060848603121562000293578283fd5b8351925060208401519150604084015190509250925092565b600181811c90821680620002c157607f821691505b60208210811415620002e357634e487b7160e01b600052602260045260246000fd5b50919050565b61299d80620002f96000396000f3fe608060405234801561001057600080fd5b50600436106101155760003560e01c80638da5cb5b116100a2578063e757223011610071578063e75722301461024f578063e985e9c514610262578063f242432a1461029e578063f2e8dfdb146102b1578063f2fde38b146102b957600080fd5b80638da5cb5b14610205578063a22cb46514610216578063d96a094a14610229578063e4849b321461023c57600080fd5b80633e413bee116100e95780633e413bee146101985780634e1273f4146101c35780635c975abb146101e357806368d2be8f146101f5578063715018a6146101fd57600080fd5b8062fdd58e1461011a57806301ffc9a7146101405780630e89341c146101635780632eb2c2d614610183575b600080fd5b61012d6101283660046122a9565b6102cc565b6040519081526020015b60405180910390f35b61015361014e3660046123b9565b610363565b6040519015158152602001610137565b6101766101713660046123f1565b6103b5565b60405161013791906125e0565b61019661019136600461216a565b610449565b005b600f546101ab906001600160a01b031681565b6040516001600160a01b039091168152602001610137565b6101d66101d13660046122d2565b6104e0565b604051610137919061259f565b600354600160a01b900460ff16610153565b61012d600181565b610196610642565b6003546001600160a01b03166101ab565b610196610224366004612273565b6106a8565b6101966102373660046123f1565b6106b7565b61019661024a3660046123f1565b610bdb565b61012d61025d3660046123f1565b610be6565b610153610270366004612138565b6001600160a01b03918216600090815260016020908152604080832093909416825291909152205460ff1690565b6101966102ac366004612210565b610c13565b61012d600081565b6101966102c7366004612117565b610c9a565b60006001600160a01b03831661033d5760405162461bcd60e51b815260206004820152602b60248201527f455243313135353a2062616c616e636520717565727920666f7220746865207a60448201526a65726f206164647265737360a81b60648201526084015b60405180910390fd5b506000908152602081815260408083206001600160a01b03949094168352929052205490565b60006001600160e01b03198216636cdb3d1360e11b148061039457506001600160e01b031982166303a24d0760e21b145b806103af57506301ffc9a760e01b6001600160e01b03198316145b92915050565b6060600280546103c490612788565b80601f01602080910402602001604051908101604052809291908181526020018280546103f090612788565b801561043d5780601f106104125761010080835404028352916020019161043d565b820191906000526020600020905b81548152906001019060200180831161042057829003601f168201915b50505050509050919050565b6001600160a01b03851633148061046557506104658533610270565b6104cc5760405162461bcd60e51b815260206004820152603260248201527f455243313135353a207472616e736665722063616c6c6572206973206e6f74206044820152711bdddb995c881b9bdc88185c1c1c9bdd995960721b6064820152608401610334565b6104d98585858585610d65565b5050505050565b606081518351146105455760405162461bcd60e51b815260206004820152602960248201527f455243313135353a206163636f756e747320616e6420696473206c656e677468604482015268040dad2e6dac2e8c6d60bb1b6064820152608401610334565b6000835167ffffffffffffffff81111561056f57634e487b7160e01b600052604160045260246000fd5b604051908082528060200260200182016040528015610598578160200160208202803683370190505b50905060005b845181101561063a576105ff8582815181106105ca57634e487b7160e01b600052603260045260246000fd5b60200260200101518583815181106105f257634e487b7160e01b600052603260045260246000fd5b60200260200101516102cc565b82828151811061061f57634e487b7160e01b600052603260045260246000fd5b6020908102919091010152610633816127f0565b905061059e565b509392505050565b6003546001600160a01b0316331461069c5760405162461bcd60e51b815260206004820181905260248201527f4f776e61626c653a2063616c6c6572206973206e6f7420746865206f776e65726044820152606401610334565b6106a66000610f6c565b565b6106b3338383610fbe565b5050565b600354600160a01b900460ff16156107035760405162461bcd60e51b815260206004820152600f60248201526e23b0b6b29034b9903830bab9b2b21760891b6044820152606401610334565b8015806107105750600181145b61074d5760405162461bcd60e51b815260206004820152600e60248201526d24b73b30b634b2103a37b5b2b71760911b6044820152606401610334565b6107583360006102cc565b15801561076d575061076b3360016102cc565b155b6107c75760405162461bcd60e51b815260206004820152602560248201527f48494c4f3a2063616e6e6f742068617665206d6f7265207468616e206f6e65206044820152643a37b5b2b760d91b6064820152608401610334565b60006107d282610be6565b6107e490670de0b6b3a7640000612752565b90506000811161080457634e487b7160e01b600052600160045260246000fd5b60408051338152602081018490529081018290527f4c3e65968e649a01ea3950be6b9ad997c1339a91b3a9b8d73e00f310bd87c5dd9060600160405180910390a1600554811480156108565750600182145b8061086b57506004548114801561086b575081155b156108b3576108798261109f565b60408051338152602081018490527fcd3a4800b15328c9efb24904b6ff03fc8d44c4f2b2f60aa7ab268aa1ad3a035b910160405180910390a15b600f546040516370a0823160e01b81523360048201526000916001600160a01b0316906370a082319060240160206040518083038186803b1580156108f757600080fd5b505afa15801561090b573d6000803e3d6000fd5b505050506040513d601f19601f8201168201806040525081019061092f9190612409565b60408051338152602081018390529192507f8d3f2312e09e67c66117ed54c754be60c8a3d9e646b269e5550b7b3d50e77bef910160405180910390a1818110156109bb5760405162461bcd60e51b815260206004820152601a60248201527f496e73756666696369656e7420555344432062616c616e63652e0000000000006044820152606401610334565b600f546040516323b872dd60e01b8152336004820152306024820152604481018490526001600160a01b03909116906323b872dd90606401602060405180830381600087803b158015610a0d57600080fd5b505af1158015610a21573d6000803e3d6000fd5b505050506040513d601f19601f82011682018060405250810190610a45919061239d565b5060408051338152602081018490527f8c7a815f9018828b5b540f4eda734a9b0cfc910bad61d0f504b1976fc87c5568910160405180910390a1610a9b33846001604051806020016040528060008152506110b4565b60408051338152602081018590527f2d8eb9b9558d4b5ef1d238622692f6156d5822009340e26ab15fac05d64c12f0910160405180910390a16000610adf846111d7565b6040805186815282151560208201529192507f67c80e5f1314ffc5b481d04ddc8778b4ac1c5cab32b36e691643643003085d03910160405180910390a18015610bd55783610b36576008805460ff19169055610b42565b6008805461ff00191690555b6040518481527fcffb875f4a13e7daadf5756a80391de4c6bf7f9c25c4cad31f963583dfaa38dd9060200160405180910390a1600b5415610bd557600c8054600091600b919083610b92836127f0565b9190505581548110610bb457634e487b7160e01b600052603260045260246000fd5b6000918252602090912001546001600160a01b031690506104d9818661121a565b50505050565b336106b3818361121a565b600081610bf557505060065490565b6001821415610c0657505060075490565b506000919050565b919050565b6001600160a01b038516331480610c2f5750610c2f8533610270565b610c8d5760405162461bcd60e51b815260206004820152602960248201527f455243313135353a2063616c6c6572206973206e6f74206f776e6572206e6f7260448201526808185c1c1c9bdd995960ba1b6064820152608401610334565b6104d98585858585611491565b6003546001600160a01b03163314610cf45760405162461bcd60e51b815260206004820181905260248201527f4f776e61626c653a2063616c6c6572206973206e6f7420746865206f776e65726044820152606401610334565b6001600160a01b038116610d595760405162461bcd60e51b815260206004820152602660248201527f4f776e61626c653a206e6577206f776e657220697320746865207a65726f206160448201526564647265737360d01b6064820152608401610334565b610d6281610f6c565b50565b8151835114610dc75760405162461bcd60e51b815260206004820152602860248201527f455243313135353a2069647320616e6420616d6f756e7473206c656e677468206044820152670dad2e6dac2e8c6d60c31b6064820152608401610334565b6001600160a01b038416610ded5760405162461bcd60e51b815260040161033490612687565b33610dfc8187878787876115c9565b60005b8451811015610efe576000858281518110610e2a57634e487b7160e01b600052603260045260246000fd5b602002602001015190506000858381518110610e5657634e487b7160e01b600052603260045260246000fd5b602090810291909101810151600084815280835260408082206001600160a01b038e168352909352919091205490915081811015610ea65760405162461bcd60e51b8152600401610334906126cc565b6000838152602081815260408083206001600160a01b038e8116855292528083208585039055908b16825281208054849290610ee390849061273a565b9250508190555050505080610ef7906127f0565b9050610dff565b50846001600160a01b0316866001600160a01b0316826001600160a01b03167f4a39dc06d4c0dbc64b70af90fd698a233a518aa5d07e595d983b8c0526c8f7fb8787604051610f4e9291906125b2565b60405180910390a4610f64818787878787611698565b505050505050565b600380546001600160a01b038381166001600160a01b0319831681179093556040519116919082907f8be0079c531659141344cd1fd0a4f28419497f9722a3daafe3b4186f6b6457e090600090a35050565b816001600160a01b0316836001600160a01b031614156110325760405162461bcd60e51b815260206004820152602960248201527f455243313135353a2073657474696e6720617070726f76616c20737461747573604482015268103337b91039b2b63360b91b6064820152608401610334565b6001600160a01b03838116600081815260016020908152604080832094871680845294825291829020805460ff191686151590811790915591519182527f17307eab39ab6107e8899845ad3d59bd9653f200f220920489ca2b5937696c31910160405180910390a3505050565b806110ac57610d62611803565b610d6261186e565b6001600160a01b0384166111145760405162461bcd60e51b815260206004820152602160248201527f455243313135353a206d696e7420746f20746865207a65726f206164647265736044820152607360f81b6064820152608401610334565b336000611120856118d2565b9050600061112d856118d2565b905061113e836000898585896115c9565b6000868152602081815260408083206001600160a01b038b1684529091528120805487929061116e90849061273a565b909155505060408051878152602081018790526001600160a01b03808a1692600092918716917fc3d58168c5ae7397731d063d5bbf3d657854427343f4c083240f7aacaa2d0f62910160405180910390a46111ce8360008989898961192b565b50505050505050565b6009546000828152600a6020526040812054909182916111f890600161273a565b611202919061280b565b6000938452600a602052604090932083905550501590565b600354600160a01b900460ff16156112665760405162461bcd60e51b815260206004820152600f60248201526e23b0b6b29034b9903830bab9b2b21760891b6044820152606401610334565b8015806112735750600181145b6112b05760405162461bcd60e51b815260206004820152600e60248201526d24b73b30b634b2103a37b5b2b71760911b6044820152606401610334565b801580156112c8575060006112c68360006102cc565b115b806112e857506001811480156112e8575060006112e68360016102cc565b115b6113465760405162461bcd60e51b815260206004820152602960248201527f48494c4f3a2063616e6e6f742073656c6c207768656e20796f752068617665206044820152686e6f20746f6b656e7360b81b6064820152608401610334565b61135082826119f5565b600061135b82610be6565b61136d90670de0b6b3a7640000612752565b600f5460405163a9059cbb60e01b81526001600160a01b0386811660048301526024820184905292935091169063a9059cbb90604401602060405180830381600087803b1580156113bd57600080fd5b505af11580156113d1573d6000803e3d6000fd5b505050506040513d601f19601f820116820180604052508101906113f5919061239d565b5061140283836001611aba565b600754600654141561141f5761141f61141a83610be6565b611c4a565b6114288261109f565b8115801561143e575061143c8360016102cc565b155b1561148c5761145f83600180604051806020016040528060008152506110b4565b61146960016111d7565b5061148c60405180606001604052806027815260200161291e6027913984611e4b565b505050565b6001600160a01b0384166114b75760405162461bcd60e51b815260040161033490612687565b3360006114c3856118d2565b905060006114d0856118d2565b90506114e08389898585896115c9565b6000868152602081815260408083206001600160a01b038c168452909152902054858110156115215760405162461bcd60e51b8152600401610334906126cc565b6000878152602081815260408083206001600160a01b038d8116855292528083208985039055908a1682528120805488929061155e90849061273a565b909155505060408051888152602081018890526001600160a01b03808b16928c821692918816917fc3d58168c5ae7397731d063d5bbf3d657854427343f4c083240f7aacaa2d0f62910160405180910390a46115be848a8a8a8a8a61192b565b505050505050505050565b600354600160a01b900460ff16156116165760405162461bcd60e51b815260206004820152601060248201526f14185d5cd8589b194e881c185d5cd95960821b6044820152606401610334565b6001600160a01b038516158061163457506001600160a01b03851630145b8061164757506001600160a01b03841630145b6116935760405162461bcd60e51b815260206004820152601c60248201527f48494c4f546f6b656e3a206e6f6e207472616e736665727261626c65000000006044820152606401610334565b610f64565b6001600160a01b0384163b15610f645760405163bc197c8160e01b81526001600160a01b0385169063bc197c81906116dc90899089908890889088906004016124a6565b602060405180830381600087803b1580156116f657600080fd5b505af1925050508015611726575060408051601f3d908101601f19168201909252611723918101906123d5565b60015b6117d357611732612857565b806308c379a0141561176c575061174761286f565b80611752575061176e565b8060405162461bcd60e51b815260040161033491906125e0565b505b60405162461bcd60e51b815260206004820152603460248201527f455243313135353a207472616e7366657220746f206e6f6e20455243313135356044820152732932b1b2b4bb32b91034b6b83632b6b2b73a32b960611b6064820152608401610334565b6001600160e01b0319811663bc197c8160e01b146111ce5760405162461bcd60e51b81526004016103349061263f565b60016006546118129190612771565b600681905561183157634e487b7160e01b600052600160045260246000fd5b7f98f29bb5a6c3ae7fe62f8a0831c40149254dfbf11ab6ec843cbc92b6986db89660065460405161186491815260200190565b60405180910390a1565b60075461187c90600161273a565b60078190556006541161189f57634e487b7160e01b600052600160045260246000fd5b7f20bac735f1753f7e637cbe64ffd341651152fec5eabdf81fc6ca5743e6ae02e460075460405161186491815260200190565b6040805160018082528183019092526060916000919060208083019080368337019050509050828160008151811061191a57634e487b7160e01b600052603260045260246000fd5b602090810291909101015292915050565b6001600160a01b0384163b15610f645760405163f23a6e6160e01b81526001600160a01b0385169063f23a6e619061196f9089908990889088908890600401612504565b602060405180830381600087803b15801561198957600080fd5b505af19250505080156119b9575060408051601f3d908101601f191682019092526119b6918101906123d5565b60015b6119c557611732612857565b6001600160e01b0319811663f23a6e6160e01b146111ce5760405162461bcd60e51b81526004016103349061263f565b6000611a0082610be6565b60408051606080820183526001600160a01b0387811680845260208085018981528587018881526000898152600d845288812080546001808201835591835291859020895160039093020180546001600160a01b03191692909716919091178655915191850191909155516002909301929092558451908152908101879052928301849052929350917fe51ee29f760306868b7bafee1f740fce6c665ec7754abd973733d03ded35c06f910160405180910390a150505050565b6001600160a01b038316611b1c5760405162461bcd60e51b815260206004820152602360248201527f455243313135353a206275726e2066726f6d20746865207a65726f206164647260448201526265737360e81b6064820152608401610334565b336000611b28846118d2565b90506000611b35846118d2565b9050611b55838760008585604051806020016040528060008152506115c9565b6000858152602081815260408083206001600160a01b038a16845290915290205484811015611bd25760405162461bcd60e51b8152602060048201526024808201527f455243313135353a206275726e20616d6f756e7420657863656564732062616c604482015263616e636560e01b6064820152608401610334565b6000868152602081815260408083206001600160a01b038b81168086529184528285208a8703905582518b81529384018a90529092908816917fc3d58168c5ae7397731d063d5bbf3d657854427343f4c083240f7aacaa2d0f62910160405180910390a46040805160208101909152600090526111ce565b6000600d60006006548152602001908152602001600020805480602002602001604051908101604052809291908181526020016000905b82821015611cd6576000848152602090819020604080516060810182526003860290920180546001600160a01b0316835260018082015484860152600290910154918301919091529083529092019101611c81565b50505050905060005b8151811015611d5857600e828281518110611d0a57634e487b7160e01b600052603260045260246000fd5b6020908102919091018101515182546001810184556000938452919092200180546001600160a01b0319166001600160a01b0390921691909117905580611d50816127f0565b915050611cdf565b507f41df3c80bd12dbcc33254d0c956c6e2aa89ce09206b41106e3ea13692f1a4c0d600e83604051611d8b929190612549565b60405180910390a1611d9b611e90565b611dbd6040518060600160405280602381526020016129456023913983611f30565b611dee6040518060400160405280601081526020016f2a3432903bb4b73732b9399030b9329d60811b815250611f75565b60005b600e5481101561148c57611e39600e8281548110611e1f57634e487b7160e01b600052603260045260246000fd5b6000918252602090912001546001600160a01b0316611fb8565b80611e43816127f0565b915050611df1565b6106b38282604051602401611e619291906125f3565b60408051601f198184030181529190526020810180516001600160e01b031663319af33360e01b179052611ffc565b600354600160a01b900460ff1615611edd5760405162461bcd60e51b815260206004820152601060248201526f14185d5cd8589b194e881c185d5cd95960821b6044820152606401610334565b6003805460ff60a01b1916600160a01b1790557f62e78cea01bee320cd4e420270b5ea74000d11b0c9f74754ebdbfc544b05a258611f183390565b6040516001600160a01b039091168152602001611864565b6106b38282604051602401611f4692919061261d565b60408051601f198184030181529190526020810180516001600160e01b03166309710a9d60e41b179052611ffc565b610d6281604051602401611f8991906125e0565b60408051601f198184030181529190526020810180516001600160e01b031663104c13eb60e21b179052611ffc565b6040516001600160a01b0382166024820152610d629060440160408051601f198184030181529190526020810180516001600160e01b031663161765e160e11b1790525b80516a636f6e736f6c652e6c6f67602083016000808483855afa5050505050565b80356001600160a01b0381168114610c0e57600080fd5b600082601f830112612044578081fd5b8135602061205182612716565b60405161205e82826127c3565b8381528281019150858301600585901b8701840188101561207d578586fd5b855b8581101561209b5781358452928401929084019060010161207f565b5090979650505050505050565b600082601f8301126120b8578081fd5b813567ffffffffffffffff8111156120d2576120d2612841565b6040516120e9601f8301601f1916602001826127c3565b8181528460208386010111156120fd578283fd5b816020850160208301379081016020019190915292915050565b600060208284031215612128578081fd5b6121318261201d565b9392505050565b6000806040838503121561214a578081fd5b6121538361201d565b91506121616020840161201d565b90509250929050565b600080600080600060a08688031215612181578081fd5b61218a8661201d565b94506121986020870161201d565b9350604086013567ffffffffffffffff808211156121b4578283fd5b6121c089838a01612034565b945060608801359150808211156121d5578283fd5b6121e189838a01612034565b935060808801359150808211156121f6578283fd5b50612203888289016120a8565b9150509295509295909350565b600080600080600060a08688031215612227578081fd5b6122308661201d565b945061223e6020870161201d565b93506040860135925060608601359150608086013567ffffffffffffffff811115612267578182fd5b612203888289016120a8565b60008060408385031215612285578182fd5b61228e8361201d565b9150602083013561229e816128f9565b809150509250929050565b600080604083850312156122bb578182fd5b6122c48361201d565b946020939093013593505050565b600080604083850312156122e4578182fd5b823567ffffffffffffffff808211156122fb578384fd5b818501915085601f83011261230e578384fd5b8135602061231b82612716565b60405161232882826127c3565b8381528281019150858301600585901b870184018b1015612347578889fd5b8896505b848710156123705761235c8161201d565b83526001969096019591830191830161234b565b5096505086013592505080821115612386578283fd5b5061239385828601612034565b9150509250929050565b6000602082840312156123ae578081fd5b8151612131816128f9565b6000602082840312156123ca578081fd5b813561213181612907565b6000602082840312156123e6578081fd5b815161213181612907565b600060208284031215612402578081fd5b5035919050565b60006020828403121561241a578081fd5b5051919050565b6000815180845260208085019450808401835b8381101561245057815187529582019590820190600101612434565b509495945050505050565b60008151808452815b8181101561248057602081850181015186830182015201612464565b818111156124915782602083870101525b50601f01601f19169290920160200192915050565b6001600160a01b0386811682528516602082015260a0604082018190526000906124d290830186612421565b82810360608401526124e48186612421565b905082810360808401526124f8818561245b565b98975050505050505050565b6001600160a01b03868116825285166020820152604081018490526060810183905260a06080820181905260009061253e9083018461245b565b979650505050505050565b6000604082016040835280855480835260608501915086845260209250828420845b828110156125905781546001600160a01b03168452928401926001918201910161256b565b50505092019290925292915050565b6020815260006121316020830184612421565b6040815260006125c56040830185612421565b82810360208401526125d78185612421565b95945050505050565b602081526000612131602083018461245b565b604081526000612606604083018561245b565b905060018060a01b03831660208301529392505050565b604081526000612630604083018561245b565b90508260208301529392505050565b60208082526028908201527f455243313135353a204552433131353552656365697665722072656a656374656040820152676420746f6b656e7360c01b606082015260800190565b60208082526025908201527f455243313135353a207472616e7366657220746f20746865207a65726f206164604082015264647265737360d81b606082015260800190565b6020808252602a908201527f455243313135353a20696e73756666696369656e742062616c616e636520666f60408201526939103a3930b739b332b960b11b606082015260800190565b600067ffffffffffffffff82111561273057612730612841565b5060051b60200190565b6000821982111561274d5761274d61282b565b500190565b600081600019048311821515161561276c5761276c61282b565b500290565b6000828210156127835761278361282b565b500390565b600181811c9082168061279c57607f821691505b602082108114156127bd57634e487b7160e01b600052602260045260246000fd5b50919050565b601f8201601f1916810167ffffffffffffffff811182821017156127e9576127e9612841565b6040525050565b60006000198214156128045761280461282b565b5060010190565b60008261282657634e487b7160e01b81526012600452602481fd5b500690565b634e487b7160e01b600052601160045260246000fd5b634e487b7160e01b600052604160045260246000fd5b600060033d111561286c57600481823e5160e01c5b90565b600060443d101561287d5790565b6040516003193d81016004833e81513d67ffffffffffffffff81602484011181841117156128ad57505050505090565b82850191508151818111156128c55750505050505090565b843d87010160208285010111156128df5750505050505090565b6128ee602082860101876127c3565b509095945050505050565b8015158114610d6257600080fd5b6001600160e01b031981168114610d6257600080fdfe4c4f207472616e736665727265642066726f6d2048492073616c652c20726563657069656e743a47616d65206f76657221205468652070726963657320636f6e7665726765642061743aa2646970667358221220f5fb09516140e5932cbd72c65c65f9bb98daf87d10865b0d7be108d40a83573264736f6c63430008040033",
  "linkReferences": {},
  "deployedLinkReferences": {}
}