{
  "_format": "hh-sol-artifact-1",
  "contractName": "HILO",
  "sourceName": "contracts/HILO.sol",
  "abi": [
    {
      "inputs": [
        {
          "internalType": "uint256",
          "name": "_initialHi",
          "type": "uint256"
        },
        {
          "internalType": "uint256",
          "name": "_initialLo",
          "type": "uint256"
        },
        {
          "internalType": "uint256",
          "name": "_buyRequiredCount",
          "type": "uint256"
        },
        {
          "internalType": "uint256",
          "name": "_jackpot",
          "type": "uint256"
        }
      ],
      "stateMutability": "nonpayable",
      "type": "constructor"
    },
    {
      "anonymous": false,
      "inputs": [
        {
          "indexed": true,
          "internalType": "address",
          "name": "account",
          "type": "address"
        },
        {
          "indexed": true,
          "internalType": "address",
          "name": "operator",
          "type": "address"
        },
        {
          "indexed": false,
          "internalType": "bool",
          "name": "approved",
          "type": "bool"
        }
      ],
      "name": "ApprovalForAll",
      "type": "event"
    },
    {
      "anonymous": false,
      "inputs": [
        {
          "indexed": true,
          "internalType": "address",
          "name": "previousOwner",
          "type": "address"
        },
        {
          "indexed": true,
          "internalType": "address",
          "name": "newOwner",
          "type": "address"
        }
      ],
      "name": "OwnershipTransferred",
      "type": "event"
    },
    {
      "anonymous": false,
      "inputs": [
        {
          "indexed": false,
          "internalType": "address",
          "name": "account",
          "type": "address"
        }
      ],
      "name": "Paused",
      "type": "event"
    },
    {
      "anonymous": false,
      "inputs": [
        {
          "indexed": true,
          "internalType": "address",
          "name": "operator",
          "type": "address"
        },
        {
          "indexed": true,
          "internalType": "address",
          "name": "from",
          "type": "address"
        },
        {
          "indexed": true,
          "internalType": "address",
          "name": "to",
          "type": "address"
        },
        {
          "indexed": false,
          "internalType": "uint256[]",
          "name": "ids",
          "type": "uint256[]"
        },
        {
          "indexed": false,
          "internalType": "uint256[]",
          "name": "values",
          "type": "uint256[]"
        }
      ],
      "name": "TransferBatch",
      "type": "event"
    },
    {
      "anonymous": false,
      "inputs": [
        {
          "indexed": true,
          "internalType": "address",
          "name": "operator",
          "type": "address"
        },
        {
          "indexed": true,
          "internalType": "address",
          "name": "from",
          "type": "address"
        },
        {
          "indexed": true,
          "internalType": "address",
          "name": "to",
          "type": "address"
        },
        {
          "indexed": false,
          "internalType": "uint256",
          "name": "id",
          "type": "uint256"
        },
        {
          "indexed": false,
          "internalType": "uint256",
          "name": "value",
          "type": "uint256"
        }
      ],
      "name": "TransferSingle",
      "type": "event"
    },
    {
      "anonymous": false,
      "inputs": [
        {
          "indexed": false,
          "internalType": "string",
          "name": "value",
          "type": "string"
        },
        {
          "indexed": true,
          "internalType": "uint256",
          "name": "id",
          "type": "uint256"
        }
      ],
      "name": "URI",
      "type": "event"
    },
    {
      "anonymous": false,
      "inputs": [
        {
          "indexed": false,
          "internalType": "address",
          "name": "account",
          "type": "address"
        }
      ],
      "name": "Unpaused",
      "type": "event"
    },
    {
      "anonymous": false,
      "inputs": [
        {
          "indexed": false,
          "internalType": "address",
          "name": "player",
          "type": "address"
        },
        {
          "indexed": false,
          "internalType": "uint256",
          "name": "tokenId",
          "type": "uint256"
        },
        {
          "indexed": false,
          "internalType": "uint256",
          "name": "price",
          "type": "uint256"
        }
      ],
      "name": "actionAdded",
      "type": "event"
    },
    {
      "anonymous": false,
      "inputs": [
        {
          "indexed": false,
          "internalType": "address",
          "name": "player",
          "type": "address"
        },
        {
          "indexed": false,
          "internalType": "uint256",
          "name": "tokenId",
          "type": "uint256"
        },
        {
          "indexed": false,
          "internalType": "uint256",
          "name": "price",
          "type": "uint256"
        }
      ],
      "name": "buyPriceCheck",
      "type": "event"
    },
    {
      "anonymous": false,
      "inputs": [
        {
          "indexed": false,
          "internalType": "address",
          "name": "player",
          "type": "address"
        },
        {
          "indexed": false,
          "internalType": "uint256",
          "name": "tokenId",
          "type": "uint256"
        }
      ],
      "name": "buyPriceUpdate",
      "type": "event"
    },
    {
      "anonymous": false,
      "inputs": [
        {
          "indexed": false,
          "internalType": "uint256",
          "name": "newHiPrice",
          "type": "uint256"
        }
      ],
      "name": "hiDecreased",
      "type": "event"
    },
    {
      "anonymous": false,
      "inputs": [
        {
          "indexed": false,
          "internalType": "uint256",
          "name": "newLoPrice",
          "type": "uint256"
        }
      ],
      "name": "loIncreased",
      "type": "event"
    },
    {
      "anonymous": false,
      "inputs": [
        {
          "indexed": false,
          "internalType": "address",
          "name": "player",
          "type": "address"
        }
      ],
      "name": "loSent",
      "type": "event"
    },
    {
      "anonymous": false,
      "inputs": [
        {
          "indexed": false,
          "internalType": "address",
          "name": "player",
          "type": "address"
        },
        {
          "indexed": false,
          "internalType": "uint256",
          "name": "balance",
          "type": "uint256"
        }
      ],
      "name": "playerBalanceCheck",
      "type": "event"
    },
    {
      "anonymous": false,
      "inputs": [
        {
          "indexed": false,
          "internalType": "address",
          "name": "player",
          "type": "address"
        },
        {
          "indexed": false,
          "internalType": "uint256",
          "name": "amount",
          "type": "uint256"
        }
      ],
      "name": "playerPayment",
      "type": "event"
    },
    {
      "anonymous": false,
      "inputs": [
        {
          "indexed": false,
          "internalType": "address",
          "name": "player",
          "type": "address"
        },
        {
          "indexed": false,
          "internalType": "uint256",
          "name": "tokenId",
          "type": "uint256"
        }
      ],
      "name": "priceUpdated",
      "type": "event"
    },
    {
      "anonymous": false,
      "inputs": [
        {
          "indexed": false,
          "internalType": "address[]",
          "name": "winners",
          "type": "address[]"
        },
        {
          "indexed": false,
          "internalType": "uint256",
          "name": "price",
          "type": "uint256"
        }
      ],
      "name": "pricesConverged",
      "type": "event"
    },
    {
      "anonymous": false,
      "inputs": [
        {
          "indexed": false,
          "internalType": "address",
          "name": "player",
          "type": "address"
        },
        {
          "indexed": false,
          "internalType": "uint256",
          "name": "amount",
          "type": "uint256"
        }
      ],
      "name": "salePayment",
      "type": "event"
    },
    {
      "anonymous": false,
      "inputs": [
        {
          "indexed": false,
          "internalType": "uint256",
          "name": "tokenId",
          "type": "uint256"
        }
      ],
      "name": "saleUnlocked",
      "type": "event"
    },
    {
      "anonymous": false,
      "inputs": [
        {
          "indexed": false,
          "internalType": "uint256",
          "name": "tokenId",
          "type": "uint256"
        },
        {
          "indexed": false,
          "internalType": "bool",
          "name": "shouldUnlock",
          "type": "bool"
        }
      ],
      "name": "shouldUnlockCheck",
      "type": "event"
    },
    {
      "anonymous": false,
      "inputs": [
        {
          "indexed": false,
          "internalType": "address",
          "name": "player",
          "type": "address"
        },
        {
          "indexed": false,
          "internalType": "uint256",
          "name": "tokenId",
          "type": "uint256"
        }
      ],
      "name": "tokenBurned",
      "type": "event"
    },
    {
      "anonymous": false,
      "inputs": [
        {
          "indexed": false,
          "internalType": "address",
          "name": "player",
          "type": "address"
        },
        {
          "indexed": false,
          "internalType": "uint256",
          "name": "tokenId",
          "type": "uint256"
        }
      ],
      "name": "tokenMinted",
      "type": "event"
    },
    {
      "inputs": [],
      "name": "HI",
      "outputs": [
        {
          "internalType": "uint256",
          "name": "",
          "type": "uint256"
        }
      ],
      "stateMutability": "view",
      "type": "function"
    },
    {
      "inputs": [],
      "name": "LO",
      "outputs": [
        {
          "internalType": "uint256",
          "name": "",
          "type": "uint256"
        }
      ],
      "stateMutability": "view",
      "type": "function"
    },
    {
      "inputs": [
        {
          "internalType": "address",
          "name": "account",
          "type": "address"
        },
        {
          "internalType": "uint256",
          "name": "id",
          "type": "uint256"
        }
      ],
      "name": "balanceOf",
      "outputs": [
        {
          "internalType": "uint256",
          "name": "",
          "type": "uint256"
        }
      ],
      "stateMutability": "view",
      "type": "function"
    },
    {
      "inputs": [
        {
          "internalType": "address[]",
          "name": "accounts",
          "type": "address[]"
        },
        {
          "internalType": "uint256[]",
          "name": "ids",
          "type": "uint256[]"
        }
      ],
      "name": "balanceOfBatch",
      "outputs": [
        {
          "internalType": "uint256[]",
          "name": "",
          "type": "uint256[]"
        }
      ],
      "stateMutability": "view",
      "type": "function"
    },
    {
      "inputs": [
        {
          "internalType": "uint256",
          "name": "tokenId",
          "type": "uint256"
        }
      ],
      "name": "buy",
      "outputs": [],
      "stateMutability": "nonpayable",
      "type": "function"
    },
    {
      "inputs": [
        {
          "internalType": "uint256",
          "name": "id",
          "type": "uint256"
        }
      ],
      "name": "exists",
      "outputs": [
        {
          "internalType": "bool",
          "name": "",
          "type": "bool"
        }
      ],
      "stateMutability": "view",
      "type": "function"
    },
    {
      "inputs": [],
      "name": "gameWon",
      "outputs": [
        {
          "internalType": "bool",
          "name": "",
          "type": "bool"
        }
      ],
      "stateMutability": "view",
      "type": "function"
    },
    {
      "inputs": [
        {
          "internalType": "uint256",
          "name": "tokenId",
          "type": "uint256"
        }
      ],
      "name": "getPrice",
      "outputs": [
        {
          "internalType": "uint256",
          "name": "",
          "type": "uint256"
        }
      ],
      "stateMutability": "view",
      "type": "function"
    },
    {
      "inputs": [],
      "name": "getWinners",
      "outputs": [
        {
          "internalType": "address[]",
          "name": "",
          "type": "address[]"
        }
      ],
      "stateMutability": "view",
      "type": "function"
    },
    {
      "inputs": [
        {
          "internalType": "address",
          "name": "account",
          "type": "address"
        },
        {
          "internalType": "address",
          "name": "operator",
          "type": "address"
        }
      ],
      "name": "isApprovedForAll",
      "outputs": [
        {
          "internalType": "bool",
          "name": "",
          "type": "bool"
        }
      ],
      "stateMutability": "view",
      "type": "function"
    },
    {
      "inputs": [],
      "name": "jackpot",
      "outputs": [
        {
          "internalType": "uint256",
          "name": "",
          "type": "uint256"
        }
      ],
      "stateMutability": "view",
      "type": "function"
    },
    {
      "inputs": [],
      "name": "owner",
      "outputs": [
        {
          "internalType": "address",
          "name": "",
          "type": "address"
        }
      ],
      "stateMutability": "view",
      "type": "function"
    },
    {
      "inputs": [],
      "name": "paused",
      "outputs": [
        {
          "internalType": "bool",
          "name": "",
          "type": "bool"
        }
      ],
      "stateMutability": "view",
      "type": "function"
    },
    {
      "inputs": [],
      "name": "payout",
      "outputs": [],
      "stateMutability": "nonpayable",
      "type": "function"
    },
    {
      "inputs": [],
      "name": "renounceOwnership",
      "outputs": [],
      "stateMutability": "nonpayable",
      "type": "function"
    },
    {
      "inputs": [
        {
          "internalType": "address",
          "name": "from",
          "type": "address"
        },
        {
          "internalType": "address",
          "name": "to",
          "type": "address"
        },
        {
          "internalType": "uint256[]",
          "name": "ids",
          "type": "uint256[]"
        },
        {
          "internalType": "uint256[]",
          "name": "amounts",
          "type": "uint256[]"
        },
        {
          "internalType": "bytes",
          "name": "data",
          "type": "bytes"
        }
      ],
      "name": "safeBatchTransferFrom",
      "outputs": [],
      "stateMutability": "nonpayable",
      "type": "function"
    },
    {
      "inputs": [
        {
          "internalType": "address",
          "name": "from",
          "type": "address"
        },
        {
          "internalType": "address",
          "name": "to",
          "type": "address"
        },
        {
          "internalType": "uint256",
          "name": "id",
          "type": "uint256"
        },
        {
          "internalType": "uint256",
          "name": "amount",
          "type": "uint256"
        },
        {
          "internalType": "bytes",
          "name": "data",
          "type": "bytes"
        }
      ],
      "name": "safeTransferFrom",
      "outputs": [],
      "stateMutability": "nonpayable",
      "type": "function"
    },
    {
      "inputs": [
        {
          "internalType": "uint256",
          "name": "tokenId",
          "type": "uint256"
        }
      ],
      "name": "sell",
      "outputs": [],
      "stateMutability": "nonpayable",
      "type": "function"
    },
    {
      "inputs": [
        {
          "internalType": "address",
          "name": "operator",
          "type": "address"
        },
        {
          "internalType": "bool",
          "name": "approved",
          "type": "bool"
        }
      ],
      "name": "setApprovalForAll",
      "outputs": [],
      "stateMutability": "nonpayable",
      "type": "function"
    },
    {
      "inputs": [
        {
          "internalType": "bytes4",
          "name": "interfaceId",
          "type": "bytes4"
        }
      ],
      "name": "supportsInterface",
      "outputs": [
        {
          "internalType": "bool",
          "name": "",
          "type": "bool"
        }
      ],
      "stateMutability": "view",
      "type": "function"
    },
    {
      "inputs": [
        {
          "internalType": "uint256",
          "name": "id",
          "type": "uint256"
        }
      ],
      "name": "totalSupply",
      "outputs": [
        {
          "internalType": "uint256",
          "name": "",
          "type": "uint256"
        }
      ],
      "stateMutability": "view",
      "type": "function"
    },
    {
      "inputs": [
        {
          "internalType": "address",
          "name": "newOwner",
          "type": "address"
        }
      ],
      "name": "transferOwnership",
      "outputs": [],
      "stateMutability": "nonpayable",
      "type": "function"
    },
    {
      "inputs": [
        {
          "internalType": "uint256",
          "name": "",
          "type": "uint256"
        }
      ],
      "name": "uri",
      "outputs": [
        {
          "internalType": "string",
          "name": "",
          "type": "string"
        }
      ],
      "stateMutability": "view",
      "type": "function"
    },
    {
      "inputs": [],
      "name": "usdc",
      "outputs": [
        {
          "internalType": "contract IERC20",
          "name": "",
          "type": "address"
        }
      ],
      "stateMutability": "view",
      "type": "function"
    },
    {
      "inputs": [
        {
          "internalType": "uint256",
          "name": "",
          "type": "uint256"
        }
      ],
      "name": "winners",
      "outputs": [
        {
          "internalType": "address",
          "name": "",
          "type": "address"
        }
      ],
      "stateMutability": "view",
      "type": "function"
    }
  ],
  "bytecode": "0x6080604052600a805461010161ffff199091161790556010805460ff19169055601380546001600160a01b03191673e11a86849d99f524cac3e7a0ec1241828e332c621790553480156200005257600080fd5b50604051620032b9380380620032b983398101604081905262000075916200034b565b6040518060600160405280602d81526020016200328c602d91396200009a816200023a565b50620000a63362000253565b6004805460ff60a01b191690556001600555600884905560068490556009839055600783905560006002620000dc858762000381565b600754600654620000ee9190620003df565b620000fb90600162000381565b620001079190620003bd565b6200011391906200039c565b905081620001236002836200039c565b1015620001765760405162461bcd60e51b815260206004820152601e60248201527f4a61636b706f7420746f6f206c6172676520666f72207468652067616d650000604482015260640160405180910390fd5b60128290556008546200019957634e487b7160e01b600052600160045260246000fd5b600060095411620001ba57634e487b7160e01b600052600160045260246000fd5b60095460085411620001dc57634e487b7160e01b600052600160045260246000fd5b5050600b555050600c60205260007f13649b2456f1b42fef0f0040b3aaeabcd21a76a0f3f5defd4f583839455116e8819055600181527fd421a5181c571bba3f01190c922c3b2a896fc1d84e86c9f17ac10e67ebef8b5c556200044c565b80516200024f906002906020840190620002a5565b5050565b600480546001600160a01b038381166001600160a01b0319831681179093556040519116919082907f8be0079c531659141344cd1fd0a4f28419497f9722a3daafe3b4186f6b6457e090600090a35050565b828054620002b390620003f9565b90600052602060002090601f016020900481019282620002d7576000855562000322565b82601f10620002f257805160ff191683800117855562000322565b8280016001018555821562000322579182015b828111156200032257825182559160200191906001019062000305565b506200033092915062000334565b5090565b5b8082111562000330576000815560010162000335565b6000806000806080858703121562000361578384fd5b505082516020840151604085015160609095015191969095509092509050565b6000821982111562000397576200039762000436565b500190565b600082620003b857634e487b7160e01b81526012600452602481fd5b500490565b6000816000190483118215151615620003da57620003da62000436565b500290565b600082821015620003f457620003f462000436565b500390565b600181811c908216806200040e57607f821691505b602082108114156200043057634e487b7160e01b600052602260045260246000fd5b50919050565b634e487b7160e01b600052601160045260246000fd5b612e30806200045c6000396000f3fe608060405234801561001057600080fd5b50600436106101725760003560e01c8063715018a6116100de578063df15c37e11610097578063e985e9c511610071578063e985e9c514610347578063f242432a14610383578063f2e8dfdb14610396578063f2fde38b1461039e57600080fd5b8063df15c37e1461030c578063e4849b3214610321578063e75722301461033457600080fd5b8063715018a61461029a5780638da5cb5b146102a2578063a22cb465146102b3578063a2fb1175146102c6578063bd85b039146102d9578063d96a094a146102f957600080fd5b80634e1273f4116101305780634e1273f41461022d5780634f558e791461024d5780635c975abb1461026f57806363bd1d4a1461028157806368d2be8f146102895780636b31ee011461029157600080fd5b8062fdd58e1461017757806301ffc9a71461019d578063069a825c146101c05780630e89341c146101cd5780632eb2c2d6146101ed5780633e413bee14610202575b600080fd5b61018a6101853660046126ef565b6103b1565b6040519081526020015b60405180910390f35b6101b06101ab3660046127ff565b610448565b6040519015158152602001610194565b6010546101b09060ff1681565b6101e06101db366004612837565b61049a565b6040516101949190612a8c565b6102006101fb3660046125b0565b61052e565b005b601354610215906001600160a01b031681565b6040516001600160a01b039091168152602001610194565b61024061023b366004612718565b6105c5565b6040516101949190612a4b565b6101b061025b366004612837565b600090815260036020526040902054151590565b600454600160a01b900460ff166101b0565b610200610727565b61018a600181565b61018a60125481565b610200610957565b6004546001600160a01b0316610215565b6102006102c13660046126b9565b61098d565b6102156102d4366004612837565b61099c565b61018a6102e7366004612837565b60009081526003602052604090205490565b610200610307366004612837565b6109c6565b610314610edb565b60405161019491906129a8565b61020061032f366004612837565b610f3d565b61018a610342366004612837565b610fa9565b6101b061035536600461257e565b6001600160a01b03918216600090815260016020908152604080832093909416825291909152205460ff1690565b610200610391366004612656565b610fd6565b61018a600081565b6102006103ac36600461255d565b61105d565b60006001600160a01b0383166104225760405162461bcd60e51b815260206004820152602b60248201527f455243313135353a2062616c616e636520717565727920666f7220746865207a60448201526a65726f206164647265737360a81b60648201526084015b60405180910390fd5b506000908152602081815260408083206001600160a01b03949094168352929052205490565b60006001600160e01b03198216636cdb3d1360e11b148061047957506001600160e01b031982166303a24d0760e21b145b8061049457506301ffc9a760e01b6001600160e01b03198316145b92915050565b6060600280546104a990612c5b565b80601f01602080910402602001604051908101604052809291908181526020018280546104d590612c5b565b80156105225780601f106104f757610100808354040283529160200191610522565b820191906000526020600020905b81548152906001019060200180831161050557829003601f168201915b50505050509050919050565b6001600160a01b03851633148061054a575061054a8533610355565b6105b15760405162461bcd60e51b815260206004820152603260248201527f455243313135353a207472616e736665722063616c6c6572206973206e6f74206044820152711bdddb995c881b9bdc88185c1c1c9bdd995960721b6064820152608401610419565b6105be85858585856110f8565b5050505050565b6060815183511461062a5760405162461bcd60e51b815260206004820152602960248201527f455243313135353a206163636f756e747320616e6420696473206c656e677468604482015268040dad2e6dac2e8c6d60bb1b6064820152608401610419565b6000835167ffffffffffffffff81111561065457634e487b7160e01b600052604160045260246000fd5b60405190808252806020026020018201604052801561067d578160200160208202803683370190505b50905060005b845181101561071f576106e48582815181106106af57634e487b7160e01b600052603260045260246000fd5b60200260200101518583815181106106d757634e487b7160e01b600052603260045260246000fd5b60200260200101516103b1565b82828151811061070457634e487b7160e01b600052603260045260246000fd5b602090810291909101015261071881612cc3565b9050610683565b509392505050565b6004546001600160a01b031633146107515760405162461bcd60e51b815260040161041990612ba0565b60115460005b8181101561083f57601354601180546001600160a01b039092169163a9059cbb91908490811061079757634e487b7160e01b600052603260045260246000fd5b6000918252602090912001546012546001600160a01b03909116906107bd908690612c11565b6040518363ffffffff1660e01b81526004016107da92919061298f565b602060405180830381600087803b1580156107f457600080fd5b505af1158015610808573d6000803e3d6000fd5b505050506040513d601f19601f8201168201806040525081019061082c91906127e3565b508061083781612cc3565b915050610757565b506013546040516370a0823160e01b81523060048201526000916001600160a01b0316906370a082319060240160206040518083038186803b15801561088457600080fd5b505afa158015610898573d6000803e3d6000fd5b505050506040513d601f19601f820116820180604052508101906108bc919061284f565b6013549091506001600160a01b031663a9059cbb6108e26004546001600160a01b031690565b836040518363ffffffff1660e01b815260040161090092919061298f565b602060405180830381600087803b15801561091a57600080fd5b505af115801561092e573d6000803e3d6000fd5b505050506040513d601f19601f8201168201806040525081019061095291906127e3565b505050565b6004546001600160a01b031633146109815760405162461bcd60e51b815260040161041990612ba0565b61098b60006112ff565b565b610998338383611351565b5050565b601181815481106109ac57600080fd5b6000918252602090912001546001600160a01b0316905081565b600454600160a01b900460ff16156109f05760405162461bcd60e51b815260040161041990612ae7565b8015806109fd5750600181145b610a3a5760405162461bcd60e51b815260206004820152600e60248201526d24b73b30b634b2103a37b5b2b71760911b6044820152606401610419565b610a453360006103b1565b158015610a5a5750610a583360016103b1565b155b610ab45760405162461bcd60e51b815260206004820152602560248201527f48494c4f3a2063616e6e6f742068617665206d6f7265207468616e206f6e65206044820152643a37b5b2b760d91b6064820152608401610419565b6000610abf82610fa9565b905060008111610adf57634e487b7160e01b600052600160045260246000fd5b60408051338152602081018490529081018290527f4c3e65968e649a01ea3950be6b9ad997c1339a91b3a9b8d73e00f310bd87c5dd9060600160405180910390a160095460085414158015610b55575060075481148015610b405750600182145b80610b55575060065481148015610b55575081155b15610b9d57610b6382611432565b7fcd3a4800b15328c9efb24904b6ff03fc8d44c4f2b2f60aa7ab268aa1ad3a035b3383604051610b9492919061298f565b60405180910390a15b610baf81670de0b6b3a7640000612c25565b6013546040516370a0823160e01b81523360048201529192506000916001600160a01b03909116906370a082319060240160206040518083038186803b158015610bf857600080fd5b505afa158015610c0c573d6000803e3d6000fd5b505050506040513d601f19601f82011682018060405250810190610c30919061284f565b90507f8d3f2312e09e67c66117ed54c754be60c8a3d9e646b269e5550b7b3d50e77bef3382604051610c6392919061298f565b60405180910390a181811015610cbb5760405162461bcd60e51b815260206004820152601a60248201527f496e73756666696369656e7420555344432062616c616e63652e0000000000006044820152606401610419565b6013546040516323b872dd60e01b8152336004820152306024820152604481018490526001600160a01b03909116906323b872dd90606401602060405180830381600087803b158015610d0d57600080fd5b505af1158015610d21573d6000803e3d6000fd5b505050506040513d601f19601f82011682018060405250810190610d4591906127e3565b507f8c7a815f9018828b5b540f4eda734a9b0cfc910bad61d0f504b1976fc87c55683383604051610d7792919061298f565b60405180910390a1610d9b3384600160405180602001604052806000815250611447565b7f2d8eb9b9558d4b5ef1d238622692f6156d5822009340e26ab15fac05d64c12f03384604051610dcc92919061298f565b60405180910390a16000610ddf8461156a565b6040805186815282151560208201529192507f67c80e5f1314ffc5b481d04ddc8778b4ac1c5cab32b36e691643643003085d03910160405180910390a18015610ed55783610e3657600a805460ff19169055610e42565b600a805461ff00191690555b6040518481527fcffb875f4a13e7daadf5756a80391de4c6bf7f9c25c4cad31f963583dfaa38dd9060200160405180910390a1600d5415610ed557600e8054600091600d919083610e9283612cc3565b9190505581548110610eb457634e487b7160e01b600052603260045260246000fd5b6000918252602090912001546001600160a01b031690506105be81866115ad565b50505050565b60606011805480602002602001604051908101604052809291908181526020018280548015610f3357602002820191906000526020600020905b81546001600160a01b03168152600190910190602001808311610f15575b5050505050905090565b60026005541415610f905760405162461bcd60e51b815260206004820152601f60248201527f5265656e7472616e637947756172643a207265656e7472616e742063616c6c006044820152606401610419565b600260055533610fa081836115ad565b50506001600555565b600081610fb857505060085490565b6001821415610fc957505060095490565b506000919050565b919050565b6001600160a01b038516331480610ff25750610ff28533610355565b6110505760405162461bcd60e51b815260206004820152602960248201527f455243313135353a2063616c6c6572206973206e6f74206f776e6572206e6f7260448201526808185c1c1c9bdd995960ba1b6064820152608401610419565b6105be8585858585611949565b6004546001600160a01b031633146110875760405162461bcd60e51b815260040161041990612ba0565b6001600160a01b0381166110ec5760405162461bcd60e51b815260206004820152602660248201527f4f776e61626c653a206e6577206f776e657220697320746865207a65726f206160448201526564647265737360d01b6064820152608401610419565b6110f5816112ff565b50565b815183511461115a5760405162461bcd60e51b815260206004820152602860248201527f455243313135353a2069647320616e6420616d6f756e7473206c656e677468206044820152670dad2e6dac2e8c6d60c31b6064820152608401610419565b6001600160a01b0384166111805760405162461bcd60e51b815260040161041990612b11565b3361118f818787878787611a81565b60005b84518110156112915760008582815181106111bd57634e487b7160e01b600052603260045260246000fd5b6020026020010151905060008583815181106111e957634e487b7160e01b600052603260045260246000fd5b602090810291909101810151600084815280835260408082206001600160a01b038e1683529093529190912054909150818110156112395760405162461bcd60e51b815260040161041990612b56565b6000838152602081815260408083206001600160a01b038e8116855292528083208585039055908b16825281208054849290611276908490612bf9565b925050819055505050508061128a90612cc3565b9050611192565b50846001600160a01b0316866001600160a01b0316826001600160a01b03167f4a39dc06d4c0dbc64b70af90fd698a233a518aa5d07e595d983b8c0526c8f7fb87876040516112e1929190612a5e565b60405180910390a46112f7818787878787611b48565b505050505050565b600480546001600160a01b038381166001600160a01b0319831681179093556040519116919082907f8be0079c531659141344cd1fd0a4f28419497f9722a3daafe3b4186f6b6457e090600090a35050565b816001600160a01b0316836001600160a01b031614156113c55760405162461bcd60e51b815260206004820152602960248201527f455243313135353a2073657474696e6720617070726f76616c20737461747573604482015268103337b91039b2b63360b91b6064820152608401610419565b6001600160a01b03838116600081815260016020908152604080832094871680845294825291829020805460ff191686151590811790915591519182527f17307eab39ab6107e8899845ad3d59bd9653f200f220920489ca2b5937696c31910160405180910390a3505050565b8061143f576110f5611cb3565b6110f5611d02565b6001600160a01b0384166114a75760405162461bcd60e51b815260206004820152602160248201527f455243313135353a206d696e7420746f20746865207a65726f206164647265736044820152607360f81b6064820152608401610419565b3360006114b385611d67565b905060006114c085611d67565b90506114d183600089858589611a81565b6000868152602081815260408083206001600160a01b038b16845290915281208054879290611501908490612bf9565b909155505060408051878152602081018790526001600160a01b03808a1692600092918716917fc3d58168c5ae7397731d063d5bbf3d657854427343f4c083240f7aacaa2d0f62910160405180910390a461156183600089898989611dc0565b50505050505050565b600b546000828152600c60205260408120549091829161158b906001612bf9565b6115959190612cde565b6000938452600c602052604090932083905550501590565b600454600160a01b900460ff16156115d75760405162461bcd60e51b815260040161041990612ae7565b8015806115e45750600181145b6116215760405162461bcd60e51b815260206004820152600e60248201526d24b73b30b634b2103a37b5b2b71760911b6044820152606401610419565b80158015611639575060006116378360006103b1565b115b806116595750600181148015611659575060006116578360016103b1565b115b6116b75760405162461bcd60e51b815260206004820152602960248201527f48494c4f3a2063616e6e6f742073656c6c207768656e20796f752068617665206044820152686e6f20746f6b656e7360b81b6064820152608401610419565b600081156116cf57600a54610100900460ff166116d6565b600a5460ff165b905080156117385760405162461bcd60e51b815260206004820152602960248201527f48494c4f3a2063616e6e6f742073656c6c207768656e207468652073616c65206044820152681a5cc81b1bd8dad95960ba1b6064820152608401610419565b6117428383611e8a565b600954600854141561175f5761095261175a83610fa9565b611f46565b600061176a83610fa9565b905061177e81670de0b6b3a7640000612c25565b60135460405163a9059cbb60e01b81529192506001600160a01b03169063a9059cbb906117b1908790859060040161298f565b602060405180830381600087803b1580156117cb57600080fd5b505af11580156117df573d6000803e3d6000fd5b505050506040513d601f19601f8201168201806040525081019061180391906127e3565b507f7db63cd5f29ad11bb94c527b3f58c2baf72ee4836feb5ec5e8d4d363d9353e63848260405161183592919061298f565b60405180910390a1611849848460016120a5565b7ff20884684d39657969fc7e0adb7b6d57e2c376184e1463a57c1f86e5dd7a4392848460405161187a92919061298f565b60405180910390a161188b83611432565b7f87c0fbbae75bca381f225a2e2672796d1051ed70574f17324cda070f04d5cd3884846040516118bc92919061298f565b60405180910390a1821580156118da57506118d88460016103b1565b155b15610ed5576118fb8460018060405180602001604052806000815250611447565b611905600161156a565b506040516001600160a01b03851681527f25417c035cc0d6ba80fa9d9e33c3560b0d0ad9afe9c868ded4aed8f72eac8369906020015b60405180910390a150505050565b6001600160a01b03841661196f5760405162461bcd60e51b815260040161041990612b11565b33600061197b85611d67565b9050600061198885611d67565b9050611998838989858589611a81565b6000868152602081815260408083206001600160a01b038c168452909152902054858110156119d95760405162461bcd60e51b815260040161041990612b56565b6000878152602081815260408083206001600160a01b038d8116855292528083208985039055908a16825281208054889290611a16908490612bf9565b909155505060408051888152602081018890526001600160a01b03808b16928c821692918816917fc3d58168c5ae7397731d063d5bbf3d657854427343f4c083240f7aacaa2d0f62910160405180910390a4611a76848a8a8a8a8a611dc0565b505050505050505050565b600454600160a01b900460ff1615611aab5760405162461bcd60e51b815260040161041990612ae7565b6001600160a01b0385161580611ac857506001600160a01b038416155b80611adb57506001600160a01b03851630145b80611aee57506001600160a01b03841630145b611b3a5760405162461bcd60e51b815260206004820152601760248201527f48494c4f3a206e6f6e207472616e736665727261626c650000000000000000006044820152606401610419565b6112f7868686868686612235565b6001600160a01b0384163b156112f75760405163bc197c8160e01b81526001600160a01b0385169063bc197c8190611b8c90899089908890889088906004016128ec565b602060405180830381600087803b158015611ba657600080fd5b505af1925050508015611bd6575060408051601f3d908101601f19168201909252611bd39181019061281b565b60015b611c8357611be2612d34565b806308c379a01415611c1c5750611bf7612d4c565b80611c025750611c1e565b8060405162461bcd60e51b81526004016104199190612a8c565b505b60405162461bcd60e51b815260206004820152603460248201527f455243313135353a207472616e7366657220746f206e6f6e20455243313135356044820152732932b1b2b4bb32b91034b6b83632b6b2b73a32b960611b6064820152608401610419565b6001600160e01b0319811663bc197c8160e01b146115615760405162461bcd60e51b815260040161041990612a9f565b6001600854611cc29190612c44565b6008557f98f29bb5a6c3ae7fe62f8a0831c40149254dfbf11ab6ec843cbc92b6986db896600854604051611cf891815260200190565b60405180910390a1565b600954611d10906001612bf9565b60098190556008541015611d3457634e487b7160e01b600052600160045260246000fd5b7f20bac735f1753f7e637cbe64ffd341651152fec5eabdf81fc6ca5743e6ae02e4600954604051611cf891815260200190565b60408051600180825281830190925260609160009190602080830190803683370190505090508281600081518110611daf57634e487b7160e01b600052603260045260246000fd5b602090810291909101015292915050565b6001600160a01b0384163b156112f75760405163f23a6e6160e01b81526001600160a01b0385169063f23a6e6190611e04908990899088908890889060040161294a565b602060405180830381600087803b158015611e1e57600080fd5b505af1925050508015611e4e575060408051601f3d908101601f19168201909252611e4b9181019061281b565b60015b611e5a57611be2612d34565b6001600160e01b0319811663f23a6e6160e01b146115615760405162461bcd60e51b815260040161041990612a9f565b6000611e9582610fa9565b60408051606080820183526001600160a01b0387811680845260208085018981528587018881526000898152600f845288812080546001808201835591835291859020895160039093020180546001600160a01b03191692909716919091178655915191850191909155516002909301929092558451908152908101879052928301849052929350917fe51ee29f760306868b7bafee1f740fce6c665ec7754abd973733d03ded35c06f910161193b565b6000600f60006008548152602001908152602001600020805480602002602001604051908101604052809291908181526020016000905b82821015611fd2576000848152602090819020604080516060810182526003860290920180546001600160a01b0316835260018082015484860152600290910154918301919091529083529092019101611f7d565b50505050905060005b815181101561205457601182828151811061200657634e487b7160e01b600052603260045260246000fd5b6020908102919091018101515182546001810184556000938452919092200180546001600160a01b0319166001600160a01b039092169190911790558061204c81612cc3565b915050611fdb565b506010805460ff191660011790556040517f41df3c80bd12dbcc33254d0c956c6e2aa89ce09206b41106e3ea13692f1a4c0d906120959060119085906129f5565b60405180910390a16109986123e6565b6001600160a01b0383166121075760405162461bcd60e51b815260206004820152602360248201527f455243313135353a206275726e2066726f6d20746865207a65726f206164647260448201526265737360e81b6064820152608401610419565b33600061211384611d67565b9050600061212084611d67565b905061214083876000858560405180602001604052806000815250611a81565b6000858152602081815260408083206001600160a01b038a168452909152902054848110156121bd5760405162461bcd60e51b8152602060048201526024808201527f455243313135353a206275726e20616d6f756e7420657863656564732062616c604482015263616e636560e01b6064820152608401610419565b6000868152602081815260408083206001600160a01b038b81168086529184528285208a8703905582518b81529384018a90529092908816917fc3d58168c5ae7397731d063d5bbf3d657854427343f4c083240f7aacaa2d0f62910160405180910390a4604080516020810190915260009052611561565b6001600160a01b0385166122d85760005b83518110156122d65782818151811061226f57634e487b7160e01b600052603260045260246000fd5b60200260200101516003600086848151811061229b57634e487b7160e01b600052603260045260246000fd5b6020026020010151815260200190815260200160002060008282546122c09190612bf9565b909155506122cf905081612cc3565b9050612246565b505b6001600160a01b0384166112f75760005b835181101561156157600084828151811061231457634e487b7160e01b600052603260045260246000fd5b60200260200101519050600084838151811061234057634e487b7160e01b600052603260045260246000fd5b60200260200101519050600060036000848152602001908152602001600020549050818110156123c35760405162461bcd60e51b815260206004820152602860248201527f455243313135353a206275726e20616d6f756e74206578636565647320746f74604482015267616c537570706c7960c01b6064820152608401610419565b600092835260036020526040909220910390556123df81612cc3565b90506122e9565b600454600160a01b900460ff16156124105760405162461bcd60e51b815260040161041990612ae7565b6004805460ff60a01b1916600160a01b1790557f62e78cea01bee320cd4e420270b5ea74000d11b0c9f74754ebdbfc544b05a25861244b3390565b6040516001600160a01b039091168152602001611cf8565b80356001600160a01b0381168114610fd157600080fd5b600082601f83011261248a578081fd5b8135602061249782612bd5565b6040516124a48282612c96565b8381528281019150858301600585901b870184018810156124c3578586fd5b855b858110156124e1578135845292840192908401906001016124c5565b5090979650505050505050565b600082601f8301126124fe578081fd5b813567ffffffffffffffff81111561251857612518612d1e565b60405161252f601f8301601f191660200182612c96565b818152846020838601011115612543578283fd5b816020850160208301379081016020019190915292915050565b60006020828403121561256e578081fd5b61257782612463565b9392505050565b60008060408385031215612590578081fd5b61259983612463565b91506125a760208401612463565b90509250929050565b600080600080600060a086880312156125c7578081fd5b6125d086612463565b94506125de60208701612463565b9350604086013567ffffffffffffffff808211156125fa578283fd5b61260689838a0161247a565b9450606088013591508082111561261b578283fd5b61262789838a0161247a565b9350608088013591508082111561263c578283fd5b50612649888289016124ee565b9150509295509295909350565b600080600080600060a0868803121561266d578081fd5b61267686612463565b945061268460208701612463565b93506040860135925060608601359150608086013567ffffffffffffffff8111156126ad578182fd5b612649888289016124ee565b600080604083850312156126cb578182fd5b6126d483612463565b915060208301356126e481612dd6565b809150509250929050565b60008060408385031215612701578182fd5b61270a83612463565b946020939093013593505050565b6000806040838503121561272a578182fd5b823567ffffffffffffffff80821115612741578384fd5b818501915085601f830112612754578384fd5b8135602061276182612bd5565b60405161276e8282612c96565b8381528281019150858301600585901b870184018b101561278d578889fd5b8896505b848710156127b6576127a281612463565b835260019690960195918301918301612791565b50965050860135925050808211156127cc578283fd5b506127d98582860161247a565b9150509250929050565b6000602082840312156127f4578081fd5b815161257781612dd6565b600060208284031215612810578081fd5b813561257781612de4565b60006020828403121561282c578081fd5b815161257781612de4565b600060208284031215612848578081fd5b5035919050565b600060208284031215612860578081fd5b5051919050565b6000815180845260208085019450808401835b838110156128965781518752958201959082019060010161287a565b509495945050505050565b60008151808452815b818110156128c6576020818501810151868301820152016128aa565b818111156128d75782602083870101525b50601f01601f19169290920160200192915050565b6001600160a01b0386811682528516602082015260a06040820181905260009061291890830186612867565b828103606084015261292a8186612867565b9050828103608084015261293e81856128a1565b98975050505050505050565b6001600160a01b03868116825285166020820152604081018490526060810183905260a060808201819052600090612984908301846128a1565b979650505050505050565b6001600160a01b03929092168252602082015260400190565b6020808252825182820181905260009190848201906040850190845b818110156129e95783516001600160a01b0316835292840192918401916001016129c4565b50909695505050505050565b6000604082016040835280855480835260608501915086845260209250828420845b82811015612a3c5781546001600160a01b031684529284019260019182019101612a17565b50505092019290925292915050565b6020815260006125776020830184612867565b604081526000612a716040830185612867565b8281036020840152612a838185612867565b95945050505050565b60208152600061257760208301846128a1565b60208082526028908201527f455243313135353a204552433131353552656365697665722072656a656374656040820152676420746f6b656e7360c01b606082015260800190565b60208082526010908201526f14185d5cd8589b194e881c185d5cd95960821b604082015260600190565b60208082526025908201527f455243313135353a207472616e7366657220746f20746865207a65726f206164604082015264647265737360d81b606082015260800190565b6020808252602a908201527f455243313135353a20696e73756666696369656e742062616c616e636520666f60408201526939103a3930b739b332b960b11b606082015260800190565b6020808252818101527f4f776e61626c653a2063616c6c6572206973206e6f7420746865206f776e6572604082015260600190565b600067ffffffffffffffff821115612bef57612bef612d1e565b5060051b60200190565b60008219821115612c0c57612c0c612cf2565b500190565b600082612c2057612c20612d08565b500490565b6000816000190483118215151615612c3f57612c3f612cf2565b500290565b600082821015612c5657612c56612cf2565b500390565b600181811c90821680612c6f57607f821691505b60208210811415612c9057634e487b7160e01b600052602260045260246000fd5b50919050565b601f8201601f1916810167ffffffffffffffff81118282101715612cbc57612cbc612d1e565b6040525050565b6000600019821415612cd757612cd7612cf2565b5060010190565b600082612ced57612ced612d08565b500690565b634e487b7160e01b600052601160045260246000fd5b634e487b7160e01b600052601260045260246000fd5b634e487b7160e01b600052604160045260246000fd5b600060033d1115612d4957600481823e5160e01c5b90565b600060443d1015612d5a5790565b6040516003193d81016004833e81513d67ffffffffffffffff8160248401118184111715612d8a57505050505090565b8285019150815181811115612da25750505050505090565b843d8701016020828501011115612dbc5750505050505090565b612dcb60208286010187612c96565b509095945050505050565b80151581146110f557600080fd5b6001600160e01b0319811681146110f557600080fdfea2646970667358221220d587708859410a4d905d23ed6264d22e9507e005cfa2d7489dcd9b0ef59bfb2a64736f6c6343000804003368747470733a2f2f68696c6f2d65696768742e76657263656c2e6170702f6170692f746f6b656e732f7b69647d",
  "linkReferences": {},
  "deployedLinkReferences": {}
}